:020000022000DC
:106000000000012079630200616302006363020003
:10601000656302006763020069630200000000001C
:106020000000000000000000000000006B630200A0
:106030006D630200000000006F63020071630200E4
:1060400073630200736302007363020073630200F0
:1060500073630200736302007363020073630200E0
:1060600073630200736302007363020073630200D0
:1060700073630200736302007363020073630200C0
:1060800073630200736302007363020073630200B0
:106090007363020073630200D1670200736302003E
:1060A0007363020073630200736302007363020090
:1060B0007363020073630200000000000000000030
:1060C0007363020073630200736302007363020070
:1060D0007363020073630200736302000000000038
:1060E00000000000000000000000000000000000B0
:1060F00000000000000000000000000000000000A0
:10610000000000000000000000000000000000008F
:10611000000000000000000000000000000000007F
:10612000000000000000000000000000000000006F
:10613000000000000000000000000000000000005F
:10614000000000000000000000000000000000004F
:10615000000000000000000000000000000000003F
:10616000000000000000000000000000000000002F
:10617000000000000000000000000000000000001F
:10618000000000000000000000000000000000000F
:1061900000000000000000000000000000000000FF
:1061A00000000000000000000000000000000000EF
:1061B00000000000000000000000000000000000DF
:1061C00000000000000000000000000000000000CF
:1061D00000000000000000000000000000000000BF
:1061E00000000000000000000000000000000000AF
:1061F000000000000000000000000000000000009F
:10620000364937480A1A02D0072291438D4635494C
:1062100035480A1A06D00722914381F309880222E1
:1062200082F3148831483249324A00F045F8324846
:106230003249334A00F040F832483349334A00F0DB
:106240003BF833483349344A00F036F83348344990
:10625000344A00F031F834483449354A00F02CF81B
:1062600034483549354A00F027F835483549002289
:1062700000F02DF834483549002200F028F8344861
:106280003449091A082903DB002202600430016046
:10629000314A90471F482049884205D0026804309F
:1062A00003B4904703BCF7E700208646EC46002085
:1062B00000212A4A9047FEE7884207D0521A05D0AB
:1062C000037801300B700131013AF9D170478842EF
:1062D00002D002700130FAE7704700000000012090
:1062E00000E0002000000120000001202C730200CB
:1062F000B8570020BC570020D8630200D8630200C2
:10630000B47202002C730200B8570020B857002066
:10631000BC720200BC720200BC720200BC720200BD
:10632000BC720200BC720200BC720200BC720200AD
:106330002C73020030730200BC570020BC570020B1
:10634000BC570020485C0020485C0020485C0020CE
:10635000485C0020487C0020A163020075640200B4
:10636000FEE7FEE7FEE7FEE7FEE7FEE7FEE7FEE705
:10637000FEE7FEE7704700BF1048804710484FF027
:106380000701884385460F4880470F48016841F45C
:1063900070010160BFF34F8FBFF36F8FFFF730BF06
:1063A0000A480B490B4A884207D0521A05D0037895
:1063B00001300B700131013AF9D170477563020069
:1063C000000001204D65020088ED00E0BC72020073
:0863D000B8570020B857002067
:1063D8001FB50021039001AA44F20100CDE9011183
:1063E80000F004F805B05DF804FB000072B6094B34
:1063F8001B68DB0700D500BEBFF34F8F0649074B6C
:10640800CA6802F4E0621343CB60BFF34F8F00BF4A
:10641800FDE700BFF0ED00E000ED00E00400FA0544
:106428000B684A684360934208BF0023016008BFB5
:1064380043607047436843B10268916852680B44EF
:106448009342436004BF0023436070474FF0A0426B
:106458000123D2F8041503FA00F020EA01030840EA
:10646800C2F80835C2F80C057047000008B54FF0AF
:10647800A0430322C3F85027C3F86827C3F874273A
:106488004FF48012C3F80C250F4C104E4FF0806269
:10649800C3F80C254FF00052C3F80C2544F0010452
:1064A8001420FFF7D3FF1A20FFF7D0FF1D20FFF7B6
:1064B800CDFF4FF47A754FF47A40A047013DFAD1E9
:1064C800304600F075FAEBE7C0720200C6720200AF
:1064D8000C4B1B78062B10D10B4B1B681A070CD1E1
:1064E8000A4B186800F0F003302B08D000F0E000E9
:1064F800A0F14003584258417047002070470120DE
:10650800704700BFE00F00F0E40F00F0E80F00F064
:10651800094B1B78062B0CD1084B1B681A0708D1AE
:10652800074B186800F0F000A0F1300358425841BA
:1065380070470020704700BFE00F00F0E40F00F044
:10654800E80F00F008B5FFF7C3FF28B17D4B7E4A7E
:106558001B68C3F304231360FFF7DAFF10B17B4B0A
:106568007B4A1A60FFF7B4FF28B17A4B7A4A1B6856
:10657800C3F342331360FFF7CBFF20B1774AD368E8
:1065880023F08073D360FFF7A3FF40B14FF080433F
:106598000022C3F80C21C3F81021C3F83825FFF7EF
:1065A800B7FF10B16E4B03221A60FFF7B1FF40B17D
:1065B8006C4B05221A6001229A6700229A603F22DA
:1065C8005A60694B1B78062B50D1684B1B6819071A
:1065D8004CD1674B1B6803F0F003502B46D14FF0AA
:1065E8008052644BD2F80414C3F82015D2F808146A
:1065F800C3F82415D2F80C14C3F82815D2F81014CF
:10660800C3F82C15D2F81414C3F83015D2F818149E
:10661800C3F83415D2F81C14C3F84015D2F8201466
:10662800C3F84415D2F82414C3F84815D2F828142E
:10663800C3F84C15D2F82C14C3F85015D2F83014FE
:10664800C3F85415D2F83414C3F86015D2F83814C6
:10665800C3F86415D2F83C14C3F86815D2F840148E
:10666800C3F86C15D2F84424C3F87025FFF730FF3F
:1066780028B1414B414A1B6803F04F031360FFF7F1
:1066880027FF48B14FF08043D3F80024D20744BF16
:106698006FF00102C3F80024394B1B68062B08D1A0
:1066A800384B1B68062B01BF374A136843F48063D5
:1066B8001360364AD2F8883043F47003C2F8883041
:1066C800BFF34F8FBFF36F8F4FF01023D3F8002223
:1066D800002A03DBD3F80432002B2FDA2C4B0122DB
:1066E800C3F80425D3F80024002AFBD04FF0102269
:1066F8001521C2F80012D3F80024002AFBD04FF06D
:1067080010231522C3F80422214B1A46D3F800148B
:106718000029FBD00021C3F80415D2F80034002B5F
:10672800FBD0BFF34F8F19491A4BCA6802F4E062D5
:106738001343CB60BFF34F8F00BFFDE7164B174ADB
:106748001A6008BD240300104035014074C007409A
:106758000DF0ADBA440200103C050040F0ED00E039
:10676800A005004010560040E00F00F0E40F00F0D4
:10677800E80F00F000C0004058020010E40E00408E
:1067880030010010340100103C17004000ED00E01B
:1067980000E001400400FA05B85700200090D0033B
:1067A80007B508496846FFF73BFE019B13B903B0DC
:1067B8005DF804FBD3E9002090476846FFF73AFEEE
:1067C800F3E700BFD8720200FFF7EABF4BDF70475C
:1067D8001FB50D4C01A8FFF7F9FF70B9214602A8B3
:1067E800FFF71EFE039B002BF4D00198D3E900218C
:1067F800904702A8FFF71EFEF4E7052801D0FFF72F
:10680800E7FD04B010BD00BFE47202000369C1686F
:106818008B429DBF8268D21802F1FF3203F1FF3329
:1068280094BF501A581A70472DE9F041D0E9026711
:106838000446F61B4068964288461546384405D9F2
:1068480000F021F93D44E560BDE8F0813246AD1B1A
:1068580000F019F92A4608EB0601606800F013F900
:10686800F1E72DE9F843C5680646894617464FF013
:1068780000083469B3687068A54228BFE418013C71
:10688800621B5C1BBC4228BF3C46944228BF14468E
:1068980049462844224600F0F6F8B3682544AB423E
:1068A80008BF00253F1BA044A144F560E1D1404644
:1068B800BDE8F88310B5114C114AA2610223C4E95E
:1068C8000433104BE361A2644FF480630E4A2362E1
:1068D800E264002310220D49A362E01D6362E362B3
:1068E800A3656365E365226500F0F6F8084920466C
:1068F80000F0F2F82023A37110BD00BFBC570020A0
:10690800F07202004458002034580020F972020046
:10691800FD720200F8B5184C182300FB033503FB81
:1069280000402544C46A012C0F46164611D003D3F3
:10693800022C1BD000240AE02846FFF767FF864296
:1069480005D8324639462846FFF76EFF34462046BA
:10695800F8BD2846FFF75AFF8642344628BF04464A
:10696800224639462846FFF75FFFF0E72846BDE88C
:10697800F840FFF776BF00BFBC570020F8B50B4BB7
:106988001B7805460E4617460BB9FFF793FFEFF342
:1069980011844FF0200181F311883A463146284688
:1069A800FFF7B8FF84F31188F8BD00BFBC5700207B
:1069B8000FB410B5A2B024AB802153F8042B019377
:1069C80002A800F052F802A9044602460020FFF788
:1069D800D5FF204622B0BDE8104004B0704738B556
:1069E80004460846A26842B1236861685D1C8D426E
:1069F80008BF00208B4208D2D054E3682BB121682D
:106A08006268914201D22146984723680133236086
:106A180038BD70B54C1E09D41646C5B22946304655
:106A2800FFF7DDFF013CB4F1FF3FF7D170BD10F077
:106A3800100F09D108B500F40070002814BF3020E9
:106A48002020FFF7E6FF08BD704703784BB151B12E
:106A58000144034613F8012F0AB18B42FAD1181AE0
:106A680070470346FBE70346F9E710B584B01446C0
:106A780002900022039201911A462146684600F0CE
:106A88007DF804B010BD844640EA010313F0030FFB
:106A980018D18446202A0BD32DE9F007B1E8F8076E
:106AA800A0E8F807A2F12002202AF7D2BDE8F007F3
:106AB800042A07D351F8043B40F8043BA2F104022E
:106AC800042AF7D2002A05D011F8013B00F8013B4F
:106AD800013AF9D160467047024610F0030F16D10B
:106AE80011F0030F13D12DE9F0004FF001374FF0EB
:106AF800803351F8044BA4EB070525EA04051D4033
:106B080002D142F8044BF4E7A1F10401F0BC11F8FA
:106B1800013B02F8013B002BF9D1704700F101015C
:106B280010F0030F11D010F8012B002A23D010F019
:106B3800030F0AD010F8012B002A1CD010F0030F05
:106B480003D010F8012B002A15D02DE970004FF062
:106B580001324FF0803350F8044BA4EB020525EACC
:106B680004051D4000D1F6E7A0F1040070BC10F840
:106B7800012B002AFBD1A0EB010070472DE9F04F53
:106B880089B080460F46039200230360DFF81CA6F5
:106B980080E3002502E045F040052646344614F817
:106BA800010BA0F120033E2B00F2948001A252F8C1
:106BB80023F000BF9F6B0200DD6C0200DD6C020059
:106BC800B96C0200DD6C0200DD6C0200DD6C0200B5
:106BD800BF6C0200DD6C0200DD6C0200DD6C02009F
:106BE800CB6C0200DD6C0200D16C0200DD6C02008F
:106BF800DD6C0200D76C0200DD6C0200DD6C020067
:106C0800DD6C0200DD6C0200DD6C0200DD6C020050
:106C1800DD6C0200DD6C0200DD6C0200DD6C020040
:106C2800DD6C0200DD6C0200DD6C0200DD6C020030
:106C3800DD6C0200DD6C0200DD6C0200DD6C020020
:106C4800DD6C0200DD6C0200DD6C0200DD6C020010
:106C5800DD6C0200DD6C0200DD6C0200DD6C020000
:106C6800DD6C0200DD6C0200DD6C0200DD6C0200F0
:106C7800DD6C0200DD6C0200DD6C0200DD6C0200E0
:106C8800DD6C0200DD6C0200DD6C0200DD6C0200D0
:106C9800DD6C0200DD6C0200DD6C0200DD6C0200C0
:106CA800DD6C0200DD6C0200DD6C0200C56C0200C8
:106CB80045F0800571E745F400456EE745F48055D9
:106CC8006BE745F0200568E745F0100565E745F4F2
:106CD800007562E72A2814D0A0F13003DBB2092B33
:106CE8000DD8002101EB8101303800EB410114F887
:106CF800010BA0F13003DBB2092BF3D90CE0002122
:106D08000AE0039B1A1D039219680029BCBF494277
:106D180045F01005B41C707821EAE1762E280FD0D2
:106D28000021742830D07A282ED06C2800F0AC804E
:106D38004C2800F0AE80682800F0BB80274625E08C
:106D480020782A2815D00134A0F13003DBB2092BB2
:106D58000DD8002101EB8101303800EB410114F816
:106D6800010BA0F13003DBB2092BF3D907E00021B6
:106D780007E0039B1A1D0392196860780234002902
:106D8800CFDB45F48075CCE7671C2078782800F2C3
:106D98009C80DFE810F05C029A009A009A009A0042
:106DA8009A009A009A009A009A009A009A009A000B
:106DB8009A009A009A009A009A009A009A009A00FB
:106DC8009A009A009A009A009A009A009A009A00EB
:106DD8009A009A009A009A009A009A009A009A00DB
:106DE8009C009A009A009A009A009A009A009A00C9
:106DF8009A009A009A009A009A009A009A009A00BB
:106E08009A009A009A009A009A009A009A009A00AA
:106E18009A009A009A009A009A009A009A009A009A
:106E28009A009A009A009A009A009A009A009A008A
:106E38009A009A009A009A009A009A009A009A007A
:106E48009A009A009A000A019A009A009A009A00F9
:106E58009A009A009A009A009A009A00A1004701A5
:106E68009A009A009A009A0047019A009A009A009C
:106E78009A00BA003401F3009A009A00CD009A00F3
:106E880040019A009A000C01671C207845F0010522
:106E98007CE745F00105C14B1F68002F00F0C58154
:106EA80003AB0193009133462A464146B84727462B
:106EB800F0E12078682803D0671C45F0040565E7F1
:106EC80045F00805A71C607860E73C46E3E7252104
:106ED8004046FFF784FDDDE1039B1A1D03921C78F1
:106EE800013E424631462846FFF7A1FD214640466D
:106EF800FFF775FDA94619F0100F00F0CB81424647
:106F080031462020FFF785FDC4E115F0080F07D0B2
:106F1800D8F80020039B191D03911B681A70B9E16A
:106F2800039B1A1D03921B68D8F800201A60B1E170
:106F3800039B1A1D03921868994B002808BF18462E
:106F4800044625F4007915F4807F13D0FFF77DFD02
:106F58000546761B424631464846FFF768FD002D38
:106F6800C9D0254414F8011B4046FFF738FDA54257
:106F7800F8D1C0E7FFF7D2FD0546EAE7039B1A1DE3
:106F880003921B6805F08002002A0CBF002423240A
:106F980045F480750821002B00F02D814FF0000981
:106FA80005F4005005AA8E46D4E045F4005515F0C6
:106FB800800F22D043F2780443F25803782818BF90
:106FC8001C4615F4807F01D025F4007515F4804F18
:106FD80036D0039B1A1D03921B6815F0040F27D0A7
:106FE8001BB2002B29DB15F0200F40F0868005F03E
:106FF8004002002A18BF20242AE00024E1E705F017
:107008008003002B0CBF0024302415F4807FDDD0D2
:1070180025F40075DAE715F4807F07D025F40075AC
:107028000024D3E745F480450024CFE70024CDE7CA
:1070380015F0080F18BFDBB2D3E75B422D2407E039
:10704800039B1A1D03921B6815F0040F50D09BB2C6
:1070580015F4807F14BF25F40075012158382028C5
:1070680000F2C68001A252F820F000BF9F6F020014
:10707800F9710200F9710200F9710200F971020058
:10708800F9710200F9710200F9710200F971020048
:10709800F9710200F9710200F97102002971020008
:1070A800F9710200F9710200F9710200F971020028
:1070B80029710200F9710200F9710200F9710200E8
:1070C800F9710200F9710200077102009F6F020056
:1070D800F9710200F9710200F9710200F9710200F8
:1070E80029710200F9710200F97102009F6F020014
:1070F80015F0080FACD0DBB2AAE72B24A8E763B1E0
:1071080005A84FF0000903F00702303200F8012B00
:1071180009F10109DB08F6D127E04FF0000924E066
:1071280053B14FF0000905F4004C4FF02C0E9B466C
:1071380063468C4619464CE04FF0000915E003F011
:107148000F0C184911F80CC009F802C009F101091F
:107158001B0909D00028F2D003F00F0C124911F8CE
:107168000CC009F802C0F1E77146A1EB090B2BEA44
:10717800EB7BA6EB0B06A6EB0906FF2C88BF06F1F6
:10718800FF36002C66D0013E15F4007F36D0FF2C68
:107198003ED8E1B24046FFF722FC5EE0445C0020A6
:1071A800247302000473020014730200CDCCCCCC0B
:1071B80008AB03EB0900AAFB0B32D20802EB8203EF
:1071C800ABEB4303303300F80C3C09F1010993465B
:1071D80062B10029ECD009F00303032BE8D108AB16
:1071E8004B4403F80CEC09F10109E1E76146BCE7FF
:1071F8004FF00009B9E74FF00009B6E742463146BB
:107208002846FFF714FCFF2C01D8002605E00026CD
:10721800C4F307214046FFF7E2FBF4B1B9E7424661
:1072280031462020FFF7F5FB34E0274632E0D8F856
:1072380008303BB1D8F80020D8F804108A423CBF87
:1072480000219954D8F8000009B0BDE8F08F4FF03C
:10725800FF30F9E715F4007FD0D042463146284682
:10726800FFF7E5FB424659463020FFF7D2FBB9F15C
:10727800010F0CD408AB9944A9F10D090DF11304C1
:1072880019F801194046FFF7AAFB4C45F8D115F04B
:10729800100FC4D17E1C39780029C8D025293FF4A5
:0C72A80078AC4046FFF79BFB3746F3E74D
:0872B400D96702000000000090
:1072BC00000000000338FDD870470A6E657720691E
:1072CC007465726174696F6E2E2E0000B4720200C8
:1072DC00BC72020008000000B4720200B47202001A
:1072EC00080000005465726D696E616C0052545454
:1072FC000053454747455200303132333435363729
:10730C00383961626364656630313233343536370F
:10731C003839414243444546286E756C6C2900004F
:04732C000090D003FA
:0400000320006379FD
:00000001FF
