:020000022000DC
:106000000000042079630200616302006363020000
:10601000656302006763020069630200000000001C
:106020000000000000000000000000006B630200A0
:106030006D630200000000006F63020071630200E4
:106040006582020073630200C5840200736302006C
:106050007363020073630200218302007363020012
:1060600073630200736302007363020073630200D0
:1060700073630200736302007363020073630200C0
:1060800073630200916E0200736302007363020087
:106090002D6F0200736302005DAF020073630200A4
:1060A0007363020073630200736302007363020090
:1060B0007363020073630200000000000000000030
:1060C0007363020073630200736302007363020070
:1060D0007363020073630200736302007363020060
:1060E0007363020073630200736302000000000028
:1060F00000000000736302000000000073630200F0
:10610000000000000000000000000000000000008F
:10611000000000000000000000000000000000007F
:10612000000000000000000000000000000000006F
:10613000000000000000000000000000000000005F
:10614000000000000000000000000000000000004F
:10615000000000000000000000000000000000003F
:10616000000000000000000000000000000000002F
:10617000000000000000000000000000000000001F
:10618000000000000000000000000000000000000F
:1061900000000000000000000000000000000000FF
:1061A00000000000000000000000000000000000EF
:1061B00000000000000000000000000000000000DF
:1061C00000000000000000000000000000000000CF
:1061D00000000000000000000000000000000000BF
:1061E00000000000000000000000000000000000AF
:1061F000000000000000000000000000000000009F
:10620000364937480A1A02D0072291438D4635494C
:1062100035480A1A06D00722914381F309880222E1
:1062200082F3148831483249324A00F045F8324846
:106230003249334A00F040F832483349334A00F0DB
:106240003BF833483349344A00F036F83348344990
:10625000344A00F031F834483449354A00F02CF81B
:1062600034483549354A00F027F835483549002289
:1062700000F02DF834483549002200F028F8344861
:106280003449091A082903DB002202600430016046
:10629000314A90471F482049884205D0026804309F
:1062A00003B4904703BCF7E700208646EC46002085
:1062B00000212A4A9047FEE7884207D0521A05D0AB
:1062C000037801300B700131013AF9D170478842EF
:1062D00002D002700130FAE770470000000004208D
:1062E00000E003200000042000000420E8CC0200AD
:1062F000982A0020142B0020D8630200D8630200E3
:1063000024BD0200E8CC0200982A0020982A002030
:1063100018BE020018BE020018BE020018BE02001D
:1063200018BE020018BE020018BE020018BE02000D
:10633000E8CC020064CD0200142B0020142B0020B6
:10634000142B0020B83C0020B83C0020B83C0020B2
:10635000B83C0020B85C0020A16302001D9602003A
:10636000FEE7FEE7FEE7FEE7FEE7FEE7FEE7FEE705
:10637000FEE7FEE7704700BF1048804710484FF027
:106380000701884385460F4880470F48016841F45C
:1063900070010160BFF34F8FBFF36F8FFFF730BF06
:1063A0000A480B490B4A884207D0521A05D0037895
:1063B00001300B700131013AF9D170477563020069
:1063C00000000420317D020088ED00E018BE0200CC
:0863D000982A0020982A002001
:1063D8007047000007B5044B0093044A402300F0BF
:1063E80032F803B05DF804FBF9630200152B0020B6
:1063F8002DE9F84389461446B2B10F4B0F4E0325D9
:10640800002743F00108224609EB0701002003F0AA
:106418003DFB0744241A48B933782BB14FF47A402E
:10642800C047013D02D13570BDE8F88301233370C0
:10643800002CE8D1F8E700BF20BE0200142B002092
:10644800704703F057BBF0B595B01C461646084692
:106458000D4601F0A2FB1A9B0D93CDE908640024B8
:106468002346082205A928460A948DF82C400C9446
:1064780001F0B1FB079B0293BDF81830ADF80C3062
:10648800BDF81A30ADF80E309DF814308DF8114073
:1064980003F00302012A1DD1BDF81440059EC3F381
:1064A800C203C4F383148DF81030A20008230EA988
:1064B800284601F090FBC6F3952608AB00932246C8
:1064C80002AB0EA9304600F05DFB284601F069FBDF
:1064D80015B0F0BD022AF8D1BDF81640C3F3C203C7
:1064E800A4098DF810300827082C264628BF08264E
:1064F8003B4632460EA9284601F06DFBA41B08ABAB
:1065080002AA31460EA8374400F0A0FB002CEBD1BC
:10651800DBE7000008B5FFF794FF0421034800F00B
:106528009FFA034B01225A7108BD00BF08BE020042
:10653800982A0020037813F0040216D003F003030E
:10654800012B03D0022B09D0012070470A6800886C
:106558000232C0F3831002440A60F5E70B684288F0
:10656800023303EB92130B60EEE71046704700000E
:106578002DE9F04F89B00546861C08A8484C0192C1
:1065880000230F4600F8113D00F0CAFF23683B6066
:10659800D4E901231344226801339B1A04F21C47EF
:1065A80004F5836A04F21448B3421AD3019A00230B
:1065B800002A6DD0012262F3010343F0040365F35E
:1065C80089132168A2689DF80F000A4003320E441F
:1065D80044F82230266000F0C7FF012009B0BDE86A
:1065E800F08F0121384601F01CF8504601F02FF8D1
:1065F800404601F02CF80DF120096068D4F808B085
:1066080049F8100D00EA0B00033004EB80004946FE
:10661800FFF790FF049BB0B90BEA030204EB820278
:10662800D16805919A1C013303EA0B0B04EB8B0C20
:1066380001F00303012B0492DCF80CB020D0022BEC
:1066480004D083460BE00BEA0300DDE7BDF8163003
:106658009B0903334FEA1B4B02EB93030493404619
:1066680000F0F8FF08B1049B63605946384600F013
:10667800D8FFD4E901231344226801339B1A93E716
:10668800BDF81430C3F383134FEA1B4B1344E5E7FB
:10669800022262F3010343F0040365F39F5390E77A
:1066A800282C00200B4B0C48FF2210B59A600022C2
:1066B800C3F81824C3E90022C3F8142483F820245B
:1066C80001F024FA044610B9044801F0CDFA204636
:1066D80010BD00BF282C00208CBD020044BE020063
:1066E80030B50A4C71B10A4A0A49121BD208002374
:1066F8009A4201D1002030BD31F82350854202D0A2
:106708000133F5E7034654F83300F4E7A0BD02006F
:1067180008BE0200982A0020094B013903EBC0008B
:10672800032909D8DFE801F00A02040604207047AB
:106738000079704740797047002070470220704701
:10674800A0BD0200034BD3E90030C31A5842584198
:10675800704700BF282C00202DE9F04387B0FFF7D1
:10676800F1FF0646002840F0FC807F4DC5F818046C
:10677800BFF34F8F6868AC6806AF47F8100D20402C
:10678800033005EB80003946FFF7D4FE029B18B1B1
:10679800D5F81824002A5FD004EA0302991C0133B3
:1067A80005EB8202234005EB8303D268DB68049380
:1067B80002F00303022B0392029162D1BDF80E305E
:1067C8006A484FEA9318B8F1500FC14628BF4FF0F6
:1067D800500969F38F1309F10801ADF80E3001F083
:1067E800ADF90746002800F0A78001F0D6F903A903
:1067F80000230822384601F0E3F9029924EA010649
:106808000136B600B14535D95FFA89F97EB3F6B2DB
:10681800A9EB0609214003315FFA89F4B146544EC9
:1068280005EB810108234A46384601F0C9F936B11B
:1068380009F1080322463146384601F0C1F9029BA6
:1068480008F1030803EB98030293D5F81834002BDA
:106858004BD1D5F810445BE02A689A4204D86A60A4
:10686800304607B0BDE8F08304EA030088E74049F2
:106878003446D7E72140033108234A4605EB810116
:10688800DAE7012B58D1BDF80C303848C3F383112F
:10689800062928BF062161F3891302318900ADF862
:1068A8000C3001F04BF90746002845D001F075F986
:1068B8000023082203A9384601F082F90026BDF812
:1068C8000C20C2F38312B31C96424FEA8303BCD256
:1068D80002994A1C21400331029205EB81010422EE
:1068E800384601F06DF90136E9E7384601F059F903
:1068F800FFF728FF80F00100C6B2B1E7E3685B79D3
:1069080023B1236839461B6820469847E3681C680A
:10691800002CF3D1384601F044F906A800F8114DCF
:1069280000F0FEFDD5F818340BB9029B6B609DF89A
:10693800070000F019FEDBE7D5F8104454B90D4BF9
:106948000D480E49C01AC008000440F0020000F0CB
:106958006FF8CDE7236820469B689847E3681C6872
:10696800ECE700267CE700BF282C00208CBD020045
:10697800342C0020A0BD0200C8BD020050BE020099
:106988002DE9F74F284C80460F46924601A901226F
:1069980018469B46D4F80890FFF7EAFD88B3019D96
:1069A8000026A91C5E4506EB010234D100211F48D0
:1069B80000F00CFE80F310006A1C02EA090204EBE6
:1069C8008202000405EA0903033340EA1840D06054
:1069D80014F8232068F3C50204F8232034F8232090
:1069E80066F3891224F8232054F82320012167F341
:1069F8009F2244F8232061F301026FF3820204F816
:106A0800232094F820341BB1FFF7A6FE0028FBD101
:106A180003B0BDE8F08F09EA020204EB82025AF8DB
:106A28002630D3600136BDE7282C002044300020F2
:106A380000231A46FFF7A4BF13B502AC012344F89C
:106A4800042D2246FFF79CFF02B010BD07B5CDE923
:106A5800002302236A46FFF793FF03B05DF804FBA7
:106A680030B50F49D1F81024002314463CB9C46846
:106A7800237152B9C1F810042260184630BDE46889
:106A880025799D4206D02468F0E7D2681168216014
:106A98001060F2E701330A2BE7D14FF0FF33ECE740
:106AA800282C0020094A38B50123D2F8104482F86E
:106AB80020341D4604B938BDE3685D71236820465B
:106AC8005B689847E3681C68F4E700BF282C00203F
:106AD800037A052B10B50C460FD0437A23B1084A28
:106AE8000849204600F017FE0749204600F013FE2B
:106AF8002046BDE8104000F003BE002AF8D0F3E7B6
:106B08009BBE0200A0BE0200B1C50200C38873B5D7
:106B180004460D4633B1144A00921449144A2846D3
:106B280000F0F9FD217A05291CD0637A4BB1A088C1
:106B3800FFF7F2FD0F4B104953F82020284600F0CC
:106B4800EAFD227A0D4BA08853F822600021FFF756
:106B5800C7FD0B4903463246284602B0BDE87040DF
:106B680000F0D9BD02B070BD9BBE0200ABBE0200F2
:106B7800A3BE020068BE0200A0BE0200D0BE020092
:106B8800C3BE02002DE9F04385B01F460C9D0023CB
:106B980006460C46904695F80C902B7329463846C5
:106BA800FFF7B4FFB8F1060F09D8DFE808F00412C0
:106BB800181F283340003146284600F0ACFD00225B
:106BC80029463846FFF784FF85F80C9005B0BDE8E4
:106BD800F08322683146284600F09DFDEFE7D4E9AE
:106BE80000233146284600F096FDE8E7A3680093A5
:106BF8003146D4E90023284600F08DFDDFE7E3683D
:106C08000193A36800933146D4E90023284600F095
:106C180082FDD4E723690293E3680193A368009394
:106C28003146D4E90023284600F075FDC7E76369BB
:106C3800039323690293E3680193A36800933146A1
:106C4800D4E90023284600F066FDB8E708292DE9B5
:106C5800F84F80460E4617461C4636D8002593F84E
:106C68000C901D7319461046FFF750FFDFF87CA003
:106C7800DFF87CB0AE422AD918F8052059462046DC
:106C880000F049FD0135082DF4D11649DFF864B04C
:106C9800204600F040FD0025AE421DD918F805A099
:106CA800504604F0BDFB002814BF52462E22594618
:106CB800204600F030FD0135082DEDD10122214696
:106CC8003846FFF705FF84F80C90BDE8F88F514669
:106CD800204600F020FDD5E70349204600F01BFDC3
:106CE800E9E700BF96BE020094BE020092BE020011
:106CF8008CBE020098BE02001FB50021039001AAB5
:106D080044F20100CDE9011100F004F805B05DF886
:106D180004FB000008B572B6FFF7C4FEFFF71CFDC0
:106D28000028FBD1074B08480849C01AC0080004CE
:106D380040F00100FFF77CFE054B1B68DB0700D520
:106D480000BE08BDA0BD0200C8BD02002FBF0200E2
:106D5800F0ED00E049B152B1531E1A4007D18260EC
:106D680001608380C260104670470E20704709207A
:106D7800704710B58468C2688388121B934208D391
:106D8800C26813400268D154C3680133C36000204D
:106D980010BD0420FCE78268C3689A420AD0826862
:106DA800838813400268D35C0B7083680133836067
:106DB8000020704705207047094A537891780133BD
:106DC800DBB2994208BF0023117899421FBF0370B4
:106DD8005078182303FB002014BF043000207047AC
:106DE800E430002073B5054602A8002400F8014DE0
:106DF8000E4600F095FB0DF10600FFF7DDFF90B1A0
:106E080006700A4B9DF8062045605A709DF80700E9
:106E180000F0AAFB24B9064B4FF48012C3F80021F6
:106E2800204602B070BD0424F0E700BFE430002023
:106E380000E100E0024B4FF43C6043F001031847C7
:106E480040BF020038B50C4B0C4C4FF40032C3F86D
:106E5800802001254FF48033C4F84833C4F8083340
:106E68006560FFF7E7FF064BA56000241C60FFF78D
:106E7800E1FF044B1C7038BD00E100E00010014048
:106E880000320020F1310020F8B51F4B1F491B6864
:106E98000025C1F84051C1F84451C1F84851C1F822
:106EA8004C51C1F80051C1F804514BB3D1F8044515
:106EB80017490968641A24F07F442F461A68A242C9
:106EC80009D8A41A15441A7CDE691AB11F74D3E9CB
:106ED80005209047AEB90F4B0F4A197813788B42AB
:106EE80005D10133DBB2022B08BF002313701278DF
:106EF8000A4B43F822500A4B4FF48012C3F8002182
:106F0800F8BD3346DAE700BF043200200010014024
:106F180000320020FC310020FD310020F431002037
:106F280000E100E02DE9F74F9E4A9F491378097860
:106F38009E4D99423CD00133DBB2022B08BF00239F
:106F480013709B4912789B4B0F6853F822003B182B
:106F580023F07F4300220B602B68164614469446A4
:106F680013B942B12B6006E0196881420ED902B10B
:106F78002B60091A19604FF001082B68DFF83CA252
:106F880000930027BEB9DFF83CB260E0401A0C4419
:106F9800D968C3F800C0D3F81CE031B13A1922F01F
:106FA8007F42C3E90121DE611E4601227346D7E70D
:106FB8000026B046E1E73446F6697D4A6368126800
:106FC800DFF804C2A068991A21F07F41614500F2F8
:106FD800A58001442160012222742A680023C4E9A3
:106FE8000133E361002A40F0A2802C60CAE75A1CF2
:106FF8009BF80210D2B291428BF8002004BF002205
:107008008BF80020182202FB03B32A6819799C68C0
:10701800022974D003297ED0012918D1217CB1B965
:10702800DA6862601A69A2605A699B69A361624B57
:10703800E2601B78002BC0D06160BEE79C4200F084
:1070480093809946DB69002BF8D1002323749BF8C1
:1070580000309BF801209A42C9D12B682FB9009AB9
:10706800934202D1B8F1000F43D0002B79D0D3F866
:1070780000A0524D4E4BD5F804751C68DFF84C81C2
:107088003E1B98F8003026F07F4603369BB94FF434
:107098008033C5F84433C5F80433494B4FF4003204
:1070A8004FF00109C3F880211A60C5F80090FFF776
:1070B800C1FE88F80090B2452CBF5444A41924F0AE
:1070C8007F44C5F84045D5F80435DB1B23F07F43E2
:1070D800E41B033324F07F44A3420AD9D5F80435CE
:1070E800C5F84035FFF7A6FE354B4FF40032C3F81C
:1070F8000021314B00221A7003B0BDE8F08F13460F
:107108009146A0E71174D2690123002AFAD1002B15
:107118009DD02A609BE700231946F6E7D31A23F08F
:107128007F43834234BFC31A0023236053E7216897
:107138001368994213D8591A1160E26155E7091A80
:10714800D8691A4638B1034618688842F7D3401AF6
:107158001860184613462160E061DC6112E71346A7
:10716800F2E7FFF76FFEC4E74C450DD1D3692B60FA
:1071780053B90F4801920121CAF8081003600E4B59
:107188001970FFF757FE019AE1692368C9F81C10C6
:1071980011B1086803440B602B689A4218BF012795
:1071A80053E700BFFC310020FD31002004320020ED
:1071B80000320020F4310020F0310020001001409E
:1071C80000E100E0E4300020FEFF7F00F131002004
:1071D80008B5FFF737FE104B00200B2218809A7075
:1071E8000E4B18600E4B18700E4B18700E4B4FF468
:1071F8008012C021C3F8802183F814131A6002F1A9
:107208008042A2F56F22C2F8080583F81113074BD4
:10721800D2F804251A6008BDE430002004320020AA
:10722800FC310020FD31002000E100E000320020A8
:10723800074B9B784BB132B128B10368187C20B951
:1072480059745A617047072070470820704700BF7B
:10725800E43000202DE9F7431D4FBB7805460E4664
:1072680090469BB390B304292ED9436973B3437CEA
:1072780002A80024012B00F8014D0CBF8946A14645
:1072880000F04EF90DF10600FFF796FDD0B101238D
:107298000370104B4560D3F80435C0E90498C0E981
:1072A80002369DF806307B709DF8070000F05CF907
:1072B80024B9094B4FF48012C3F80021204603B0CB
:1072C800BDE8F0830424EFE70724F7E70824F5E78F
:1072D800E43000200010014000E100E0064A927806
:1072E8003AB130B1426922B1002202740221FFF79B
:1072F80079BD0820704700BFE43000200648074ADF
:1073080003780749D35C012213B1043001F050BD62
:107318000C3001F015BB00BFA02A002074320020F9
:10732800303200200648074A03780749D35C012217
:1073380013B1043001F0ECBC0C3001F0ABBA00BF63
:10734800A02A0020743200203132002037B5057899
:10735800012D04D035D3022D28D003B030BD4368A9
:107368001F4C19782046FFF704FD78B11D4B01909A
:107378008DF800501B6868469847A168E368A288A2
:107388005B1A9A420ED3FFF7B9FFE6E7A268E368F3
:107398009A42F2D002AB134A03F8080D1268184655
:1073A8009047EAE7104B01221A70D6E7C3680193A9
:1073B8008DF80050FFF7A2FF0A4B1B6868469847F4
:1073C800CBE70A490A48FFF7E6FC10B9FFF7AAFF1E
:1073D800C3E702A8032300F8083D024B1B68EEE749
:1073E8000C320020083200201C32002031320020EC
:1073F80020320020F0B51F46234B89B006461A609C
:107408000C4600293DD08A8820480968FFF7A2FC6D
:10741800002834D1A289A1681D48FFF79BFC0028E9
:107428002DD11C4D0FCD6C460FC495E80F0084E894
:107438000F0073690693337C174A18488DF81C703F
:10744800003318BF01238DF81430737C002B14BF50
:107458000E2300238DF81530F3680293B368039365
:107468003368019369467368009300F081FE30B970
:107478000B4B18703368013301D0FFF73FFF09B099
:10748800F0BD0720FBE700BF083200200C320020C7
:107498002032002048BF020055730200A02A0020B5
:1074A8001C32002070B5084C014608482678FFF7C2
:1074B80072FC054636B100232370FFF71FFF08B1A1
:1074C800FFF71AFC284670BD1C3200200C32002041
:1074D80010B501460E48FFF74CFC0446A8B90D4804
:1074E8000D4A0378D35C63B1043001F055FC60B9F0
:1074F8000A490748FFF74FFC38B9BDE81040FFF7C5
:1075080011BF0C3001F010FAF1E7204610BD00BFA2
:1075180020320020A02A00207432002031320020BE
:1075280070B5EFF3108672B60C4A946801239CB9C3
:1075380093600B4B0B4DD3F8801029401160C3F8B2
:107548008050D3F8841051604FF0FF32C3F8842084
:10755800047006B962B670BD0370FAE734320020D1
:1075680000E100E0FC06FFBD084B9A6810B55AB16F
:1075780050B9EFF3108172B6054A1C6814605C6854
:107588005460986001B962B610BD00BF3432002063
:1075980000E100E001F01F024B090121914000EBDE
:1075A800830000F01DB801F01F0301229A404B0927
:1075B80000EB8300D14300F029B84B0901F01F010B
:1075C80050F82300C84000F00100704750E8002F31
:1075D8000B4640E8003C9CF0000FF7D1104670477E
:1075E80050E8003F43EA010240E8002C9CF0000FFD
:1075F800F6D11046704750E8002F02EA010340E830
:10760800003C9CF0000FF6D11046704750E8003F50
:1076180003EA010240E8002C9CF0000FF6D1104666
:10762800704750E8003F03EB010240E8002C9CF053
:10763800000FF6D11046704750E8003FA3EB010257
:1076480040E8002C9CF0000FF6D11046704701214D
:10765800FFF7C6BF0021FFF7CEBF10B590B1D0E944
:10766800012301689B1ADBB20A60013BDBB2FF2BE6
:10767800026802D10020107110BD11684C1C146002
:107688000B70F2E70E20F7E737B5054602A800248D
:1076980000F8014DFFF744FF2A686B6811689942AA
:1076A8000ED9481E106011F8014CEB68298A01FBBD
:1076B8000434AB6811791B1ADBB2994238BF1371D5
:1076C8009DF80700FFF750FF204603B030BD37B5DF
:1076D800054602A8002300F8013D0C46FFF720FFED
:1076E8002A681368591C1160E968641A298AB4FB6E
:1076F800F1F41C709DF80700FFF736FF03B030BDAA
:10770800826810B504462AB1436901680069984740
:107718000023A36010BD0EB403B5039929B102AAD2
:1077280004AB42F8043D00F06BF802B05DF804EBDE
:1077380003B07047826830B40468551C8560A15452
:10774800D0E901329A4202D330BCFFF7D9BF30BC2E
:10775800704700002DE9F84F9946DDE90A431746BE
:10776800824688460A460126BA420FD24E4538BF9D
:107778004E4613F0010B01D164B900240125B9F17B
:10778800010F1AD909F1FF397D43F8E7B2FBF7F287
:107798000136E9E79B070ED5B9F1000F0CBF30257C
:1077A8002025A642EAD2013C29465046FFF7C2FFEF
:1077B800002CF6D1E1E72025F3E7B8FBF5F39F426B
:1077C800E2D9DFF83890B8FBF5F3504619F8031002
:1077D80005FB1388FFF7AEFFB5FBF7F5002DF2D1D7
:1077E800BBF1000F02D00CB1A64201D3BDE8F88F5F
:1077F80020215046013CFFF79DFFF4E768BF0200D7
:107808002DE9F74F054690460E46002900F03A81CB
:1078180016F8011B002958D0252940F0D1800027EF
:1078280002E047F001071646324612F8013B2D2BBD
:10783800F7D0302B04D02B2B05D147F00407F2E703
:1078480047F00207EFE700242A2B06F101021BD1BB
:10785800D8F80030191D1B68C8F800101C441646DB
:1078680033782E2B1CD101364FF0000A314611F81F
:10787800012BA2F13000092814D80A2303FB0A239C
:10788800A3F1300A0E46F1E712F8013CA3F13001EA
:107898000929E5D80A2101FB0434303C1646D3E710
:1078A8004FF0000A324612F8011B01F0FB0068286D
:1078B8001646F8D0692916D054D8582970D00ED851
:1078C80025297DD03378002BA2D12B7B002B00F00B
:1078D800D980284603B0BDE8F04FFFF711BF6329F0
:1078E80068D06429EED1D8F80020D2F80090111D94
:1078F80089EAE972C8F80010A2EBE9724FF0010BAF
:10790800092A61DCD34538BFD3462CB1B9F1000F41
:1079180001DB790700D5013CBA0702D5BAF1000F9F
:1079280004D0FB0702D4002C54D10024B9F1000F75
:1079380058DAC9F100092D212846FFF7FBFE07F0A8
:107948000302022A05D1BAF1000F02D1002C4DD151
:107958000024CDE9004753460A2249462846FFF746
:10796800F9FEAFE7732954D016D87029AAD1D8F8F0
:1079780000301A1DC8F80020302128461C68FFF77F
:10798800D9FE78212846FFF7D5FE00220823CDE945
:10799800003221461022E1E775292FD0782991D1AC
:1079A800D8F800100A1DC8F80020CDE90047534652
:1079B80010222CE0D8F800301A1D1978C8F80020D9
:1079C8002846FFF7B7FE7DE70A230BF1010B92FB70
:1079D800F3F295E7A345A9D220212846013CFFF7F9
:1079E800A9FEA0E77807AAD52B21A5E7A345B0D221
:1079F80030212846013CFFF79DFEA7E7D8F8001084
:107A0800CDE900470A1DC8F8002053460A22096834
:107A1800A4E7D8F800301A1DC8F80020F907D3F8F1
:107A2800009012D54F46A7EB090B17F8011B41B977
:107A3800A345BFF447AF20212846013CFFF77AFE53
:107A4800F6E72846FFF776FEEDE7B9F1000F17D005
:107A5800484603F099FD0746BC4200D954B909F1DC
:107A6800FF3919F8011F00293FF42CAF2846FFF70A
:107A780061FEF6E720212846013CFFF75BFEEBE7B5
:107A88004F46E9E703B0BDE8F08F2DE9F047B0F8BD
:107A980006904479D2F800A09DF8208009FB04F4F0
:107AA800043C06460AEB0300A0420F4688BFA4EB3D
:107AB800030A191DC2F800A0B1FBF9F509FB15115D
:107AC8004DB9A9EB0104544528BF5446BAF1000F3B
:107AD80004D1BDE8F0873668013DF1E704317B1930
:107AE80070182246B8F1000F0ED001461846AAEBCE
:107AF800040A03F0CBFCD145254436684C464FF0C8
:107B0800000128BF5446E1E71946F0E7FFF7A5BD95
:107B1800F8B546790146721E0546002393422D6842
:107B280003D30024A64202D8F8BD0133F6E70F6854
:107B38002846FFF7CCFD01343946F3E72DE9F84331
:107B4800068ACD1C0746FFF79FFD043E35440446D0
:107B5800B5FBF6F5F0B14FF48073EDB28380C680C3
:107B6800013D076081464FF00008A84512D238460B
:107B7800FFF78AFD064648B163790133637108F15E
:107B88000108C9F8000007608146EEE72046FFF7C4
:107B9800BFFF34462046BDE8F88301210430FFF7D3
:107BA80040BD10B5012104460430FFF745FD10F033
:107BB800FF0F04D12046BDE81040FFF7A9BF10BD54
:107BC8001FB504AC44F8042D002200922246FFF7AA
:107BD8005CFF04B010BD1FB504AC44F8042D0122AD
:107BE80000922246FFF751FF04B010BD41DF7047F5
:107BF800064B10B500241C70054B1C60BFF35F8F4B
:107C08000449054800F039F8204610BD48320020E4
:107C18004C32002078BF02004032002007B502A88D
:107C2800002300F8013DFFF77BFCF1EE103A23F04A
:107C38009F03E1EE103ABFF35F8F0A4B4022C3F86F
:107C480084219DF80700FFF78FFC03F069F920B144
:107C5800FFF7CCFF03B05DF804FB20BF40BF20BF97
:107C6800F8E700BF00E100E0836800225A609A60EC
:107C7800C3E90422DA601A6070470B684A684360F7
:107C8800934208BF0023016008BF43607047436800
:107C980043B10268916852680B449342436004BF41
:107CA80000234360704700000D4930B5A1F5947278
:107CB8000225914201D800200EE08B1ADB1093FBBD
:107CC800F5F302EBC30452F83330834205D802D2ED
:107CD80004F10802EDE7606830BD2146E9E700BF1E
:107CE800C8C0020008B5FFF7DFFF024B002808BF35
:107CF800184608BD8DBF020010B50446C0B2FFF794
:107D0800E7FB204610BD0000054B1B68082B01BF90
:107D1800044B1868B0FA80F0400918BF002070477B
:107D2800300100103401001008B54FF080430022E4
:107D3800C3F80C21C3F81021C3F838254FF080523E
:107D480003F54043D2F80414C3F82015D2F80814F8
:107D5800C3F82415D2F80C14C3F82815D2F8101457
:107D6800C3F82C15D2F81414C3F83015D2F8181427
:107D7800C3F83415D2F81C14C3F84015D2F82014EF
:107D8800C3F84415D2F82414C3F84815D2F82814B7
:107D9800C3F84C15D2F82C14C3F85015D2F8301487
:107DA800C3F85415D2F83414C3F86015D2F838144F
:107DB800C3F86415D2F83C14C3F86815D2F8401417
:107DC800C3F86C15D2F84424C3F87025FFF79CFF5C
:107DD80010B1384B384A1A60FFF796FF18B1374B85
:107DE800FB22C3F81825FFF78FFF48B13449354BFC
:107DF8000A681B6822F00F0203F00F0313430B609D
:107E0800FFF782FF18B1304B4FF400721A604FF041
:107E18008043D3F80024D20744BF6FF00102C3F8AF
:107E280000242A4AD2F8883043F47003C2F8883014
:107E3800BFF34F8FBFF36F8F4FF01023D3F800229B
:107E4800002A03DBD3F80432002B2FDA204B01225F
:107E5800C3F80425D3F80024002AFBD04FF01022E1
:107E68001221C2F80012D3F80024002AFBD04FF0E8
:107E780010231222C3F80422154B1A46D3F8001413
:107E88000029FBD00021C3F80415D2F80034002BD8
:107E9800FBD0BFF34F8F0D490E4BCA6802F4E06266
:107EA8001343CB60BFF34F8F00BFFDE70A4B0B4A6C
:107EB8001A6008BD8C5600404881030000F000405D
:107EC800E40E0040580200104096024000ED00E029
:107ED80000E001400400FA05B42A00200090D00315
:107EE800074B1B5C1F2B8ABF064A4FF0A04203F0CA
:107EF8001F03D2F80405D840C04300F001007047C2
:107F080086C4020000030050074B1B5C1F2B86BF72
:107F180003F01F0305494FF0A041012202FA03F3C1
:107F2800C1F80C35704700BF86C40200000300503A
:107F3800074B1B5C1F2B86BF03F01F0305494FF03F
:107F4800A041012202FA03F3C1F80835704700BFC7
:107F580086C402000003005008B50020FFF7E8FFC0
:107F68000120FFF7E5FF0220FFF7E2FF0320BDE84D
:107F78000840FFF7DDBF08B50020FFF7C5FF012067
:107F8800FFF7C2FF0220FFF7BFFF0320BDE808404C
:107F9800FFF7BABF0A4B185C1F288ABF094B4FF07E
:107FA800A04300F01F00D3F804250121814021EAF5
:107FB80002000A40C3F80805C3F80C25704700BF43
:107FC80086C4020000030050074B1B5C1F2B8ABFAE
:107FD800064A4FF0A04203F01F03D2F81005D8401C
:107FE800C04300F00100704782C402000003005043
:107FF80038B5084C04F108030546002818BF1C468C
:1080080023682BB11A6822605B6828469847F7E70F
:1080180038BD00BF5832002020B9054B01225A70E4
:10802800FFF7E6BF012802D1014A9070F8E77047D0
:108038005032002020B9034B01225A70FFF7D8BFF5
:10804800704700BF5032002038B50B4C237883B9F5
:108058000A486360A3602361E36000F0D1F8054635
:1080680002F05EFF08B900F0D9F801232370284612
:1080780038BD8525FBE700BF503200202180020073
:1080880037B502A80023094C00F8013DFFF748FA6C
:10809800E368013BE360E56815B900F0D3F8A57023
:1080A8009DF80700FFF760FA03B030BD503200209A
:1080B800012813B509D003D303281BD002B010BD83
:1080C8000F4B0122C3F88020F8E702A800230D4CCB
:1080D80000F8013DFFF724FA23780BB9FFF7B4FF46
:1080E800E3689DF807000133E3600123A370FFF7FD
:1080F8003BFAE3E700F092F8FFF7C2FFDEE700BFC4
:1081080000E100E0503200201FB503788DF8003000
:1081180043680193037A8DF80830C3680393054ACE
:10812800054B684653F8213052F82110984705B09E
:108138005DF804FB643200206C3200201FB5037820
:108148008DF800304368019383688DF80830C36860
:108158000393054A054B684653F8213052F821101D
:10816800984705B05DF804FB643200206C320020AB
:10817800F0B5194B0678DFF870E043F82620174B66
:1081880094460A6943F826204B7F0EF806300C46C1
:1081980007460FCC89B06D460FC594E80F0085E8F7
:1081A8000F001EF80630049653B1BCF1000F0C4ABC
:1081B800694608BF0022381D00F0C8FC09B0F0BDB0
:1081C800BCF1000F074A694608BF002207F10C00FE
:1081D80000F086FAF2E700BF6C320020643200201B
:1081E80011810200458102007432002000F18040B4
:1081F800002382B0036003680193019B02B07047BB
:10820800054A13792BB90121106011715371184671
:1082180070478520704700BF78320020084B1A68E5
:10822800D20706D4C02283F800230122C3F8802194
:108238001A604FF080430122C3F81825704700BF29
:1082480000E100E0044B01221A604FF08042D2F8AE
:108258001834DB03FBD470470C000040124B1B683A
:1082680010B573B14FF48070FFF7C0FF4FF0804333
:108278000122C3F808230D4B587910B95A711B68AD
:1082880098470B4B1B6873B14FF48270FFF7AEFF32
:108298004FF080430222C3F80823044B01201B68D7
:1082A800BDE81040184710BD00010040783200209A
:1082B8000401004000F1804000F5C040002382B076
:1082C800036003680193019B02B0704703681F2B8A
:1082D80083BF03F01F03036001484FF0A0407047BD
:1082E8000003005007B502AB43F8040D1846FFF72A
:1082F800EDFF019B00EB8300D0F8003723F44033F7
:10830800C0F80037D0F8003743EA0141C0F8001739
:1083180003B05DF804FB00002DE9F04F002489B09C
:10832800CDE902445F4A604E604D01211368A2F511
:10833800C040012B80B206D1D6F804330B4202D0DC
:10834800FFF7B8FF0C430432AA424FEA4101EDD1CE
:10835800574B1B68012B0ED14FF4BE70FFF7AAFFD5
:108368004FF0A04344F00044D3F810350293514B2A
:10837800D3F81035039314F0FF0F1AD04E4F002591
:108388000126344210D0AB0003F1804303F5C0430B
:10839800D3F81005D3F8101557F82530C0F3052089
:1083A800C1F3014103B198470135082D4FEA46064C
:1083B800E7D1002C72DA04AE0023049373604FF007
:1083C800FF33CDE906333C4F4FF0010800252C461A
:1083D8007B1993F96020531C47D0D2B222F0C00910
:1083E80008A84FEAD90300EB030B02F007011BF8BA
:1083F800080C08FA01F1084237D007EB0900920986
:1084080090F9300057F820A0BAF1000F05D1032ADF
:108418002BD1F05C0843F05401E0032AF9D001A8FD
:10842800CDF80490FFF752FF019B03F5E07350F875
:1084380023301BF8180C0842C3F3014305D0022B64
:1084480013D1032A0BD1114604E0032B0DD1032AC3
:1084580005D102214846FFF745FF0134E4B2BAF1DD
:10846800000F02D011464846D0470135042DAFD140
:10847800A4B14FF0A0430299D3F8102503F5407337
:108488009142D3F8103502D10399994206D002924D
:108498000393049A059B0692079397E709B0BDE8F2
:1084A800F08F00BF00610040006000402061004084
:1084B8007C6100400003005080320020014B1B68A3
:1084C800184700BFEC3200200D4B984237B50D46D7
:1084D80010D102A8002300F8013DFFF721F8094B4D
:1084E8001C7914B901221D601A719DF80700FFF765
:1084F8003BF814B9002003B030BD1120FBE700BFE2
:1085080000200040EC3200200023435082B0435842
:108518000193019B02B070470A4610B54FF48E7163
:10852800FFF7F2FF136A9168C95C136A013313629B
:10853800C0F81C1510BD024608B54FF492710068CA
:10854800FFF7E2FF4FF484711068FFF7DDFF13684F
:1085580001221A6008BD8B690A4610B54FF4847170
:1085680023B9FFF7D1FFD0F8183510BDFFF7CCFFBE
:10857800536AD168D0F81805C854536A0133536256
:10858800F3E700001FB501238DF80030044BCDE957
:108598000110D3E900126846904705B05DF804FB66
:1085A800F432002030B54C4AD2F8043313F4007F7B
:1085B80085B015464FD0D2F82431002B4BD04FF45C
:1085C80092711046FFF7A0FF4FF40173C2F8083309
:1085D800424B93F8291009B9012151603E49022202
:1085E8008DF80020D1F88024C1F8802403929A697C
:1085F8000292DA6801920022C3E906226846D3E9AA
:10860800001290473448D0F81C315BB133490A6AEC
:108618004B699A420A464BD291F82830002B47D131
:10862800FFF77AFF2C4AD2F8443193B14FF4A27184
:108638001046FFF769FF294B93F8291009B101216A
:1086480011609A692AB100229A61586AD968FFF7BD
:1086580099FF05B030BDD5F804335B07D2D5D5F8FE
:108668000831002BCED01D4C1B482146FFF773FF65
:10867800636AA2699A422346C4D1E269E1684AB1B1
:108688002369E3600023606AA261E3616362FFF724
:1086980079FFB7E794F829200AB901226A600E4ADF
:1086A8004FF40170C2F8080300229A61586AEEE795
:1086B8004FF48E710848FFF727FF51690029B1D0A0
:1086C8000023029191688DF800300191536168464A
:1086D800D2E900139847A5E700200040F4320020B3
:1086E8002DE9F843664B047991462C2202FB0432AB
:1086F800064692F82A200D469846002A40F0BC808B
:1087080060490068FFF7E0FE0746002840F0B680A1
:1087180029684A1C10D01F2987BF01F01F035A4A35
:108728000B464FF0A0420120984003F5E073C2F8D1
:108738000805032042F823006868431C0DD01F2851
:108748008BBF00F01F0303464F4A4FF0A04203F5CA
:10875800E0734FF0000C42F823C03368AA6995F81B
:1087680014C0C3F824256A7DBCF1010F4CEA02024B
:10877800C3F86C25C3F81405C3F80C152BD1A968E8
:10878800481C0DD01F298BBF01F01F020A463E4826
:108798004FF0A04002F5E0724FF0000C40F822C004
:1087A800E868421C13D01F2887BF00F01F0C364A08
:1087B80084464FF0A0424FF0010E0EFA0CFE0CF565
:1087C800E07CC2F808E54FF0030E42F82CE0C3F84D
:1087D8000805C3F810152C23634308EB0302C2F8FD
:1087E80004902A6948F80320B9F1000F31D04FF4FA
:1087F8008E7130682D7FFFF787FE30684FF4A271C5
:10880800FFF782FE3268214BC2F80433120B53B2D1
:10881800002BA8BF03F160404FEA53134FEA4511FC
:10882800BABF1B4802F00F0500F561404FEA830309
:10883800C9B203F16043B4BF415580F8001303F592
:10884800614302F01F02012101FA02F2C3F88021FC
:108858001A6033680422C3F800252C2303FB048321
:108868000022C3E9062283F829205A61012283F8ED
:108878002A203846BDE8F8830827FAE71127F8E7E1
:10888800F4320020AD850200000300508000020091
:1088980014ED00E02DE9F843224F06794FF02C093A
:1088A80009FB067480466569002D37D16261A160B5
:1088B80025624FF48E71006884F82850FFF724FE73
:1088C800D8F80000012383602146FFF725FE63687E
:1088D800A1462BBBD8F80050226A63699A4212D38A
:1088E800D8F80030D3F81C21002AFBD00122DA6026
:1088F80000202C2303FB067600237361BDE8F88370
:1089080094F8283043B9D5F81C31002BF8D04946E3
:108918002846FFF701FEDFE70F20EAE71120EDE721
:108928002846EBE7F43200200379044A2C2101FBA6
:1089380003235869003018BF01207047F432002023
:108948002DE9F843384E05792C2303FB05630746C8
:108958005C6824B103684FF40170C3F808032C2342
:1089680003FB0563986950B1D86900283ED024B14B
:108978003B684FF40172C3F80423112034E09A6174
:10898800D9605862D8612C2303FB056393F829301A
:108998001BB910B93846FFF7CEFD4FF02C0909FB7B
:1089A80005683868D8F80430002B34D14FF4A27128
:1089B800FFF7AAFDC1463868D0F82431D0F808215D
:1089C800D0F84441B2B90CB9002BF4D02C2202FBE8
:1089D80005650022AA611BBB24BB95F829103B68DA
:1089E8000122B1B11A600020BDE8F8831961DA618B
:1089F8000120C8E7002BE9D1002CE7D14946FFF751
:108A0800AAFDD8F82430D8F818209A42D3D823469B
:108A1800DCE75A60E7E74FF40173C0F80433E2E794
:108A28000320E1E70F20DFE7F43200200023435062
:108A380082B043580193019B02B070471FB50123D0
:108A48008DF80030054B8DF8080001916846D3E990
:108A58000012904705B05DF804FB00BF20330020EA
:108A68007FB5384AD2F82461002E49D010464FF419
:108A78009271FFF7DBFF02238DF80030D2F88034C3
:108A8800C2F880340393D2F83C358DF808302E4B69
:108A9800DA6801920022C3E906226846D3E9001287
:108AA8009047284AD2F8443173B14FF4A271104666
:108AB800FFF7BCFF244B996931B100219961D2F8C5
:108AC8003C05D968FFF7BAFF1E4AD2F82031ABB18E
:108AD8004FF490711046FFF7A9FF1B4B596969B114
:108AE800D2F84C158DF80810002299688DF80020EE
:108AF80001915A616846D3E90012904704B070BDED
:108B0800D2F81031002BCCD04FF488711046FFF703
:108B18008DFF0D4BD2F83C0599698842C1D1DC69BB
:108B2800D96864B1D2F8005225F02005C2F8005285
:108B38001A699C61DA60DE61FFF780FFB1E79C612A
:108B4800FAE700BF00200040203300202DE9F84359
:108B58006A4B06799146242202FB0632044692F8B3
:108B680020200D469846002A40F0C48064490068D9
:108B7800FFF7AAFC0746002840F0BE802868421C80
:108B880010D01F2887BF00F01F035E4A03464FF02E
:108B9800A0420121994003F5E073C2F808150321AA
:108BA80042F8231069684B1C0DD01F298BBF01F0B8
:108BB8001F030B46534A4FF0A04203F5E0734FF0F2
:108BC800000C42F823C02368AA6995F814C0C3F8BA
:108BD80024256A7DBCF1010F4CEA0202C3F86C251A
:108BE800C3F80C05C3F814152BD1A968481C0DD07F
:108BF8001F298BBF01F01F020A4642484FF0A040D0
:108C080002F5E0724FF0000C40F822C0E868421C00
:108C180013D01F2887BF00F01F0C3A4A84464FF034
:108C2800A0424FF0010E0EFA0CFE0CF5E07CC2F8E3
:108C380008E54FF0030E42F82CE0C3F80805C3F826
:108C480010152423734308EB0302C2F804902A6921
:108C580048F80320B9F1000F3BD04FF48871206821
:108C68002D7FFFF7E3FE4FF490712068FFF7DEFEDB
:108C78004FF492712068FFF7D9FE20684FF4A27173
:108C8800FFF7D4FE2268204BC2F80433120B53B20C
:108C9800002BA8BF03F160404FEA53134FEA451178
:108CA800BABF1A4802F00F0500F561404FEA830386
:108CB800C9B203F16043B4BF415580F8001303F50E
:108CC800614302F01F02012101FA02F2C3F8802178
:108CD8001A6023680822C3F80025242303FB0683AF
:108CE8000022C3E906225A61012283F8202038466F
:108CF800BDE8F8830827FAE71127F8E720330020B2
:108D0800698A0200000300501003020014ED00E01D
:108D180001F06043B3F1005F2DE9F041074632D11D
:108D28001C4B0679242505FB063598466C6964BBFF
:108D38006A61A96000684FF49071FFF777FE4FF4FD
:108D4800AC713868FFF772FE3B686A69A968C3F8B6
:108D58004415C3F8482501229A606A68BAB9D3F85D
:108D68002011D3F8582149B9002AF8D00F2024231C
:108D780003FB068600237361BDE8F081002A14BF57
:108D88000F200020F3E71020F6E71120F4E7204633
:108D9800F2E700BF203300200379044A242101FBB5
:108DA80003235869003018BF012070472033002082
:108DB800F8B501F06043B3F1005F04460F465ED199
:108DC8000379304D242101FB0351486820B1216803
:108DD8004FF40476C1F80863242101FB03539E690C
:108DE80056B1D969002939D020B123684FF40472EB
:108DF800C3F80423112030E09A61DF60DE614FF48C
:108E080088712068FFF712FE4FF4A2712068FFF7FF
:108E18000DFE2368C3F83475C3F8382516BB012244
:108E28001A602279242101FB0251496809BBD3F851
:108E38001041D3F84411D3F8240114B909B9002812
:108E4800F5D0242303FB02550023984214BF0320C6
:108E580018469942AB6118BF0F20F8BD1F61DA614F
:108E68000126CCE7D3F8002242F02002C3F8002202
:108E7800D7E74FF40472C3F804230020EDE710206D
:108E8800EBE700BF2033002008B5094B1B7853B12E
:108E98000020FFF74DF80120FFF74AF80320BDE84E
:108EA8000840FFF745B8BDE80840FFF755B800BFD0
:108EB80044330020F8B57B4C237805461BB10023CA
:108EC8002370FFF7E1FF172D00F28880DFE805F037
:108ED8000C17174354657680888D888D959A9A9AD1
:108EE8009A9AC4C9D1D9E4E4FFF7CEFF6E48FEF7D9
:108EF800F5F96E4B002204461A702046F8BD002092
:108F0800FEF7EEFFF8B10020FFF712F8022D0CBFB4
:108F18004FF4E1614FF47A61644B1D704FF40040E7
:108F28004FF4FA740025E0FB01454FF47A720023F0
:108F38002046294602F07EF9002201465A48BDE83B
:108F4800F840FEF787B9FEF7DFFF022D0CBFC821F6
:108F58004FF4C871E0E70020FEF7C2FF40B10020DF
:108F6800FEF7E6FF4FF44871504B03221A70D5E71D
:108F7800FEF7CAFFC821F7E70020FEF7B1FF38B1B6
:108F88000020FEF7D5FF4FF47A61484B0422EDE745
:108F9800FEF7BAFF4FF4C871F7E70020FEF7A0FF0D
:108FA80048B10020FEF7C4FF404B05221A7041F675
:108FB8009A110022C2E7FEF7A7FFF5E70020FEF7A7
:108FC800E9FF3A4B06221A70002240F6CD41B5E778
:108FD8000020FEF799FF354B07221A7000248CE712
:108FE80001202070FEF7D6FFEEE701202070FEF783
:108FF800D1FF00224FF48041A0E7FEF7BCFF2B4BC6
:109008000C22EAE72A482B4EFEF768F9D5F111053C
:1090180004461CD0D8B9012D13D0C8235D434FF4A2
:1090280000474FF4FA7000214FF47A720023C7FB0F
:10903800050102F0FFF8224601461D48FEF70AF92D
:1090480004460220FEF760FF0123337055E7022033
:10905800FEF76EFF0023F8E7FFF716FF134B122207
:10906800BBE7FFF711FF0020FEF74EFF0F4B13225F
:10907800B3E7FFF709FF0120FEF746FF0B4B142269
:10908800ABE7FFF701FF0020FEF73EFF0120FEF7E8
:109098003BFF064B1522A0E7FEF76DFF034B1D7043
:1090A8009CE700BF983300206833002099330020E4
:1090B8004833002044330020032801D8FEF784BF3A
:1090C80000207047044B1B6813F0010301D0FFF721
:1090D800F1BE1846704700BF94330020032812D809
:1090E800012A0BD1012908D100F10E02D2B200EBFE
:1090F80040000C4B1A540020704700220129F6D07A
:1091080009D3022901D007207047064B00EB400025
:1091180018444270EFE7034B00EB4000184482709C
:10912800E9E700BF8833002008B5012202210020AA
:10913800FFF7D4FF08B1072810D107220221012028
:10914800FFF7CCFF08B1072808D100210A220846FA
:10915800FFF7C4FF10B1072808BF002008BD0000B2
:109168000388102B10B502D0112B1ED010BD1A4C3D
:109178002168B1B901220846FFF7B0FF08B10728F6
:1091880024D1072202210120FFF7A8FF08B10728F0
:109198001CD1042202210020FFF7A0FF08B10728F4
:1091A80014D1236801332360E0E70B4A1368013BBD
:1091B8001360002BDAD1FFF7B7FF0028D6D0074B92
:1091C8001B68002BD2D0BDE810401847034B1B6822
:1091D800002BE6D09847E4E7A03300209C3300201A
:1091E8000D4B10B518600C4629B10120FFF764FF3C
:1091F80040B102232370094B1B6853B9BDE81040E6
:10920800FFF792BFFFF758FF08B10B23F2E7207072
:10921800F1E7002010BD00BF9C330020A0330020E0
:1092280072DF704773DF704776DF704777DF70470C
:109238007ADF70477CDF70477FDF70478FDF7047CA
:10924800B1DF704767DF70473FDF70477047FDF752
:1092580053BD00000D4B4A881B889A4214D10A88D6
:1092680040F677239A420FD18B88094A09480A4960
:10927800033B9BB21380094A801AC00800041A46AF
:1092880040F00300FDF7E2BB704700BFCC2A002086
:10929800CA2A0020C8BD020016C50200A0BD0200EF
:1092A80008B503784BB9054B3B211888FFF7BCFF7D
:1092B80018B1BDE80840FDF71FBD08BDCC2A002045
:1092C8000378F7B56BBB184C184D20782844FEF787
:1092D800E9F823780133DBB21D44237015F8012C1B
:1092E8000A2A05D00D2A03D0114A12889A4218D8A2
:1092F800012B14D90F4D0D4E0F4F237802AA31467A
:1093080022F8023D38462B8801F050FD082806D087
:109318001328F2D0052802D008B1FDF7EDFC002390
:10932800237003B0F0BD00BF98340020A4330020A0
:10933800CA2A0020CC2A0020D02A002038B5054DA2
:109348004FF4967445F001054FF47A40A847013C64
:10935800FAD138BD10C50200FDF7CEBC202806BFE3
:109368000020044B4FF0A04300F5E070032243F8BF
:1093780020207047000300501F2886BF00F01F0000
:10938800044A4FF0A042012303FA00F0C2F808058E
:10939800704700BF000300501F2886BF00F01F0061
:1093A800044A4FF0A042012303FA00F0C2F80C056A
:1093B800704700BF000300502DE9F04105780646CC
:1093C800002D47D1244C254BDFF89480E41AE4089B
:1093D800240444F00104B28A95420AD33369134441
:1093E80013F8013C0D2B16D10A20FEF771F811284D
:1093F800F9E73369585DFEF76BF8074648B111285D
:10940800F7D0024641462046FDF716FB3846FDF7E1
:1094180073FC0135DFE7B38A062B1BD133691A7851
:109428004C2A17D15A78652A14D19A78642A11D10E
:10943800DA784F2A0ED11B796E2B04D11120BDE8A2
:10944800F041FFF7A9BF662B04D11120BDE8F04118
:10945800FFF792BFBDE8F081C8BD0200A0BD0200C1
:10946800F3C50200C0B2013882B006280AD8DFE886
:1094780000F00B04040709090400044802B070470F
:109488000348FBE70348F9E70348F7E725C6020066
:109498002CC6020032C602001EC602000388212B19
:1094A80013B5044650D024D8112B32D0132B70D0CA
:1094B800102B23D13F4B40484049C01AC008000434
:1094C80040F00300FDF7B4FA3D4B012207201A7063
:1094D800FFF7F8FD08B1FDF70FFC3A4BA1883A48B1
:1094E800198001F0F1FA48B102B0BDE81040FDF76B
:1094F80003BC3B2B08D003D8222B2AD002B010BDC6
:10950800522B4ED0562BF9D11321A088FFF78CFE91
:10951800E9E7284B28482D49C01AC008000440F044
:109528000300FDF785FA274B4FF6FF721A80BFF349
:109538004F8F2749274BCA6802F4E0621343CB6078
:10954800BFF34F8F00BFFDE723498088FFF776FE02
:10955800C9E7037A232BD1D0427A8DF80420827A86
:109568008DF80520144C134A1C490198A41A1C4A6A
:10957800E408002B18BF0A46FFF774FF240444F0E0
:10958800030418490346204602B0BDE81040FDF721
:109598005DBA0C4800231A4685210088FFF74CFE67
:1095A800A1E7084800231A4619460088FFF748FE35
:1095B80099E700BFA0BD0200C8BD0200D6C40200E2
:1095C80099340020CC2A00204C370020E0C4020047
:1095D80000ED00E00400FA05F42A0020CDC40200E2
:1095E800C4C40200EDC4020008B50849084801F0E7
:1095F80049F908B1FDF780FBF721054801F057F953
:1096080018B1BDE80840FDF777BB08BD5D920200C0
:109618001437002030B5C04D0FCD97B007AC0FC43C
:1096280095E80300BD4BBE4A01934FF4807384E86C
:109638000300CDE903230293BA4A072301A907A827
:10964800FDF7D8FE08B1FDF757FB4FF400410020A5
:10965800FDF728F808B1FDF74FFBFCF75BFFFDF7B6
:10966800B7FD08B1FDF748FB07A90020FFF7B8FDD3
:1096780008B1FDF741FB4FF0A0430C22C3F80C27BB
:109688000D20FFF76BFE1120FFF768FE1320FFF790
:1096980065FE2020FFF762FE0D20FFF77DFE1120FA
:1096A800FFF77AFE1320FFF777FE2020FFF774FEFE
:1096B800FFF744FE0D20FFF75FFE1120FFF75CFE69
:1096C8001320FFF759FE2020FFF756FEFFF736FE5E
:1096D8000D20FFF761FE1120FFF75EFE1320FFF754
:1096E8005BFE2020FFF758FEFFF728FE0D20FFF74E
:1096F80043FE1120FFF740FE1320FFF73DFE202018
:10970800FFF73AFEFEF774FA08B1FDF7F5FA01F033
:10971800CBFB08B1FDF7F0FA002307A90120079356
:1097280001F04EFC08B1FDF7E7FA07A801F018FDB3
:1097380008B1FDF7E1FA11237B488DF8043001F0F8
:1097480023FF794982B201A8FFF774FD08B1FDF73C
:10975800D3FA0822002107A801F0C1FE734A4FF08E
:10976800C87307A8CDE90723FFF762FD08B1FDF725
:10977800C3FAFFF739FF6E4B6E48079307A901F04C
:1097880091F908B1FDF7B8FA042200210DEB0200A7
:1097980001F0A5FE684B6948019301A901F092FA0E
:1097A80008B1FDF7A9FA0024654B2146182201A843
:1097B8001C7001F094FE402301253C2221460393AE
:1097C80007A810238DF81B308DF804508DF8195018
:1097D8008DF81A5001F083FE02238DF81C30062301
:1097E8008DF81F30574C584B5849E41AE4082404A4
:1097F80044F003042046FDF71BF955498DF819502C
:1098080020468DF81A50FDF713F9524B8DF8045085
:109818001A1D196807A800F0E3F908B1FDF76CFAFA
:1098280001AA4C494C48FFF7FBFC08B1FDF764FA64
:109838001C220DEB0200002101F051FE00234FF421
:109848002032CDE90732ADF82A304FF470228DF876
:109858002C30424B09920C930322414B8DF828205F
:1098680007A80D9300F014FE08B1FDF745FA06208D
:10987800FFF774FD0620FFF78FFD1120FFF76EFD3F
:109888001120FFF789FD1320FFF768FD1320FFF76C
:1098980083FD4FF0A0423349D2F8183543F4202312
:1098A800C2F818350120FFF7CDFC08B1FDF724FAFE
:1098B8000120FFF7C9FC2C4801F0B8FD2B492046D0
:1098C800FDF7B6F82A492046FDF7B2F8294B0422DD
:1098D80093F854100120FFF7A9FC08B1FDF70CFA22
:1098E8001D4B01211878FFF79DFC08B1FDF704FA1C
:1098F800214A22480121FDF79BFC00224FF48041B8
:109908001F48FDF7A7FC08B1FDF7F6F9FCF724FF9F
:10991800FEF784F9FAE700BFACC40200583700200C
:1099280058380020C992020038C5020010003C00D7
:10993800579202004C370020C1930200D02A002021
:109948009A340020C8BD0200A0BD020047C502002D
:1099580068C50200B82A0020C82A0020A99202007F
:1099680061930200F82A0020A2C50200B4C50200D3
:10997800DDC502009C3400205592020034C5020067
:10998800283700200369C1688B429DBF8268D218BE
:1099980002F1FF3203F1FF3394BF501A581A70478F
:1099A8002DE9F041D0E902670446F61B406896426B
:1099B80088461546384405D901F068FD3D44E56000
:1099C800BDE8F0813246AD1B01F060FD2A4608EB88
:1099D8000601606801F05AFDF1E72DE9F843C56812
:1099E8000646894617464FF000083469B368706820
:1099F800A54228BFE418013C621B5C1BBC4228BF7F
:109A08003C46944228BF144649462844224601F061
:109A18003DFDB3682544AB4208BF00253F1BA04469
:109A2800A144F560E1D14046BDE8F88310B5114C7A
:109A3800114AA2610223C4E90433104BE361A26412
:109A48004FF400730E4A2362E264002310220D498A
:109A5800A362E01D6362E362A3656365E365226553
:109A680001F070FD0849204601F06CFD2023A37128
:109A780010BD00BF5839002037C60200E039002069
:109A8800D039002040C6020044C60200F8B5184C80
:109A9800182300FB033503FB00402544C46A012C4E
:109AA8000F46164611D003D3022C1BD000240AE01F
:109AB8002846FFF767FF864205D8324639462846CA
:109AC800FFF76EFF34462046F8BD2846FFF75AFFD9
:109AD8008642344628BF0446224639462846FFF7C0
:109AE8005FFFF0E72846BDE8F840FFF776BF00BF04
:109AF80058390020FFF79ABF6DDF704779DF70474C
:109B08007DDF704764DF70472DE9F74F0C9CBDF887
:109B180034B02788002580468A4691462E46B8F8F4
:109B28000020B2420BDC35B12288013AD21B92B236
:109B3800FF2A39D8DA55002003B0BDE8F08FD8F8ED
:109B4800042052F82600019000220DF1030101A81B
:109B5800FFF7D8FF0028EFD19DF803204A4521D10F
:109B68002288002D14BF0020022002EB09010144C5
:109B7800594519DC3DB9013292B2228003F802A09E
:109B880022880132228022880DF103011A4401A89B
:109B9800FFF7B8FF0028CFD121889DF803200A4499
:109BA800228001250136BAE70C20C5E72DE9F341EB
:109BB800089CBDF824501746CDE900450222064608
:109BC800FFF7A2FF48B9102239463046CDE90845CB
:109BD80002B0BDE8F041FFF797BF02B0BDE8F081E1
:109BE8002DE9F04F00231688138090F82D3085B0AA
:109BF80007460D46144653B3082E01D80C2026E11B
:109C080002A8FFF779FF002840F021811388082275
:109C1800CA54238801339BB21B222380CA5420884C
:109C2800013080B2208006220DF10901284401F09C
:109C38002DFC23889DF8082006339BB212F0FE0203
:109C480018BF01222380EA54238801332380BB787C
:109C5800FBB123880433B342D0D802A8FFF74EFFE4
:109C6800002840F0F48023880322EA542388013333
:109C78009BB219222380EA542388BDF808200133B7
:109C88009BB2E9182380EA54120A4A7023880233E7
:109C98002380FA789AB12388D91CB142AED8022120
:109CA800E954238801339BB201212380E954238896
:109CB8000B449BB22380EA5423880B4423807A68A0
:109CC800AAB12388D91CB14298D8022192F9002060
:109CD800E954238801339BB20A212380E95423885D
:109CE80001339BB22380EA542388013323803B89C4
:109CF800002B40F0A0803B8A5BB1CDE900462B46A3
:109D08000722032107F11000FFF750FF002840F059
:109D18009E803B8B5BB1CDE900462B461522142172
:109D280007F11800FFF742FF002840F090803A6AD8
:109D3800002A40F08F80D7F82480B8F1000F30D087
:109D4800B8F804302188981C8A1C0244B2423FF6B5
:109D580055AFFE283FF652AF03336B5423880133C7
:109D68009BB2FF222380EA54238801339BB22380CD
:109D7800B8F80020EA54E918120A4A70208802301C
:109D880080B22080B8F804205AB1D8F80810002909
:109D98006AD0284401F07AFB2388B8F804201344D9
:109DA800238097F82C30002B40F0998038780028D1
:109DB8004DD03B88012B57D021888A1CB2423FF6F0
:109DC8001DAF012805D17B7802330B449E42FFF476
:109DD80015AF023E761A04A9B6B221F8086DA81884
:109DE800FFF78EFE98BB3978BDF80820022900F0ED
:109DF800BB807B78934202D3B24240F2B380012900
:109E080040F0B4809BB29E42C0F0B080ADF80830FC
:109E18000821BDF80830FE2B3FF6F0AE228801334A
:109E2800AB542288013292B22280A954228813446A
:109E3800238000200BE0CDE900462B4606220221B4
:109E480007F10800FFF7B2FE00283FF454AF05B051
:109E5800BDE8F08FB4F800C00CF10603B3423FF63A
:109E6800CDAE1188052901D80720F0E76FF4486EB8
:109E780001EB0E039BB24FF27D3E7345F4D9538834
:109E8800052BF1D96FF44860181880B27045EBD9EA
:109E98004FF6FF70814203D0834201D09942E3D844
:109EA800052305F80C30238801339BB21221238047
:109EB800E954238801339BB223801188E954E818B8
:109EC800090A4170238802339BB223805288EA54DE
:109ED800E918120A4A702388023323802BE7BB6AE9
:109EE800002BC1D04FF000094FF00C0A4FF0160BB1
:109EF80097F82C305FFA89F293427FF657AFB96A28
:109F08000AFB02F201EB0208B8F80430981CFE289C
:109F18003FF674AE208803332B54238801339BB259
:109F2800238005F803B0238801339BB223808A5A23
:109F3800EA54E918120A4A702088023080B2208058
:109F4800B8F804205AB1D8F8081000298CD0284451
:109F580001F09CFA2388B8F804201344238009F1FF
:109F68000109C5E7092154E7B242FBD9ADF80860F9
:109F78004EE770B5C0B14AB116880024B44203D385
:109F880005196D789D4208D0A14201D800200BE048
:109F9800055D01352C44A4B2F0E7A142F6D9A31C13
:109FA8001380005D013880B270BD37B502AC002364
:109FB80024F8023D134622460546FFF7DAFF10B1A2
:109FC800BDF80600284403B030BD72DF704773DF68
:109FD800704738B5012204460D46B0F83812D0F85B
:109FE8003402FFF7E2FF00B1057004F13C0204F50A
:109FF8000D7104F15400BDE83840FFF7E6BFF8B52D
:10A00800077804460D46002F00F0088100F24A2622
:10A01800A17007220021304601F061FAE38813B1EC
:10A02800A378012B04D0E3794BB1A378022B06D196
:10A03800636B9BB1012284F851220820984732466D
:10A0480004F5147112F8013F5BB99142FAD16A1E06
:10A05800032A52D8DFE802F0070D111484F85132B0
:10A06800EDE73B46F3E7A2791AB194F8242002B948
:10A078005BB9E2790AB1002B41D1237A002B40D198
:10A08800637A002B0CBF00250425636BA570002B99
:10A0980039D0033D012D36D86279A2B394F8522203
:10A0A8008ABB84F85422012284F853220720984757
:10A0B80004F13C0518220021284601F010FAE36A51
:10A0C8000122591E914284F83C2020D9042B1ED02D
:10A0D80084F85120002794F824201AB1D7B1A36A34
:10A0E80084F85230A178002384F85030042920D80D
:10A0F800DFE801F07C12273A5E000025C5E702255B
:10A10800C3E70325C1E7002384F85332D0E784F876
:10A118005130E0E70123E3E7C4F84432C4E91063AF
:10A128000223012284F83C30802384F83120A4F8EB
:10A138004830A378002B5CD1636B002B6AD10020D8
:10A1480067E0022384F8313062B1072384F83C3099
:10A158002369A4F848300023C4F84432E36826642D
:10A168006364E6E70323F1E763696364A369A4F81A
:10A17800483012B1062384F83C306379B3B194F8BF
:10A1880052329BB994F8543283B1022384F8503088
:10A1980004212046FFF71DFF0028CAD1052384F8B3
:10A1A800313004F50D73C4F84432C2E70323F6E7EF
:10A1B800E3696364236AA4F8483012B1062384F87B
:10A1C8003C30637983B194F852326BB994F85432C5
:10A1D80053B1022384F8503004212046FFF7F9FEDA
:10A1E8000028A6D10623DAE70423D8E784F831301B
:10A1F8009FE72A46D4F8441204F15400FFF7E5FE1D
:10A2080038B994F8301094F85400FFF7E0FE0028AD
:10A2180092D0F8BD94F83100984790E70820F8E705
:10A228000388112B10B50C460AD0262B1FD0102BF3
:10A2380005D1C37B012B02D18388A1F8483210BD18
:10A248000022838881F85222B1F848229A42F6D136
:10A258000B79002BF3D101212046FFF7D0FE00280F
:10A26800EDD0A36B002BEAD0BDE810401847037A65
:10A27800013B012BE3D889780523013191FBF3F3E6
:10A2880003EB8303C91AC9B2E6E7704775DF704765
:10A2980076DF70477ADF70477BDF7047034B1A8899
:10A2A80082420CBF18460020704700BFFC3B0020CC
:10A2B800024B9B6903B11847704700BFE03B002081
:10A2C80037B585B22846FFF7E9FF034670B1164C4B
:10A2D800017A227B91420BD200F10A012846FFF74E
:10A2E800D5FFE8B1112801D0FFF7E2FF03B030BD78
:10A2F800237C0022027243B13B212846FFF7C8FFA6
:10A3080030F0080301D0FFF7D3FF6369002BEDD0CD
:10A3180000228DF80420ADF8065001A89847E5E71B
:10A328001A7A01321A72E1E7E03B002013B50B46B6
:10A33800497A0F4C024669B9D4E901101C7A002CFD
:10A3480018BF01465868FCF785FF08B1FFF7B0FF52
:10A3580002B010BD002119726369002BF8D00121E9
:10A36800ADF806008DF8041001A89847F0E700BF83
:10A37800E03B00208388B3F5FA7F28BF6FF4F972B9
:10A3880030B528BF9C1805884A8838BF00249542F4
:10A398000CD84088904209D38A88A24206D303F297
:10A3A800F310904234BF0020012030BD0020FCE7AC
:10A3B8000388112B70B5014648D002D8102B1ED047
:10A3C80070BD122B52D0502BFAD12F4BC288DB898B
:10A3D8009A42F5D1038A022BF2D186883046FFF7DC
:10A3E8005DFF05460028EBD001F1120000F05FF98F
:10A3F80030BB6868FCF772FF0028E1D009E0C37B36
:10A40800012BDDD14FF6FF70FFF748FF054620B955
:10A418000420BDE87040FFF74BBF1C4A8E880680B9
:10A42800002303721368C5F80A300A305368436082
:10A438001031FFF79FFF144B6872DB89002BBFD1E7
:10A4480029463046BDE87040FFF770BF8088FFF7A7
:10A4580025FF04460028B3D04068FCF73FFF08B149
:10A46800FFF726FF4FF6FF732380A9E7868830465B
:10A47800FFF714FF05460028A2D008310A30FFF77D
:10A4880079FF6872DCE700BFE03B0020103C002049
:10A49800F8B5064650B305460FCD154F3C460FC4D8
:10A4A80095E8070084E807003068124B3B60B8B1B4
:10A4B800FFF7F0FEC8B931680A681A604A685A603E
:10A4C8000D480E4A4FF6FF7303800D4B40F8043FCA
:10A4D8000021FCF7ADFE002814BF0320002004E093
:10A4E8001846FFF7D9FE0028EAD0F8BD0E20FCE791
:10A4F800E03B0020103C0020FC3B0020C9A20200E9
:10A50800183C002073B50191019C06466CB10025EA
:10A518002C46294601A8FDF750F818B106EB44036C
:10A5280001349D800135142DF3D13046346002B0DA
:10A5380070BD00002DE9F04303888488112B8DB08D
:10A54800064640D01A2B43D0102B16D1294DAB68A4
:10A558000CA8DB4340F8303D55F8041FFDF756F8CA
:10A56800009901A8FFF7CEFF0027019B9F4207D360
:10A57800132C18D90420FCF7BFFB0DB0BDE8F083FD
:10A5880001AB03EB47034FF00008B3F8049005EB69
:10A598000800494608F10408FDF705F8B8F1740FFA
:10A5A800F5D10137E1E721461348FCF7F3FF2146CF
:10A5B8001248FCF7EFFFF37B012BDED01048214651
:10A5C800FCF7E8FFD9E70C482146FCF7ECFFD4E795
:10A5D800057A0C482D09012D214606D9FCF7DAFF2A
:10A5E800022D21460848F0D0EAE7FCF7DCFF2146B7
:10A5F8000548EAE7383C0020403C00203C3C00206D
:10A60800443C0020483C00204C3C002013280146D4
:10A6180002D80248FCF7D1BF002070473C3C00201C
:10A6280010B50446FFF7F2FF002814BF2046142097
:10A6380010BD70B5054616460AB90E2070BD002338
:10A6480013600028F9D00368002BF6D0C38813F0F4
:10A6580003040FD10846FFF7E3FFC0B214280BD05C
:10A668002B7983420AD9EB882A6800FB03203060E3
:10A678002046E3E70720E1E70520DFE70420DDE7E0
:10A68800AADF7047002301380B70042806D8DFE8DA
:10A6980000F00306080A0C0011230B7070472123F1
:10A6A800FBE73123F9E71223F7E72223F5E70078E0
:10A6B80000F001007047F0B58B7891B005460C4664
:10A6C800164603B9012303228DF80E300021238892
:10A6D800ADF80C30684600F002FF6946607CFFF771
:10A6E800D1FF0DF10101A07CFFF7CCFF9DF80230EE
:10A6F800E27B62F3C303227C62F30413227B62F3DE
:10A708000003227D002A14BF0222012262F34203C1
:10A7180000211C2209A88DF8023000F0E0FE637BBE
:10A7280013F0300F15D002AF03220021384600F095
:10A73800D6FE0DF10901E07CFFF7A4FF11238DF887
:10A7480008309DF80A300E97012262F342038DF813
:10A758000A30637B8DF824301422A37B8DF82530D2
:10A76800002104A800F0BBFE03AB0493A388ADF856
:10A778001C30A368CDF814D01BB1E288ADF81820BE
:10A788000893A369002B2ED001AF0322002138467D
:10A7980000F0A5FEA3691A88ADF82C205A88187B0A
:10A7A800ADF82E2039465A680A920D97FFF76AFFCE
:10A7B800A3690DF10501587BFFF764FFA2699DF8B5
:10A7C8000630917A61F3C303D17A61F30413117AE5
:10A7D800927B002A61F3000314BF0222012262F374
:10A7E80042038DF80630E36903B10C93334604AA9B
:10A7F80009A92846FFF744FF11B0F0BD90DF704764
:10A80800A5DF7047B5DF70477FB50023ADF80810A6
:10A81800ADF80A106A4602A9064603930093ADF8FC
:10A828000430FFF7EBFF0546F8B1114B114CE41A61
:10A83800E408FDF757FA240444F0010403463246BD
:10A848000D492046FCF702F9BDF80020BDF802309A
:10A8580002B91BB109492046FCF7F8F8BDF80420F5
:10A868001AB107492046FCF7E7F8284604B070BD3E
:10A87800A0BD0200E0BD02004BC6020095C6020062
:10A88800D4C6020088B14FF0F7130360FB230371AD
:10A89800F723C3801723038141F6FB3200230161AC
:10A8A8008372C3728281184670470E20704730B198
:10A8B800A1F11703E02B04D80180002070470E2077
:10A8C800704707207047000013B5034680880C4680
:10A8D800A0B91A88232A00F0AF8011D8102A25D0F1
:10A8E800112A54D0A37A4BB1E1880020FFF788FFE2
:10A8F800002840F0A7800123A072E37202B010BDC7
:10A908003A2A4ED0552A68D0242AEBD11A7A0B69F4
:10A918004A73002BE6D04DF67A21ADF80400ADF865
:10A928000010ADF802008DF8042081E0DB7B0A7985
:10A938000A73012B13D0022B14D0E18823898B4290
:10A9480005D20020FFF75CFF70B90123E372217B79
:10A95800637B8B42C6D20020FFF756FFC2E70B8805
:10A96800E380EAE74B88FBE7112802D10123A372B1
:10A97800EDE7FDF7B7F93C4A3C4B3D499B1ADB082C
:10A988001B04024643F00100FCF756F8DFE7F72303
:10A99800CB8017230B8141F6FB338872C8728B81F9
:10A9A800A0E75B89CA88934228BF1346172B0A6918
:10A9B80038BF17230B8162B1C97A51B140F67721AC
:10A9C800ADF80010ADF80200ADF804306946204635
:10A9D80090470023E372A37284E7DB88C988A072DA
:10A9E800172B38BF17238B4228BF0B462381FFF74D
:10A9F80009FF60B1FDF776F91B4A1C4B1D499B1AEC
:10AA0800DB081B04024643F00100FCF715F8E27A64
:10AA1800002A7FF467AF2369002B3FF463AF40F649
:10AA28007721ADF802202289ADF80010ADF8042096
:10AA380069462046984755E7197A237B994228BFEB
:10AA4800194689E711283FF459AFFDF74BF9064A33
:10AA5800064B07499B1ADB081B04024643F001001A
:10AA6800FBF7EAFF4AE700BFA0BD0200E0BD020015
:10AA78002AC702005BC70200B0DF704766DF704775
:10AA8800034610B500214088FFF7F8FF024608B9D1
:10AA98001A7210BD112801D10122F9E75B68BDE8DF
:10AAA8001040184760B159B10378DE2B0AD00B6803
:10AAB8004360DE2303704FF6FF7343800020704726
:10AAC8000E2070470820704728B10378DE2B04D188
:10AAD8004180002070470E20704708207047F0B56D
:10AAE800054685B00C46F1B1E8B10B78DE2B1AD1DA
:10AAF80082884B889A4204D10B7A13B10846FFF733
:10AB0800BFFF2B88112B32D0512B0ED0012B0AD12D
:10AB18002B7A012B07D1A9886288914203D123722D
:10AB28002046FFF7ADFF05B0F0BDAE886388B3429D
:10AB3800F9D1AF79022FF6D1AD7B2B1F022BF2D8BA
:10AB480000211022684600F0CAFC052D14BF4FF4FE
:10AB5800C0730023694630468DF80070ADF80430A4
:10AB6800FFF78AFF0028DED063689847DBE7638831
:10AB7800AA889A4204BF4FF6FF736380D3E7A8DF21
:10AB88007047ADDF7047AEDF704762DF704770B562
:10AB980005468AB00C46002963D0002861D0038896
:10ABA800502B38D0572B73D0102B5AD10AAA002615
:10ABB800818842F8246D6069FFF73BFD0822314621
:10ABC8000DEB020000F08BFC022302AA218AA88860
:10ABD800CDF80CD00293FFF7D4FF002841D1A36928
:10ABE800002B3ED00398FFF762FD002839D0019B67
:10ABF8000BB101221A701822002104A800F06FFC82
:10AC080002238DF81030AB88ADF81830019B0594FD
:10AC18000793A36923E08188606902AAFFF709FD09
:10AC28001822002104A800F05AFCAB88ADF81830AF
:10AC38002189EB88029A05949942079218D12E8AA5
:10AC4800022E15D16AB105F11200FFF730FD029B03
:10AC580048B101221A708DF81060A3690BB104A8DD
:10AC680098470AB070BD187003238DF81030F4E7C8
:10AC7800A2899A42F5D1A369002BF2D000228DF85F
:10AC8800102005F1120208922A8AADF82420E6E77E
:10AC98008188606902AAFFF7CCFC01460028E0D150
:10ACA800029B1B78002BDCD0182204A800F017FCAC
:10ACB80001238DF81030AB88ADF818300594029B4D
:10ACC800A6E70000F0B5374B8FB002AA05460E463E
:10ACD80003F1100C174618685968144603C4083362
:10ACE80063452246F7D1002D59D0002E57D033683E
:10ACF800AB6129463846FFF748FF00284DD12A4660
:10AD08000EA9012412F8023B21F8344D20468DF893
:10AD18000630FFF734FF00283FD10146202206A85D
:10AD280000F0DDFB2A460223ADF8183012F80C3B80
:10AD38008DF81A309DF825301B4E6888079643F029
:10AD48000C0306A98DF824408DF825308DF829408C
:10AD58008DF82A40FFF7AFFCF8B90146202206A873
:10AD680000F0BDFB2A460323ADF8183012F8043B67
:10AD78008DF81A309DF825306888079643F010033F
:10AD880006A98DF824408DF825308DF829408DF8D6
:10AD98002A408DF82B40FFF78EFC0FB0F0BD0E2037
:10ADA800FBE700BF97C70200F4000100F0B50F46AB
:10ADB80087B016461C46054618B301AA19464069CD
:10ADC800FFF737FCD8B94FF6FF739C421BD0019BA5
:10ADD800CBB11B78CBB13388F42B18D8014610229D
:10ADE80002A800F07CFBAB88ADF8083002A901236B
:10ADF8002046CDE904678DF80A30FFF7C4FE07B096
:10AE0800F0BD0E20FBE70520F9E70820F7E707204B
:10AE1800F5E710DF7047000013B504460949684696
:10AE2800FCF72BFF019808B902B010BDD0E900313A
:10AE38002046984718B16846FCF729FFF2E7112029
:10AE4800F2E700BFB4C7020013B5044607496846D5
:10AE5800FCF713FF019B0BB902B010BD2046D3E9E4
:10AE6800002190476846FCF712FFF3E7CCC70200C1
:10AE78000B4991F816335A09EC231341DB0706D521
:10AE8800084B9A683AB94FF480030B60704742F256
:10AE98000200FBF731BF1A6842F480021A6070475B
:10AEA80000E100E034320020F7B5184F3C785CBB75
:10AEB800174E012520463570FFF7AEFF112820D028
:10AEC8002046FFF7C1FF134B1868019002A800F84D
:10AED800054DFCF725FB104901A8FFF79AFF04462A
:10AEE800B0FA80F0400938709DF80300FCF73CFB8D
:10AEF8003CB90A4B34701C70FFF7BAFF2846FFF7BD
:10AF0800A3FF204603B0F0BD0824FAE7B13C0020B7
:10AF1800B03C0020AFC702001D6D0200B23C00200B
:10AF2800014B1878704700BFB13C002007B50849AD
:10AF38006846FCF7A2FE019B13B903B05DF804FB59
:10AF4800D3E9002090476846FCF7A1FEF3E700BF6D
:10AF5800C0C70200FFF7EABF60DF704769DF7047CC
:10AF680061DF704730B5114DADF5017D4FF4FA74CE
:10AF78000DF1020103A8ADF80240FFF7F1FF70B927
:10AF8800294601A8FCF779FE029B002BF0D003A804
:10AF9800D3E90021904701A8FCF779FEF4E70528DA
:10AFA80001D0FBF7A9FE0DF5017D30BD50CA0200A6
:10AFB800024B1B780BB1FFF7D5BF7047B33C00209D
:10AFC80030B5054685B00C46002900F0B5805B4BCE
:10AFD8000B600C22002101A800F081FA01238DF8F2
:10AFE800063022688DF80450062301A92020ADF808
:10AFF8000830FFF7B3FF60B1FCF774FE504A514BBD
:10B0080051499B1ADB081B04024643F00100FBF779
:10B0180013FD0C22002101A800F061FA01238DF82C
:10B0280005302268002301A940208DF806308DF8EC
:10B038000730FFF793FF60B1FCF754FE404A414BDD
:10B0480042499B1ADB081B04024643F00100FBF748
:10B05800F3FC0C22002101A800F041FAF723226832
:10B068008DF8045001A92320ADF80630FFF776FFCC
:10B0780060B1FCF737FE324A324B35499B1ADB0880
:10B088001B04024643F00100FBF7D6FC0C2200210A
:10B0980001A800F024FA012022688DF8040001A913
:10B0A800FFF75CFF60B1FCF71DFE254A254B2949D7
:10B0B8009B1ADB081B04024643F00100FBF7BCFCAB
:10B0C8000C22002101A800F00AFA4FF4B0632268AC
:10B0D800019301A9A120FFF741FF60B1FCF702FE2F
:10B0E800174A184B1C499B1ADB081B04024643F0FD
:10B0F8000100FBF7A1FC0C22002101A800F0EFF9E8
:10B108009DF8043022686FF3000301A9A0208DF890
:10B118000430FFF723FF68B1FCF7E4FD084A094B48
:10B128000E499B1ADB081B04024643F00100FBF79B
:10B1380083FC002005B030BD0E20FBE7982A0020D4
:10B14800A0BD0200F0BD0200E0C7020026C8020050
:10B1580072C80200B9C8020005C9020056C9020037
:10B16800F8B506460768FFF7F7FE3368BB420546A1
:10B178001DD9194B194C1A49E41AE408240444F05F
:10B1880002042046FBF754FC336816493A46204629
:10B19800FBF75CFC4FF080533268D3F80C3112494E
:10B1A8009B0203F100539A1A2046FBF745FC25B988
:10B1B8000E4B01221A702846F8BD2846FCF792FD6E
:10B1C800054A064B0A499B1ADB081B04024643F052
:10B1D8000100FBF731FCEEE7A0BD0200F0BD020064
:10B1E800A9C90200D8C9020009CA0200B33C00205C
:10B1F80033CA02004BDF70471FB50D4C01A8FFF79B
:10B20800F9FF70B9214602A8FCF737FD039B002B14
:10B21800F4D00198D3E90021904702A8FCF737FD44
:10B22800F4E7052801D0FBF767FD04B010BD00BFA7
:10B2380068CA020053EA020C61D02DE9F04BB3FA58
:10B2480083F51E0007BFB2FA82F502FA05F403FA85
:10B2580005F41646C5F120051EBF22FA05F73C4342
:10B26800203556EA044C4FEA144418BF0134A3466B
:10B278004FF00009C846904271EB030C39D30942DC
:10B2880007BFB0FA80F700FA07F6B1FA81F701FABA
:10B2980007F6C7F120071EBF20FA07FC46EA0C068E
:10B2A8002037B6FBFBFC7F1B103F07F01F04C4F1DF
:10B2B80020060CFA04F42CFA06F644BF344600269D
:10B2C800202FA4BF2646002454EA060C08BF0124F8
:10B2D80018EB040849EB0609A4FB027CC01B06FB1B
:10B2E80002CC04FB03CC71EB0C01904271EB030C14
:10B2F800C5D20B46024649464046BDE8F08BB2FB34
:10B30800F3F200007F2805D8034B185C034B5B5C05
:10B31800184070470020704780CA020000CB020026
:10B32800A0F16103192B98BF20387047A0F14103A1
:10B33800192B98BF203070477F2805D8034B185C1D
:10B34800034B5B5C184070470020704780CA0200BE
:10B3580000CB0200A0F16103192B98BF2038704779
:10B36800A0F14103192B98BF203070477F299ABF5D
:10B37800017001206FF02E0070475AB10A787F2AB9
:10B388000AD800B10260002119605960501A18BF2C
:10B3980001207047002070476FF02E00704738B5C5
:10B3A80004460846A26842B1236861685D1C8D4264
:10B3B80008BF00208B4208D2D054E3682BB1216823
:10B3C8006268914201D2214698472368013323607D
:10B3D80038BD70B54C1E09D41646C5B2294630464C
:10B3E800FFF7DDFF013CB4F1FF3FF7D170BD10F06E
:10B3F800100F09D108B500F40070002814BF3020E0
:10B408002020FFF7E6FF08BD7047000008B5034B92
:10B418005B689B681B68984708BD00BF002B00202D
:10B4280008B50921FFF7F2FF08BD00000FB410B5F9
:10B4380086B008AB53F8044B0593002303936FF0D1
:10B4480000430293084B049300F0CEF8059A214676
:10B4580001A800F0CBF8044600F0C7F8204606B073
:10B46800BDE8104004B07047017D020003784BB17D
:10B4780051B10144034613F8012F0AB18B42FAD1A6
:10B48800181A70470346FBE70346F9E7844640EA83
:10B49800010313F0030F18D18446202A0BD32DE99A
:10B4A800F007B1E8F807A0E8F807A2F12002202A7F
:10B4B800F7D2BDE8F007042A07D351F8043B40F857
:10B4C800043BA2F10402042AF7D2002A05D011F89D
:10B4D800013B00F8013B013AF9D1604670478446C8
:10B4E800002A2DD010F0030F04D000F8011B013AF8
:10B4F80026D0F7E7C9B241EA012141EA0141202AF1
:10B5080012D3A2F120022DE9F0030B460C460D469A
:10B518000E460F4688468946A0E8FA03203AFBD231
:10B52800BDE8F00320320BD0042A05D340F8041BF1
:10B53800043A05D0042AF9D200F8011B013AFBD1DC
:10B5480060467047024610F0030F16D111F0030F42
:10B5580013D12DE9F0004FF001374FF0803351F847
:10B56800044BA4EB070525EA04051D4002D142F867
:10B57800044BF4E7A1F10401F0BC11F8013B02F817
:10B58800013B002BF9D1704700F1010110F0030FC6
:10B5980011D010F8012B002A23D010F0030F0AD085
:10B5A80010F8012B002A1CD010F0030F03D010F85C
:10B5B800012B002A15D02DE970004FF001324FF011
:10B5C800803350F8044BA4EB020525EA04051D401E
:10B5D80000D1F6E7A0F1040070BC10F8012B002A96
:10B5E800FBD1A0EB01007047704770472DE9F04F81
:10B5F80089B080460F46039200230360DFF81CA63B
:10B6080080E3002502E045F040052646344614F85C
:10B61800010BA0F120033E2B00F2948001A252F806
:10B6280023F000BF0FB602004DB702004DB702006D
:10B6380029B702004DB702004DB702004DB702000E
:10B648002FB702004DB702004DB702004DB70200F8
:10B658003BB702004DB7020041B702004DB70200E8
:10B668004DB7020047B702004DB702004DB70200C0
:10B678004DB702004DB702004DB702004DB70200AA
:10B688004DB702004DB702004DB702004DB702009A
:10B698004DB702004DB702004DB702004DB702008A
:10B6A8004DB702004DB702004DB702004DB702007A
:10B6B8004DB702004DB702004DB702004DB702006A
:10B6C8004DB702004DB702004DB702004DB702005A
:10B6D8004DB702004DB702004DB702004DB702004A
:10B6E8004DB702004DB702004DB702004DB702003A
:10B6F8004DB702004DB702004DB702004DB702002A
:10B708004DB702004DB702004DB702004DB7020019
:10B718004DB702004DB702004DB7020035B7020021
:10B7280045F0800571E745F400456EE745F480551E
:10B738006BE745F0200568E745F0100565E745F437
:10B74800007562E72A2814D0A0F13003DBB2092B78
:10B758000DD8002101EB8101303800EB410114F8CC
:10B76800010BA0F13003DBB2092BF3D90CE0002167
:10B778000AE0039B1A1D039219680029BCBF4942BD
:10B7880045F01005B41C707821EAE1762E280FD018
:10B798000021742830D07A282ED06C2800F0AC8094
:10B7A8004C2800F0AE80682800F0BB80274625E0D2
:10B7B80020782A2815D00134A0F13003DBB2092BF8
:10B7C8000DD8002101EB8101303800EB410114F85C
:10B7D800010BA0F13003DBB2092BF3D907E00021FC
:10B7E80007E0039B1A1D0392196860780234002948
:10B7F800CFDB45F48075CCE7671C2078782800F209
:10B808009C80DFE810F05C029A009A009A009A0087
:10B818009A009A009A009A009A009A009A009A0050
:10B828009A009A009A009A009A009A009A009A0040
:10B838009A009A009A009A009A009A009A009A0030
:10B848009A009A009A009A009A009A009A009A0020
:10B858009C009A009A009A009A009A009A009A000E
:10B868009A009A009A009A009A009A009A009A0000
:10B878009A009A009A009A009A009A009A009A00F0
:10B888009A009A009A009A009A009A009A009A00E0
:10B898009A009A009A009A009A009A009A009A00D0
:10B8A8009A009A009A009A009A009A009A009A00C0
:10B8B8009A009A009A000A019A009A009A009A003F
:10B8C8009A009A009A009A009A009A00A1004701EB
:10B8D8009A009A009A009A0047019A009A009A00E2
:10B8E8009A00BA003401F3009A009A00CD009A0039
:10B8F80040019A009A000C01671C207845F0010568
:10B908007CE745F00105C14B1F68002F00F0C58199
:10B9180003AB0193009133462A464146B847274670
:10B92800F0E12078682803D0671C45F0040565E736
:10B9380045F00805A71C607860E73C46E3E7252149
:10B948004046FFF72CFDDDE1039B1A1D03921C788E
:10B95800013E424631462846FFF749FD214640460A
:10B96800FFF71DFDA94619F0100F00F0CB814246E4
:10B9780031462020FFF72DFDC4E115F0080F07D050
:10B98800D8F80020039B191D03911B681A70B9E1B0
:10B99800039B1A1D03921B68D8F800201A60B1E1B6
:10B9A800039B1A1D03921868994B002808BF184674
:10B9B800044625F4007915F4807F13D0FFF756FD6F
:10B9C8000546761B424631464846FFF710FD002DD6
:10B9D800C9D0254414F8011B4046FFF7E0FCA542F6
:10B9E800F8D1C0E7FFF7D0FD0546EAE7039B1A1D2B
:10B9F80003921B6805F08002002A0CBF0024232450
:10BA080045F480750821002B00F02D814FF00009C6
:10BA180005F4005005AA8E46D4E045F4005515F00B
:10BA2800800F22D043F2780443F25803782818BFD5
:10BA38001C4615F4807F01D025F4007515F4804F5D
:10BA480036D0039B1A1D03921B6815F0040F27D0EC
:10BA58001BB2002B29DB15F0200F40F0868005F083
:10BA68004002002A18BF20242AE00024E1E705F05C
:10BA78008003002B0CBF0024302415F4807FDDD018
:10BA880025F40075DAE715F4807F07D025F40075F2
:10BA98000024D3E745F480450024CFE70024CDE710
:10BAA80015F0080F18BFDBB2D3E75B422D2407E07F
:10BAB800039B1A1D03921B6815F0040F50D09BB20C
:10BAC80015F4807F14BF25F400750121583820280B
