:020000022000DC
:106000000000012079630200616302006363020003
:10601000656302006763020069630200000000001C
:106020000000000000000000000000006B630200A0
:106030006D630200000000006F63020071630200E4
:10604000A981020073630200B5830200499C02002B
:1060500073630200736302003982020073630200FB
:1060600073630200736302007363020073630200D0
:1060700073630200736302007363020073630200C0
:1060800073630200E96D0200736302007363020030
:10609000856E020073630200DDB9020073630200C3
:1060A0007363020073630200736302007363020090
:1060B0007363020073630200000000000000000030
:1060C0007363020073630200736302007363020070
:1060D0007363020073630200736302000000000038
:1060E00000000000000000000000000000000000B0
:1060F00000000000000000000000000000000000A0
:10610000000000000000000000000000000000008F
:10611000000000000000000000000000000000007F
:10612000000000000000000000000000000000006F
:10613000000000000000000000000000000000005F
:10614000000000000000000000000000000000004F
:10615000000000000000000000000000000000003F
:10616000000000000000000000000000000000002F
:10617000000000000000000000000000000000001F
:10618000000000000000000000000000000000000F
:1061900000000000000000000000000000000000FF
:1061A00000000000000000000000000000000000EF
:1061B00000000000000000000000000000000000DF
:1061C00000000000000000000000000000000000CF
:1061D00000000000000000000000000000000000BF
:1061E00000000000000000000000000000000000AF
:1061F000000000000000000000000000000000009F
:10620000364937480A1A02D0072291438D4635494C
:1062100035480A1A06D00722914381F309880222E1
:1062200082F3148831483249324A00F045F8324846
:106230003249334A00F040F832483349334A00F0DB
:106240003BF833483349344A00F036F83348344990
:10625000344A00F031F834483449354A00F02CF81B
:1062600034483549354A00F027F835483549002289
:1062700000F02DF834483549002200F028F8344861
:106280003449091A082903DB002202600430016046
:10629000314A90471F482049884205D0026804309F
:1062A00003B4904703BCF7E700208646EC46002085
:1062B00000212A4A9047FEE7884207D0521A05D0AB
:1062C000037801300B700131013AF9D170478842EF
:1062D00002D002700130FAE7704700000000012090
:1062E00000E00020000001200000012040D002005A
:1062F000982A0020102B0020D8630200D8630200E7
:10630000F0BF020040D00200982A0020982A002006
:10631000ECC00200ECC00200ECC00200ECC00200C5
:10632000ECC00200ECC00200ECC00200ECC00200B5
:1063300040D00200B8D00200102B0020102B00200B
:10634000102B0020C43C0020C43C0020C43C002092
:10635000C43C0020C45C0020A163020059930200E9
:10636000FEE7FEE7FEE7FEE7FEE7FEE7FEE7FEE705
:10637000FEE7FEE7704700BF1048804710484FF027
:106380000701884385460F4880470F48016841F45C
:1063900070010160BFF34F8FBFF36F8FFFF730BF06
:1063A0000A480B490B4A884207D0521A05D0037895
:1063B00001300B700131013AF9D170477563020069
:1063C00000000120357C020088ED00E0ECC00200F6
:0863D000982A0020982A002001
:1063D8007047000007B5044B0093044A402300F0BF
:1063E80030F803B05DF804FBF9630200112B0020BC
:1063F8002DE9F84389461446B2B10F4B0F4E0325D9
:10640800002743F00108224609EB0701002003F0AA
:10641800B7FE0744241A48B933782BB14FF47A40B1
:10642800C047013D02D13570BDE8F88301233370C0
:10643800002CE8D1F8E700BFF0C00200102B0020C4
:106448007047F0B595B01C46164608460D4601F053
:106458000EFB1A9B0D93CDE90864002423460822FD
:1064680005A928460A948DF82C400C9401F01DFBD0
:10647800079B0293BDF81830ADF80C30BDF81A3000
:10648800ADF80E309DF814308DF8114003F003027A
:10649800012A1DD1BDF81440059EC3F3C203C4F3FD
:1064A80083148DF81030A20008230EA9284601F0A5
:1064B800FCFAC6F3952608AB0093224602AB0EA958
:1064C800304600F00BFB284601F0D5FA15B0F0BDB8
:1064D800022AF8D1BDF81640C3F3C203A4098DF807
:1064E80010300827082C264628BF08263B46324687
:1064F8000EA9284601F0D9FAA41B08AB02AA314616
:106508000EA8374400F04EFB002CEBD1DBE70378F4
:1065180013F0040216D003F00303012B03D0022B5F
:1065280009D0012070470A6800880232C0F383103E
:1065380002440A60F5E70B684288023303EB9213C2
:106548000B60EEE7104670472DE9F04F89B005461D
:10655800861C08A8484C019200230F4600F8113DFC
:1065680000F062FF23683B60D4E9012313442268EA
:1065780001339B1A04F21C4704F5836A04F2144899
:10658800B3421AD3019A0023002A6DD0012262F384
:10659800010343F0040365F389132168A2689DF899
:1065A8000F000A4003320E4444F82230266000F0FF
:1065B8005FFF012009B0BDE8F08F0121384600F0E7
:1065C800B4FF504600F0C7FF404600F0C4FF0DF18D
:1065D80020096068D4F808B049F8100D00EA0B00EB
:1065E800033004EB80004946FFF791FF049BB0B9E4
:1065F8000BEA030204EB8202D16805919A1C01336D
:1066080003EA0B0B04EB8B0C01F00303012B049240
:10661800DCF80CB020D0022B04D083460BE00BEA48
:106628000300DDE7BDF816309B0903334FEA1B4B27
:1066380002EB93030493404600F090FF08B1049BDB
:1066480063605946384600F070FFD4E901231344CB
:10665800226801339B1A93E7BDF81430C3F3831300
:106668004FEA1B4B1344E5E7022262F3010343F0B0
:10667800040365F39F5390E7242C002030B50A4C9F
:1066880071B10A4A0A49121BD20800239A4201D161
:10669800002030BD31F82350854202D00133F5E7A0
:1066A800034654F83300F4E76CC00200DCC0020073
:1066B800982A0020094B013903EBC000032909D8A7
:1066C800DFE801F00A0204060420704700797047E9
:1066D8004079704700207047022070476CC0020064
:1066E800034BD3E90030C31A58425841704700BFE2
:1066F800242C00202DE9F04387B0FFF7F1FF064670
:10670800002840F0FC807F4DC5F81804BFF34F8F78
:106718006868AC6806AF47F8100D2040033005EBF9
:1067280080003946FFF7F3FE029B18B1D5F818240C
:10673800002A5FD004EA0302991C013305EB8202A8
:10674800234005EB8303D268DB68049302F003035C
:10675800022B0392029162D1BDF80E306A484FEACB
:106768009318B8F1500FC14628BF4FF0500969F38C
:106778008F1309F10801ADF80E3001F049F9074609
:10678800002800F0A78001F072F903A9002308226D
:10679800384601F07FF9029924EA01060136B6006D
:1067A800B14535D95FFA89F97EB3F6B2A9EB060986
:1067B800214003315FFA89F4B146544E05EB81015B
:1067C80008234A46384601F065F936B109F108034D
:1067D80022463146384601F05DF9029B08F103086C
:1067E80003EB98030293D5F81834002B4BD1D5F856
:1067F80010445BE02A689A4204D86A60304607B0C1
:10680800BDE8F08304EA030088E740493446D7E747
:106818002140033108234A4605EB8101DAE7012BC1
:1068280058D1BDF80C303848C3F38311062928BF66
:10683800062161F3891302318900ADF80C3001F0AB
:10684800E7F80746002845D001F011F9002308228F
:1068580003A9384601F01EF90026BDF80C20C2F342
:106868008312B31C96424FEA8303BCD202994A1C96
:1068780021400331029205EB81010422384601F0E0
:1068880009F90136E9E7384601F0F5F8FFF728FF7E
:1068980080F00100C6B2B1E7E3685B7923B12368F1
:1068A80039461B6820469847E3681C68002CF3D1DA
:1068B800384601F0E0F806A800F8114D00F0B4FDE4
:1068C800D5F818340BB9029B6B609DF8070000F0EF
:1068D800CFFDDBE7D5F8104454B90D4B0D480E49F0
:1068E800C01AC008000440F0020000F06FF8CDE7BD
:1068F800236820469B689847E3681C68ECE70026F5
:106908007CE700BF242C002058C00200302C002057
:106918006CC002009CC0020014C102002DE9F74FB0
:10692800284C80460F46924601A9012218469B46EC
:10693800D4F80890FFF708FE88B3019D0026A91C2B
:106948005E4506EB010234D100211F4800F0C2FD6C
:1069580080F310006A1C02EA090204EB82020004B8
:1069680005EA0903033340EA1840D06014F82320ED
:1069780068F3C50204F8232034F8232066F389124B
:1069880024F8232054F82320012167F39F2244F898
:10699800232061F301026FF3820204F8232094F8A4
:1069A80020341BB1FFF7A6FE0028FBD103B0BDE8D9
:1069B800F08F09EA020204EB82025AF82630D3600B
:1069C8000136BDE7242C00204030002000231A4661
:1069D800FFF7A4BF13B502AC012344F8042D2246E7
:1069E800FFF79CFF02B010BD07B5CDE900230223D5
:1069F8006A46FFF793FF03B05DF804FB094A38B510
:106A08000123D2F8104482F820341D4604B938BD59
:106A1800E3685D71236820465B689847E3681C68F3
:106A2800F4E700BF242C0020037A052B10B50C4690
:106A38000FD0437A23B1084A0849204600F0D8FD10
:106A48000749204600F0D4FD2046BDE8104000F07C
:106A5800C4BD002AF8D0F3E75FC1020064C1020098
:106A680031C90200C38873B504460D4633B1144AD0
:106A780000921449144A284600F0BAFD217A0529E3
:106A88001CD0637A4BB1A088FFF714FE0F4B104956
:106A980053F82020284600F0ABFD227A0D4BA08841
:106AA80053F822600021FFF7E9FD0B4903463246FF
:106AB800284602B0BDE8704000F09ABD02B070BD33
:106AC8005FC102006FC1020067C102002CC1020051
:106AD80064C1020094C1020087C102002DE9F0439D
:106AE80085B01F460C9D002306460C46904695F837
:106AF8000C902B7329463846FFF7B4FFB8F1060F00
:106B080009D8DFE808F00412181F2833400031467E
:106B1800284600F06DFD002229463846FFF784FF1D
:106B280085F80C9005B0BDE8F08322683146284608
:106B380000F05EFDEFE7D4E900233146284600F077
:106B480057FDE8E7A36800933146D4E900232846B7
:106B580000F04EFDDFE7E3680193A3680093314638
:106B6800D4E90023284600F043FDD4E723690293C3
:106B7800E3680193A36800933146D4E900232846CB
:106B880000F036FDC7E76369039323690293E3685E
:106B98000193A36800933146D4E90023284600F006
:106BA80027FDB8E708292DE9F84F80460E46174615
:106BB8001C4636D8002593F80C901D7319461046CC
:106BC800FFF750FFDFF87CA0DFF87CB0AE422AD98F
:106BD80018F805205946204600F00AFD0135082D11
:106BE800F4D11649DFF864B0204600F001FD002515
:106BF800AE421DD918F805A0504605F01BF900282B
:106C080014BF52462E225946204600F0F1FC0135A9
:106C1800082DEDD1012221463846FFF705FF84F8FB
:106C28000C90BDE8F88F5146204600F0E1FCD5E70E
:106C38000349204600F0DCFCE9E700BF5AC1020026
:106C480058C1020056C1020050C102005CC10200D6
:106C58001FB50021039001AA44F20100CDE90111FA
:106C680000F004F805B05DF804FB000008B572B642
:106C7800FFF7C4FEFFF73EFD0028FBD1074B08488D
:106C88000849C01AC008000440F00100FFF79EFE42
:106C9800054B1B68DB0700D500BE08BD6CC00200B1
:106CA8009CC00200F3C10200F0ED00E049B152B10E
:106CB800531E1A4007D1826001608380C26010466B
:106CC80070470E2070470920704710B58468C26865
:106CD8008388121B934208D3C26813400268D154B8
:106CE800C3680133C360002010BD0420FCE782683C
:106CF800C3689A420AD08268838813400268D35CCA
:106D08000B7083680133836000207047052070474B
:106D1800094A537891780133DBB2994208BF0023BE
:106D2800117899421FBF03705078182303FB002085
:106D380014BF0430002070474830002073B5054662
:106D480002A8002400F8014D0E4600F06DFB0DF17D
:106D58000600FFF7DDFF90B106700A4B9DF806208C
:106D680045605A709DF8070000F082FB24B9064B75
:106D78004FF48012C3F80021204602B070BD0424ED
:106D8800F0E700BF4830002000E100E0024B4FF47C
:106D98003C6043F00103184700C2020038B50C4BB1
:106DA8000C4C4FF40032C3F8802001254FF4803397
:106DB800C4F84833C4F808336560FFF7E7FF064BAB
:106DC800A56000241C60FFF7E1FF044B1C7038BD70
:106DD80000E100E00010014064310020553100203E
:106DE800F8B51F4B1F491B680025C1F84051C1F871
:106DF8004451C1F84851C1F84C51C1F80051C1F88B
:106E080004514BB3D1F8044517490968641A24F0B2
:106E18007F442F461A68A24209D8A41A15441A7C3E
:106E2800DE691AB11F74D3E905209047AEB90F4B3C
:106E38000F4A197813788B4205D10133DBB2022B44
:106E480008BF0023137012780A4B43F822500A4BEC
:106E58004FF48012C3F80021F8BD3346DAE700BFCB
:106E680068310020001001406431002060310020AA
:106E7800613100205831002000E100E02DE9F74F92
:106E88009E4A9F49137809789E4D99423CD0013318
:106E9800DBB2022B08BF002313709B4912789B4B6F
:106EA8000F6853F822003B1823F07F4300220B6041
:106EB8002B6816461446944613B942B12B6006E077
:106EC800196881420ED902B12B60091A19604FF076
:106ED80001082B68DFF83CA200930027BEB9DFF851
:106EE8003CB260E0401A0C44D968C3F800C0D3F83B
:106EF8001CE031B13A1922F07F42C3E90121DE6179
:106F08001E4601227346D7E70026B046E1E734461D
:106F1800F6697D4A63681268DFF804C2A068991AA6
:106F280021F07F41614500F2A580014421600122E2
:106F380022742A680023C4E90133E361002A40F07F
:106F4800A2802C60CAE75A1C9BF80210D2B2914268
:106F58008BF8002004BF00228BF80020182202FBC7
:106F680003B32A6819799C68022974D003297ED052
:106F7800012918D1217CB1B9DA6862601A69A26066
:106F88005A699B69A361624BE2601B78002BC0D0F1
:106F98006160BEE79C4200F093809946DB69002B54
:106FA800F8D1002323749BF800309BF801209A4203
:106FB800C9D12B682FB9009A934202D1B8F1000FBA
:106FC80043D0002B79D0D3F800A0524D4E4BD5F8C2
:106FD80004751C68DFF84C813E1B98F8003026F0D9
:106FE8007F4603369BB94FF48033C5F84433C5F860
:106FF8000433494B4FF400324FF00109C3F88021A4
:107008001A60C5F80090FFF7C1FE88F80090B245F5
:107018002CBF5444A41924F07F44C5F84045D5F842
:107028000435DB1B23F07F43E41B033324F07F4448
:10703800A3420AD9D5F80435C5F84035FFF7A6FEAE
:10704800354B4FF40032C3F80021314B00221A703F
:1070580003B0BDE8F08F13469146A0E71174D269DA
:107068000123002AFAD1002B9DD02A609BE7002338
:107078001946F6E7D31A23F07F43834234BFC31A75
:107088000023236053E721681368994213D8591ADB
:107098001160E26155E7091AD8691A4638B1034602
:1070A80018688842F7D3401A1860184613462160BA
:1070B800E061DC6112E71346F2E7FFF76FFEC4E711
:1070C8004C450DD1D3692B6053B90F48019201216A
:1070D800CAF8081003600E4B1970FFF757FE019AA3
:1070E800E1692368C9F81C1011B1086803440B60F2
:1070F8002B689A4218BF012753E700BF6031002070
:1071080061310020683100206431002058310020AE
:10711800543100200010014000E100E04830002018
:10712800FEFF7F005531002008B5FFF737FE104BF2
:1071380000200B2218809A700E4B18600E4B1870A6
:107148000E4B18700E4B4FF48012C021C3F88021EB
:1071580083F814131A6002F18042A2F56F22C2F874
:10716800080583F81113074BD2F804251A6008BDE7
:107178004830002068310020603100206131002053
:1071880000E100E064310020074B9B784BB132B13D
:1071980028B10368187C20B959745A6170470720D0
:1071A80070470820704700BF483000202DE9F7439A
:1071B8001D4FBB7805460E4690469BB390B30429F5
:1071C8002ED9436973B3437C02A80024012B00F82D
:1071D800014D0CBF8946A14600F026F90DF10600C5
:1071E800FFF796FDD0B101230370104B4560D3F82B
:1071F8000435C0E90498C0E902369DF806307B7072
:107208009DF8070000F034F924B9094B4FF48012B7
:10721800C3F80021204603B0BDE8F0830424EFE75B
:107228000724F7E70824F5E748300020001001405C
:1072380000E100E0064A92783AB130B1426922B1E1
:10724800002202740221FFF779BD0820704700BFB1
:10725800483000200648074A03780749D35C0122D2
:1072680013B1043001F0D0BC0C3001F0BBBA00BF40
:10727800A02A0020D0310020943100200648074A77
:1072880003780749D35C012213B1043001F078BCBC
:107298000C3001F05DBA00BFA02A0020D0310020D8
:1072A8009531002037B50578012D04D035D3022D4E
:1072B80028D003B030BD43681F4C19782046FFF72B
:1072C80004FD78B11D4B01908DF800501B6868468D
:1072D8009847A168E368A2885B1A9A420ED3FFF721
:1072E800B9FFE6E7A268E3689A42F2D002AB134A14
:1072F80003F8080D126818469047EAE7104B012278
:107308001A70D6E7C36801938DF80050FFF7A2FF03
:107318000A4B1B6868469847CBE70A490A48FFF7B3
:10732800E6FC10B9FFF7AAFFC3E702A8032300F899
:10733800083D024B1B68EEE7703100206C310020DD
:10734800803100209531002084310020F0B51F469F
:10735800234B89B006461A600C4600293DD08A881E
:1073680020480968FFF7A2FC002834D1A289A16847
:107378001D48FFF79BFC00282DD11C4D0FCD6C46F6
:107388000FC495E80F0084E80F0073690693337CF7
:10739800174A18488DF81C70003318BF01238DF860
:1073A8001430737C002B14BF0E2300238DF8153086
:1073B800F3680293B368039333680193694673686B
:1073C800009300F077FE30B90B4B18703368013327
:1073D80001D0FFF73FFF09B0F0BD0720FBE700BF72
:1073E8006C310020703100208431002008C2020076
:1073F800AD720200A02A00208031002070B5084C30
:10740800014608482678FFF772FC054636B1002386
:107418002370FFF71FFF08B1FFF71AFC284670BD5D
:10742800803100207031002070B5EFF3108672B6FD
:107438000C4A946801239CB993600B4B0B4DD3F80D
:10744800801029401160C3F88050D3F8841051602F
:107458004FF0FF32C3F88420047006B962B670BDDD
:107468000370FAE79831002000E100E0FC06FFBD58
:10747800084B9A6810B55AB150B9EFF3108172B63B
:10748800054A1C6814605C685460986001B962B66B
:1074980010BD00BF9831002000E100E001F01F029C
:1074A8004B090121914000EB830000F01DB801F069
:1074B8001F0301229A404B0900EB8300D14300F0DF
:1074C80029B84B0901F01F0150F82300C84000F00B
:1074D8000100704750E8002F0B4640E8003C9CF044
:1074E800000FF7D11046704750E8003F43EA010209
:1074F80040E8002C9CF0000FF6D11046704750E889
:10750800002F02EA010340E8003C9CF0000FF6D18E
:107518001046704750E8003F03EA010240E8002C9B
:107528009CF0000FF6D11046704750E8003F03EB7F
:10753800010240E8002C9CF0000FF6D1104670477D
:1075480050E8003FA3EB010240E8002C9CF0000F3C
:10755800F6D1104670470121FFF7C6BF0021FFF79B
:10756800CEBF37B5054602A8002400F8014DFFF745
:107578005BFF2A686B68116899420ED9481E106033
:1075880011F8014CEB68298A01FB0434AB681179C6
:107598001B1ADBB2994238BF13719DF80700FFF739
:1075A80067FF204603B030BD37B5054602A8002363
:1075B80000F8013D0C46FFF737FF2A681368591C8D
:1075C8001160E968641A298AB4FBF1F41C709DF80B
:1075D8000700FFF74DFF03B030BD826810B50446C1
:1075E8002AB143690168006998470023A36010BD68
:1075F8000EB403B5039929B102AA04AB42F8043DBD
:1076080000F06AF802B05DF804EB03B070478268D6
:1076180030B40468551C8560A154D0E901329A42FF
:1076280002D330BCFFF7D9BF30BC70472DE9F84F03
:107638009946DDE90A431746824688460A460126E6
:10764800BA420FD24E4538BF4E4613F0010B01D156
:1076580064B900240125B9F1010F1AD909F1FF39DC
:107668007D43F8E7B2FBF7F20136E9E79B070ED551
:10767800B9F1000F0CBF30252025A642EAD2013C03
:1076880029465046FFF7C3FF002CF6D1E1E7202535
:10769800F3E7B8FBF5F39F42E2D9DFF83890B8FB7F
:1076A800F5F3504619F8031005FB1388FFF7AFFFF1
:1076B800B5FBF7F5002DF2D1BBF1000F02D00CB1EC
:1076C800A64201D3BDE8F88F20215046013CFFF7C0
:1076D8009EFFF4E728C202002DE9F74F05469046C1
:1076E8000E46002900F03A8116F8011B002958D0EF
:1076F800252940F0D180002702E047F0010716460F
:10770800324612F8013B2D2BF7D0302B04D02B2B0F
:1077180005D147F00407F2E747F00207EFE7002436
:107728002A2B06F101021BD1D8F80030191D1B685D
:10773800C8F800101C44164633782E2B1CD101368D
:107748004FF0000A314611F8012BA2F13000092848
:1077580014D80A2303FB0A23A3F1300A0E46F1E7E3
:1077680012F8013CA3F130010929E5D80A2101FBEF
:107778000434303C1646D3E74FF0000A324612F87C
:10778800011B01F0FB0068281646F8D0692916D0BD
:1077980054D8582970D00ED825297DD03378002B9D
:1077A800A2D12B7B002B00F0D980284603B0BDE87E
:1077B800F04FFFF712BF632968D06429EED1D8F8DB
:1077C8000020D2F80090111D89EAE972C8F800106B
:1077D800A2EBE9724FF0010B092A61DCD34538BFEF
:1077E800D3462CB1B9F1000F01DB790700D5013C74
:1077F800BA0702D5BAF1000F04D0FB0702D4002C57
:1078080054D10024B9F1000F58DAC9F100092D212B
:107818002846FFF7FCFE07F00302022A05D1BAF159
:10782800000F02D1002C4DD10024CDE9004753466A
:107838000A2249462846FFF7F9FEAFE7732954D0D4
:1078480016D87029AAD1D8F800301A1DC8F8002017
:10785800302128461C68FFF7DAFE78212846FFF712
:10786800D6FE00220823CDE9003221461022E1E7A6
:1078780075292FD0782991D1D8F800100A1DC8F899
:107888000020CDE90047534610222CE0D8F80030FC
:107898001A1D1978C8F800202846FFF7B8FE7DE7BA
:1078A8000A230BF1010B92FBF3F295E7A345A9D24A
:1078B80020212846013CFFF7AAFEA0E77807AAD5B1
:1078C8002B21A5E7A345B0D230212846013CFFF77C
:1078D8009EFEA7E7D8F80010CDE900470A1DC8F8B2
:1078E800002053460A220968A4E7D8F800301A1D78
:1078F800C8F80020F907D3F8009012D54F46A7EB37
:10790800090B17F8011B41B9A345BFF447AF202164
:107918002846013CFFF77BFEF6E72846FFF777FE8F
:10792800EDE7B9F1000F17D0484604F02DFB0746E4
:10793800BC4200D954B909F1FF3919F8011F0029CF
:107948003FF42CAF2846FFF762FEF6E720212846D1
:10795800013CFFF75CFEEBE74F46E9E703B0BDE803
:10796800F08F2DE9F047B0F806904479D2F800A0DE
:107978009DF8208009FB04F4043C06460AEB03004A
:10798800A0420F4688BFA4EB030A191DC2F800A045
:10799800B1FBF9F509FB15114DB9A9EB01045445E3
:1079A80028BF5446BAF1000F04D1BDE8F087366805
:1079B800013DF1E704317B1970182246B8F1000F38
:1079C8000ED001461846AAEB040A04F038FAD1454D
:1079D800254436684C464FF0000128BF5446E1E77D
:1079E8001946F0E7F8B546790146721E05460023A8
:1079F80093422D6803D30024A64202D8F8BD013370
:107A0800F6E70F682846FFF7CFFD01343946F3E75C
:107A18002DE9F843068ACD1C0746FFF7A2FD043E70
:107A280035440446B5FBF6F5F0B14FF48073EDB27A
:107A38008380C680013D076081464FF00008A84555
:107A480012D23846FFF78DFD064648B163790133F7
:107A5800637108F10108C9F8000007608146EEE784
:107A68002046FFF7BFFF34462046BDE8F8830121D2
:107A78000430FFF75ABD10B5012104460430FFF762
:107A88005FFD10F0FF0F04D12046BDE81040FFF75E
:107A9800A9BF10BD1FB504AC44F8042D0022009204
:107AA8002246FFF75EFF04B010BD1FB504AC44F8D2
:107AB800042D012200922246FFF753FF04B010BDA7
:107AC80041DF7047064B10B500241C70054B1C6045
:107AD800BFF35F8F0449054800F030F8204610BD19
:107AE800AC310020B031002038C20200A43100209F
:107AF80007B502A8002300F8013DFFF795FCF1EE59
:107B0800103A23F09F03E1EE103ABFF35F8F0A4B60
:107B18004022C3F884219DF80700FFF7A9FC03F071
:107B28003FFF20B1FFF7CCFF03B05DF804FB20BF97
:107B380040BF20BFF8E700BF00E100E00B684A68DB
:107B48004360934208BF0023016008BF4360704749
:107B5800436843B10268916852680B44934243609A
:107B680004BF0023436070470D4930B5A1F59472F6
:107B78000225914201D800200EE08B1ADB1093FBFE
:107B8800F5F302EBC30452F83330834205D802D22E
:107B980004F10802EDE7606830BD2146E9E700BF5F
:107BA80088C3020008B5FFF7DFFF024B002808BFB3
:107BB800184608BD4DC202000C4B1B78062B10D18D
:107BC8000B4B1B681A070CD10A4B186800F0F0031E
:107BD800302B08D000F0E000A0F140035842584193
:107BE8007047002070470120704700BFE00F00F089
:107BF800E40F00F0E80F00F0094B1B78062B0CD1BE
:107C0800084B1B681A0708D1074B186800F0F000EA
:107C1800A0F130035842584170470020704700BF18
:107C2800E00F00F0E40F00F0E80F00F008B5FFF7F0
:107C3800C3FF28B17D4B7E4A1B68C3F3042313603E
:107C4800FFF7DAFF10B17B4B7B4A1A60FFF7B4FFEE
:107C580028B17A4B7A4A1B68C3F342331360FFF7A3
:107C6800CBFF20B1774AD36823F08073D360FFF746
:107C7800A3FF40B14FF080430022C3F80C21C3F8A2
:107C88001021C3F83825FFF7B7FF10B16E4B032258
:107C98001A60FFF7B1FF40B16C4B05221A60012250
:107CA8009A6700229A603F225A60694B1B78062B1C
:107CB80050D1684B1B6819074CD1674B1B6803F000
:107CC800F003502B46D14FF08052644BD2F8041485
:107CD800C3F82015D2F80814C3F82415D2F80C14E8
:107CE800C3F82815D2F81014C3F82C15D2F81414B8
:107CF800C3F83015D2F81814C3F83415D2F81C1488
:107D0800C3F84015D2F82014C3F84415D2F8241447
:107D1800C3F84815D2F82814C3F84C15D2F82C1417
:107D2800C3F85015D2F83014C3F85415D2F83414E7
:107D3800C3F86015D2F83814C3F86415D2F83C14A7
:107D4800C3F86815D2F84014C3F86C15D2F8442467
:107D5800C3F87025FFF730FF28B1414B414A1B6833
:107D680003F04F031360FFF727FF48B14FF080433C
:107D7800D3F80024D20744BF6FF00102C3F80024EF
:107D8800394B1B68062B08D1384B1B68062B01BFE3
:107D9800374A136843F480631360364AD2F8883050
:107DA80043F47003C2F88830BFF34F8FBFF36F8F6F
:107DB8004FF01023D3F80022002A03DBD3F8043253
:107DC800002B2FDA2C4B0122C3F80425D3F800240A
:107DD800002AFBD04FF010221521C2F80012D3F868
:107DE8000024002AFBD04FF010231522C3F80422E8
:107DF800214B1A46D3F800140029FBD00021C3F800
:107E08000415D2F80034002BFBD0BFF34F8F19496B
:107E18001A4BCA6802F4E0621343CB60BFF34F8F7A
:107E280000BFFDE7164B174A1A6008BD240300106F
:107E38004035014074C007400DF0ADBA440200104F
:107E48003C050040F0ED00E0A00500401056004061
:107E5800E00F00F0E40F00F0E80F00F000C0004071
:107E680058020010E40E00403001001034010010E8
:107E78003C17004000ED00E000E001400400FA0576
:107E8800B42A00200090D003054A4FF0A043105CAC
:107E9800D3F8043523FA00F0C04300F0010070471E
:107EA80042C70200044B1A5C012393404FF0A042E2
:107EB800C2F80C35704700BF42C70200044B1A5C79
:107EC800012393404FF0A042C2F80835704700BF25
:107ED80042C7020008B50020FFF7F0FF0120FFF7B6
:107EE800EDFF0220FFF7EAFF0320BDE80840FFF797
:107EF800E5BF08B50020FFF7D5FF0120FFF7D2FF47
:107F08000220FFF7CFFF0320BDE80840FFF7CABFF4
:107F1800074A4FF0A041105CD1F804350122824095
:107F280022EA03001340C1F80805C1F80C35704770
:107F380042C7020038B5084C04F10803054600287A
:107F480018BF1C4623682BB11A6822605B68284654
:107F58009847F7E738BD00BFBC31002020B9054B72
:107F680001225A70FFF7E6BF012802D1014A90703A
:107F7800F8E77047B431002020B9034B01225A704A
:107F8800FFF7D8BF704700BFB431002038B50B4C9D
:107F9800237883B90A486360A3602361E36000F033
:107FA800D1F8054603F0FCFC08B900F0D9F8012324
:107FB8002370284638BD8525FBE700BFB431002073
:107FC800657F020037B502A80023094C00F8013D7F
:107FD800FFF72AFAE368013BE360E56815B900F0AA
:107FE800D3F8A5709DF80700FFF742FA03B030BD3B
:107FF800B4310020012813B509D003D303281BD0BE
:1080080002B010BD0F4B0122C3F88020F8E702A888
:1080180000230D4C00F8013DFFF706FA23780BB951
:10802800FFF7B4FFE3689DF807000133E36001231D
:10803800A370FFF71DFAE3E700F092F8FFF7C2FF1D
:10804800DEE700BF00E100E0B43100201FB503788F
:108058008DF8003043680193037A8DF80830C368BF
:108068000393054A054B684653F8213052F821100E
:10807800984705B05DF804FBC8310020CC310020DA
:108088001FB503788DF800304368019383688DF835
:108098000830C3680393054A054B684653F82130F6
:1080A80052F82110984705B05DF804FBC83100204C
:1080B800CC310020F0B5194B067891F81DE043F853
:1080C8002620174B94460A6943F82620154B03F8D7
:1080D80006E00C4607460FCC89B06D460FC594E8FC
:1080E8000F0085E80F000496BEF1000F0AD0BCF11E
:1080F800000F0D4A694608BF0022381D00F078FCC1
:1081080009B0F0BDBCF1000F084A694608BF00225B
:1081180007F10C0000F05CFAF2E700BFCC31002058
:10812800C8310020D031002055800200898002002B
:1081380000F18040002382B0036003680193019B33
:1081480002B07047054A13792BB9012110601171EB
:108158005371184670478520704700BFD4310020FE
:10816800084B1A68D20706D4C02283F800230122DC
:10817800C3F880211A604FF080430122C3F8182504
:10818800704700BF00E100E0044B01221A604FF085
:108198008042D2F81834DB03FBD470470C0000404F
:1081A800124B1B6810B573B14FF48070FFF7C0FF16
:1081B8004FF080430122C3F808230D4B587910B9BA
:1081C8005A711B6898470B4B1B6873B14FF4827048
:1081D800FFF7AEFF4FF080430222C3F80823044B99
:1081E80001201B68BDE81040184710BD0001004081
:1081F800D43100200401004000F1804000F5C04067
:10820800002382B0036003680193019B02B07047AA
:10821800800000F1A040D0F8003723F44033C0F8C4
:108228000037D0F8003743EA0141C0F8001770471B
:108238002DE9FF470024584A584E594D0194012111
:108248001368A2F5C040012B80B206D1D6F80433DA
:108258000B4202D0FFF7D0FF0C430432AA424FEA88
:108268004101EDD14F4B1B68012B0AD14FF4BE7071
:10827800FFF7C2FF4FF0A04344F00044D3F8103595
:10828800019314F0FF0F1AD0474F002501263442FE
:1082980010D0AB0003F1804303F5C043D3F81005B9
:1082A800D3F8101557F82530C0F30420C1F3014165
:1082B80003B198470135082D4FEA4606E7D1002C4F
:1082C80066DA00224FF0FF33CDE90223DFF8D890B9
:1082D8000127002634464FF0A04809EB060393F91E
:1082E8005020531C45D0D2B222F0C005E90804A89A
:1082F800084402F0070310F804CC07FA03F31CEA59
:10830800030F36D009EB050C92099CF930C059F8D7
:108318002CA0BAF1000F0AD1032A2AD10DF1080EB8
:108328001EF801C04CEA030C0EF801C001E0032A54
:10833800F4D005F5E07110F80C0C58F8211018422B
:10834800C1F3014105D0022913D1032A0BD11146EB
:1083580004E003290DD1032A05D102212846FFF79D
:1083680057FF0134E4B2BAF1000F02D01146284693
:10837800D0470136042EB0D154B14FF0A043019A32
:10838800D3F81035934203D00193029B0393A0E7DF
:1083980004B0BDE8F08700BF006100400060004005
:1083A800206100407C610040DC310020014B1B68EB
:1083B800184700BF383200200D4B984237B50D469C
:1083C80010D102A8002300F8013DFFF72DF8094B52
:1083D8001C7914B901221D601A719DF80700FFF776
:1083E80047F814B9002003B030BD1120FBE700BFE7
:1083F80000200040383200200023435082B0435808
:108408000193019B02B070470A4610B54FF48E7174
:10841800FFF7F2FF136A9168C95C136A01331362AC
:10842800C0F81C1510BD024608B54FF492710068DB
:10843800FFF7E2FF4FF484711068FFF7DDFF136860
:1084480001221A6008BD8B690A4610B54FF4847181
:1084580023B9FFF7D1FFD0F8183510BDFFF7CCFFCF
:10846800536AD168D0F81805C854536A0133536267
:10847800F3E700001FB501238DF80030044BCDE968
:108488000110D3E900126846904705B05DF804FB77
:108498004032002030B54C4AD2F8043313F4007F40
:1084A80085B015464FD0D2F82431002B4BD04FF46D
:1084B80092711046FFF7A0FF4FF40173C2F808331A
:1084C800424B93F8291009B9012151603E49022213
:1084D8008DF80020D1F88024C1F8802403929A698D
:1084E8000292DA6801920022C3E906226846D3E9BB
:1084F800001290473448D0F81C315BB133490A6AFE
:108508004B699A420A464BD291F82830002B47D142
:10851800FFF77AFF2C4AD2F8443193B14FF4A27195
:108528001046FFF769FF294B93F8291009B101217B
:1085380011609A692AB100229A61586AD968FFF7CE
:1085480099FF05B030BDD5F804335B07D2D5D5F80F
:108558000831002BCED01D4C1B482146FFF773FF76
:10856800636AA2699A422346C4D1E269E1684AB1C2
:108578002369E3600023606AA261E3616362FFF735
:1085880079FFB7E794F829200AB901226A600E4AF0
:108598004FF40170C2F8080300229A61586AEEE7A6
:1085A8004FF48E710848FFF727FF51690029B1D0B1
:1085B8000023029191688DF800300191536168465B
:1085C800D2E900139847A5E7002000404032002078
:1085D8002DE9F8435A4B047991462C2202FB0432C8
:1085E800064692F82A200D469846002A40F0A380B5
:1085F80054490068FFF7E0FE0746002840F09D80D8
:1086080029683368481C0BD04FF0A04001228A40EB
:10861800C0F8082501F5E0724FF0030C40F822C0BD
:108628006868421C1FBF00F5E0724FF0A04C4FF085
:10863800000E4CF822E0AA6995F814C0C3F8242566
:108648006A7DBCF1010F4CEA0202C3F86C25C3F83D
:108658001405C3F80C151DD1AA68511C1FBF02F5DB
:10866800E0714FF0A0404FF0000C40F821C0E968DD
:10867800481C0BD04FF0A04C01208840CCF80805CE
:1086880001F5E0704FF0030E4CF820E0C3F8081530
:10869800C3F810252C23634308EB0302C2F80490A7
:1086A8002A6948F80320B9F1000F31D04FF48E71D0
:1086B80030682D7FFFF7A0FE30684FF4A271FFF7F6
:1086C8009BFE3268204BC2F80433120B53B2002BC6
:1086D800A8BF03F160404FEA53134FEA4511BABFF0
:1086E8001A4802F00F0500F561404FEA8303C9B24A
:1086F80003F16043B4BF415580F8001303F56143AB
:1087080002F01F02012101FA02F2C3F880211A6067
:1087180033680422C3F800252C2303FB04830022BA
:10872800C3E9062283F829205A61012283F82A2006
:108738003846BDE8F8830827FAE71127F8E700BFAD
:10874800403200209D8402008000020014ED00E009
:108758002DE9F843224F06794FF02C0909FB0674DE
:1087680080466569002D37D16261A16025624FF4AA
:108778008E71006884F82850FFF73EFED8F8000094
:10878800012383602146FFF73FFE6368A1462BBBA8
:10879800D8F80050226A63699A4212D3D8F8003098
:1087A800D3F81C21002AFBD00122DA6000202C23F8
:1087B80003FB067600237361BDE8F88394F828303C
:1087C80043B9D5F81C31002BF8D049462846FFF7A5
:1087D8001BFEDFE70F20EAE71120EDE72846EBE76D
:1087E800403200202DE9F843384E05792C2303FB4D
:1087F800056307465C6824B103684FF40170C3F849
:1088080008032C2303FB0563986950B1D869002835
:108818003ED024B13B684FF40172C3F80423112001
:1088280034E09A61D9605862D8612C2303FB056350
:1088380093F829301BB910B93846FFF7F4FD4FF00B
:108848002C0909FB05683868D8F80430002B34D1A6
:108858004FF4A271FFF7D0FDC1463868D0F8243133
:10886800D0F80821D0F84441B2B90CB9002BF4D0A3
:108878002C2202FB05650022AA611BBB24BB95F8CC
:1088880029103B680122B1B11A600020BDE8F883C5
:108898001961DA610120C8E7002BE9D1002CE7D182
:1088A8004946FFF7D0FDD8F82430D8F818209A4266
:1088B800D3D82346DCE75A60E7E74FF40173C0F8E2
:1088C8000433E2E70320E1E70F20DFE7403200202E
:1088D8000023435082B043580193019B02B0704774
:1088E8001FB501238DF80030054B8DF80800019164
:1088F8006846D3E90012904705B05DF804FB00BF55
:108908006C3200207FB5384AD2F82461002E49D055
:1089180010464FF49271FFF7DBFF02238DF8003009
:10892800D2F88034C2F880340393D2F83C358DF8FD
:1089380008302E4BDA6801920022C3E90622684605
:10894800D3E900129047284AD2F8443173B14FF462
:10895800A2711046FFF7BCFF244B996931B1002181
:108968009961D2F83C05D968FFF7BAFF1E4AD2F8D8
:108978002031ABB14FF490711046FFF7A9FF1B4BA4
:10898800596969B1D2F84C158DF808100022996818
:108998008DF8002001915A616846D3E9001290478A
:1089A80004B070BDD2F81031002BCCD04FF48871D0
:1089B8001046FFF78DFF0D4BD2F83C0599698842A8
:1089C800C1D1DC69D96864B1D2F8005225F020051C
:1089D800C2F800521A699C61DA60DE61FFF780FF15
:1089E800B1E79C61FAE700BF002000406C3200202C
:1089F8002DE9F8435E4B06799146242202FB0632A4
:108A0800044692F820200D469846002A40F0AB8094
:108A180058490068FFF7D0FC0746002840F0A580B9
:108A280029682368481C0BD04FF0A04001228A40D7
:108A3800C0F8082501F5E0724FF0030C40F822C099
:108A48006868421C1FBF00F5E0724FF0A04C4FF061
:108A5800000E4CF822E0AA6995F814C0C3F8242542
:108A68006A7DBCF1010F4CEA0202C3F86C25C3F819
:108A78000C15C3F814051DD1AA68511C1FBF02F5B7
:108A8800E0714FF0A0404FF0000C40F821C0E968B9
:108A9800481C0BD04FF0A04C01208840CCF80805AA
:108AA80001F5E0704FF0030E4CF820E0C3F808150C
:108AB800C3F810252423734308EB0302C2F804907B
:108AC8002A6948F80320B9F1000F3BD04FF48871A8
:108AD80020682D7FFFF7FCFE4FF490712068FFF7A8
:108AE800F7FE4FF492712068FFF7F2FE20684FF40A
:108AF800A271FFF7EDFE22681F4BC2F80433120B78
:108B080053B2002BA8BF03F160404FEA53134FEA5A
:108B18004511BABF194802F00F0500F561404FEA48
:108B28008303C9B203F16043B4BF415580F8001311
:108B380003F5614302F01F02012101FA02F2C3F8B2
:108B480080211A6023680822C3F80025242303FB28
:108B580006830022C3E906225A61012283F82020F5
:108B68003846BDE8F8830827FAE71127F8E700BF79
:108B78006C3200200D8902001003020014ED00E0A1
:108B880001F06043B3F1005F2DE9F041074632D1AF
:108B98001C4B0679242505FB063598466C6964BB91
:108BA8006A61A96000684FF49071FFF791FE4FF475
:108BB800AC713868FFF78CFE3B686A69A968C3F82E
:108BC8004415C3F8482501229A606A68BAB9D3F8EF
:108BD8002011D3F8582149B9002AF8D00F202423AE
:108BE80003FB068600237361BDE8F081002A14BFE9
:108BF8000F200020F3E71020F6E71120F4E72046C5
:108C0800F2E700BF6C320020F8B501F06043B3F121
:108C1800005F04460F465ED10379304D242101FBE5
:108C28000351486820B121684FF40476C1F80863FD
:108C3800242101FB03539E6956B1D969002939D013
:108C480020B123684FF40472C3F80423112030E0E4
:108C58009A61DF60DE614FF488712068FFF738FEA3
:108C68004FF4A2712068FFF733FE2368C3F8347508
:108C7800C3F8382516BB01221A602279242101FB8A
:108C88000251496809BBD3F81041D3F84411D3F80D
:108C9800240114B909B90028F5D0242303FB02558F
:108CA8000023984214BF032018469942AB6118BFAD
:108CB8000F20F8BD1F61DA610126CCE7D3F8002246
:108CC80042F02002C3F80022D7E74FF40472C3F839
:108CD80004230020EDE71020EBE700BF6C320020F2
:108CE80008B5094B1B7853B10020FFF7E7F80120BE
:108CF800FFF7E4F80320BDE80840FFF7DFB8BDE858
:108D08000840FFF7E7B800BF90320020F8B57B4C69
:108D1800237805461BB100232370FFF7E1FF172DC9
:108D280000F28880DFE805F00C1717435465768059
:108D3800888D888D959A9A9A9A9AC4C9D1D9E4E46B
:108D4800FFF7CEFF6E48FEF775FA6E4B0022044619
:108D58001A702046F8BD0020FFF796F8F8B10020F9
:108D6800FFF7ACF8022D0CBF4FF4E1614FF47A61C4
:108D7800644B1D704FF400404FF4FA740025E0FB7B
:108D880001454FF47A7200232046294602F092FFEB
:108D9800002201465A48BDE8F840FEF707BAFFF737
:108DA80081F8022D0CBFC8214FF4C871E0E70020FC
:108DB800FFF76AF840B10020FFF780F84FF44871D8
:108DC800504B03221A70D5E7FFF76CF8C821F7E774
:108DD8000020FFF759F838B10020FFF76FF84FF47B
:108DE8007A61484B0422EDE7FFF75CF84FF4C8714D
:108DF800F7E70020FFF748F848B10020FFF75EF8D2
:108E0800404B05221A7041F69A110022C2E7FFF77B
:108E180049F8F5E70020FFF77BF83A4B06221A706D
:108E2800002240F6CD41B5E70020FFF73BF8354B6F
:108E380007221A7000248CE701202070FFF768F8D9
:108E4800EEE701202070FFF763F800224FF480411D
:108E5800A0E7FFF74EF82B4B0C22EAE72A482B4EE7
:108E6800FEF7E8F9D5F1110504461CD0D8B9012D53
:108E780013D0C8235D434FF400474FF4FA70002124
:108E88004FF47A720023C7FB050102F013FF224654
:108E980001461D48FEF78AF904460220FFF702F84A
:108EA8000123337055E70220FFF708F80023F8E79D
:108EB800FFF716FF134B1222BBE7FFF711FF002045
:108EC800FEF7F0FF0F4B1322B3E7FFF709FF01206E
:108ED800FEF7E8FF0B4B1422ABE7FFF701FF00207A
:108EE800FEF7E0FF0120FEF7DDFF064B1522A0E7A5
:108EF800FEF7FFFF034B1D709CE700BFE432002024
:108F0800B4320020E5320020943200209032002054
:108F1800044B1B6813F0010301D0FFF7F7BE184696
:108F2800704700BFE0320020032812D8012A0BD175
:108F3800012908D100F10E02D2B200EB40000C4B1F
:108F48001A540020704700220129F6D009D30229BB
:108F580001D007207047064B00EB400018444270D0
:108F6800EFE7034B00EB400018448270E9E700BFCD
:108F7800D432002008B5012202210020FFF7D4FFD7
:108F880008B1072810D1072202210120FFF7CCFFE2
:108F980008B1072808D100210A220846FFF7C4FFB4
:108FA80010B1072808BF002008BD00000388102B57
:108FB80010B502D0112B1ED010BD1A4C2168B1B9C2
:108FC80001220846FFF7B0FF08B1072824D107227D
:108FD80002210120FFF7A8FF08B107281CD10422AD
:108FE80002210020FFF7A0FF08B1072814D1236849
:108FF80001332360E0E70B4A1368013B1360002B41
:10900800DAD1FFF7B7FF0028D6D0074B1B68002B33
:10901800D2D0BDE810401847034B1B68002BE6D0A0
:109028009847E4E7EC320020E832002072DF70470E
:1090380073DF704776DF704777DF70477ADF7047F6
:109048007CDF70477FDF70478FDF7047B1DF704785
:1090580067DF70473FDF70470D4B4A881B889A428D
:1090680010B504460CD10A8840F677239A4207D1F6
:109078008B880849033B9BB21A46002001F070FA1E
:109088002388628804490020BDE8104001F068BACE
:10909800CE2A0020A6C70200C4C70200FDF7D8BD2B
:1090A8000388212B13B5044655D027D8112B30D06F
:1090B800132B5CD0102B1FD13549002001F050FA3A
:1090C800344B01221A704FF0A0434FF48042C3F88A
:1090D80008254FF40052C3F808250720FFF718FFAA
:1090E80008B1FDF7B5FD2C4BA1882C48198002F07A
:1090F8002BFA08B1FDF7ACFD02B010BD522B3ED0E3
:10910800562B01D03B2BF7D11321A088FFF792FFF4
:10911800EFE72349002001F023FA1E4B00221A70C2
:109128004FF0A0434FF40052C3F808254FF4804293
:10913800C3F80825184B4FF6FF721A80BFF34F8FFC
:109148001849194BCA6802F4E0621343CB60BFF3B5
:109158004F8F00BFFDE71549002001F001FA02A971
:10916800002321F8043DA088FFF76EFFC1E70A48F5
:1091780000231A4685210088FFF764FFB9E70648EF
:1091880000231A4619460088FFF760FFB1E700BFC1
:1091980068C70200F0320020CE2A0020A435002043
:1091A80074C7020000ED00E00400FA0583C702005E
:1091B80038B50478054654B90549204601F0D0F978
:1091C800AA8A29692046BDE8384001F0C9B938BDE6
:1091D80034C9020008B503784BB9054B3B21188800
:1091E800FFF728FF18B1BDE80840FDF731BD08BDFD
:1091F800CE2A002038B5054D044645F001054FF448
:109208007A40A847013CFAD138BD00BFA0C7020088
:1092180073B54FF0A044D4F810351B060DD44FF4A5
:1092280000650A20C4F80C55FFF7E4FFC4F8085598
:109238003220FFF7DFFFC4F80C554FF0A0442C484C
:1092480000F0F2F9D4F810252A49C2F3C012002020
:1092580001F086F9D4F810252749C2F3C05200203E
:1092680001F07EF900F0B4FA00210446692000F00C
:1092780045FBD82803D12149002001F071F92121AB
:10928800692000F03BFB20210646692000F036FBF0
:109298003246034605461A49002001F061F9194B88
:1092A800187800B31849002001F05AF9174B1849EB
:1092B8001A7818480E700132D2B2392A88BF302283
:1092C8001A701B7881F83F3002AA402322F8023D29
:1092D800114B4D7004EB84041B8881F8374002F071
:1092E800A5FA02B070BD0D4901F03AF9F9E700BFDF
:1092F800B3350020FFC7020015C8020029C80200C4
:109308003AC80200F032002052C80200B82A0020F1
:10931800B0350020D02A0020CE2A00204FC80200F5
:10932800FDF796BC08B50849084801F0EBFF08B1FD
:10933800FDF78EFCF721054801F0F9FF18B1BDE8EB
:109348000840FDF785BC08BD619002006C3500201F
:10935800F0B54FF0A0440323C4F82C370C23C4F80D
:109368001C37D4F81035190697B00DD44FF40065A2
:109378000A20C4F80C55FFF73DFFC4F80855322001
:10938800FFF738FFC4F80C5500F07AFA15227A2155
:10939800692000F097FA0B227B21692000F092FAED
:1093A8007B21692000F0AAFA89490246002001F0D1
:1093B800D7F808225221692000F084FA8549002054
:1093C80001F0CEF8042000F0A7F9FDF7ADFE08B1D2
:1093D800FDF73EFCFEF776FB08B1FDF739FC02F01D
:1093E800A3FA08B1FDF734FC16AC002344F83C3D61
:1093F8000120214602F024FB08B1FDF729FC204694
:1094080002F0EEFB08B1FDF723FC16AD112305F8B9
:10941800543D714802F0B8FD6F4982B22846FFF703
:109428000FFE08B1FDF714FC08220021204602F0C7
:109438002FFD6A4A4FF0C8732046CDE90723FFF78E
:10944800FDFD08B1FDF704FCFFF76CFF644B6548B0
:109458000793214602F066F808B1FDF7F9FB0021F1
:109468000422284602F014FD5F4B60480193294608
:1094780002F068F908B1FDF7EBFB00275C4B1822F6
:10948800394628461F7002F003FD4FF48C6301260D
:109498003C2203933946102320468DF81B308DF863
:1094A80004608DF819608DF81A6002F0F1FC02234F
:1094B8008DF81C304F49062338468DF81F3001F0CF
:1094C8004FF84D498DF8196038468DF81A6001F04B
:1094D80047F84A4B8DF804601A1D1968204601F0B8
:1094E800C2F808B1FDF7B4FB2A4644494448FFF7DF
:1094F8009DFD08B1FDF7ACFB1C220021204602F0BF
:10950800C7FC00234FF42032CDE90732ADF82A30EA
:109518008DF82C303B4B0C934FF4702203253A4BBB
:10952800099220468DF828500D9301F0F1FC08B1FE
:10953800FDF78EFB4FF0A0434022C3F81857C3F83D
:109548000C254FF40032C3F84457C3F80C254FF4E8
:109558000022C3F84C57C3F80C25D3F818252B491B
:1095680042F42022C3F818250120FFF771FD08B145
:10957800FDF76EFB0120FFF76DFD2549002000F087
:10958800EFFF244B002293F854100120FFF754FDFD
:1095980008B1FDF75DFB1A4B01211878FFF748FD6C
:1095A80008B1FDF755FB1C4A1C480121FDF7ECFDED
:1095B80000224FF400411A48FDF7F8FD08B1FDF705
:1095C80047FB1849002000F0CBFFFEF791FAFCE7B3
:1095D80070C802008AC80200A3C8020010003C003C
:1095E800A5900200A4350020B9910200D02A0020DD
:1095F800F1320020B0C80200D2C80200BC2A002004
:10960800CC2A0020DD91020029930200F42A0020D0
:109618000DC90200F4320020199202006CC8020041
:109628008035002025C90200014902F064BC00BF52
:109638009636002070B5284D2B78012B08D002D320
:10964800022B22D070BD2428FCD101232B70F9E70E
:109658002C28224E224C14D12249304602F06DFCAF
:1096680068B93246204900F07BFF022364220021BA
:109678001A482B7002F00CFC00232370E2E7002349
:10968800F4E72378F0540133F7E72C28144A1DD166
:1096980016490B780133DBB2082B0B7016D900245E
:1096A8000C70147012490D4A2C70204600F058FFB7
:1096B8000A49104802F01FFC0F4B084801221A7093
:1096C80021466422BDE8704002F0E2BB13780349EA
:1096D800C85401331370B5E79536002030360020A2
:1096E8009436002052C9020058C9020016370020DB
:1096F8006EC902009636002017370020037807B598
:109708003BB90DF10700FDF779FE9DF80700FFF75B
:1097180091FF03B05DF804FB00B50C228BB0052364
:10972800CDE905230723079300238DF820308DF812
:1097380021300B4B0B4A09930B4B00934FF480736A
:10974800CDE9022304900193084A0623694604A838
:10975800FDF7FCFD08B1FDF77BFA0BB05DF804FBE3
:1097680000B01300183800201837002005970200B1
:1097780000F1804000F5E040002382B003600368F8
:109788000193019B02B070470F4A08B50323C2F842
:10979800F03502216FF00043C2F8F4154FF48270DF
:1097A800C2F80833FFF7E4FF4FF48070FFF7E0FFDB
:1097B8000123C2F80035054BC2F828350023C2F84A
:1097C8002435C2F8201508BD0070004000000501CE
:1097D8001FB5FFF7D9FF22490122C1F800254FF430
:1097E8008270C1F82CD6C1F83026FFF7C1FF1D4B97
:1097F8000A601A6042F2107203F58073196801B9A1
:109808004ABB194B012119604FF48070FFF7B0FF74
:109818004FF48270FFF7ACFF114B0020C3F800052E
:10982800DAB1BDF800204FF47A7140F6E30312FB79
:10983800013241F2C71392FBF3F294B241F2E713FB
:1098480022465A430949642392FBF3F200F088FE4A
:1098580020B204B010BD013AD0E742F20F74F7E726
:1098680000700040047000400870004073C9020096
:10987800037813B9014B01221A7070471839002078
:109888001FB50C210822CDE900124FF0CC7200233D
:1098980002920222039369468DF80C200648074A73
:1098A80000F07AFB08B1FDF7D3F9054800F09EFAFD
:1098B80005B05DF804FB00BF88C902007998020072
:1098C8008CC902001FB50B4C8DF80C1000232370B7
:1098D80001238DF80D2000930146022303AA0648B0
:1098E80000F0F8FA08B1FDF7B3F92378002BFCD0A3
:1098F80004B010BD183900208CC9020070B5144C92
:1099080086B006AA00232370012302F8091D054624
:10991800014600930F4800F0DDFA064608B1FDF74E
:1099280097F92378002BFCD06EB901230DF11702AB
:1099380029460848267000F0E8FA08B1FDF788F9CA
:109948002378002BFCD09DF8170006B070BD00BF2F
:10995800183900208CC902000023435082B04358B4
:109968000193019B02B070472DE9F0470D78089EDE
:109978009DF824A004460F469946002D5ED1D0F8E4
:109988002431D2F800803BB14FF49271FFF7E4FF25
:10999800012363613B7017E0D0F81C3153B34FF4D7
:1099A8008E71FFF7D9FFD0F824311BB14FF49271B3
:1099B8002046EBE713689E4212D919F80330C0F825
:1099C8001C35136801331360B04535D1D4F8043120
:1099D80093B34FF482712046FFF7BEFF002504E0E1
:1099E8000123BAF1000F03D0C3612846BDE8F08710
:1099F8004361E9E7D0F80831002BE5D04FF48471D2
:109A0800FFF7AAFFD0F82431002BCFD113689E426C
:109A1800DAD9D0F8181509F8031013680133136060
:109A2800721E934205D10223C0F80032012323623B
:109A3800CAE79E42FAD1C7E70125D6E74FF49271EB
:109A4800FFF78AFF4FF48E71FFF786FF4FF484719A
:109A5800FFF782FFBAE700002DE9FF470C460546ED
:109A68001F4620463B4B03934FF4827116469DF8E0
:109A78003080FFF771FF4FF49271FFF76DFF4FF4DD
:109A88008E71FFF769FF4FF48471FFF765FF0023BC
:109A9800C4F800326B6385F82E3001232362A3607B
:109AA8006A6B97421DD9B35CC4F81C356B6B0133E4
:109AB8006B632B68E3B905F1340A05F12E09039BA2
:109AC800002B1FDC95F82E3053BB0020039B002B86
:109AD80015DC0023C4F800350523C4F8003503203D
:109AE8000DE0B8F1000F01D0E361E2E76361E0E760
:109AF80040F28623AB60AB68C4F80433002004B09E
:109B0800BDE8F087CDE900783346524649462046FD
:109B1800FFF72AFF0028D5D0039B013B0393CEE72C
:109B2800D4F8C434C4F8C434002BCED013F0010FD9
:109B380014BF4FF40240032048F2012213F0020F31
:109B480018BF104613F0040F48F2022318BF184636
:109B5800BCE700BFA08601002DE9FF470C4605467B
:109B68001F462046354B03934FF482719246FFF708
:109B7800F3FE4FF49271FFF7EFFE4FF48E71FFF78B
:109B8800EBFE4FF48471FFF7E7FE0023012F2E68E8
:109B98006B6385F82E3008BF02224FF001030CBF1B
:109BA800C4F80022C4F8003223622360AEB905F17C
:109BB800340905F12E08039B002B18DC95F82E308C
:109BC8001BBB0020039B002B0EDC0023C4F80035D0
:109BD8000523C4F80035032006E040F28623AB6075
:109BE800AB68C4F80433002004B0BDE8F087CDE9C1
:109BF800007653464A4641462046FFF7B5FE002800
:109C0800DCD0039B013B0393D5E7D4F8C434C4F8F4
:109C1800C434002BD5D013F0010F14BF4FF4024009
:109C2800032048F2012213F0020F18BF104613F068
:109C3800040F48F2022318BF1846C3E7A0860100A4
:109C4800F0B52C4C2C4894F82C3089B004F134022F
:109C58000193A36A0093636A04F12E01FFF784FE5F
:109C68002746E0B994F82EC0266ABCF1000F1DD132
:109C7800217B8B1E012B19D8626AA3699A4215D1E0
:109C8800E26963696262C6F340160329A36284F835
:109C98002C6006D1009618492046FFF7DDFE09B072
:109CA800F0BD15492046FFF757FFF8E7134D0FCDD4
:109CB80003AC0FC42B682360BCF1000F17D00E4A09
:109CC800D2F8C434C2F8C43499070CD501238DF8EE
:109CD8000830002387F82F307307E0D4D7E9003124
:109CE80002A89847DBE75A07F3D50223EFE78DF878
:109CF80008C0EEE71C390020003000402839002059
:109D08002DE9F84F0579364C4FF03C0808FB05F86B
:109D180004EB08079B4697F82D3081460E4692467D
:109D2800002B59D12F490068FEF746FB002855D172
:109D38003168737B87F8383001F5E0724FF0A04343
:109D4800B860C7F804B087F82F0087F8300040F2F1
:109D58000C6744F808A043F82270726802F5E07CAA
:109D680043F82C70D9F80030C3F80815C3F80C254F
:109D7800B268C3F82425BAF1000F25D01A0B53B2E4
:109D8800317B002BA8BF03F16046D2B24FEA5313D0
:109D9800B8BF02F00F074FEA4111B4BF124E06F5E3
:109DA80061464FEA8303C9B203F16043B4BFF1557A
:109DB80086F8001303F5614302F01F02012101FA3E
:109DC80002F2C3F880211A603C2303FB05440123F7
:109DD80084F82D30BDE8F88F0820FBE71120F9E75B
:109DE8001C390020499C020014ED00E00268037948
:109DF8000521C2F80015044A3C2101FB0323022275
:109E080083F82D20704700BF1C3900202DE9F74F3B
:109E18002E4E90F80480D0F800E02D4BCEF8083391
:109E28003C2404FB08648A4694F82F30154603F056
:109E3800FF0B33B1A368CEF80433112003B0BDE89B
:109E4800F08F82F00403C3F3800384F82F3022627A
:109E58008C46BCE80F0004F10C070FC7DCF8003093
:109E68003B60DAF80430A362DAF80C2062629AF8F0
:109E78000110CEF888159AF80010C8EB08190129C6
:109E880006EB89091AD0B9B9C5F340153C2101FB85
:109E98000861484681F82C5000957146FFF7DCFDB3
:109EA8003C2303FB08F806EB080256F80830002BA1
:109EB800C4D182F82F30C1E70125E7E784F82CB038
:109EC80071464846FFF748FEEAE700BF1C39002004
:109ED80086420400F0B587B004460F4615460021B7
:109EE800142201A81E4601F0D3FF9DF830308DF8EA
:109EF8000570002B14BF2022002201A920460296DB
:109F08000495FFF783FF07B0F0BDF0B587B00446AE
:109F18000F461546002112220DF106001E4601F0DB
:109F2800B7FF0123002201A920468DF804308DF8DF
:109F3800057002960495FFF769FF07B0F0BD0000B1
:109F48001FB503788DF8003003798DF80430437914
:109F58008DF8053083688DF80630C3688DF80730B2
:109F68000369029343690393054A064B684653F80D
:109F7800213052F82110984705B05DF804FB00BF66
:109F88005839002060390020024B4FF4807043F0AC
:109F980001031847A0C902002DE9F0479146077848
:109FA800324A42F82790324A42F827304B7B8046A3
:109FB8000C4663B30868496882008B0002F1A0422E
:109FC80003F1A04340F20C65C2F800570126C3F81C
:109FD80000574FF0A04506FA00F006FA01F1C5F85F
:109FE8000805C5F8081540F20D61C2F80017C3F856
:109FF8000017FFF7C9FF4FF0000AD5F8102563686E
:10A0080022FA03F3DB070FD5BAF1000F1FD1B9F11C
:10A01800000F3B46174A214608F1040008BF0022FA
:10A02800BDE8F047FFF76CBE236806FA03F3C5F8EE
:10A038000C35FFF7A9FF236806FA03F3C5F80835BE
:10A048000AF1010AFFF7A0FFBAF1090FD5D1636839
:10A0580001254FF0A04605FA03F3C6F80C35FFF7C3
:10A0680093FF63689D40C6F80855D0E76039002023
:10A0780058390020499F02000369C1688B429DBF7F
:10A088008268D21802F1FF3203F1FF3394BF501AED
:10A09800581A70472DE9F041D0E902670446F61BCB
:10A0A8004068964288461546384405D901F0C7FEEF
:10A0B8003D44E560BDE8F0813246AD1B01F0BFFECE
:10A0C8002A4608EB0601606801F0B9FEF1E72DE9C0
:10A0D800F843C5680646894617464FF000083469B4
:10A0E800B3687068A54228BFE418013C621B5C1B7A
:10A0F800BC4228BF3C46944228BF144649462844DF
:10A10800224601F09CFEB3682544AB4208BF0025F7
:10A118003F1BA044A144F560E1D14046BDE8F88367
:10A1280010B5114C114AA2610223C4E90433104B43
:10A13800E361A2644FF400730E4A2362E2640023D1
:10A1480010220D49A362E01D6362E362A3656365A3
:10A15800E365226501F0CFFE0849204601F0CBFEF9
:10A168002023A37110BD00BF68390020A6C90200D2
:10A17800F0390020E0390020AFC90200B3C902005D
:10A18800F8B5184C182300FB033503FB00402544A1
:10A19800C46A012C0F46164611D003D3022C1BD0DB
:10A1A80000240AE02846FFF767FF864205D83246B2
:10A1B80039462846FFF76EFF34462046F8BD284644
:10A1C800FFF75AFF8642344628BF044622463946DE
:10A1D8002846FFF75FFFF0E72846BDE8F840FFF79D
:10A1E80076BF00BF6839002073B50D4B1B78044655
:10A1F8000D4616460BB9FFF793FF02A8002300F897
:10A20800013DFDF711F9324629462046FFF7B8FF10
:10A2180004469DF80700FDF72BF9204602B070BDF3
:10A2280068390020826810B504464068531C834290
:10A2380005D820688154A360E3680133E360D4E95A
:10A2480001329A420BD121682069FFF7CDFFA3683C
:10A25800984215BF4FF0FF330023E360A36010BDA1
:10A268002DE9F84F9A46DDE90A43904606468946A5
:10A278000A46012742451DD2574538BF574613F0B5
:10A28800010B12D18CB19B0718D5BAF1000F0CBF86
:10A2980030252025A74208D229463046FFF7C2FFBD
:10A2A800F368002B04F1FF340ADAF368002B09DAAB
:10A2B800BDE8F88FB2FBF8F20137DBE72025E9E7C4
:10A2C800002CE7D10125BAF1010F04D90AF1FF3AB0
:10A2D80008FB05F5F7E7B9FBF5F39845F8D9DFF87A
:10A2E80044A0B9FBF5F330461AF8031005FB13999F
:10A2F800FFF798FFF368002B03DBB5FBF8F5002D9B
:10A30800EFD1BBF1000FD3D0002CD1D0A742CFD2D0
:10A3180020213046FFF786FFF368002B04F1FF3455
:10A32800F2DAC5E7BAC902002DE9F04F9BB00AABD3
:10A338000D46059340210023CDE90613CDE90830E9
:10A34800039016464FF00A0915F8011B00295CD046
:10A3580025294CD14FF0000B09E02D2B04D0302BD0
:10A368000DD14BF0020B01E04BF0010B0D462B78A1
:10A378002B2B05F101010FD0EFD8232B0FD0002490
:10A38800294611F8013BA3F1300009280AD809FB36
:10A398000434303C0D46F3E74BF0040BE6E74BF092
:10A3A800080BE3E72E2B0FD10D464FF0000A284685
:10A3B80010F8011BA1F13007092F07D809FB0A1370
:10A3C800A3F1300A0546F2E74FF0000A284610F8D4
:10A3D800011B01F0FB07682F0546F8D0642936D029
:10A3E80009D8582926D063292CD025290AD105A8AF
:10A3F800FFF718FF06E0732900F0988016D8702937
:10A4080000F0A480089B002B9EDA089B002B09DD36
:10A41800079A1AB10AA90398FFF7E6FEDDE90723B0
:10A428001344089308981BB0BDE8F08F752974D0C1
:10A438007829E7D13168CDE9004B081D30605346D3
:10A44800102271E033681A1D32601978CFE731683D
:10A458000F68081D87EAE7713060A1EBE7714FF0DC
:10A468000108092941DCD04538BFD0462CB1002F5E
:10A4780002DB1BF0040F00D0013C1BF0020F02D0DE
:10A48800BAF1000F04D01BF0010F01D1002C3CD110
:10A4980008990029B6DB002F3ADA7F422D2105A85A
:10A4A800FFF7C0FE08990029ACDB0BF00301022975
:10A4B8000FD1BAF1000F0CD1002C4FD0A04508D213
:10A4C800302105A8FFF7AEFE0899002904F1FF34F2
:10A4D800F2DA0899002995DBCDE9004B53460A22A8
:10A4E800394605A8FFF7BCFE8CE791FBF9F108F1A6
:10A4F8000108B6E7202105A8FFF794FE089900296E
:10A5080004F1FF34C4DB002CC5D0A045F2D3BFE76B
:10A518001BF0040FC6D02B21C1E73168CDE9004BF1
:10A52800081D306053460A220968DAE733681A1DA5
:10A5380032601C6814F8011B00293FF463AF05A8BA
:10A54800FFF770FE089B002BF4DA5BE731680B1D00
:10A55800336000220823CDE9003271E70024BBE70D
:10A568000EB403B503AB02AA53F8041B42F8043D2A
:10A57800FFF7DAFE02B05DF804EB03B070476DDF59
:10A58800704779DF70477DDF704764DF70472DE9DA
:10A59800F74F0C9CBDF834B02788002580468A46C2
:10A5A80091462E46B8F80020B2420BDC35B122881D
:10A5B800013AD21B92B2FF2A39D8DA55002003B0EB
:10A5C800BDE8F08FD8F8042052F826000190002248
:10A5D8000DF1030101A8FFF7D8FF0028EFD19DF87E
:10A5E80003204A4521D12288002D14BF00200220D3
:10A5F80002EB09010144594519DC3DB9013292B217
:10A60800228003F802A022880132228022880DF1DC
:10A6180003011A4401A8FFF7B8FF0028CFD1218809
:10A628009DF803200A44228001250136BAE70C2050
:10A63800C5E72DE9F341089CBDF824501746CDE93C
:10A64800004502220646FFF7A2FF48B91022394604
:10A658003046CDE9084502B0BDE8F041FFF797BFA5
:10A6680002B0BDE8F0812DE9F04F00231688138071
:10A6780090F82D3085B007460D46144653B3082E82
:10A6880001D80C2026E102A8FFF779FF002840F046
:10A69800218113880822CA54238801339BB21B22C4
:10A6A8002380CA542088013080B2208006220DF110
:10A6B8000901284401F0C3FB23889DF808200633CC
:10A6C8009BB212F0FE0218BF01222380EA542388AD
:10A6D80001332380BB78FBB123880433B342D0D83D
:10A6E80002A8FFF74EFF002840F0F48023880322D9
:10A6F800EA54238801339BB219222380EA54238821
:10A70800BDF8082001339BB2E9182380EA54120AE5
:10A718004A70238802332380FA789AB12388D91C97
:10A72800B142AED80221E954238801339BB20121FA
:10A738002380E95423880B449BB22380EA5423885E
:10A748000B4423807A68AAB12388D91CB14298D8CF
:10A75800022192F90020E954238801339BB20A218F
:10A768002380E954238801339BB22380EA54238849
:10A77800013323803B89002B40F0A0803B8A5BB1EA
:10A78800CDE900462B460722032107F11000FFF709
:10A7980050FF002840F09E803B8B5BB1CDE900461E
:10A7A8002B461522142107F11800FFF742FF002855
:10A7B80040F090803A6A002A40F08F80D7F82480D1
:10A7C800B8F1000F30D0B8F804302188981C8A1CE2
:10A7D8000244B2423FF655AFFE283FF652AF03336C
:10A7E8006B54238801339BB2FF222380EA542388C9
:10A7F80001339BB22380B8F80020EA54E918120A02
:10A808004A702088023080B22080B8F804205AB1FB
:10A81800D8F8081000296AD0284401F010FB2388D2
:10A82800B8F804201344238097F82C30002B40F00C
:10A838009980387800284DD03B88012B57D0218843
:10A848008A1CB2423FF61DAF012805D17B7802333E
:10A858000B449E42FFF415AF023E761A04A9B6B225
:10A8680021F8086DA818FFF78EFE98BB3978BDF857
:10A878000820022900F0BB807B78934202D3B242C1
:10A8880040F2B380012940F0B4809BB29E42C0F0F0
:10A89800B080ADF808300821BDF80830FE2B3FF62F
:10A8A800F0AE22880133AB542288013292B2228062
:10A8B800A95422881344238000200BE0CDE90046E8
:10A8C8002B460622022107F10800FFF7B2FE0028F6
:10A8D8003FF454AF05B0BDE8F08FB4F800C00CF1F8
:10A8E8000603B3423FF6CDAE1188052901D80720EB
:10A8F800F0E76FF4486E01EB0E039BB24FF27D3E1A
:10A908007345F4D95388052BF1D96FF448601818AA
:10A9180080B27045EBD94FF6FF70814203D0834275
:10A9280001D09942E3D8052305F80C302388013378
:10A938009BB212212380E954238801339BB22380E0
:10A948001188E954E818090A4170238802339BB238
:10A9580023805288EA54E918120A4A70238802337D
:10A9680023802BE7BB6A002BC1D04FF000094FF0C2
:10A978000C0A4FF0160B97F82C305FFA89F29342C5
:10A988007FF657AFB96A0AFB02F201EB0208B8F882
:10A998000430981CFE283FF674AE208803332B54ED
:10A9A800238801339BB2238005F803B02388013341
:10A9B8009BB223808A5AEA54E918120A4A702088FE
:10A9C800023080B22080B8F804205AB1D8F80810B4
:10A9D80000298CD0284401F032FA2388B8F80420E2
:10A9E8001344238009F10109C5E7092154E7B2425C
:10A9F800FBD9ADF808604EE770B5C0B14AB116880A
:10AA08000024B44203D305196D789D4208D0A142B1
:10AA180001D800200BE0055D01352C44A4B2F0E715
:10AA2800A142F6D9A31C1380005D013880B270BD25
:10AA380037B502AC002324F8023D134622460546EA
:10AA4800FFF7DAFF10B1BDF80600284403B030BDA7
:10AA580072DF704773DF704738B5012204460D4630
:10AA6800B0F83812D0F83402FFF7E2FF00B10570F1
:10AA780004F13C0204F50D7104F15400BDE83840BE
:10AA8800FFF7E6BFF8B5077804460D46002F00F03B
:10AA9800058100F24A26A17007220021304601F004
:10AAA800F7F9E38813B1A378012B04D0E3794BB10C
:10AAB800A378022B06D1636BA3B1012284F851223B
:10AAC80008209847334604F5147113F8012F12B97A
:10AAD8009942FAD117466B1E032B53D8DFE803F0CF
:10AAE800050B0F1284F85132ECE7A3791BB194F8E7
:10AAF800243003B95FB9E3790BB1002F44D1237A2D
:10AB0800002B43D1637A002B0CBF00250425636B0F
:10AB1800A570002B3CD0033D012D39D86279002A5D
:10AB280036D094F85222002A32D184F854220122D5
:10AB380084F853220720984704F13C051822002185
:10AB4800284601F0A5F9E36A94F824200121581E4B
:10AB5800884288BF0B4684F83C1084F8513032B1E3
:10AB6800884296BFA36A84F8521084F85230A178BC
:10AB7800002384F8503004291BD8DFE801F0770D52
:10AB8800223559000025C2E70225C0E70325BEE7A4
:10AB9800002384F85332CFE7C4F84432C4E9106381
:10ABA8000223012284F83C30802384F83120A4F861
:10ABB8004830A378002B5CD1636B002B6AD100204E
:10ABC80067E0022384F8313062B1072384F83C300F
:10ABD8002369A4F848300023C4F84432E3682664A3
:10ABE8006364E6E70323F1E763696364A369A4F890
:10ABF800483012B1062384F83C306379B3B194F835
:10AC080052329BB994F8543283B1022384F85030FD
:10AC180004212046FFF720FF0028CAD1052384F825
:10AC2800313004F50D73C4F84432C2E70323F6E764
:10AC3800E3696364236AA4F8483012B1062384F8F0
:10AC48003C30637983B194F852326BB994F854323A
:10AC580053B1022384F8503004212046FFF7FCFE4C
:10AC68000028A6D10623DAE70423D8E784F8313090
:10AC78009FE72A46D4F8441204F15400FFF7E8FE8F
:10AC880038B994F8301094F85400FFF7E3FE002820
:10AC980092D0F8BD94F83100984790E70820F8E77B
:10ACA8000388112B10B50C460AD0262B1FD0102B69
:10ACB80005D1C37B012B02D18388A1F8483210BD8E
:10ACC8000022838881F85222B1F848229A42F6D1AC
:10ACD8000B79002BF3D101212046FFF7D3FE002882
:10ACE800EDD0A36B002BEAD0BDE810401847037ADB
:10ACF800013B012BE3D889780523013191FBF3F35C
:10AD080003EB8303C91AC9B2E6E7704775DF7047DA
:10AD180076DF70477ADF70477BDF7047034B1A880E
:10AD280082420CBF18460020704700BF0C3C002030
:10AD3800024B9B6903B11847704700BFF03B0020E6
:10AD480037B585B22846FFF7E9FF034670B1164CC0
:10AD5800017A227B91420BD200F10A012846FFF7C3
:10AD6800D5FFE8B1112801D0FFF7E2FF03B030BDED
:10AD7800237C0022027243B13B212846FFF7C8FF1B
:10AD880030F0080301D0FFF7D3FF6369002BEDD043
:10AD980000228DF80420ADF8065001A89847E5E791
:10ADA8001A7A01321A72E1E7F03B002013B50B461C
:10ADB800497A0F4C024669B9D4E901101C7A002C73
:10ADC80018BF01465868FCF7F1F908B1FFF7B0FF62
:10ADD80002B010BD002119726369002BF8D001215F
:10ADE800ADF806008DF8041001A89847F0E700BFF9
:10ADF800F03B00208388B3F5FA7F28BF6FF4F9721F
:10AE080030B528BF9C1805884A8838BF0024954269
:10AE18000CD84088904209D38A88A24206D303F20C
:10AE2800F310904234BF0020012030BD0020FCE721
:10AE38000388112B70B5014648D002D8102B1ED0BC
:10AE480070BD122B52D0502BFAD12F4BC288DB8900
:10AE58009A42F5D1038A022BF2D186883046FFF751
:10AE68005DFF05460028EBD001F1120000F05FF904
:10AE780030BB6868FCF7DEF90028E1D009E0C37B45
:10AE8800012BDDD14FF6FF70FFF748FF054620B9CB
:10AE98000420BDE87040FFF74BBF1C4A8E8806802F
:10AEA800002303721368C5F80A300A3053684360F8
:10AEB8001031FFF79FFF144B6872DB89002BBFD15D
:10AEC80029463046BDE87040FFF770BF8088FFF71D
:10AED80025FF04460028B3D04068FCF7ABF908B159
:10AEE800FFF726FF4FF6FF732380A9E786883046D1
:10AEF800FFF714FF05460028A2D008310A30FFF7F3
:10AF080079FF6872DCE700BFF03B0020203C00209E
:10AF1800F8B5064650B305460FCD154F3C460FC44D
:10AF280095E8070084E807003068124B3B60B8B129
:10AF3800FFF7F0FEC8B931680A681A604A685A60B3
:10AF48000D480E4A4FF6FF7303800D4B40F8043F3F
:10AF58000021FCF719F9002814BF0320002004E0A1
:10AF68001846FFF7D9FE0028EAD0F8BD0E20FCE706
:10AF7800F03B0020203C00200C3C002049AD0200A2
:10AF8800283C002073B50191019C06466CB1002550
:10AF98002C46294601A8FCF794FA18B106EB44039D
:10AFA80001349D800135142DF3D13046346002B050
:10AFB80070BD00002DE9F04303888488112B8DB003
:10AFC800064640D01A2B43D0102B16D1294DAB681A
:10AFD8000CA8DB4340F8303D55F8041FFCF79AFAFB
:10AFE800009901A8FFF7CEFF0027019B9F4207D3D6
:10AFF800132C18D90420FBF72BFE0DB0BDE8F08305
:10B0080001AB03EB47034FF00008B3F8049005EBDE
:10B018000800494608F10408FCF749FAB8F1740F2A
:10B02800F5D10137E1E721461348FCF737FA214605
:10B038001248FCF733FAF37B012BDED01048214687
:10B04800FCF72CFAD9E70C482146FCF730FAD4E78C
:10B05800057A0C482D09012D214606D9FCF71EFA60
:10B06800022D21460848F0D0EAE7FCF720FA2146ED
:10B078000548EAE7483C0020503C00204C3C0020B2
:10B08800543C0020583C00205C3C0020132801461A
:10B0980002D80248FCF715BA002070474C3C002043
:10B0A80010B50446FFF7F2FF002814BF204614200D
:10B0B80010BD70B5054616460AB90E2070BD0023AE
:10B0C80013600028F9D00368002BF6D0C38813F06A
:10B0D80003040FD10846FFF7E3FFC0B214280BD0D2
:10B0E8002B7983420AD9EB882A6800FB0320306059
:10B0F8002046E3E70720E1E70520DFE70420DDE756
:10B10800AADF7047002301380B70042806D8DFE84F
:10B1180000F00306080A0C0011230B707047212366
:10B12800FBE73123F9E71223F7E72223F5E7007855
:10B1380000F001007047F0B58B7891B005460C46D9
:10B14800164603B9012303228DF80E300021238807
:10B15800ADF80C30684600F09BFE6946607CFFF74E
:10B16800D1FF0DF10101A07CFFF7CCFF9DF8023063
:10B17800E27B62F3C303227C62F30413227B62F353
:10B188000003227D002A14BF0222012262F3420337
:10B1980000211C2209A88DF8023000F079FE637B9B
:10B1A80013F0300F15D002AF03220021384600F00B
:10B1B8006FFE0DF10901E07CFFF7A4FF11238DF864
:10B1C80008309DF80A300E97012262F342038DF889
:10B1D8000A30637B8DF824301422A37B8DF8253048
:10B1E800002104A800F054FE03AB0493A388ADF833
:10B1F8001C30A368CDF814D01BB1E288ADF8182034
:10B208000893A369002B2ED001AF032200213846F2
:10B2180000F03EFEA3691A88ADF82C205A88187BE6
:10B22800ADF82E2039465A680A920D97FFF76AFF43
:10B23800A3690DF10501587BFFF764FFA2699DF82A
:10B248000630917A61F3C303D17A61F30413117A5A
:10B25800927B002A61F3000314BF0222012262F3E9
:10B2680042038DF80630E36903B10C93334604AA10
:10B2780009A92846FFF744FF11B0F0BD90DF7047D9
:10B28800A5DF7047B5DF70477FB50023ADF808101C
:10B29800ADF80A106A4602A9064603930093ADF872
:10B2A8000430FFF7EBFF0546F8B1114B114CE41AD7
:10B2B800E408FCF777FC240444F001040346324612
:10B2C8000D492046FBF790FBBDF80020BDF8023081
:10B2D80002B91BB109492046FBF786FBBDF80420DB
:10B2E8001AB107492046FBF775FB284604B070BD24
:10B2F8006CC00200B4C00200CAC9020014CA02002D
:10B3080053CA020088B14FF0F7130360FB2303719F
:10B31800F723C3801723038141F6FB320023016121
:10B328008372C3728281184670470E20704730B10D
:10B33800A1F11703E02B04D80180002070470E20EC
:10B34800704707207047000013B5034680880C46F5
:10B35800A0B91A88232A00F0AF8011D8102A25D066
:10B36800112A54D0A37A4BB1E1880020FFF788FF57
:10B37800002840F0A7800123A072E37202B010BD3C
:10B388003A2A4ED0552A68D0242AEBD11A7A0B696A
:10B398004A73002BE6D04DF67A21ADF80400ADF8DB
:10B3A8000010ADF802008DF8042081E0DB7B0A79FB
:10B3B8000A73012B13D0022B14D0E18823898B4206
:10B3C80005D20020FFF75CFF70B90123E372217BEF
:10B3D800637B8B42C6D20020FFF756FFC2E70B887B
:10B3E800E380EAE74B88FBE7112802D10123A37227
:10B3F800EDE7FCF7D7FB3C4A3C4B3D499B1ADB0881
:10B408001B04024643F00100FBF7E4FADFE7F723E9
:10B41800CB8017230B8141F6FB338872C8728B816E
:10B42800A0E75B89CA88934228BF1346172B0A698D
:10B4380038BF17230B8162B1C97A51B140F6772121
:10B44800ADF80010ADF80200ADF8043069462046AA
:10B4580090470023E372A37284E7DB88C988A0724F
:10B46800172B38BF17238B4228BF0B462381FFF7C2
:10B4780009FF60B1FCF796FB1B4A1C4B1D499B1A40
:10B48800DB081B04024643F00100FBF7A3FAE27A4B
:10B49800002A7FF467AF2369002B3FF463AF40F6BF
:10B4A8007721ADF802202289ADF80010ADF804200C
:10B4B80069462046984755E7197A237B994228BF61
:10B4C800194689E711283FF459AFFCF76BFB064A88
:10B4D800064B07499B1ADB081B04024643F0010090
:10B4E800FBF778FA4AE700BF6CC00200B4C002005C
:10B4F800A9CA0200DACA0200B0DF704766DF7047E7
:10B50800034610B500214088FFF7F8FF024608B946
:10B518001A7210BD112801D10122F9E75B68BDE854
:10B528001040184760B159B10378DE2B0AD00B6878
:10B538004360DE2303704FF6FF734380002070479B
:10B548000E2070470820704728B10378DE2B04D1FD
:10B558004180002070470E20704708207047F0B5E2
:10B56800054685B00C46F1B1E8B10B78DE2B1AD14F
:10B5780082884B889A4204D10B7A13B10846FFF7A8
:10B58800BFFF2B88112B32D0512B0ED0012B0AD1A3
:10B598002B7A012B07D1A9886288914203D12372A3
:10B5A8002046FFF7ADFF05B0F0BDAE886388B34213
:10B5B800F9D1AF79022FF6D1AD7B2B1F022BF2D830
:10B5C80000211022684600F063FC052D14BF4FF4DB
:10B5D800C0730023694630468DF80070ADF804301A
:10B5E800FFF78AFF0028DED063689847DBE76388A7
:10B5F800AA889A4204BF4FF6FF736380D3E7A8DF97
:10B608007047ADDF7047AEDF704762DF704770B5D7
:10B6180005468AB00C46002963D0002861D003880B
:10B62800502B38D0572B73D0102B5AD10AAA00268A
:10B63800818842F8246D6069FFF73BFD0822314696
:10B648000DEB020000F024FC022302AA218AA8883C
:10B65800CDF80CD00293FFF7D4FF002841D1A3699D
:10B66800002B3ED00398FFF762FD002839D0019BDC
:10B678000BB101221A701822002104A800F008FC5E
:10B6880002238DF81030AB88ADF81830019B059473
:10B698000793A36923E08188606902AAFFF709FD7F
:10B6A8001822002104A800F0F3FBAB88ADF818308D
:10B6B8002189EB88029A05949942079218D12E8A1B
:10B6C800022E15D16AB105F11200FFF730FD029B79
:10B6D80048B101221A708DF81060A3690BB104A853
:10B6E80098470AB070BD187003238DF81030F4E73E
:10B6F800A2899A42F5D1A369002BF2D000228DF8D5
:10B70800102005F1120208922A8AADF82420E6E7F3
:10B718008188606902AAFFF7CCFC01460028E0D1C5
:10B72800029B1B78002BDCD0182204A800F0B0FB89
:10B7380001238DF81030AB88ADF818300594029BC2
:10B74800A6E70000F0B5374B8FB002AA05460E46B3
:10B7580003F1100C174618685968144603C40833D7
:10B7680063452246F7D1002D59D0002E57D03368B3
:10B77800AB6129463846FFF748FF00284DD12A46D5
:10B788000EA9012412F8023B21F8344D20468DF809
:10B798000630FFF734FF00283FD10146202206A8D3
:10B7A80000F076FB2A460223ADF8183012F80C3B5D
:10B7B8008DF81A309DF825301B4E6888079643F09F
:10B7C8000C0306A98DF824408DF825308DF8294002
:10B7D8008DF82A40FFF7AFFCF8B90146202206A8E9
:10B7E80000F056FB2A460323ADF8183012F8043B44
:10B7F8008DF81A309DF825306888079643F01003B5
:10B8080006A98DF824408DF825308DF829408DF84B
:10B818002A408DF82B40FFF78EFC0FB0F0BD0E20AC
:10B82800FBE700BF16CB0200F4000100F0B50F469D
:10B8380087B016461C46054618B301AA1946406942
:10B84800FFF737FCD8B94FF6FF739C421BD0019B1A
:10B85800CBB11B78CBB13388F42B18D80146102212
:10B8680002A800F015FBAB88ADF8083002A9012347
:10B878002046CDE904678DF80A30FFF7C4FE07B00B
:10B88800F0BD0E20FBE70520F9E70820F7E70720C1
:10B89800F5E710DF7047000013B50446094968460C
:10B8A800FCF74CF9019808B902B010BDD0E9003195
:10B8B8002046984718B16846FCF74AF9F2E7112084
:10B8C800F2E700BF34CB020013B5044607496846C7
:10B8D800FCF734F9019B0BB902B010BD2046D3E93F
:10B8E800002190476846FCF733F9F3E74CCB020098
:10B8F8000B4991F816335A09EC231341DB0706D597
:10B90800084B9A683AB94FF480030B60704742F2CB
:10B918000200FBF79DB91A6842F480021A6070476A
:10B9280000E100E098310020F7B5184F3C785CBB87
:10B93800174E012520463570FFF7AEFF112820D09D
:10B948002046FFF7C1FF134B1868019002A800F8C2
:10B95800054DFBF769FD104901A8FFF79AFF04465A
:10B96800B0FA80F0400938709DF80300FBF780FDBD
:10B978003CB90A4B34701C70FFF7BAFF2846FFF732
:10B98800A3FF204603B0F0BD0824FAE7C13C00201D
:10B99800C03C00202ECB0200756C0200C23C002087
:10B9A800014B1878704700BFC13C002007B5084913
:10B9B8006846FCF7C3F8019B13B903B05DF804FBB4
:10B9C800D3E9002090476846FCF7C2F8F3E700BFC8
:10B9D80040CB0200FFF7EABF60DF704769DF7047BE
:10B9E80061DF704730B5114DADF5017D4FF4FA7444
:10B9F8000DF1020103A8ADF80240FFF7F1FF70B99D
:10BA0800294601A8FCF79AF8029B002BF0D003A85E
:10BA1800D3E90021904701A8FCF79AF8F4E7052834
:10BA280001D0FBF715F90DF5017D30BDD0CD020031
:10BA3800024B1B780BB1FFF7D5BF7047C33C002002
:10BA480030B5054685B00C46002900F0B5805B4B43
:10BA58000B600C22002101A800F01AFA01238DF8CE
:10BA6800063022688DF80450062301A92020ADF87D
:10BA78000830FFF7B3FF60B1FCF794F8504A514B18
:10BA880051499B1ADB081B04024643F00100FAF7F0
:10BA9800A1FF0C22002101A800F0FAF901238DF87A
:10BAA80005302268002301A940208DF806308DF862
:10BAB8000730FFF793FF60B1FCF774F8404A414B39
:10BAC80042499B1ADB081B04024643F00100FAF7BF
