:020000022000DC
:106000000000012079630200616302006363020003
:10601000656302006763020069630200000000001C
:106020000000000000000000000000006B630200A0
:106030006D630200000000006F63020071630200E4
:10604000E972020073630200F974020073630200D4
:1060500073630200736302007973020073630200CA
:1060600073630200736302007363020073630200D0
:1060700073630200736302007363020073630200C0
:10608000736302003D6502007363020073630200E4
:10609000D9650200736302006DA102007363020000
:1060A0007363020073630200736302007363020090
:1060B0007363020073630200000000000000000030
:1060C0007363020073630200736302007363020070
:1060D0007363020073630200736302000000000038
:1060E00000000000000000000000000000000000B0
:1060F00000000000000000000000000000000000A0
:10610000000000000000000000000000000000008F
:10611000000000000000000000000000000000007F
:10612000000000000000000000000000000000006F
:10613000000000000000000000000000000000005F
:10614000000000000000000000000000000000004F
:10615000000000000000000000000000000000003F
:10616000000000000000000000000000000000002F
:10617000000000000000000000000000000000001F
:10618000000000000000000000000000000000000F
:1061900000000000000000000000000000000000FF
:1061A00000000000000000000000000000000000EF
:1061B00000000000000000000000000000000000DF
:1061C00000000000000000000000000000000000CF
:1061D00000000000000000000000000000000000BF
:1061E00000000000000000000000000000000000AF
:1061F000000000000000000000000000000000009F
:10620000364937480A1A02D0072291438D4635494C
:1062100035480A1A06D00722914381F309880222E1
:1062200082F3148831483249324A00F045F8324846
:106230003249334A00F040F832483349334A00F0DB
:106240003BF833483349344A00F036F83348344990
:10625000344A00F031F834483449354A00F02CF81B
:1062600034483549354A00F027F835483549002289
:1062700000F02DF834483549002200F028F8344861
:106280003449091A082903DB002202600430016046
:10629000314A90471F482049884205D0026804309F
:1062A00003B4904703BCF7E700208646EC46002085
:1062B00000212A4A9047FEE7884207D0521A05D0AB
:1062C000037801300B700131013AF9D170478842EF
:1062D00002D002700130FAE7704700000000012090
:1062E00000E00020000001200000012038A802008A
:1062F000982A0020F42A0020D8630200D863020004
:1063000074A5020038A80200982A0020982A0020CC
:10631000DCA50200DCA50200DCA50200DCA5020071
:10632000DCA50200DCA50200DCA50200DCA5020061
:1063300038A8020094A80200F42A0020F42A0020C1
:10634000F42A0020203700202037002020370020AA
:106350002037002020570020A16302001D84020086
:10636000FEE7FEE7FEE7FEE7FEE7FEE7FEE7FEE705
:10637000FEE7FEE7704700BF1048804710484FF027
:106380000701884385460F4880470F48016841F45C
:1063900070010160BFF34F8FBFF36F8FFFF730BF06
:1063A0000A480B490B4A884207D0521A05D0037895
:1063B00001300B700131013AF9D170477563020069
:1063C00000000120796D020088ED00E0DCA50200EC
:0863D000982A0020982A002001
:1063D8001FB50021039001AA44F20100CDE9011183
:1063E80000F004F805B05DF804FB000072B6034B3A
:1063F8001B68DB0700D500BE704700BFF0ED00E06A
:1064080049B152B1531E1A4007D18260016083809E
:10641800C260104670470E2070470920704710B5BB
:106428008468C2688388121B934208D3C2681340E9
:106438000268D154C3680133C360002010BD042032
:10644800FCE78268C3689A420AD08268838813404E
:106458000268D35C0B708368013383600020704747
:1064680005207047094A537891780133DBB2994285
:1064780008BF0023117899421FBF03705078182372
:1064880003FB002014BF043000207047F42A0020CA
:1064980073B5054600240DF107000E468DF8074038
:1064A80000F06CFB0DF10600FFF7DCFF90B1067001
:1064B800094B9DF8062045605A709DF8070000F0CA
:1064C80081FB24B9054B4FF48012C3F80021204604
:1064D80002B070BD0424F0E7F42A002000E100E0D7
:1064E800024B4FF43C6043F001031847E0A502005B
:1064F80038B50C4B0C4C4FF40032C3F88020012502
:106508004FF48033C4F84833C4F808336560FFF7A4
:10651800E7FF064BA56000241C60FFF7E1FF044B72
:106528001C7038BD00E100E000100140102C002074
:10653800012C0020F8B51F4B1F491B680025C1F826
:106548004051C1F84451C1F84851C1F84C51C1F803
:106558000051C1F804514BB3D1F8044517490968F3
:10656800641A24F07F442F461A68A24209D8A41A54
:1065780015441A7CDE691AB11F74D3E905209047C7
:10658800AEB90F4A0F4B11781B788B4205D10133F6
:10659800DBB2022B08BF0023137012780A4B43F8B2
:1065A80022500A4B4FF48012C3F80021F8BD33463D
:1065B800DAE700BF142C002000100140102C002046
:1065C8000D2C00200C2C0020042C002000E100E001
:1065D8002DE9F04FA04AA14913780978A04D9942B6
:1065E80085B03CD00133DBB2022B08BF0023137007
:1065F8009C4912789C4B0F6853F822003B1823F0F3
:106608007F4300220B602B6816461446944613B944
:1066180042B12B6006E0196881420ED902B12B60A5
:10662800091A19604FF001082B68DFF844A201939A
:106638000027BEB9DFF840B266E0401A0C44D968BA
:10664800C3F800C0D3F81CE031B13A1922F07F42F8
:10665800C3E90121DE611E4601227346D7E7002601
:10666800B046E1E73446F6697E4A63681268DFF8A7
:106678000CC2A068991A21F07F41614500F2A580FB
:1066880001442160012222742A680023C4E90133ED
:10669800E361002A40F0A2802C60CAE75A1C9BF8EC
:1066A8000210D2B291428BF8002004BF00228BF86E
:1066B8000020182202FB03B31A799C68022A1CD016
:1066C800032A12D0012A1FD1207CE8B9D3E903128A
:1066D800A2605A69E2609A69644BA2611B78002B38
:1066E8000CBF0B4603466360BEE700222B681146C9
:1066F800002B66D142B12B6006E029680A4689461C
:10670800002A59D1002323749BF800309BF80120FC
:106718009A42C3D12B682FB9019A9A4202D1B8F193
:10672800000F43D0002B73D0D3F800A0504D4D4B31
:10673800D5F804751C68DFF848813E1B98F80030CE
:1067480026F07F4603369BB94FF48033C5F84433AF
:10675800C5F80433474B4FF400324FF00109C3F832
:1067680080211A60C5F80090FFF7BAFE88F80090FB
:10677800B2452CBF5444A41924F07F44C5F84045C1
:10678800D5F80435DB1B23F07F43E41B033324F0E7
:106798007F44A3420AD9D5F80435C5F84035FFF738
:1067A8009FFE344B4FF40032C3F800212F4B0022D8
:1067B8001A7005B0BDE8F08F94422CD09146D2698A
:1067C8009EE719740122DB6992E7D31A23F07F430D
:1067D800834234BFC31A0023236053E72168136838
:1067E800994213D8591A1160E26155E7091AD86914
:1067F8001A4638B1034618688842F7D3401A186019
:10680800184613462160E061DC6112E71346F2E79F
:10681800FFF76EFECAE74C4511D1CB692B6073B9FF
:10682800DFF840E00120CDE90212CAF80800CEF8EE
:1068380000300E4B1870FFF753FEDDE902121368A3
:10684800D269C9F81C2012B11068034413602B6880
:10685800994218BF012755E70C2C00200D2C002069
:10686800142C0020102C0020042C0020002C0020C8
:106878000010014000E100E0F42A0020FEFF7F0044
:10688800012C002008B5FFF733FE104B00200B2227
:1068980018809A700E4B18600E4B18700E4B1870BB
:1068A8000E4B4FF48012C021C3F8802183F81413D3
:1068B8001A6002F18042A2F56F22C2F8080583F837
:1068C8001113074BD2F804251A6008BDF42A0020DA
:1068D800142C00200C2C00200D2C002000E100E0DE
:1068E800102C0020074B9B784BB132B128B10368BC
:1068F800187C20B959745A617047072070470820DE
:10690800704700BFF42A00202DE9F7431E4FBB78DB
:1069180005460E469046A3B398B304292FD9436978
:106928007BB3437C0024012B0DF107000CBF894683
:10693800A1468DF8074000F021F90DF10600FFF798
:1069480091FDD0B101230370104B4560D3F8043595
:10695800C0E90498C0E902369DF806307B709DF8BE
:10696800070000F02FF924B9094B4FF48012C3F83F
:106978000021204603B0BDE8F0830424EFE7072494
:10698800F7E70824F5E700BFF42A002000100140CB
:1069980000E100E0064A92783AB130B1426922B18A
:1069A800002202740221FFF773BD0820704700BF60
:1069B800F42A00200648074A03780749D35C0122D5
:1069C80013B1043001F0C4B90C3000F0AFBF00BF00
:1069D800982A00207C2C0020402C00200648074ADA
:1069E80003780749D35C012213B1043001F06CB974
:1069F8000C3000F051BF00BF982A00207C2C0020EA
:106A0800412C002037B50578012D05D0002D30D058
:106A1800022D23D003B030BD43681C4C19782046A2
:106A2800FFF7FDFC78B18DF800500190184B6846CF
:106A38001B689847A168E368A2885B1A9A4209D341
:106A4800FFF7B8FFE6E7A268E3689A42F2D08DF84C
:106A58000000EBE70F4B01221A70DBE7C3688DF8E3
:106A680000500193FFF7A6FF094B68461B6898473B
:106A7800D0E709490948FFF7E4FC10B9FFF7AEFF72
:106A8800C8E703238DF80030EEE700BF1C2C002078
:106A9800182C00202C2C0020412C0020302C002009
:106AA800F0B51F46234B89B006461A600C460029EC
:106AB8003DD08A8820480968FFF7A2FC002834D115
:106AC800A289A1681D48FFF79BFC00282DD11C4D09
:106AD8000FCD6C460FC495E80F0084E80F0073696A
:106AE8000693337C174A18488DF81C70003318BF7A
:106AF80001238DF81430737C002B14BF0E23002360
:106B08008DF81530F3680293B368039333680193E3
:106B180069467368009300F06FFB30B90B4B18702F
:106B28003368013301D0FFF745FF09B0F0BD0720F6
:106B3800FBE700BF182C00201C2C0020302C002064
:106B4800E8A502000D6A0200982A00202C2C0020DB
:106B580070B5084C014608482678FFF772FC0546D0
:106B680036B100232370FFF725FF08B1FFF730FC8B
:106B7800284670BD2C2C00201C2C002070B5EFF38B
:106B8800108672B60C4A946801239CB993600B4B2B
:106B98000B4DD3F8801029401160C3F88050D3F80A
:106BA800841051604FF0FF32C3F88420047006B996
:106BB80062B670BD0370FAE7442C002000E100E0E3
:106BC800FC06FFBD084B9A6810B55AB150B9EFF3EF
:106BD800108172B6054A1C6814605C68546098603D
:106BE80001B962B610BD00BF442C002000E100E0EE
:106BF80001F01F024B090121914000EB830000F0D6
:106C080013B801F01F0301229A404B0900EB8300DF
:106C1800D14300F014B84B0901F01F0150F82300CC
:106C2800C84000F00100704750E8003F43EA010205
:106C380040E8002C9CF0000FF6D11046704750E851
:106C4800003F03EA010240E8002C9CF0000FF6D157
:106C58001046704741DF7047064B10B500241C7082
:106C6800054B1C60BFF35F8F0449054800F030F8FE
:106C7800204610BD582C00205C2C002008A60200DD
:106C8800502C002007B500230DF107008DF80730C0
:106C9800FFF774FFF1EE103A23F09F03E1EE103A8C
:106CA800BFF35F8F094B4022C3F884219DF807008A
:106CB800FFF788FF03F03CFA20B1FFF7CBFF03B0E2
:106CC8005DF804FB20BF40BF20BFF8E700E100E00B
:106CD8000B684A684360934208BF0023016008BFFD
:106CE80043607047436843B10268916852680B4437
:106CF8009342436004BF0023436070470C4B1B78EA
:106D0800062B10D10B4B1B681A070CD10A4B1868BD
:106D180000F0F003302B08D000F0E000A0F14003B1
:106D2800584258417047002070470120704700BF03
:106D3800E00F00F0E40F00F0E80F00F0094B1B78BB
:106D4800062B0CD1084B1B681A0708D1074B18688B
:106D580000F0F000A0F1300358425841704700207D
:106D6800704700BFE00F00F0E40F00F0E80F00F0FC
:106D780008B5FFF7C3FF28B17D4B7E4A1B68C3F3F4
:106D880004231360FFF7DAFF10B17B4B7B4A1A60CC
:106D9800FFF7B4FF28B17A4B7A4A1B68C3F3423332
:106DA8001360FFF7CBFF20B1774AD36823F08073D5
:106DB800D360FFF7A3FF40B14FF080430022C3F830
:106DC8000C21C3F81021C3F83825FFF7B7FF10B11D
:106DD8006E4B03221A60FFF7B1FF40B16C4B0522DE
:106DE8001A6001229A6700229A603F225A60694B12
:106DF8001B78062B50D1684B1B6819074CD1674B81
:106E08001B6803F0F003502B46D14FF08052644BBF
:106E1800D2F80414C3F82015D2F80814C3F82415BE
:106E2800D2F80C14C3F82815D2F81014C3F82C158E
:106E3800D2F81414C3F83015D2F81814C3F834155E
:106E4800D2F81C14C3F84015D2F82014C3F844151E
:106E5800D2F82414C3F84815D2F82814C3F84C15EE
:106E6800D2F82C14C3F85015D2F83014C3F85415BE
:106E7800D2F83414C3F86015D2F83814C3F864157E
:106E8800D2F83C14C3F86815D2F84014C3F86C154E
:106E9800D2F84424C3F87025FFF730FF28B1414BDE
:106EA800414A1B6803F04F031360FFF727FF48B1FF
:106EB8004FF08043D3F80024D20744BF6FF001029B
:106EC800C3F80024394B1B68062B08D1384B1B68C4
:106ED800062B01BF374A136843F480631360364AB0
:106EE800D2F8883043F47003C2F88830BFF34F8F6C
:106EF800BFF36F8F4FF01023D3F80022002A03DB73
:106F0800D3F80432002B2FDA2C4B0122C3F80425C6
:106F1800D3F80024002AFBD04FF010221521C2F824
:106F28000012D3F80024002AFBD04FF010231522BA
:106F3800C3F80422214B1A46D3F800140029FBD0C9
:106F48000021C3F80415D2F80034002BFBD0BFF39E
:106F58004F8F19491A4BCA6802F4E0621343CB6099
:106F6800BFF34F8F00BFFDE7164B174A1A6008BDE5
:106F7800240300104035014074C007400DF0ADBA3D
:106F8800440200103C050040F0ED00E0A005004080
:106F980010560040E00F00F0E40F00F0E80F00F09A
:106FA80000C0004058020010E40E004030010010FC
:106FB800340100103C17004000ED00E000E0014003
:106FC8000400FA05AC2A00200090D003054A4FF0CF
:106FD800A043105CD3F8043523FA00F0C04300F056
:106FE8000100704714A60200044B1A5C0123934069
:106FF8004FF0A042C2F80C35704700BF14A602003B
:10700800044B1A5C012393404FF0A042C2F80835A4
:10701800704700BF14A6020008B50020FFF7F0FF74
:107028000120FFF7EDFF0220FFF7EAFF0320BDE88C
:107038000840FFF7E5BF08B50020FFF7D5FF01209E
:10704800FFF7D2FF0220FFF7CFFF0320BDE808407B
:10705800FFF7CABF074A4FF0A041105CD1F80435CA
:107068000122824022EA03001340C1F80805C1F852
:107078000C35704714A6020038B5074C051E04F1FC
:10708800080318BF1C4623682BB11A6822605B6886
:1070980028469847F7E738BD682C002020B9054BEB
:1070A80001225A70FFF7E8BF012802D1014A907007
:1070B800F8E77047602C002020B9034B01225A7072
:1070C800FFF7DABF704700BF602C002038B50B4CC3
:1070D800237883B90A486360A3602361E36000F002
:1070E800D3F8054603F024F808B900F0D9F80123CD
:1070F8002370284638BD8525FBE700BF602C00209B
:10710800A570020037B50B4C00230DF107008DF870
:107118000730FFF733FDE368013BE360E56815B925
:1071280000F0D2F8A5709DF80700FFF74BFD03B0FB
:1071380030BD00BF602C0020012813B509D018B15C
:1071480003281CD002B010BD0F4B0122C3F88020C9
:10715800F8E70E4C00230DF107008DF80730FFF714
:107168000DFD23780BB9FFF7B1FFE3689DF8070021
:107178000133E3600123A370FFF724FDE2E700F089
:107188008FF8FFF7BFFFDDE700E100E0602C00208B
:107198001FB503788DF8003043680193037A8DF8A2
:1071A8000830C3680393054A054B684653F82130F5
:1071B80052F82110984705B05DF804FB742C0020A4
:1071C800782C00201FB503788DF8003043680193B0
:1071D80083688DF80830C3680393054A054B6846F1
:1071E80053F8213052F82110984705B05DF804FB98
:1071F800742C0020782C0020F0B5194B067891F8F3
:107208001DE043F82620174B94460A6943F82620C8
:10721800154B03F806E00C4607460FCC89B06D46BF
:107228000FC594E80F0085E80F000496BEF1000F23
:107238000AD0BCF1000F0D4A694608BF0022381D6C
:1072480000F07AFC09B0F0BDBCF1000F084A6946AD
:1072580008BF002207F10C0000F05EFAF2E700BF59
:10726800782C0020742C00207C2C002099710200BE
:10727800CD71020000F18040002382B003600368F2
:107288000193019B02B07047044A137923B9012185
:10729800106091801846704785207047802C002028
:1072A800084B1A68D20706D4C02283F800230122AB
:1072B800C3F880211A604FF080430122C3F81825D3
:1072C800704700BF00E100E0044B01221A604FF054
:1072D8008042D2F81834DB03FBD470470C0000401E
:1072E800124B1B6810B573B14FF48070FFF7C2FFE3
:1072F8004FF080430122C3F808230D4B587910B989
:107308005A711B6898470B4B1B6873B14FF4827016
:10731800FFF7B0FF4FF080430222C3F80823044B65
:1073280001201B68BDE81040184710BD000100404F
:10733800802C00200401004000F1804000F5C0408E
:10734800002382B0036003680193019B02B0704779
:10735800800000F1A040D0F8003723F44033C0F893
:107368000037D0F8003743EA0141C0F800177047EA
:107378002DE9F04F85B00024594D01944FF48072E7
:10738800012102F1804303F5C04390B21B68012B31
:1073980006D1D5F804330B4202D0FFF7CDFF0C43DA
:1073A8000432B2F5907F4FEA4101EAD14D4B1B6898
:1073B800012B0AD14FF4BE70FFF7BEFF4FF0A04378
:1073C80044F00044D3F81035019314F0FF0F1AD09D
:1073D800454F01260025344210D0AB0003F180430D
:1073E80003F5C043D3F81005D3F8101557F8253026
:1073F80023B1C1F30141C0F3042098470135082D9A
:107408004FEA4606E7D1002C63DA00224FF0FF333B
:10741800CDE90223344D354E0024A24601274FF012
:10742800A04816F9012B531C46D0D2B222F0C0094D
:107438004FEAD90104A8084402F0070310F804CC65
:1074480007FA03F31CEA030F36D005EB090C92097F
:107458009CF930C055F82CB0BBF1000F0AD1032AB3
:107468002AD10DF1080E1EF801C04CEA030C0EF8E3
:1074780001C001E0032AF4D009F5E07110F80C0C02
:1074880058F821101842C1F3014105D0022913D13F
:10749800032A0BD1114604E003290DD1032A05D193
:1074A80002214846FFF754FF0134E4B2BBF1000F54
:1074B80002D011464846D8470AF1010ABAF1040F2A
:1074C800AFD134B14FF0A043019AD3F810359342AD
:1074D80002D105B0BDE8F08F0193029B03939AE7B0
:1074E800006000407C610040882C0020D82C0020DF
:1074F800014B1B68184700BFE42C00200E4B984234
:1075080037B50D4602D0002003B030BD00230DF181
:1075180007008DF80730FFF731FB084B1C7914B9C9
:1075280001221D601A719DF80700FFF74BFB002C24
:10753800E9D01120E8E700BF00200040E42C00203B
:107548000023435082B043580193019B02B0704717
:107558000A4610B54FF48E71FFF7F2FF136A91686F
:10756800C95C136A01331362C0F81C1510BD0246CA
:1075780008B54FF492710068FFF7E2FF4FF4847189
:107588001068FFF7DDFF136801221A6008BD8B69D8
:107598000A4610B54FF4847123B9FFF7D1FFD0F82C
:1075A800183510BDFFF7CCFF536AD168D0F818051D
:1075B800C854536A01335362F3E700001FB501232F
:1075C8008DF80030044BCDE90110D3E9001268466C
:1075D800904705B05DF804FBEC2C002030B54C4A10
:1075E800D2F8043313F4007F85B015464FD0D2F893
:1075F8002431002B4BD04FF492711046FFF7A0FFB7
:107608004FF40173C2F80833424B93F8291009B9B3
:10761800012151603E4902228DF80020D1F88024D2
:10762800C1F8802403929A690292DA6801920022D2
:10763800C3E906226846D3E9001290473448D0F8D7
:107648001C315BB133490A6A4B699A420A464BD2EC
:1076580091F82830002B47D1FFF77AFF2C4AD2F84F
:10766800443193B14FF4A2711046FFF769FF294BDB
:1076780093F8291009B1012111609A692AB10022F1
:107688009A61586AD968FFF799FF05B030BDD5F8F7
:1076980004335B07D2D5D5F80831002BCED01D4C6A
:1076A8001B482146FFF773FF636AA2699A42234683
:1076B800C4D1E269E1684AB12369E3600023606AE2
:1076C800A261E3616362FFF779FFB7E794F82920C5
:1076D8000AB901226A600E4A4FF40170C2F8080321
:1076E80000229A61586AEEE74FF48E710848FFF756
:1076F80027FF51690029B1D00023029191688DF8C4
:107708000030019153616846D2E900139847A5E714
:1077180000200040EC2C00202DE9F8435A4B047956
:1077280091462C2202FB0432064692F82A200D4686
:107738009846002A40F0A38054490068FFF7DEFE0F
:107748000746002840F09D8029683368481C0BD004
:107758004FF0A04001228A40C0F8082501F5E072E8
:107768004FF0030C40F822C06868421C1FBF00F5A8
:10777800E0724FF0A04C4FF0000E4CF822E0AA69DE
:1077880095F814C0C3F824256A7DBCF1010F4CEAB2
:107798000202C3F86C25C3F81405C3F80C151DD1F3
:1077A800AA68511C1FBF02F5E0714FF0A0404FF0CE
:1077B800000C40F821C0E968481C0BD04FF0A04CE1
:1077C80001208840CCF8080501F5E0704FF0030E61
:1077D8004CF820E0C3F80815C3F810252C236343A0
:1077E80008EB0302C2F804902A6948F80320B9F1AB
:1077F800000F31D04FF48E7130682D7FFFF7A0FE57
:1078080030684FF4A271FFF79BFE3268204BC2F834
:107818000433120B53B2002BA8BF03F160404FEAA8
:1078280053134FEA4511BABF1A4802F00F0500F585
:1078380061404FEA8303C9B203F16043B4BF4155C5
:1078480080F8001303F5614302F01F02012101FAD9
:1078580002F2C3F880211A6033680422C3F80025B5
:107868002C2303FB04830022C3E9062283F8292082
:107878005A61012283F82A203846BDE8F883082790
:10788800FAE71127F8E700BFEC2C0020E5750200A5
:107898008000020014ED00E02DE9F843224F06793C
:1078A8004FF02C0909FB067480466569002D37D115
:1078B8006261A16025624FF48E71006884F82850D7
:1078C800FFF73EFED8F80000012383602146FFF74A
:1078D8003FFE6368A1462BBBD8F80050226A636953
:1078E8009A4212D3D8F80030D3F81C21002AFBD0D2
:1078F8000122DA6000202C2303FB06760023736143
:10790800BDE8F88394F8283043B9D5F81C31002B2A
:10791800F8D049462846FFF71BFEDFE70F20EAE7C5
:107928001120EDE72846EBE7EC2C00202DE9F84381
:10793800384E05792C2303FB056307465C6824B1A0
:1079480003684FF40170C3F808032C2303FB056395
:10795800986950B1D86900283ED024B13B684FF4EB
:107968000172C3F80423112034E09A61D960586287
:10797800D8612C2303FB056393F829301BB910B990
:107988003846FFF7F4FD4FF02C0909FB0568386805
:10799800D8F80430002B34D14FF4A271FFF7D0FD92
:1079A800C1463868D0F82431D0F80821D0F84441CD
:1079B800B2B90CB9002BF4D02C2202FB05650022C9
:1079C800AA611BBB24BB95F829103B680122B1B101
:1079D8001A600020BDE8F8831961DA610120C8E760
:1079E800002BE9D1002CE7D14946FFF7D0FDD8F8A4
:1079F8002430D8F818209A42D3D82346DCE75A60B6
:107A0800E7E74FF40173C0F80433E2E70320E1E746
:107A18000F20DFE7EC2C00200023435082B04358AE
:107A28000193019B02B070471FB501238DF8003008
:107A3800054B8DF8080001916846D3E9001290477C
:107A480005B05DF804FB00BF182D00207FB5384A4B
:107A5800D2F82461002E49D010464FF49271FFF7F6
:107A6800DBFF02238DF80030D2F88034C2F880346E
:107A78000393D2F83C358DF808302E4BDA68019222
:107A88000022C3E906226846D3E900129047284A33
:107A9800D2F8443173B14FF4A2711046FFF7BCFF1E
:107AA800244B996931B100219961D2F83C05D96814
:107AB800FFF7BAFF1E4AD2F82031ABB14FF49071EC
:107AC8001046FFF7A9FF1B4B596969B1D2F84C154D
:107AD8008DF80810002299688DF8002001915A61EC
:107AE8006846D3E90012904704B070BDD2F810314F
:107AF800002BCCD04FF488711046FFF78DFF0D4B4B
:107B0800D2F83C0599698842C1D1DC69D96864B169
:107B1800D2F8005225F02005C2F800521A699C617B
:107B2800DA60DE61FFF780FFB1E79C61FAE700BF2A
:107B380000200040182D00202DE9F8435E4B0679FF
:107B48009146242202FB0632044692F820200D4674
:107B58009846002A40F0AB8058490068FFF7CEFCF1
:107B68000746002840F0A58029682368481C0BD0E8
:107B78004FF0A04001228A40C0F8082501F5E072C4
:107B88004FF0030C40F822C06868421C1FBF00F584
:107B9800E0724FF0A04C4FF0000E4CF822E0AA69BA
:107BA80095F814C0C3F824256A7DBCF1010F4CEA8E
:107BB8000202C3F86C25C3F80C15C3F814051DD1CF
:107BC800AA68511C1FBF02F5E0714FF0A0404FF0AA
:107BD800000C40F821C0E968481C0BD04FF0A04CBD
:107BE80001208840CCF8080501F5E0704FF0030E3D
:107BF8004CF820E0C3F80815C3F810252423734374
:107C080008EB0302C2F804902A6948F80320B9F186
:107C1800000F3BD04FF4887120682D7FFFF7FCFEE2
:107C28004FF490712068FFF7F7FE4FF492712068C7
:107C3800FFF7F2FE20684FF4A271FFF7EDFE22680D
:107C48001F4BC2F80433120B53B2002BA8BF03F129
:107C580060404FEA53134FEA4511BABF194802F082
:107C68000F0500F561404FEA8303C9B203F1604391
:107C7800B4BF415580F8001303F5614302F01F02B9
:107C8800012101FA02F2C3F880211A602368082250
:107C9800C3F80025242303FB06830022C3E9062238
:107CA8005A61012283F820203846BDE8F883082766
:107CB800FAE71127F8E700BF182D0020557A0200CF
:107CC8001003020014ED00E001F06043B3F1005F1F
:107CD8002DE9F041074632D11C4B0679242505FBD6
:107CE800063598466C6964BB6A61A96000684FF400
:107CF8009071FFF791FE4FF4AC713868FFF78CFE76
:107D08003B686A69A968C3F84415C3F84825012285
:107D18009A606A68BAB9D3F82011D3F8582149B9DA
:107D2800002AF8D00F20242303FB06860023736162
:107D3800BDE8F081002A14BF0F200020F3E71020CF
:107D4800F6E71120F4E72046F2E700BF182D0020DF
:107D5800F8B501F06043B3F1005F04460F465FD108
:107D68000379304D242101FB0351486820B1216873
:107D78004FF40476C1F80863242101FB03539E697C
:107D880056B1D96900293AD020B123684FF404725A
:107D9800C3F80423112031E09A61DF60DE614FF4FB
:107DA80088712068FFF738FE4FF4A2712068FFF74A
:107DB80033FE2368C3F83475C3F838251EBB012287
:107DC8001A602179242202FB0152526812BBD3F8AF
:107DD8001001D3F84421D3F82441104302D1002CD8
:107DE800F5D00246242303FB015500239C4214BF0F
:107DF800032018469A42AB6118BF0F20F8BD1F61D7
:107E0800DA610126CBE7D3F8002242F02002C3F85A
:107E18000022D6E74FF40472C3F804230020EDE7EC
:107E28001020EBE7182D002008B5094B1B7853B13B
:107E38000020FFF7E5F80120FFF7E2F80320BDE88E
:107E48000840FFF7DDB8BDE80840FFF7E5B800BF18
:107E58003C2D0020F8B57B4C237805461BB1002348
:107E68002370FFF7E1FF172D00F28880DFE805F0A7
:107E78000C17174354657680888D888D959A9A9A41
:107E88009A9AC4C9D1D9E4E4FFF7CEFF6E48FEF749
:107E980081FD6E4B002204461A702046F8BD002072
:107EA800FFF794F8F8B10020FFF7AAF8022D0CBFED
:107EB8004FF4E1614FF47A61644B1D704FF4004058
:107EC8004FF4FA740025E0FB01454FF47A72002361
:107ED8002046294602F00EFA002201465A48BDE81B
:107EE800F840FEF711BDFFF77FF8022D0CBFC8213F
:107EF8004FF4C871E0E70020FFF768F840B10020B0
:107F0800FFF77EF84FF44871504B03221A70D5E7FB
:107F1800FFF76AF8C821F7E70020FFF757F838B1EC
:107F28000020FFF76DF84FF47A61484B0422EDE723
:107F3800FFF75AF84FF4C871F7E70020FFF746F843
:107F480048B10020FFF75CF8404B05221A7041F653
:107F58009A110022C2E7FFF747F8F5E70020FFF77C
:107F680079F83A4B06221A70002240F6CD41B5E75F
:107F78000020FFF739F8354B07221A7000248CE7E8
:107F880001202070FFF766F8EEE701202070FFF768
:107F980061F800224FF48041A0E7FFF74CF82B4B23
:107FA8000C22EAE72A482B4EFEF7F4FCD5F111051E
:107FB80004461CD0D8B9012D13D0C8235D434FF413
:107FC80000474FF4FA7000214FF47A720023C7FB80
:107FD800050102F08FF9224601461D48FEF794FC80
:107FE80004460220FFF700F80123337055E702200A
:107FF800FFF706F80023F8E7FFF716FF134B1222E6
:10800800BBE7FFF711FF0020FEF7EEFF0F4B13222F
:10801800B3E7FFF709FF0120FEF7E6FF0B4B142239
:10802800ABE7FFF701FF0020FEF7DEFF0120FEF7B8
:10803800DBFF064B1522A0E7FEF7FDFF034B1D7083
:108048009CE700BF902D0020602D0020912D00207E
:10805800402D00203C2D0020044B1B6813F0010329
:1080680001D0FFF7F7BE1846704700BF8C2D0020DF
:10807800032813D8012A0BD1012908D100F10E02D7
:10808800D2B200EB40000C4B1A540020704700227B
:108098000129F6D04BB24BB1022901D00720704715
:1080A800054B00EB400018444270EEE7024900EB34
:1080B800400008448270E8E7802D002008B50122BE
:1080C80002210020FFF7D4FF08B1072810D10722AA
:1080D80002210120FFF7CCFF08B1072808D10021B1
:1080E8000A220846FFF7C4FF10B1072808BF00207E
:1080F80008BD00000388102B10B502D0112B1ED02C
:1081080010BD1A4C2168B1B901220846FFF7B0FF2B
:1081180008B1072824D1072202210120FFF7A8FF70
:1081280008B107281CD1042202210020FFF7A0FF74
:1081380008B1072814D1236801332360E0E70B4A0C
:108148001368013B1360002BDAD1FFF7B7FF002853
:10815800D6D0074B1B68002BD2D0BDE8104018477B
:10816800034B1B68002BE6D09847E4E7982D0020C6
:10817800942D002072DF704773DF704776DF7047F9
:1081880077DF70477ADF70477CDF70477FDF7047A3
:108198008FDF7047B1DF704767DF70473FDF704799
:1081A8000D4B4A881B889A4210B504460CD10A88A0
:1081B80040F677239A4207D18B880849033B9BB244
:1081C8001A46002000F00BFE23886288044900202C
:1081D800BDE8104000F003BEC62A002056A60200E3
:1081E80074A60200FEF7F4B813B54FF0A0441E4879
:1081F80000F06EFAD4F810251C49C2F3C012002012
:1082080000F0EDFDD4F810251949C2F3C052002042
:1082180000F0E5FD00F022FB164B04461878F8B193
:108228001549002000F0DBFD144B15491A78154854
:108238000132D2B2392A88BF30221A701B7881F8ED
:108248003F304023ADF806300F4B04EB84041B8805
:1082580081F837400DF1060201F0AEFE02B010BD04
:108268000A4900F0BCFDF9E75D300020AFA6020026
:10827800C5A602009C2D0020DCA60200B02A002022
:108288005C300020C82A0020C62A0020D9A6020097
:108298000388212B13B5044655D027D8112B30D08D
:1082A800132B5CD0102B1FD13549002000F097FD0F
:1082B800344B01221A704FF0A0434FF48042C3F8A8
:1082C80008254FF40052C3F808250720FFF7C4FE1D
:1082D80008B1FEF77DF82C4BA1882C48198001F0D5
:1082E800F8FC08B1FEF774F802B010BD522B3ED06E
:1082F800562B01D03B2BF7D11321A088FFF73EFF67
:10830800EFE72349002000F06AFD1E4B00221A7097
:108318004FF0A0434FF40052C3F808254FF48042B1
:10832800C3F80825184B4FF6FF721A80BFF34F8F1A
:108338001849194BCA6802F4E0621343CB60BFF3D3
:108348004F8F00BFFDE71549002000F048FD0023CE
:1083580001A9A088ADF80430FFF71AFFC1E70A4861
:1083680000231A4685210088FFF710FFB9E7064861
:1083780000231A4619460088FFF70CFFB1E700BF33
:1083880018A602009C2D0020C62A0020503000208C
:1083980024A6020000ED00E00400FA0533A602005E
:1083A80038B50478054654B90549204600F017FD4C
:1083B800AA8A29692046BDE8384000F010BD38BDBA
:1083C8008BA7020008B503784BB9054B3B211888E9
:1083D800FFF7D4FE18B1BDE80840FDF7F9BF08BDA6
:1083E800C62A0020FDF7F4BF08B50849084801F07F
:1083F80095FB08B1FDF7ECFFF721054801F0A2FB5A
:1084080018B1BDE80840FDF7E3BF08BDA981020027
:108418001830002070B54FF0A04403234FF40052E9
:10842800C4F84837C4F83437C4F85037C4F80825B6
:108438004FF48022C4F80825904D4FF48012C4F8F8
:1084480008254FF40066C4F82C370C23C4F81C37F1
:1084580096B0C4F85C3745F001054FF4C850C4F82D
:108468000C65A8474FF4C850C4F80865A84704200D
:10847800C4F80C6500F098F9FEF704FA08B1FDF7A6
:10848800A7FFFEF7E9FB08B1FDF7A2FF01F012FE16
:1084980008B1FDF79DFF002307A90120079301F00C
:1084A80097FE08B1FDF794FF07A801F0F9FE08B19F
:1084B800FDF78EFF112372488DF8043002F026F87C
:1084C8006F4982B201A8FFF75FFE08B1FDF780FF90
:1084D8000822002107A801F09DFF6A4A4FF0C873DF
:1084E80007A8CDE90723FFF74DFE08B1FDF770FF98
:1084F800FFF77AFF644B6548079307A901F0D7FB9C
:1085080008B1FDF765FF042200210DEB020001F020
:1085180081FF5F4B5F48019301A901F0D7FC08B1C7
:10852800FDF756FF00255C4B1822294601A81D704F
:1085380001F070FF4FF48C6301243C220393294619
:1085480041F2010307A8ADF81A308DF804408DF800
:10855800194001F05FFF02238DF81C304F490623B4
:1085680028468DF81F3000F03AFC4D498DF8194027
:1085780028468DF81A4000F032FC4A4A8DF804402B
:1085880052F8041B07A800F0ACFC08B1FDF720FF67
:1085980001AA44494448FFF7EDFD08B1FDF718FF6B
:1085A8001C220DEB0200002101F034FF00234FF4E0
:1085B8002032CDE90732ADF82A308DF82C303B4B0C
:1085C8000C934FF470220324394B099207A88DF8B5
:1085D80028400D9301F0D8F808B1FDF7F9FE4FF0E7
:1085E800A0434022C3F81847C3F80C254FF40032C3
:1085F800C3F84447C3F80C254FF40022C3F84C478E
:10860800C3F80C25D3F818252A4942F42022C3F8C8
:1086180018250120FFF7C0FD08B1FDF7D9FE01209C
:10862800FFF7BCFD2449002000F0D9FB234B0422AE
:1086380093F854100120FFF7A3FD08B1FDF7C8FE19
:10864800194B01211878FFF797FD08B1FDF7C0FE17
:108658001B4A1C480121FEF745F900224FF400414E
:108668001948FEF751F908B1FDF7B2FE1749002085
:1086780000F0B5FBFEF706FBFCE700BF50A60200C2
:10868800FCA6020010003C00ED81020050300020E2
:10869800A9830200C82A00209D2D002007A70200F8
:1086A80029A70200B42A0020C42A0020CD83020092
:1086B800ED830200EC2A002064A70200A02D002010
:1086C800F1810200F8A602002C3000207CA70200ED
:1086D800014901F0D2BE00BF4231002038B5244D17
:1086E8002B78012B08D013B1022B1ED038BD2428BB
:1086F800FCD101232B70F9E72C281E4C10D11E4900
:108708001E4801F0DCFE00280CBF0223002364226F
:1087180000211A482B7001F07DFE00232370E5E745
:108728002378164AD0540133F8E72C28114A18D177
:1087380013490B780133DBB2082B0B7011D90024D5
:108748000C7010480D4914702C7001F096FE0E4BF9
:108758000A4801221A7021466422BDE8384001F017
:1087680059BE13780549C85401331370BEE700BFDA
:108778004131002040310020A9A70200DC30002050
:10878800C231002042310020C3310020037807B5F0
:108798003BB90DF10700FEF7DBF99DF80700FFF77D
:1087A8009DFF03B05DF804FB00B505228BB00C23D8
:1087B800CDE905230B2307930023ADF820300B4B9D
:1087C8000B4A09930B4B00934FF48073CDE90223B6
:1087D80004900193084A0623694604A8FEF760F945
:1087E80008B1FDF7F5FD0BB05DF804FB00B0130010
:1087F800C4320020C43100209587020000F1804077
:1088080000F5E040002382B0036003680193019BF8
:1088180002B070470F4A08B50323C2F8F0350221A9
:108828006FF00043C2F8F4154FF48270C2F80833B1
:10883800FFF7E4FF4FF48070FFF7E0FF0123C2F871
:108848000035054BC2F828350023C2F82435C2F894
:10885800201508BD00700040000005011FB5FFF796
:10886800D9FF20490122C1F800254FF48270C1F8D0
:108878002CD6C1F83026FFF7C1FF1B4B0A601A60DF
:1088880042F2107203F58073196801B922BB174BC5
:10889800012119604FF48070FFF7B0FF4FF4827028
:1088A800FFF7ACFF0F4B0020C3F80005B2B1BDF8CD
:1088B80000204FF47A7140F6E30312FB013241F2D3
:1088C800C71392FBF3F294B204EB8402084900F058
:1088D80086FA20B204B010BD013AD5E742F20F740F
:1088E800F7E700BF007000400470004008700040C7
:1088F800AFA702000369C1688B429DBF8268D21886
:1089080002F1FF3203F1FF3394BF501A581A70472F
:108918002DE9F041D0E9027405463E1B40689642B5
:1089280020448846144404D901F04BFDEC60BDE8AE
:10893800F0813246E41B01F044FD224608EB0601B3
:108948006868F1E72DE9F843C56806468946174681
:108958004FF000083469B3687068A54228BFE4186E
:10896800013C621B5C1BBC4228BF3C46944228BFAA
:10897800144649462844224601F023FDB36825449D
:10898800AB4208BF00253F1BA044A144F560E1D1DC
:108998004046BDE8F883000010B5114C114AA261A9
:1089A8000223C4E90433104BE361A2644FF400735B
:1089B8000E4A2362E264002310220D49A362E01DDF
:1089C8006362E362A3656365E365226501F055FDB3
:1089D8000849204601F051FD2023A37110BD00BFB6
:1089E800C4330020C4A702004C3400203C340020CB
:1089F800CDA70200D1A70200F8B5184C182300FB38
:108A0800033503FB00402544C46A012C0F46164673
:108A180011D024B1022C1BD000242046F8BD2846D2
:108A2800FFF768FFB042F8D3324639462846FFF7C9
:108A38006FFF3446F1E72846FFF75CFF864234466D
:108A480028BF0446224639462846FFF761FFE4E777
:108A58002846BDE8F840FFF775BF00BFC4330020C3
:108A680073B50E4B1B7804460D4616460BB9FFF737
:108A780093FF00230DF107008DF80730FEF77EF80D
:108A8800324629462046FFF7B7FF04469DF80700FF
:108A9800FEF798F8204602B070BD00BFC43300202E
:108AA800826810B504464068531C834205D8206884
:108AB8008154A360E3680133E360D4E901329A4248
:108AC8000BD121682069FFF7CBFFA368984215BF37
:108AD8004FF0FF330023E360A36010BD2DE9F84F8A
:108AE8009A46DDE90A439046064689460A46012722
:108AF800424513D2574538BF574613F0010B01D1F1
:108B080084B90024F368002B48DB0125BAF1010F72
:108B18001FD90AF1FF3A08FB05F5F7E7B2FBF8F2AF
:108B28000137E5E79B0712D5BAF1000F0CBF3025D6
:108B38002025A742E6D229463046FFF7B1FFF36861
:108B4800002B04F1FF34DDDB002CF2D1D9E720251E
:108B5800EFE7B9FBF5F39845DDD9DFF848A0B9FB95
:108B6800F5F330461AF8031005FB1399FFF798FF41
:108B7800F368002B03DBB5FBF8F3454510D2BBF1D6
:108B8800000F0BD054B1A74208D220213046FFF77E
:108B980087FFF368002B04F1FF34F3DABDE8F88FA0
:108BA8001D46DCE7D8A702002DE9F04F9BB00AABC1
:108BB8000E46059340210023CDE90613CDE9083080
:108BC800039015464FF00A0916F8011B39B9089B9E
:108BD800002B00F3F98008981BB0BDE8F08F252919
:108BE8004CD14FF0000B09E02D2B04D0302B0DD1C8
:108BF8004BF0020B01E04BF0010B0E46314611F829
:108C0800013B2B2B0FD0EFD8232B0FD0002431465C
:108C180011F8013BA3F1300009280AD809FB0434F4
:108C2800303C0E46F3E74BF0040BE6E74BF0080B3D
:108C3800E3E72E2B0FD10E464FF0000A304610F80E
:108C4800011BA1F13007092F07D809FB0A13A3F16B
:108C5800300A0646F2E74FF0000A304610F8011BCA
:108C680001F0FB07682F0646F8D0642926D009D8FA
:108C7800582916D063291CD025290AD105A8FFF741
:108C88000FFF06E0732900F0878006D8702900F0EE
:108C98009380089B002B97DA99E7752973D0782978
:108CA800F7D12968CDE9004B081D286053461022EA
:108CB80070E02B681A1D2A601978DFE729680F68A9
:108CC800081D87EAE7712860A1EBE7714FF00108FA
:108CD800092936DCD04538BFD0462CB1002F02DB3D
:108CE8001BF0040F00D0013C1BF0020F02D0BAF1B8
:108CF800000F04D01BF0010F01D13CBB00240899E0
:108D08000029C6DB002F2DDA7F422D2105A8FFF7A9
:108D1800C7FE08990029BCDB0BF00301022904D126
:108D2800BAF1000F01D114BB002408990029B0DB67
:108D3800CDE9004B53460A22394605A8FFF7CEFE77
:108D4800A7E7B1FBF9F108F10108C1E7A045D6D2C0
:108D5800202105A8FFF7A4FE0899002904F1FF3493
:108D6800CBDACCE71BF0040FD3D02B21CEE7A045FC
:108D7800DBD2302105A8FFF793FE0899002904F1FA
:108D8800FF34D0DAD1E72968CDE9004B081D286007
:108D980053460A220968D0E72B681A1D2A601C6806
:108DA80014F8011B00293FF474AF05A8FFF778FEFB
:108DB800089B002BF4DA6CE729680B1D2B60002256
:108DC8000823CDE9003272E7079A1AB10AA9039875
:108DD800FFF746FEDDE9072313440893FBE60EB4CC
:108DE80003B503AB01AA53F8041B0193FFF7DCFE9C
:108DF80002B05DF804EB03B070476DDF704779DFB0
:108E080070477DDF704764DF70472DE9F74F0C9C92
:108E1800BDF834B02788002580468A4691462E46FC
:108E2800B8F80020B2420BDC35B12288013AD21BD7
:108E380092B2FF2A39D8DA55002003B0BDE8F08F86
:108E4800D8F8042052F82600019000220DF1030101
:108E580001A8FFF7D8FF0028EFD19DF803204A4565
:108E680021D12288002D14BF0020022002EB090125
:108E78000144594519DC3DB9013292B2228003F808
:108E880002A022880132228022880DF103011A44AF
:108E980001A8FFF7B8FF0028CFD121889DF803204B
:108EA8000A44228001250136BAE70C20C5E72DE9DE
:108EB800F341089CBDF824501746CDE9004502222D
:108EC8000646FFF7A2FF48B9102239463046CDE9D9
:108ED800084502B0BDE8F041FFF797BF02B0BDE812
:108EE800F0812DE9F04F00231688138090F82D307B
:108EF80085B007460D46144653B3082E01D80C20FA
:108F080028E102A8FFF779FF002840F023811388A1
:108F18000822CA54238801339BB21B222380CA54D7
:108F28002088013080B2208006220DF109012844F2
:108F380001F047FA23889DF8082006339BB212F007
:108F4800FE0218BF01222380EA54238801332380BC
:108F5800BB78FBB123880433B342D0D802A8FFF70B
:108F68004EFF002840F0F68023880322EA54238825
:108F780001339BB219222380EA542388BDF80820C4
:108F880001339BB2E9182380EA54120A4A702388F5
:108F980002332380FA789AB12388D91CB142AED81B
:108FA8000221E954238801339BB201212380E9542B
:108FB80023880B449BB22380EA5423880B442380E4
:108FC8007A68AAB12388D91CB14298D8022192F9AB
:108FD8000020E954238801339BB20A212380E954F5
:108FE800238801339BB22380EA54238801332380EA
:108FF8003B89002B40F0A2803B8A5BB1CDE900465B
:109008002B460722032107F11000FFF750FF002825
:1090180040F0A0803B8B5BB1CDE900462B46152282
:10902800142107F11800FFF742FF002840F0928052
:109038003A6A002A40F09180D7F82480B8F1000FEE
:1090480030D0B8F804302188981C8A1C0244B242F7
:109058003FF655AFFE283FF652AF03336B542388D3
:1090680001339BB2FF222380EA54238801339BB249
:109078002380B8F80020EA54E918120A4A702088B8
:10908800023080B22080B8F804205AB1D8F808100D
:1090980000296CD0284401F094F92388B8F80420FA
:1090A8001344238097F82C30002B40F09B803878AD
:1090B80000284FD03B88012B59D0228802F1020C9E
:1090C800B4453FF61CAF012805D17B780233134421
:1090D8009E42FFF414AF023EB61AB6B202A905EBDF
:1090E8000C00ADF80860FFF78CFE98BB3978BDF826
:1090F8000820022900F0BB807B78934202D3B24259
:1091080040F2B380012940F0B4809BB29E42C0F087
:10911800B080ADF808300821BDF80830FE2B3FF6C6
:10912800EEAE22880133AB542288013292B22280FB
:10913800A95422881344238000200BE0CDE900467F
:109148002B460622022107F10800FFF7B0FE00288F
:109158003FF452AF05B0BDE8F08FB4F800C00CF191
:109168000603B3423FF6CBAE1188052901D8072084
:10917800F0E76FF4486E01EB0E039BB24FF27D3EB1
:109188007345F4D95388052BF1D96FF44860181842
:1091980080B27045EBD94FF6FF70814203D083420D
:1091A80001D09942E3D8052305F80C302388013310
:1091B8009BB212212380E954238801339BB2238078
:1091C8001188E954E818090A4170238802339BB2D0
:1091D80023805288EA54E918120A4A702388023315
:1091E800238029E7BB6A002BC1D04FF000094FF05C
:1091F8000C0A4FF0160B97F82C305FFA89F293425D
:109208007FF655AFB96A0AFB02F201EB0208B8F81B
:109218000430981CFE283FF672AE208803332B5486
:10922800238801339BB2238005F803B023880133D8
:109238009BB223808A5AEA54E918120A4A70208895
:10924800023080B22080B8F804205AB1D8F808104B
:1092580000298CD0284401F0B4F82388B8F80420F9
:109268001344238009F10109C5E7092154E7B242F3
:10927800FBD9ADF808604EE770B5C0B14AB11688A1
:109288000024B44203D305196D789D4208D0A14249
:1092980001D800200BE0055D01352C44A4B2F0E7AD
:1092A800A142F6D9A31C1380005D013880B270BDBD
:1092B80013B50023ADF8063013460DF10602044637
:1092C800FFF7DAFF10B1BDF80600204402B010BD68
:1092D80072DF704773DF704738B5012204460D46C8
:1092E800B0F83812D0F83402FFF7E2FF00B1057089
:1092F80004F13C0204F50D7104F15400BDE8384056
:10930800FFF7E6BFF8B5077804460D46002F00F0D2
:10931800048100F24A26A17007220021304601F09C
:1093280079F8E38813B1A378012B04D0E3794BB122
:10933800A378022B06D1636BA3B1012284F85122D2
:1093480008209847334604F5147113F8012F12B911
:109358008B42FAD117466B1E032B52D8DFE803F075
:10936800050B0F1284F85132ECE7A3791BB194F87E
:10937800243003B95FB9E3790BB1002F43D1237AC5
:10938800002B42D1637A002B0CBF00250425636BA8
:10939800A570002B3BD0033D012D38D86279002AF7
:1093A80035D094F8522292BB84F85422012284F8D2
:1093B80053220720984704F13C051822002128462B
:1093C80001F028F8E36A94F82420581E01210228A5
:1093D80028BF0B4684F83C1084F8513032B18842DB
:1093E80096BFA36A84F8521084F85230A1780023FB
:1093F80084F8503004291BD8DFE801F0770D2235B6
:1094080059000025C3E70225C1E70325BFE700236C
:1094180084F85332CFE7C4F84432C4E91063022316
:10942800012284F83C30802384F83120A4F84830A5
:10943800A378002B5CD1636B002B6AD1002067E016
:109448000223002A84F8313014BF0723032384F849
:109458003C302369A4F848300023C4F84432E36858
:1094680026646364E4E763696364A369A4F8483025
:1094780012B1062384F83C306379B3B194F85232C0
:109488009BB994F8543283B1022384F850300421F4
:109498002046FFF721FF0028CAD1052384F8313080
:1094A80004F50D73C4F84432C2E70323F6E7E36911
:1094B8006364236AA4F8483012B1062384F83C3068
:1094C800637983B194F852326BB994F8543253B13A
:1094D800022384F8503004212046FFF7FDFE0028BF
:1094E800A6D10623DAE70423D8E784F831309FE7CA
:1094F8002A46D4F8441204F15400FFF7E9FE38B9BB
:1095080094F8301094F85400FFF7E4FE002892D045
:10951800F8BD94F83100984790E70820F8E70388E9
:10952800112B10B50C460AD0262B1FD0102B05D1B5
:10953800C37B012B02D18388A1F8483210BD0022D9
:10954800838881F85222B1F848229A42F6D10B79E1
:10955800002BF3D101212046FFF7D4FE0028EDD0DF
:10956800A36B002BEAD0BDE810401847037A013BF3
:10957800012BE3D8897805230131B1FBF3F303EB21
:109588008303C91AC9B2E6E7704775DF704776DF0B
:1095980070477ADF70477BDF70470000034B1A88FB
:1095A80082420CBF18460020704700BF6836002072
:1095B800024B9B6903B11847704700BF4C36002027
:1095C80037B585B22846FFF7E9FF034670B1164C58
:1095D800017A227B91420BD200F10A012846FFF75B
:1095E800D4FFE8B1112801D0FFF7E2FF03B030BD86
:1095F800237C0022027243B13B212846FFF7C7FFB4
:1096080030F0080301D0FFF7D3FF6369002BEDD0DA
:1096180000228DF80420ADF8065001A89847E5E728
:109628001A7A01321A72E1E74C36002013B50B465C
:10963800497A0F4C024669B9D4E901101C7A002C0A
:1096480018BF01465868FDF75FF908B1FFF7B0FF8A
:1096580002B010BD002119726369002BF8D00121F6
:10966800ADF806008DF8041001A89847F0E700BF90
:109678004C3600204B8802889A4213D842889A4276
:1096880010D380888A8840F2F313984294BF031A53
:10969800C31A934206D800F2F310904234BF002058
:1096A80001207047002070470388112B70B50146D0
:1096B80048D002D8102B1ED070BD122B52D0502B80
:1096C800FAD12F4BC288DB899A42F5D1038A022B43
:1096D800F2D186883046FFF761FF05460028EBD0B7
:1096E80001F1120000F05BF930BB6868FDF752F930
:1096F8000028E1D009E0C37B012BDDD14FF6FF70D4
:10970800FFF74CFF054620B90420BDE87040FFF77D
:109718004FBF1C4A8E880680002303721368C5F861
:109728000A300A30536843601031FFF7A3FF144B27
:109738006872DB89002BBFD129463046BDE87040EE
:10974800FFF774BF8088FFF729FF04460028B3D0CD
:109758004068FDF71FF908B1FFF72AFF4FF6FF73BE
:109768002380A9E786883046FFF718FF05460028BA
:10977800A2D008310A30FFF77DFF6872DCE700BF2E
:109788004C3600207C360020F8B5064648B305461E
:109798000FCD154F3C460FC495E8070084E8070035
:1097A8003068124B3B60B0B1FFF7F3FEC0B93168C7
:1097B8000A681A604A685A600D480E4A4FF6FF73E5
:1097C80003800D4B40F8043F0021FDF78BF800287B
:1097D80018BF032004E01846FFF7DDFE0028EBD091
:1097E800F8BD0E20FCE700BF4C3600207C36002078
:1097F80068360020C99502008436002073B50191AF
:10980800019C06466CB100252C46294601A8FDF7A7
:1098180002FA18B106EB440301349D800135142D7A
:10982800F3D13046346002B070BD00002DE9F04736
:1098380003888488112B8CB006463CD01A2B3FD065
:10984800102B17D1274DAB68DB4300936968684636
:10985800FDF7F5F9009901A8FFF7D0FF0DF1080908
:109868004FF00008019B984507D3132C13D9042007
:10987800FCF7AEFD0CB0BDE8F08739F802AB002765
:109888000137514605EB8700FDF7BBF91D2FF7D1CE
:1098980008F10108E6E721461348FDF7A9F9214632
:1098A8001248FDF7A5F9F37B012BE3D010482146B8
:1098B800FDF79EF9DEE70C482146FDF7A2F9D9E746
:1098C800057A0C482D09012D214606D9FDF790F996
:1098D800022D21460848F0D0EAE7FDF792F9214623
:1098E8000548EAE7A4360020AC360020A836002058
:1098F800B0360020B4360020B836002013280146C0
:1099080002D80248FDF787B900207047A836002022
:1099180010B50446FFF7F2FF002814BF20461420B4
:1099280010BD70B5054616460AB90E2070BD002355
:1099380013600028F9D00368002BF6D0C38813F011
:1099480003040FD10846FFF7E3FFC0B214280BD079
:109958002B7983420AD9EB882A6800FB03233360FA
:109968002046E3E70720E1E70520DFE70420DDE7FD
:10997800AADF7047002301380B70042806D8DFE8F7
:1099880000F00306080A0C0011230B70704721230E
:10999800FBE73123F9E71223F7E72223F5E70078FD
:1099A80000F001007047F0B58B7891B0002B0C46A1
:1099B80008BF01238DF80E3005460B88ADF80C3032
:1099C800002116466846032200F024FD6946607CA3
:1099D800FFF7D0FF0DF10101A07CFFF7CBFF9DF849
:1099E8000230E27B62F3C303227C62F30413227B1E
:1099F80062F30003227D002A14BF0222012262F3CF
:109A0800420300211C2209A88DF8023000F002FD53
:109A1800637B13F0300F15D002AF032200213846C4
:109A280000F0F8FC0DF10901E07CFFF7A3FF11231A
:109A38008DF808309DF80A300E97012262F3420330
:109A48008DF80A30637B8DF824301422A37B8DF8BF
:109A58002530002104A800F0DDFC03AB0493A388A3
:109A6800ADF81C30A368CDF814D01BB1E288ADF86E
:109A780018200893A369002B2ED001AF03220021E0
:109A8800384600F0C7FCA3691A88ADF82C205A881C
:109A9800187BADF82E2039465A680A920D97FFF7C1
:109AA80069FFA3690DF10501587BFFF763FFA26900
:109AB8009DF80630917A61F3C303D17A61F30413F8
:109AC800117A927B002A61F3000314BF022201225B
:109AD80062F342038DF80630E36903B10C93334611
:109AE80004AA09A92846FFF743FF11B0F0BD90DF8B
:109AF8007047A5DF7047B5DF70471FB50023ADF885
:109B08000810ADF80A106A4602A903930093ADF84D
:109B18000430FFF7ECFF05B05DF804FB80B14FF0AF
:109B2800F7130360FB230371F723C3801723038113
:109B380041F6FB3200230161438182811846704758
:109B48000E20704730B1A1F11703E02B04D8018033
:109B5800002070470E2070470720704713B5034652
:109B680080880C4690B91A88232A00F084800FD880
:109B7800102A20D0112A41D0A37A3BB1E1880020D5
:109B8800FFF7B7FF10B94FF48073638102B010BDBF
:109B98003A2A3CD0552A52D0242AEDD11A7A0B6998
:109BA8004A73002BE8D04DF67A21ADF804000091F5
:109BB8008DF804205BE0DB7B0A790A73012B13D054
:109BC800022B14D0E18823898B4205D20020FFF7AD
:109BD80090FF70B90123E372217B637B8B42CBD268
:109BE8000020FFF78AFFC7E70B88E380EAE74B8886
:109BF800FBE7112804BF0123A372EDE7F723CB800D
:109C080017230B8141F6FB3348818B81B4E75B89CD
:109C1800CA88934228BF1346172B0A6938BF1723EF
:109C28000B814AB1C97A39B140F677210091ADF874
:109C38000430694620469047002363819CE7DB880F
:109C4800C988A072172B38BF17238B4228BF0B4631
:109C58002381FFF750FFE37A002B8DD12369002B76
:109C68008AD040F6772200922289ADF8042069460E
:109C78002046984780E7197A237B994228BF1946DE
:109C8800AFE7B0DF704766DF7047034610B50021C5
:109C98004088FFF7F8FF024608B91A7210BD11286C
:109CA80001D10122F9E75B68BDE81040184760B1AF
:109CB80059B10378DE2B0AD00B684360DE230370AA
:109CC8004FF6FF734380002070470E20704708202E
:109CD800704728B10378DE2B04D1418000207047FB
:109CE8000E20704708207047F0B5054685B00C4631
:109CF800F1B1E8B10B78DE2B1AD182884B889A42F1
:109D080004D10B7A13B10846FFF7BFFF2B88112B3C
:109D180032D0512B0ED0012B0AD12B7A012B07D12F
:109D2800A9886288914203D123722046FFF7ADFFCC
:109D380005B0F0BDAE886388B342F9D1AF79022F80
:109D4800F6D1AD7B2B1F022BF2D8002110226846DA
:109D580000F060FB052D14BF4FF4C0730023694663
:109D680030468DF80070ADF80430FFF78AFF002800
:109D7800DED063689847DBE76388AA889A4204BF05
:109D88004FF6FF736380D3E7A8DF7047ADDF7047F6
:109D9800AEDF704762DF704770B505468AB00C4683
:109DA800002962D0002860D00388502B37D0572B69
:109DB80072D0102B59D181886069002601AA0196BA
:109DC800FFF7AFFD082231460DEB020000F022FB41
:109DD800022302AA218AA888CDF80CD00293FFF7A3
:109DE800D5FF002841D1A369002B3ED00398FFF787
:109DF800D6FD002839D0019B0BB101221A70182218
:109E0800002104A800F006FB02238DF81030AB886F
:109E1800ADF81830019B05940793A36923E0818866
:109E2800606902AAFFF77DFD1822002104A800F04E
:109E3800F1FAAB88ADF818302189EB88029A0594BD
:109E48009942079218D12E8A022E15D16AB105F1CE
:109E58001200FFF7A4FD029B48B101221A708DF889
:109E68001060A3690BB104A898470AB070BD1870B8
:109E780003238DF81030F4E7A2899A42F5D1A3693B
:109E8800002BF2D000228DF8102005F11202089262
:109E98002A8AADF82420E6E78188606902AAFFF7DC
:109EA80040FD01460028E0D1029B1B78002BDCD046
:109EB800182204A800F0AEFA01238DF81030AB8800
:109EC800ADF818300594029BA6E70000F0B5384BB2
:109ED8008FB002AA04460E4603F1100C1746186804
:109EE8005968154603C5083363452A46F7D1002C3F
:109EF8005BD0002E59D03368A36121463846FFF75E
:109F080049FF00284FD12246012512F8023B8DF85F
:109F1800063001A92846ADF80450FFF735FF0028A0
:109F280041D10146202206A800F074FA22460223F5
:109F3800ADF8183012F80C3B8DF81A30BDF8243003
:109F48001C4E6088079603F4734343F440632B4325
:109F580006A9ADF824308DF829508DF82A50FFF75E
:109F680022FD00BB0146202206A800F053FA224633
:109F78000323ADF8183012F8043B8DF81A30BDF8F9
:109F880024306088079603F46F4343F480532B43CF
:109F9800ADF8243006A940F201138DF82950ADF828
:109FA8002A30FFF700FD0FB0F0BD0E20FBE700BF21
:109FB800E8A70200F4000100F0B50F4687B0164686
:109FC8001C46054618B301AA19464069FFF7A9FCC3
:109FD800D8B94FF6FF739C421BD0019BCBB11B78BD
:109FE800CBB13388F42B18D80146102202A800F010
:109FF80011FAAB88ADF8083002A901232046CDE953
:10A0080004678DF80A30FFF7C3FE07B0F0BD0E20D5
:10A01800FBE70520F9E70820F7E70720F5E710DF59
:10A028007047000013B5044609496846FCF750FE1E
:10A03800019808B902B010BDD0E900312046984710
:10A0480018B16846FCF74EFEF2E71120F2E700BFB0
:10A05800FCA7020013B5044607496846FCF738FE1A
:10A06800019B0BB902B010BD2046D3E900219047EF
:10A078006846FCF737FEF3E714A802000B4991F88D
:10A0880016335A09EC231341DB0706D5084B9A68A7
:10A098003AB94FF480030B60704742F20200FCF7B4
:10A0A80097B91A6842F480021A60704700E100E02C
:10A0B800442C0020F7B5194F3C7864BB184E012595
:10A0C80020463570FFF7AEFF112821D02046FFF754
:10A0D800C1FF144B8DF80340186801900DF103007F
:10A0E800FCF74CFD104901A8FFF799FF0446B0FAA8
:10A0F80080F0400938709DF80300FCF763FD3CB917
:10A108000A4B34701C70FFF7B9FF2846FFF7A2FF0F
:10A11800204603B0F0BD0824FAE700BF1D37002031
:10A128001C370020F8A70200F56302001E37002044
:10A13800014B1878704700BF1D37002007B5084944
:10A148006846FCF7C5FD019B13B903B05DF804FB35
:10A15800D3E9002090476846FCF7C4FDF3E700BF49
:10A1680008A80200FFF7EABF60DF704769DF7047A1
:10A1780061DF704730B5114DADF5017D4FF4FA74CC
:10A188000DF1020103A8ADF80240FFF7F1FF70B925
:10A19800294601A8FCF79CFD029B002BF0D003A8E0
:10A1A800D3E90021904701A8FCF79CFDF4E70528B6
:10A1B80001D0FCF70DF90DF5017D30BD20A8020096
:10A1C800024B1B780BB1FFF7D5BF70471F37002034
:10A1D800F0B5074685B00D4600295DD02F4B0B60C2
:10A1E8000C22002101A800F015F9012606232A688F
:10A1F800ADF8083001A920208DF804708DF80660AC
:10A20800FFF7B4FF0C22002101A800F003F9002495
:10A218002A688DF8056001A94020ADF80640FFF7CF
:10A22800A5FF0C22214601A800F0F4F8F7232A68BC
:10A23800ADF8063001A923208DF80470FFF796FFCA
:10A248000C22214601A800F0E5F82A688DF8046080
:10A2580001A93046FFF78AFF0C22214601A800F029
:10A26800D9F84FF4B0632A68019301A9A120FFF738
:10A278007DFF0C22214601A800F0CCF89DF804309F
:10A288002A6864F3000301A9A0208DF80430FFF7C1
:10A298006DFF204605B0F0BD0E20FBE7982A002090
:10A2A80008B5FFF761FF10B9014B01221A7008BD0C
:10A2B8001F3700204BDF70471FB50D4C01A8FFF773
:10A2C800F9FF70B9214602A8FCF702FD039B002B99
:10A2D800F4D00198D3E90021904702A8FCF702FDC9
:10A2E800F4E7052801D0FCF773F804B010BD00BFEF
:10A2F8002CA8020053EA020C61D02DE9F04BB3FA06
:10A3080083F51E0007BFB2FA82F502FA05F403FAD4
:10A3180005F41646C5F120051EBF22FA05F73C4391
:10A32800203556EA044C4FEA144418BF0134A346BA
:10A338004FF00009C846904271EB030C39D309422B
:10A3480007BFB0FA80F700FA07F6B1FA81F701FA09
:10A3580007F6C7F120071EBF20FA07FC46EA0C06DD
:10A368002037B6FBFBFC7F1B103F07F01F04C4F12E
:10A3780020060CFA04F42CFA06F644BF34460026EC
:10A38800202FA4BF2646002454EA060C08BF012447
:10A3980018EB040849EB0609A4FB027CC01B06FB6A
:10A3A80002CC04FB03CC71EB0C01904271EB030C63
:10A3B800C5D20B46024649464046BDE8F08BB2FB83
:10A3C800F3F2844640EA010313F0030F18D18446E0
:10A3D800202A0BD32DE9F007B1E8F807A0E8F80721
:10A3E800A2F12002202AF7D2BDE8F007042A07D3F9
:10A3F80051F8043B40F8043BA2F10402042AF7D2C6
:10A40800002A05D011F8013B00F8013B013AF9D1C7
:10A41800604670478446002A2DD010F0030F04D000
:10A4280000F8011B013A26D0F7E7C9B241EA012139
:10A4380041EA0141202A12D3A2F120022DE9F003BA
:10A448000B460C460D460E460F4688468946A0E840
:10A45800FA03203AFBD2BDE8F00320320BD0042ADD
:10A4680005D340F8041B043A05D0042AF9D200F8B1
:10A47800011B013AFBD160467047024610F0030FFA
:10A4880016D111F0030F13D12DE9F0004FF0013769
:10A498004FF0803351F8044BA4EB070525EA040577
:10A4A8001D4002D142F8044BF4E7A1F10401F0BCCD
:10A4B80011F8013B02F8013B002BF9D1704710F06D
:10A4C800030F19D111F0030F16D12DE970004FF0C9
:10A4D80001364FF0803350F8044B51F8045BAC421E
:10A4E80005D1A4EB060525EA04051D40F3D0A0F12B
:10A4F8000400A1F1040170BC10F8012B11F8013B14
:10A50800D21A01D1002BF7D11046704700F1010192
:10A5180010F0030F11D010F8012B002A23D010F0EF
:10A52800030F0AD010F8012B002A1CD010F0030FDB
:10A5380003D010F8012B002A15D02DE970004FF038
:10A5480001324FF0803350F8044BA4EB020525EAA2
:10A5580004051D4000D1F6E7A0F1040070BC10F816
:0CA56800012B002AFBD1A0EB0100704782
:10A57400C17002000000000091950200A02D00208F
:10A584003598020000000000FD8002000000000079
:10A5940027950200A02D0020659B020018300020A2
:10A5A400B196020000000000F19C0200503000202F
:10A5B400A19D0200C82A0020998202000000000028
:10A5C400C9A1020000000000C1A2020000000000B6
:08A5D4004171020000000000CB
:10A5DC00000000000338FDD870470000FFFFFFFFAC
:10A5EC00FFFFFFFFFFFFFFFFFFFFFFFF000000006B
:10A5FC00000000000000D60106010000C4A5020006
:10A60C00C4A502000400000011121314436F6E6EF7
:10A61C006563746564200A00446973636F6E6E65CC
:10A62C0063746564200A0050485920757064617425
:10A63C006520726571756573742E200A0000000028
:10A64C00000000000338FDD8704744617461206C31
:10A65C00656E2069732073657420746F20307825C3
:10A66C005828256429200A00415454204D54552063
:10A67C0065786368616E676520636F6D706C657477
:10A68C0065642E2063656E7472616C203078257859
:10A69C00207065726970686572616C2030782578FD
:10A6AC00200A0057616B6575702070696E20737499
:10A6BC00617475732025640A004368617267696E62
:10A6CC0067207374617475732025640A0044697380
:10A6DC00436F6E6E65637465642054696D6572209A
:10A6EC0068616E646C65720A000000002C300020FA
:10A6FC00424F5445204750535F330053657474697F
:10A70C006E672061647620706172616D73205048B1
:10A71C005920746F20314D202E2E200A0041647672
:10A72C006572746973696E672074797065207365DE
:10A73C007420746F20434F4E4E45435441424C4558
:10A74C005F5343414E4E41424C455F554E44495236
:10A75C004543544544200A005374617274696E6712
:10A76C00206164766572746973696E672E200A00C5
:10A77C0041505020737461727465642E0D0A00523E
:10A78C006563656976656420646174612066726FC7
:10A79C006D20424C45204E55532E200A0047504701
:10A7AC00474100626174746572795F766F6C746195
:10A7BC0067653A2025640A005465726D696E616C98
:10A7CC000052545400534547474552003031323300
:10A7DC003435363738394142434445469ECADC2429
:10A7EC000EE5A9E093F3A3B50000406E010000074D
:10A7FC00D4A50200D4A5020008000000C4A50200E4
:10A80C00D4A5020008000000D4A50200DCA50200BB
:10A81C000800000084A50200C4A502000800000086
:0CA82C0074A5020084A5020008000000D2
:10A838000000000000200040000000000020004050
:10A84800000000000090D00330000000F82F002026
:10A858001F0000000000000000000000FF00FFFFD4
:10A8680000000000000000000000000000000000E0
:10A8780000000000E42A0020000000004C30002006
:0CA8880001000400474F00010000000028
:0400000320006379FD
:00000001FF
