:020000022000DC
:106000000000012079630200616302006363020003
:10601000656302006763020069630200000000001C
:106020000000000000000000000000006B630200A0
:106030006D630200000000006F63020071630200E4
:1060400091A60200736302007DAC0200736302003C
:1060500073630200736302009DA902007363020070
:1060600073630200736302007363020073630200D0
:1060700073630200736302007363020073630200C0
:1060800073630200118102007363020073630200F4
:106090005181020073630200691A030073630200F6
:1060A0007363020073630200736302007363020090
:1060B0007363020073630200000000000000000030
:1060C0007363020073630200736302007363020070
:1060D0007363020073630200736302000000000038
:1060E00000000000000000000000000000000000B0
:1060F00000000000000000000000000000000000A0
:10610000000000000000000000000000000000008F
:10611000000000000000000000000000000000007F
:10612000000000000000000000000000000000006F
:10613000000000000000000000000000000000005F
:10614000000000000000000000000000000000004F
:10615000000000000000000000000000000000003F
:10616000000000000000000000000000000000002F
:10617000000000000000000000000000000000001F
:10618000000000000000000000000000000000000F
:1061900000000000000000000000000000000000FF
:1061A00000000000000000000000000000000000EF
:1061B00000000000000000000000000000000000DF
:1061C00000000000000000000000000000000000CF
:1061D00000000000000000000000000000000000BF
:1061E00000000000000000000000000000000000AF
:1061F000000000000000000000000000000000009F
:10620000364937480A1A02D0072291438D4635494C
:1062100035480A1A06D00722914381F309880222E1
:1062200082F3148831483249324A00F045F8324846
:106230003249334A00F040F832483349334A00F0DB
:106240003BF833483349344A00F036F83348344990
:10625000344A00F031F834483449354A00F02CF81B
:1062600034483549354A00F027F835483549002289
:1062700000F02DF834483549002200F028F8344861
:106280003449091A082903DB002202600430016046
:10629000314A90471F482049884205D0026804309F
:1062A00003B4904703BCF7E700208646EC46002085
:1062B00000212A4A9047FEE7884207D0521A05D0AB
:1062C000037801300B700131013AF9D170478842EF
:1062D00002D002700130FAE7704700000000012090
:1062E00000E000200000012000000120BC5203005B
:1062F000982A0020642B0020D8630200D863020093
:1063000014340300BC520300982A0020982A00206D
:10631000083503000835030008350300083503007D
:10632000083503000835030008350300083503006D
:10633000BC52030088530300642B0020642B002010
:10634000642B0020643C0020643C00206C3C002056
:106350006C3C00206C5C0020A163020041E0020064
:10636000FEE7FEE7FEE7FEE7FEE7FEE7FEE7FEE705
:10637000FEE7FEE7704700BF1048804710484FF027
:106380000701884385460F4880470F48016841F45C
:1063900070010160BFF34F8FBFF36F8FFFF730BF06
:1063A0000A480B490B4A884207D0521A05D0037895
:1063B00001300B700131013AF9D170477563020069
:1063C00000000120DD99020088ED00E0083503009F
:0863D000982A0020982A002001
:1063D800004870475C3C002000B585B00190019BE7
:1063E800002B0AD0074B43F001030393019B9B0149
:1063F8000293039B0298984700E000BF05B05DF840
:1064080004FB00BF2035030000B583B00190019B59
:10641800002B0AD04FF47A70FFF7DEFF019B013B97
:106428000193019B002BF5D100E000BF03B05DF89C
:1064380004FB000000B589B0039002910192019B12
:10644800002B33D00023079303230693029A079B5C
:106458001344019A1946002007F02AFF0590079A6D
:10646800059B13440793019A059BD31A0193059B37
:10647800002B13D10F4B1B7883F00103DBB2002BE9
:1064880013D10120FFF7C0FF069B013B0693069B33
:10649800002B03D1074B00221A7007E0054B01229D
:1064A8001A70019B002BD1D100E000BF00BF09B0DA
:1064B8005DF804FB642B002000B585B003900291C1
:1064C800054B00934023054A0299039800F012F8FF
:1064D80000BF05B05DF804FB3D640200682B002096
:1064E80082B0019000BF02B0704782B0019000BF37
:1064F80002B0704700B5A1B00590049103920293D1
:10650800049803F005F8039B1593029B1693002348
:10651800179300238DF8603000231993229B1A9358
:1065280000231F930FA91F9B0822049803F0CAF8A1
:1065380008231F93119B1293BDF84030ADF84C30DF
:10654800BDF84230ADF84E3000238DF851309DF83B
:106558003C3003F00303DBB2012B26D10F9BC3F3BE
:1065680095231C939DF83C30C3F3C203DBB28DF82E
:106578005030BDF83C30C3F38313DBB21B931B9B35
:106588009A0009A91F9B049803F09CF81B9B9B0089
:106598001F9A13441F9312AA09A915AB0093134617
:1065A8001B9A1C9800F0F0FD2FE09DF83C3003F09A
:1065B8000303DBB2022B28D1BDF83E30C3F38913A5
:1065C8009BB21E939DF83C30C3F3C203DBB28DF837
:1065D80050301E9B082B28BF08231D9307A91F9B1B
:1065E8001D9A049803F06EF81F9A1D9B13441F937D
:1065F8001E9A1D9BD31A1E9315AB12AA07A81D99A4
:1066080000F064FE1E9B002BE3D1049802F08FFF7C
:1066180000BF21B05DF804FB00B583B00190009184
:10662800019B1B681B6800990198984700BF03B03D
:106638005DF804FB00B583B00190019B1B685B68A3
:106648000198984700BF03B05DF804FB00B583B01C
:106658000190019B1B689B680198984700BF03B095
:106668005DF804FB82B00190019BDB6801225A713E
:1066780000BF02B0704782B00190019BDB685B7974
:10668800184602B070470000024A034BD31ADB08D1
:1066980018467047F83403009034030000B587B0FB
:1066A80001900B468DF803309DF80330002B1FD066
:1066B800FFF7EAFF04900023059313E0059B9B0076
:1066C8000E4A13440393039B1B881A46019B1B68BD
:1066D8009A4204D1019B059A1A60002309E0059BA0
:1066E80001330593059A049B9A42E7D3052300E0FA
:1066F8000023184607B05DF804FB00BF982A002065
:1067080000B585B001900B468DF803309DF8032045
:1067180001AB11461846FFF7C1FF0346002B07D10E
:10672800019BDB00054A13440393039B1B6800E0AD
:106738000023184605B05DF804FB00BF9034030041
:1067480084B001900B468DF80330019BDB00174A9B
:10675800134402939DF80330013B032B1CD801A27C
:1067680052F823F07D670200856702008D670200FA
:106778009767020002238DF80F3011E004238DF88B
:106788000F300DE0029B1B798DF80F3008E0029B5B
:106798005B798DF80F3003E000238DF80F3000BFD0
:1067A8009DF80F30184604B0704700BF90340300BE
:1067B80084B00190009100238DF80F30019B1B7865
:1067C80003F00403DBB2002B24D0019B1B78C3F336
:1067D8000103DBB2012B02D0022B0CD017E0009B87
:1067E8001B68019A1288C2F38312D2B213449A1C0E
:1067F800009B1A600BE0009B1B68019A5288C2F349
:10680800891292B213449A1C009B1A6000BF01239C
:106818008DF80F309DF80F30184604B0704700000F
:1068280000B58BB00023ADF826303E4802F0F3F8EF
:106838003D4802F0F0F83D4B5B6804933B4B9B6886
:106848000693049A069B134002339B00374A13446D
:106858000433089304AB19460898FFF7A9FF0346C9
:10686800002B09D0049A069B134002339B002F4A41
:10687800134404330893EDE700BF0023079311E0A6
:10688800049B5A1C0492069A1340079A920001A985
:106898000A44264902339B000B445B681360079B3C
:1068A80001330793079B012BEAD99DF80430C3F302
:1068B8000103DBB2012B10D0022B1CD1BDF80A302A
:1068C800ADF82630BDF80630C3F389139BB2033305
:1068D8009A08049B1344049313E0BDF80A30ADF8FA
:1068E8002630BDF80430C3F38313DBB21A46049B89
:1068F8001344049305E00E494FF4BF7006F066FC9C
:1069080000BF094802F093F80590059B002B02D0C0
:10691800049B064A5360BDF8263018460BB05DF854
:1069280004FB00BF903000208C300020782C002021
:10693800A435030000B585B00021074801F0DCFF4D
:106948000390039B0293029B83F310030193019B23
:10695800184605B05DF804FB9430002000B589B0F6
:106968000390029101920093039B1B0C0793FFF77E
:10697800E1FF0690FFF788FE0246079B934204D387
:10698800214940F2A31006F021FC069B1904009B44
:106998005A1C0A9B1340079A0A431C4902339B005E
:1069A8000B445A60009A0A9B134002339B00174A13
:1069B800134404330593039B03F00703D9B2059AE4
:1069C800137861F3C5031370019B03F00F03D9B269
:1069D800059A138861F389131380029BC3F3150189
:1069E800059A136861F39F231360059A13780121B0
:1069F80061F301031370059A13786FF38203137020
:106A080000BF09B05DF804FBA4350300782C002012
:106A180000B58DB00390029113468DF80730039BA3
:106A280002330A9301238DF8273000238DF81B3099
:106A38000DF11B03184601F0CBFE404B1A68029B70
:106A48001A603E4B9A683D4B59683C4B1B68CB1A01
:106A5800134401330B9314E00121394801F0ABFFD3
:106A6800FFF7DEFE07900799354801F0A4FF334B86
:106A78009A68324B5968314B1B68CB1A134401335F
:106A88000B930A9A0B9B9A42E6D89DF82730002B65
:106A980048D0002305939DF80730002B17D09DF8A8
:106AA8001430012262F301038DF814309DF814307C
:106AB80043F004038DF81430039B03F00F03DAB29C
:106AC800BDF8143062F38913ADF8143016E09DF860
:106AD8001430022262F301038DF814309DF814304B
:106AE80043F004038DF81430039BC3F309039AB2EF
:106AF800BDF8163062F38F13ADF816300F4B1A68D5
:106B08000E4B9B68134002339B000C4A134404331A
:106B18000893059A089B1A60084B1A680A9B134445
:106B2800064A13609DF81B30184601F067FE9DF871
:106B3800273018460DB05DF804FB00BF782C002004
:106B48009430002000B58BB0059004910392029315
:106B58001F4B9B68079306AB012219460298FFF763
:106B680057FF0346002B24D0069B023309930023CA
:106B7800089311E0089B9B00039A1A44099B591C2F
:106B8800099107990B401268114902339B000B4485
:106B98005A60089B01330893089A029B9A42E9D3EA
:106BA800069A079B00931346029A04990598FFF7E3
:106BB800D5FE074B93F82034002B05D000BF00F01A
:106BC80065F80346002BFAD100BF0BB05DF804FB53
:106BD800782C002000B583B001900091002300229A
:106BE80000990198FFF7AEFF00BF03B05DF804FB02
:106BF80000B587B0039002910192019B059305AA05
:106C0800012302990398FFF79DFF00BF07B05DF8C5
:106C180004FB00B587B00390029101920093019B99
:106C28000493009B059304AA022302990398FFF793
:106C380089FF00BF07B05DF804FB00B58BB0039077
:106C4800029101920093019B0593009B06930C9B74
:106C580007930D9B08930E9B099305AA0523029998
:106C68000398FFF76FFF00BF0BB05DF804FB00004F
:106C7800054B5A68044B1B689A420CBF012300233A
:106C8800DBB21846704700BF782C002000B599B0D9
:106C9800FFF7EEFF0346002B01D00023BCE19A4B1F
:106CA8000022C3F81824BFF34F8F974B5B680493F7
:106CB800954B9B681093049A109B134002339B00DA
:106CC800914A134404331193002317930023169316
:106CD80000230F9304AB19461198FFF769FD03468B
:106CE800002B19D0884BD3F81834002B14D1864BBD
:106CF8001A68049B9A4205D8834B1B68824A5360E2
:106D0800002389E1049A109B134002339B007E4ABA
:106D1800134404331193DDE70023159311E0049B1A
:106D28005A1C0492109A1340159A920001A90A4419
:106D3800754902339B000B445B681360159B013354
:106D48001593159B012BEAD99DF8043003F0030332
:106D5800DBB2022B40F09C80BDF80630C3F38913E8
:106D68009BB20D93BDF80630C3F389139BB2502B29
:106D780028BF50239BB20C930C9BC3F309039AB210
:106D8800BDF8063062F38F13ADF806300C9B08335C
:106D98000B939DF80430C3F3C203DBB20F930B9936
:106DA8005A4802F025FB1790179B002B00F0D08063
:106DB800179802F0ADFB01A9169B0822179802F05C
:106DC80063FC169B08331693049BDA43109B13400D
:106DD80001339B000A930C9A0A9B9A4242D90A9B58
:106DE800002B08D0049A109B134002339B00464A9C
:106DF8001344043300E0464B08930A9B002B02D04F
:106E08000A9BDBB201E00C9BDBB28DF81F300A9BBA
:106E1800002B01D03E4B00E0002306930A9B002B79
:106E280006D00C9BDAB20A9BDBB2D31ADBB200E0C5
:106E380000238DF817309DF81F20169B0899179886
:106E480002F022FC9DF81F30169A13441693069BF5
:106E5800002B16D09DF81720169B0699179802F05C
:106E680013FC0EE0049A109B134002339B00264A41
:106E7800134404330993169B0C9A0999179802F046
:106E880003FC0D9B03339A08049B134404935FE0AF
:106E98009DF8043003F00303DBB2012B58D1BDF891
:106EA8000430C3F38313DBB2062B28BF0623DAB200
:106EB800BDF8043062F38913ADF80430BDF804302E
:106EC800C3F38313DBB202330E939DF80430C3F38C
:106ED800C203DBB20F930E9B9B0019460B4802F0CE
:106EE80087FA1790179B002B32D0179802F010FBE7
:106EF80001A9169B0822179802F0C6FB169B0833B7
:106F08001693002315931AE0782C00207C34030094
:106F1800842C0020049B5A1C0492109A13400233BC
:106F28009B003F4A1344191D169B0422179802F030
:106F3800ABFB169B04331693159B01331593BDF8D1
:106F48000430C3F38313DBB21A46159B9342E1D393
:106F5800179B002B40D0324BD3F810341493304B8E
:106F6800D3F81834002B1BD0179802F0E0FA4DE044
:106F780000238DF84F301498FFF77DFB0346002B54
:106F880002D001238DF84F309DF84F30002B03D0ED
:106F980017991498FFF740FB149BDB681B68149340
:106FA800149B002BE4D1179802F0C1FA00238DF846
:106FB80003300DF10303184601F00AFC184BD3F80F
:106FC8001834002B02D1049B154A53609DF80330F6
:106FD800184601F013FC19E0114BD3F81034129342
:106FE80006E01298FFF732FB129BDB681B681293CE
:106FF800129B002BF5D10B4A0B4BD31ADB081B0451
:1070080043F0020309491846FFF7E4FDFFF730FE95
:10701800034683F00103DBB2184619B05DF804FBA0
:10702800782C0020B83403009034030004360300A1
:1070380000B583B00C4BD3F8103401930A4B0122EE
:1070480083F8202409E00198FFF70CFB0198FFF76B
:10705800F1FA019BDB681B680193019B002BF2D1BD
:1070680000BF03B05DF804FB782C002082B00190CB
:10707800009100BF02B0704710B584B00390029130
:10708800039BDB88002B0AD0039BDB881A461F4B27
:10709800009313461E4A1F49029801F0ABFD039B5B
:1070A8001B7A052B2ED0039B5B7A002B12D0039BF7
:1070B8009B881A46039B1B7A19461046FFF740FB2C
:1070C80003461A46144B53F822301A4613490298BD
:1070D80001F090FD039B1B6819460298FFF7C6FF55
:1070E800039B1B7A1A460E4B53F82240039B9B883E
:1070F80000211846FFF704FB034622460949029877
:1071080001F078FD00BF04B010BD00BF38360300A1
:107118004836030080360300B42A0020983603005E
:10712800A02A00209C36030000B585B00390029188
:1071380013468DF80730039B1B7A052B0FD0039B52
:107148005B7A002B06D00D4B1B681A460C49029837
:1071580001F050FD0B49029801F04CFD07E09DF845
:107168000730002B03D00749029801F043FD02982D
:1071780001F01EFD00BF05B05DF804FBB42A002035
:1071880098360300A836030030B58BB007900691F7
:10719800059204930E9B1B7B8DF827300E9B0022D3
:1071A8001A730E990498FFF767FF059B062B7FD883
:1071B80001A252F823F000BFDD710200E77102005E
:1071C800F77102000B72020029720200517202006C
:1071D8008172020007990E9801F00CFD69E0069B88
:1071E8001B681A4607990E9801F004FD61E0069B9A
:1071F8001A68069B04331B6807990E9801F0FAFC7D
:1072080057E0069B1A68069B04331968069B0833E7
:107218001B6800930B4607990E9801F0EBFC48E0B9
:10722800069B1968069B04331868069B08331B687D
:10723800069A0C3212680192009303460A4607998F
:107248000E9801F0D7FC34E0069B1868069B0433BF
:107258001C68069B08331B68069A0C32126806994C
:10726800103109680291019200932346024607995A
:107278000E9801F0BFFC1CE0069B1C68069B0433BB
:107288001D68069B08331B68069A0C32126806991B
:107298001031096806981430006803900291019231
:1072A80000932B46224607990E9801F0A3FC00E0B4
:1072B80000BF00220E990498FFF736FF0E9B9DF839
:1072C80027201A7300BF0BB030BD00BF00B587B0D0
:1072D8000390029101920093029B082B5CD8009BBB
:1072E8001B7B8DF81330009B00221A7300990198BC
:1072F800FFF7C2FE0023059314E0059A029B9A4209
:1073080009D2039A059B13441B781A46244900980E
:1073180001F070FC03E02349009801F06BFC059B29
:1073280001330593059B072BE7D91F49009801F006
:1073380061FC0023059322E0059A029B9A4217D22A
:10734800039A059B13441B788DF812309DF8123070
:1073580018460BF0D9F90346002B02D09DF81230DD
:1073680000E02E231A461149009801F043FC03E07F
:107378000F49009801F03EFC059B01330593059BDE
:10738800072BD9D9012200990198FFF7CDFE009B60
:107398009DF813201A7300E000BF07B05DF804FBE6
:1073A800AC360300B4360300B8360300BC3603001D
:1073B800C036030086B003900291019201238DF834
:1073C80017309DF817301F4A039B13601D4A029B14
:1073D80053601C4A019B9360039B44F20102934251
:1073E80012D044F20202934221D1019B154AD36084
:1073F800144BDB681B881A46124B9A61114BDB68E9
:107408005B68104AD36112E0019B0E4A13610D4B71
:107418001B699B680B4A53610A4B1B691B68094A25
:107428009361084B1B695B68064AD36100BF72B65B
:1074380000BF9DF81730DBB2002BFAD162B600BF4F
:1074480006B070479C30002000B583B002900091D0
:10745800019244F2010071466A4600F003F803B055
:1074680000BD00BF30B58BB007900691059272B68B
:10747800FFF7DEFD00BFFFF709FC0346002BFAD13A
:10748800079B41F2010293421BD041F20102934251
:1074980002D8012B09D05FE044F2010293422ED0BA
:1074A80044F20202934218D056E0394A394BD31AB3
:1074B800DB081B0443F0010337491846FFF78AFB32
:1074C80057E0334A334BD31ADB081B0443F001035C
:1074D80032491846FFF77EFB4BE0059B09932C4A7F
:1074E8002C4BD31ADB081B0443F00100099B5B6893
:1074F8001A46099B1B882A49FFF78BFB39E0059B35
:107508000893234A234BD31ADB081B0443F00104D6
:10751800089B9D68089B9B68184602F0E9F903469A
:107528001846089B5B681946089B1B68069A0292D6
:107538000193009103462A461A492046FFF77DFB2E
:10754800134A144BD31ADB081B0443F001031649F2
:107558001846FFF73FFB0CE00D4A0E4BD31ADB0829
:107568001B0443F00103069A10491846FFF740FB35
:1075780000BF0F4B1B6803F00103002B00D000BEB7
:10758800059A06990798FFF715FF00BF0BB030BDA5
:10759800B834030090340300C4360300E436030013
:1075A80008370300243703004C3703006037030013
:1075B800F0ED00E084B00190019B9B680393019B70
:1075C800DA68039BD31A184604B0704782B001905A
:1075D8000B468DF80330019B1A68019BDB68019903
:1075E80089880B4013449DF803201A70019BDB68BF
:1075F8005A1C019BDA6000BF02B0704784B0039048
:107608000B460192ADF80A30039B1A68039B9968F0
:10761800BDF80A300B44039989880B4013441A7843
:10762800019B1A7000BF04B0704700B583B0019089
:107638000091009A00210198FFF7E0FF019B9B68E9
:107648005A1C019B9A6000BF03B05DF804FB84B02C
:10765800039002911346ADF80630029B002B01D12E
:107668000E231DE0BDF80630002B07D0BDF806300C
:107678005A1EBDF806301340002B01D009230FE035
:10768800039B029A1A60BDF80630013B9AB2039B2D
:107698009A80039B00229A60039B0022DA600023F1
:1076A800184604B0704700B583B001900B468DF8BA
:1076B80003300198FFF77EFF0246019B9B889A42A0
:1076C80007D89DF8033019460198FFF77FFF00237C
:1076D80000E00423184603B05DF804FB00B583B04E
:1076E800019000910198FFF765FF0346002B05D034
:1076F80000990198FFF799FF002300E00523184639
:1077080003B05DF804FB000082B003468DF8073033
:107718009DF8073003F01F0205499DF907305B0902
:10772800012000FA02F241F8232000BF02B070479E
:1077380000E100E082B003468DF807309DF807307D
:1077480003F01F0206499DF907305B09012000FA82
:1077580002F2203341F8232000BF02B0704700BF77
:1077680000E100E082B003468DF807309DF807304D
:1077780003F01F0206499DF907305B09012000FA52
:1077880002F2403341F8232000BF02B0704700BF27
:1077980000E100E082B003468DF807309DF807301D
:1077A80003F01F0206499DF907305B09012000FA22
:1077B80002F2603341F8232000BF02B0704700BFD7
:1077C80000E100E082B0034600918DF807309DF992
:1077D8000730002B0CDA009BDAB20C499DF8073011
:1077E80003F00F03043B5201D2B20B441A7609E0AE
:1077F800009BDAB206499DF907305201D2B20B4418
:1078080083F8002300BF02B0704700BF00ED00E01E
:1078180000E100E000B585B00190019B002B0AD083
:10782800074B43F001030393019B9B010293039BC6
:107838000298984700E000BF05B05DF804FB00BF60
:107848008037030000B583B00190064A019BC2F857
:10785800083506211120FFF7B5FF00BF03B05DF81A
:1078680004FB00BF0010014008B50D4B4FF48032F7
:10787800C3F844230A4B4FF48032C3F80423112081
:10788800FFF788FF1120FFF73FFF054B01221A6021
:107898002F20FFF7BFFF034B01221A7000BF08BD5E
:1078A80000100140DA31002008B51120FFF742FF2F
:1078B8000E4B4FF48032C3F848230C4B4FF4803200
:1078C800C3F80823094B01225A602F20FFF7A2FFB3
:1078D800064B01229A60064B00221A602F20FFF700
:1078E80099FF044B00221A7000BF08BD0010014028
:1078F800CC310020DA310020024BD3F80435184689
:10790800704700BF0010014082B001900091019AB9
:10791800009BD31A23F07F43184602B0704700003B
:1079280082B00190034A019BC2F8403500BF02B003
:10793800704700BF0010014086B00190284B1B68BB
:10794800002B03D1264A019B136045E0019B1A686E
:10795800234B1B681B689A4210D8214B1B68196877
:10796800019B1A681E4B1B688A1A1A601C4B1A68FE
:10797800019BDA611A4A019B13602DE0019B1B6889
:107988000393174B1B680593154B1B68049309E079
:10799800049B1B68039AD31A0393049B0593049BC7
:1079A800DB690493049B002B04D0049B1B68039A97
:1079B8009A42EDD8049B002B05D0049B1A68039BC0
:1079C800D21A049B1A60019B039A1A60019B049ABD
:1079D800DA61059B019ADA6100BF06B0704700BF03
:1079E800C831002000B587B001902A4B1B6803936B
:1079F800284B1B680593059B049308E0049A019B98
:107A08009A4208D0049B0593049BDB690493049B6A
:107A1800002BF3D100E000BF049B002B01D1002311
:107A280033E0059A049B9A4214D11A4B1B68DB6910
:107A3800184A1360174B1B68002B0BD1164B0122F9
:107A48009A60164B00221A60154B01221A702F20DB
:107A5800FFF7E0FE049B1B680293049BDA69059B11
:107A6800DA61059BDB690493049B002B05D0049B1A
:107A78001A68029B1A44049B1A60064B1B68039AF7
:107A88009A4214BF01230023DBB2184607B05DF801
:107A980004FB00BFC831002000100140CC31002099
:107AA800DB31002008B51120FFF75CFE00BF08BDE0
:107AB80008B51420FFF756FE00BF08BD00B583B017
:107AC8000190019B5B69019A92691046984700BF33
:107AD80003B05DF804FB000000B585B02B4B1B68B4
:107AE800002B4ED000230193FFF706FF0246284BD8
:107AF8001B6819461046FFF707FF0290234B1B68C7
:107B080003931DE0039B1B68029A9A421CD3039BB4
:107B18001B68029AD31A0293039B1B68019A1344A9
:107B28000193039B0093039BDB690393009B1B7CDE
:107B3800002B05D0009B00221A740098FFF7BEFFA7
:107B4800039B002BDED100E000BF124B1A78124BCA
:107B58001B789A420CD1104B1B780133DAB20E4BCA
:107B68001A700D4B1B78022B02D10B4B00221A7096
:107B7800094B1B781946094A019B42F82130FFF747
:107B880097FF00BF05B05DF804FB00BFC8310020B7
:107B9800CC310020D8310020D9310020D03100204C
:107BA80082B00190184B1A78184B1B789A4223D050
:107BB800154B1B780133DAB2134B1A70124B1B7832
:107BC800022B02D1104B00221A700F4B1B781A4659
:107BD8000F4B53F82220019B1A60019B1A680D4B2A
:107BE8001B6813440B4A13600A4B1B6823F07F433E
:107BF800084A1360012303E0019B00221A60002356
:107C0800184602B0704700BFD8310020D931002093
:107C1800D0310020CC31002088B00390029101922D
:107C28000023079338E0204B1B680693069B1B68CC
:107C3800039A9A4206D2069B1A68039BD21A069B9D
:107C48001A602DE0069B1B68039AD31A0393069BC0
:107C58001B68079A13440793069B00221A60124B6D
:107C68001B680593069BDB690F4A1360069BDB685C
:107C7800002B11D0029A079B134423F07F42069BE6
:107C88005A60069BDA68069B9A60019B1A68069BF5
:107C9800DA61019B059A1A60034B1B68002BC2D15D
:107CA80000BF08B0704700BFC831002000B589B0D8
:107CB800019000238DF81F30664B1B680593AAE0DE
:107CC800019B002B05D0019B0693069BDB69019362
:107CD80061E0614B1B781A4613465B001344DB00D6
:107CE8005D4A1344043304935B4B1B780133DAB2C7
:107CF800594B1A70584B1A78574B9B789A4202D1B5
:107D0800554B00221A70049B5B680693049B1B78F2
:107D1800022B04D0032B1BD0012B1FD01DE0049B8A
:107D28005B681846FFF75EFE0346002B02D001236E
:107D38008DF81F30069B00221A746CE0454B1B68B7
:107D48000393039B00221A74039BDB69414A136067
:107D5800404B1B68002BF1D15DE05CE000BF069B47
:107D68001B7C002B00D056E0049B9A68069B5A6047
:107D7800049BDA68069B9A60049B1A69069BDA6082
:107D8800049B5A69069B9A61344B1B78002B02D0DE
:107D9800069B00225A60069B5A68314B1B68D31A0F
:107DA80023F07F432F4A93420ED8069B5A682C4BE8
:107DB8001B6819461046FFF7A7FD0246069B9B68FD
:107DC8001A44069B1A6017E0254B1A68069B5B68E5
:107DD80019461046FFF798FD0290069B9B68029A89
:107DE8009A4206D2069B9A68029BD21A069B1A6090
:107DF80002E0069B00221A60069B00225A60069B3E
:107E080000229A60069B01221A74069B0022DA61FE
:107E18000698FFF791FD019B002B7FF451AF0E4BA5
:107E28001A780D4B5B789A427FF44AAF9DF81F3061
:107E3800002B04D1074B1B68059A9A4201D00123F5
:107E480000E0002303F00103DBB2184609B05DF837
:107E580004FB00BFC8310020BC300020DB3100200B
:107E6800CC310020FEFF7F0010B588B00190274B71
:107E78001B68002B44D0254B1B681B680793FFF732
:107E88003BFD0690224B1B68059305990698FFF762
:107E98003BFD0346033304931E4B1B7883F0010319
:107EA800DBB2002B01D0FFF7DFFC049A079B93425B
:107EB80038BF1346059A13440593059B23F07F4367
:107EC80005930598FFF72CFDFFF716FD039006991B
:107ED8000398FFF719FD0346DC1C06990598FFF780
:107EE80013FD03469C420DD9FFF706FD03461846CD
:107EF800FFF716FD2F20FFF78DFCFFF7D3FD01E0FC
:107F0800FFF7D2FC00BF08B010BD00BFC831002089
:107F1800CC310020DA31002000B587B0002301936E
:107F280000238DF81730194B1B680493184B1B68F6
:107F380003936B461846FFF733FE03468DF80B3064
:107F48009DF80B30002B08D0009B01AA0499184615
:107F5800FFF762FE01238DF81730019B1846FFF7E3
:107F6800A5FE0346002B02D001238DF817309DF89B
:107F78001730002B02D00398FFF776FF054B00223D
:107F88001A7000BF07B05DF804FB00BFCC310020B9
:107F9800C8310020DB31002082B003468DF807305D
:107FA800034A9DF80730537000BF02B0704700BF06
:107FB800BC30002084B00190144B5B7801338DF8FD
:107FC8000F30124B9B789DF80F209A4202D1002364
:107FD8008DF80F300D4B1B789DF80F209A4201D178
:107FE80000230FE0019B9DF80F201A70074B5B7868
:107FF8001A4613465B001344DB00044A1344043357
:108008000293029B184604B0704700BFBC300020A2
:1080180000B589B003900291019200930023079361
:1080280000238DF816300DF11603184600F0D0FB2A
:108038000DF117031846FFF7BDFF0690069B002BAE
:1080480002D10423079318E0069B01221A70069BAD
:10805800039A5A60FFF750FC0246069B9A60069BFB
:10806800029ADA60069B019A1A61069B009A5A6185
:108078009DF817301846FFF78FFF9DF81630184601
:1080880000F0BCFB079B002B01D1FFF711FD079BFC
:10809800184609B05DF804FB00B587B001900B469F
:1080A8008DF803300023059300238DF80E300DF171
:1080B8000E03184600F08CFB0DF10F031846FFF76E
:1080C80079FF0490049B002B02D1042305930BE055
:1080D800049B9DF803201A70049B019A5A609DF82E
:1080E8000F301846FFF758FF9DF80E30184600F07D
:1080F80085FB059B002B01D1FFF7DAFC059B184691
:1081080007B05DF804FB000008B50E4B0022C3F869
:1081180040210C4B0022C3F844210A4B0022C3F82B
:108128004821084B0022C3F84C21064B0022C3F813
:108138000021044B0022C3F80421FFF7CDFC00BF47
:1081480008BD00BF0010014008B5FFF7E5FE00BFFD
:1081580008BD000008B5FFF7A7FB134B00221A70F3
:10816800114B00225A70104B0B229A700F4B0022B1
:108178001A600F4B00221A700E4B00221A7014203E
:10818800FFF708FB06211420FFF71CFB1420FFF75C
:10819800BBFA0020FFF756FBFFF7AEFB0246064B83
:1081A8001A600023184608BDBC300020C8310020E2
:1081B800D8310020D9310020CC31002086B003907E
:1081C8000B4601928DF80B30134B9B78002B01D195
:1081D80008231EE0019B002B01D1072319E0039B14
:1081E800002B01D1072314E0039B1B681B7C002B89
:1081F80001D008230DE0039B1B680593059B002213
:108208001A74059B9DF80B205A74059B019A5A61B4
:108218000023184606B07047BC30002000B587B070
:10822800039002910192039B0593144B9B78002BBA
:1082380001D108231EE0039B002B01D1082319E07C
:10824800029B042B01D8072314E0059B5B69002BD4
:1082580001D108230EE0059B5B7C012B01D1029B19
:1082680000E000230493019B049A02990598FFF704
:10827800CFFE0346184607B05DF804FBBC3000206B
:1082880000B585B00190019B03930D4B9B78002BA3
:1082980001D1082310E0019B002B03D0039B5B69ED
:1082A800002B01D1082307E0039B00221A74022146
:1082B8000398FFF7F1FE0346184605B05DF804FB86
:1082C800BC30002000B587B00390029113468DF8AA
:1082D800073000230593039B1B781A46114B9B5CC0
:1082E800002B09D0039B04339DF8072002991846F8
:1082F80003F09EFE05900FE0039B1B781A46094B7E
:108308009B5C002B08D1039B0C339DF80720029936
:10831800184603F049F80590059B184607B05DF824
:1083280004FB00BF4032002000B585B00190002357
:108338008DF80F30019B1B781A46114B9B5C002B64
:1083480008D0019B0433184603F01CFF03468DF840
:108358000F300EE0019B1B781A46094B9B5C002BE3
:1083680007D1019B0C33184603F0A6F803468DF895
:108378000F309DF80F30184605B05DF804FB00BFBC
:108388004032002000B587B00390029113468DF863
:10839800073000230593039B1B781A46114B9B5CFF
:1083A800002B09D0039B04339DF807200299184637
:1083B80003F000FF05900FE0039B1B781A46094B5A
:1083C8009B5C002B08D1039B0C339DF80720029976
:1083D800184603F0C9F80590059B184607B05DF8E4
:1083E80004FB00BF4032002084B00190019B9B68D1
:1083F8000393019BDA68039BD31A184604B07047AD
:1084080000B587B001900091019B1B78012B04D027
:10841800022B38D0002B47D05CE0019B5B681B78AF
:1084280019462E48FFF73FF90590059B002B0AD007
:1084380001238DF80C30059B0493294B1B6803AA74
:10844800104698470DE02548FFF7CEFF0346002B5E
:1084580007D000238DF80C30214B1B6803AA104667
:1084680098471E48FFF7C0FF02461C4B9B889A425C
:1084780005D801221B491C48FFF784FF2AE01B4B43
:1084880001221A7026E002238DF80C30019BDB686C
:108498000493012213491448FFF774FF104B1B681B
:1084A80003AA1046984715E011491248FFF716F934
:1084B8000346002B05D101220D490B48FFF702FFA7
:1084C80007E003238DF80C30054B1B6803AA104600
:1084D800984700BF00BF07B05DF804FBE8310020F3
:1084E800DC310020E4310020D82A0020E5310020CA
:1084F800E0310020F831002030B591B003900291AE
:1085080001928DF803303C4A019B1360029B002BBB
:1085180001D107236DE0029B1968029B5B689BB23F
:108528001A463648FFF793F80F900F9B0E930E9B51
:10853800002B01D00E9B5CE0029B9968029BDB68D4
:108548009BB21A462E48FFF782F80F900F9B0D93A7
:108558000D9B002B01D00D9B4BE02A4B04AC1D4614
:108568000FCD0FC495E80F0084E80F00039B5B69EB
:108578000A93039B1B7C002B14BF01230023DBB24F
:108588008DF824309DF803308DF82C30039B5B7CEC
:10859800002B01D00E2300E000238DF82530039B2B
:1085A800DB680693039B9B680793039B1B680593F3
:1085B800039B5B68049304AB134A1946134801F004
:1085C80085FE0F900F9B0C930C9B002B01D00C9BEE
:1085D8000FE00F4B00221A70039B1B68B3F1FF3F9B
:1085E80006D001220B490948FFF7CCFE034600E0FC
:1085F8000023184611B030BDDC310020E8310020DE
:10860800F83100208837030009840200D82A0020A6
:10861800E5310020E431002000B587B00190019BCE
:10862800002B03D11449C22004F0D0FD134B1B7852
:108638008DF8173001991248FFF750F804909DF80B
:108648001730002B12D00D4B00221A7001220D4951
:108658000D48FFF797FE0390039B0293029B002BA4
:1086680004D0054ACE210298FEF7EEFE049B184678
:1086780007B05DF804FB00BFA8370300E531002010
:10868800E8310020E4310020D82A002000B585B068
:1086980003468DF807309DF8073019461048FFF754
:1086A80002F80390039B002B15D10E48FFF73CFE00
:1086B800034683F00103DBB2002B0CD00A490848BB
:1086C800FFF70CF80346002B05D10122064905489F
:1086D800FFF7F8FD0390039B184605B05DF804FB0F
:1086E800F8310020D82A0020E031002082B0EFF3D2
:1086F80010830093009B019372B6019B184602B049
:10870800704762B600BF704700B585B00190FFF7AB
:10871800EDFF0390164B9B68002B1BD1144B0122D5
:108728009A60144BD3F88020134B1340104A1360FF
:10873800104B114AC3F880200E4BD3F884300C4AF2
:1087480053600C4B4FF0FF32C3F88420019B00228A
:108758001A7002E0019B01221A70039B002B01D1C1
:10876800FFF7CFFF0023184605B05DF804FB00BFF4
:108778000832002000E100E0FC06FFBD00B585B02E
:1087880003468DF80730104B9B68002B16D09DF8D8
:108798000730002B12D1FFF7A9FF03900B4A0A4BB1
:1087A8001B681360094A084B5B685360064B00223C
:1087B8009A60039B002B01D1FFF7A3FF0023184603
:1087C80005B05DF804FB00BF0832002000E100E0BE
:1087D80000B583B0019000F02BF80346012B03D0BD
:1087E8000549432004F0F2FC0198FFF78DFF00BF14
:1087F80003B05DF804FB00BF0038030000B583B088
:1088080003468DF8073000F013F80346012B03D018
:108818000649512004F0DAFC9DF807301846FFF7A6
:10882800ADFF00BF03B05DF804FB00BF00380300D4
:1088380084B0EFF305830193019BC3F3080303930B
:10884800039B002B0DD1EFF314830093009B02933D
:10885800029B03F00103002B0CBF01230023DBB2B2
:1088680000E00123184604B0704700B585B00190B8
:108878000091009B5B099B00019AD018009B03F0B4
:108888001F03012202FA03F3194600F04CF8039083
:1088980000BF05B05DF804FB00B585B001900091FC
:1088A800009B5B099B00019AD018009B03F01F03F3
:1088B800012202FA03F3DB43194600F064F803903F
:1088C80000BF05B05DF804FB82B001900091009BE9
:1088D8005B099B00019A13441A68009B03F01F036D
:1088E80022FA03F303F00103002B14BF0123002332
:1088F800DBB2184602B0704710B487B001900091FF
:10890800019B009A53E8004F104643E8000191F09C
:10891800000FF7D1059404900391059B184607B002
:108928005DF8044B704710B487B001900091019B2B
:10893800009A53E8004F44EA020043E8000191F02E
:10894800000FF6D1059404900391049B184607B0D4
:108958005DF8044B704710B487B001900091019BFB
:10896800009A53E8004F04EA020043E8000191F03E
:10897800000FF6D1059404900391059B184607B0A3
:108988005DF8044B704710B487B001900091019BCB
:10899800009A53E8004F04EA020043E8000191F00E
:1089A800000FF6D1059404900391049B184607B074
:1089B8005DF8044B704710B487B001900091019B9B
:1089C800009A53E8004F04EB020043E8000191F0DD
:1089D800000FF6D1059404900391049B184607B044
:1089E8005DF8044B704710B487B001900091019B6B
:1089F800009A53E8004FA4EB020043E8000191F00D
:108A0800000FF6D1059404900391049B184607B013
:108A18005DF8044B704700B583B0019001210198BF
:108A2800FFF781FF0346184603B05DF804FB00B565
:108A380083B0019000210198FFF78DFF0346184687
:108A480003B05DF804FB000000B583B001900B464D
:108A58008DF80330019B002B03D10849E82004F06E
:108A6800B5FB019BDA689DF803300199098A01FB7F
:108A780003F31344184603B05DF804FB5C380300A5
:108A880000B583B001900091019B002B03D10849E8
:108A9800F52004F09BFB009B019AD2689B1A019A6F
:108AA800128AB3FBF2F3DBB2184603B05DF804FB9D
:108AB8005C38030000B585B00190019B002B04D100
:108AC80020494FF4927004F081FB002303930023A4
:108AD8008DF80A300DF10A031846FFF779FE019B5D
:108AE8001B681A68019B5B689A4220D9019B1B6826
:108AF8001A68013A1A601B681B7819460198FFF733
:108B0800A3FF0390019B9B681A46019B1B681B6887
:108B1800D31A8DF80B30019B1B681B799DF80B202D
:108B28009A4204D9019B1B689DF80B201A719DF885
:108B38000A301846FFF762FE039B184605B05DF839
:108B480004FB00BF5C38030010B584B001900091AD
:108B5800019B002B04D1154940F2471004F036FB65
:108B6800009B002B04D111494FF4A47004F02EFB94
:108B7800009B039300238DF80B300DF10B0318466F
:108B8800FFF726FE019B1B681C68621C1A6003998C
:108B98000198FFF775FF034623709DF80B301846C0
:108BA800FFF72CFE00BF04B010BD00BF5C38030007
:108BB80000B583B00190019B002B03D10C493120F3
:108BC80004F004FB019B9B68002B0CD0019B5B69A4
:108BD800019A1069019A1168019A92689847019B55
:108BE80000229A6000E000BF03B05DF804FB00BFFC
:108BF800B43803000EB400B584B00190019B002B7B
:108C080003D11849422004F0E1FA019B5B69002B6B
:108C180003D11449432004F0D9FA019B1B68002BA7
:108C280003D11049442004F0D1FA019B5B68002B62
:108C380003D10C49452004F0C9FA059B002B0AD042
:108C48000023039306AB039303AB1A4605990198D7
:108C580000F0B0F900E000BF04B05DF804EB03B029
:108C6800704700BFB438030000B583B001900B46CD
:108C78008DF80330019B1A68019B9B68581C019969
:108C8800886013449DF803201A70019B9A68019B21
:108C98005B689A4202D30198FFF78AFF00BF03B0CE
:108CA8005DF804FB00B587B0039002910192009330
:108CB80000230593009B03F00103002B24D00BE055
:108CC800029B01330293059B013305939DF81330F2
:108CD80019460398FFF7C8FF029B1B788DF81330DD
:108CE8009DF81330002BEBD106E0019B013B01936B
:108CF80020210398FFF7B8FF019A059B9A422ED9C5
:108D0800019B002BF1D12AE0029B002B0BD002988B
:108D180009F0B1FF059006E0019B013B019320217A
:108D28000398FFF7A1FF019A059B9A420FD9019B6F
:108D3800002BF1D10BE0029B01330293059B013319
:108D480005939DF8133019460398FFF78DFF029B92
:108D58001B788DF813309DF81330002BEBD100BF32
:108D680007B05DF804FB000000B589B003900291DC
:108D780001920093029B07930123069307E0079A49
:108D8800019BB2FBF3F30793069B01330693079A03
:108D9800019B9A42F3D2009A069B9A4201D9009B02
:108DA80006930B9B03F00103002B22D10A9B002B97
:108DB8001FD00B9B03F00203002B06D0009B002B57
:108DC80003D130238DF8173002E020238DF81730B7
:108DD80008E00A9B013B0A939DF81730194603984F
:108DE800FFF742FF0A9B002B03D0069A0A9B9A4280
:108DF800EFD301230793009B012B03D9009B013B71
:108E0800009309E0029A079BB2FBF3F30493049AD8
:108E1800019B9A4200D205E0079B019A02FB03F3EB
:108E28000793E8E7029A079BB2FBF3F30493049BCA
:108E3800079A02FB03F3029AD31A0293154A049B7A
:108E480013441B7819460398FFF70EFF079A019BF6
:108E5800B2FBF3F30793079B002BE3D10B9B03F0C3
:108E68000103002B11D00A9B002B0ED006E00A9BB1
:108E7800013B0A9320210398FFF7F6FE0A9B002B7B
:108E880003D0069A0A9B9A42F1D300BF09B05DF855
:108E980004FB00BF5839030000B589B00590049160
:108EA80003920293049B002BB8BF5B4206930123F5
:108EB800079307E0039B069A92FBF3F30693079B3D
:108EC80001330793039B069A9A42F3DA029A079BA7
:108ED8009A4201D9029B07930A9B002B0AD0049B54
:108EE800002B04DB0B9B03F00403002B02D00A9B2E
:108EF800013B0A930B9B03F00203002B02D0029B59
:108F0800002B16D00B9B03F00103002B11D10A9BF9
:108F1800002B0ED006E00A9B013B0A9320210598FE
:108F2800FFF7A2FE0A9B002B03D0079A0A9B9A42DE
:108F3800F1D3049B002B07DA049B5B4204932D2199
:108F48000598FFF791FE08E00B9B03F00403002B44
:108F580003D02B210598FFF787FE0B9B03F0020334
:108F6800002B19D00B9B03F00103002B14D1029B9B
:108F7800002B11D10A9B002B0ED006E00A9B013B67
:108F88000A9330210598FFF76FFE0A9B002B03D048
:108F9800079A0A9B9A42F1D304990B9B01930A9B67
:108FA8000093029B039A0598FFF7DEFE00BF09B005
:108FB8005DF804FB00B58FB0059004910392059B02
:108FC800002B04D1C8494FF49F7004F0FFF8059BAB
:108FD8005B69002B04D1C4494FF4A07004F0F6F883
:108FE800059B1B68002B04D1BF4940F2411004F0D7
:108FF800EDF8059B5B68002B04D1BB494FF4A170C9
:1090080004F0E4F8049B002B00F0ED81049B1B782E
:109018008DF83730049B013304939DF83730002BCB
:1090280000F0D8819DF83730252B40F0C781002308
:109038000A9301230C93049B1B788DF837309DF815
:1090480037302D2B04D0302B0AD02B2B10D017E023
:109058000A9B43F001030A93049B0133049312E033
:109068000A9B43F002030A93049B013304930AE02A
:109078000A9B43F004030A93049B0133049302E020
:1090880000230C9300BF0C9B002BD4D10023099321
:109098009DF837302A2B0CD1039B1B68191D039AA6
:1090A80011601B68099A13440993049B01330493C4
:1090B8001AE0049B1B788DF837309DF837302F2B3A
:1090C80012D99DF83730392B0ED8049B01330493FD
:1090D800099A13469B0013445B001A469DF83730E3
:1090E8001344303B0993D3E700230B93049B1B786D
:1090F8008DF837309DF837302E2B1DD1049B013366
:109108000493049B1B788DF837309DF837302F2B4C
:1091180012D99DF83730392B0ED8049B01330493AC
:109128000B9A13469B0013445B001A469DF8373090
:109138001344303B0B93E4E7049B1B788DF83730DE
:109148009DF837306C2B03D09DF83730682B07D14A
:10915800049B01330493049B1B788DF83730EFE7A9
:109168009DF83730253B532B00F2238101A252F89A
:1091780023F000BFB1930200BB930200BB9302002F
:10918800BB930200BB930200BB930200BB93020097
:10919800BB930200BB930200BB930200BB93020087
:1091A800BB930200BB930200BB930200BB93020077
:1091B800BB930200BB930200BB930200BB93020067
:1091C800BB930200BB930200BB930200BB93020057
:1091D800BB930200BB930200BB930200BB93020047
:1091E800BB930200BB930200BB930200BB93020037
:1091F800BB930200BB930200BB930200BB93020027
:10920800BB930200BB930200BB930200BB93020016
:10921800BB930200BB930200BB930200BB93020006
:10922800BB930200BB930200BB930200BB930200F6
:10923800BB930200BB930200BB930200BB930200E6
:109248003D930200BB930200BB930200BB93020054
:10925800BB930200BB930200BB930200BB930200C6
:10926800BB930200BB930200BB930200CD920200A5
:10927800F5920200BB930200BB930200BB9302006D
:10928800BB930200F5920200BB930200BB9302005D
:10929800BB930200BB930200BB930200BB93020086
:1092A8007D930200BB930200BB930200619302000E
:1092B800BB93020019930200BB930200BB93020008
:1092C8003D930200039B1B68191D039A11601B68DC
:1092D8000C930C9B8DF81F309DF81F30194605988C
:1092E800FFF7C2FC66E000BF04390300039B1B685C
:1092F800191D039A11601B680C930A9B0193099B23
:1093080000930B9B0A220C990598FFF7C5FD51E0C5
:10931800039B1B68191D039A11601B680C930C9919
:109328000A9B0193099B00930B9B0A220598FFF760
:109338001BFD3FE0039B1B68191D039A11601B6806
:109348000C930C990A9B0193099B00930B9B102289
:109358000598FFF709FD2DE0039B1B68191D039A6B
:1093680011601B6808930A9B099A08990598FFF7EA
:1093780099FC1FE0039B1B68191D039A11601B6869
:109388000C9330210598FFF76FFC78210598FFF7BB
:109398006BFC0C99002301930823009308231022E7
:1093A8000598FFF7E1FC05E025210598FFF75CFC2F
:1093B80000E000BF049B0133049305E09DF83730BB
:1093C80019460598FFF750FC049B1B78002B7FF487
:1093D8001DAE00E000BF059B1B7B002B04D0059849
:1093E800FFF7E6FB00E000BF0FB05DF804FB00BF2D
:1093F80000B58BB001900091019B1B8A043B079339
:10940800009A079B1344DA1C079BB2FBF3F38DF811
:109418001B300198FFF74EFB0590059B002B01D1EF
:10942800002338E0059B00221A71059B01225A711E
:10943800079B9AB2059BDA80059B09939DF81B3020
:10944800013B0493099B019A1A60002308931DE0CD
:109458000198FFF72FFB0390039B002B0ED0059B71
:109468005B790133DAB2059B5A71099B039A1A603A
:10947800039B019A1A60039B099304E0059800F086
:109488000EF8002307E0089B01330893089A049B11
:109498009A42DDD3059B18460BB05DF804FB00B576
:1094A8008BB00190019B0793079B5B798DF81B306C
:1094B800019B08939DF81B30013B059300230993FA
:1094C80005E0089B1B680893099B01330993099AD7
:1094D800059B9A42F5D3089B1B680493019B08934C
:1094E800002309930BE0089B1B68039308990498D1
:1094F800FFF72AFB039B0893099B013309939DF807
:109508001B30099A9A42EED300BF0BB05DF804FBFA
:1095180000B585B00190019B0393039B043301219F
:109528001846FFF748FA00BF05B05DF804FB00B520
:1095380087B00190019B0593059B043301211846D0
:10954800FFF751FA0346039303AB0493049B1B787C
:10955800002B02D10198FFF7A2FF00BF07B05DF80A
:1095680004FB000000B591B00390029101920093B2
:10957800039B002B03D14349B62003F027FE039B2E
:109588000993039B0F93099BDB881A46099B5B7918
:1095980003FB02F3043B0893009A089B9A4203D307
:1095A8003849C42003F012FE099BDB880793009B0F
:1095B8001A1D079BB2FBF3F30E93009B0433079A23
:1095C800B3FBF2F2079901FB02F29B1A0D93019B80
:1095D8001A68009B1344089A9A4203D2089A009B7F
:1095E800D31A01E0019B1B680C93019B0C9A1A602B
:1095F80005E00F9B1B680F930E9B013B0E930E9B80
:10960800002BF6D100230B93079A0D9BD31A0A93CC
:109618000A9A0C9B934228BF13460A932AE0029A9F
:109628000B9B134406930F9A0D9B13440433059325
:109638009DF84830002B05D00A9A0599069809F03C
:1096480075FA04E00A9A0699059809F06FFA00235A
:109658000D930F9B1B680F930C9A0A9BD31A0C93BC
:109668000B9A0A9B13440B93079A0C9B934228BFAF
:1096780013460A930C9B002BD1D100BF11B05DF8A3
:1096880004FB00BF6839030000B589B00590049158
:1096980003920293039B079307AA00230093029B5C
:1096A80004990598FFF75EFF079B039A9A4203D037
:1096B8000349F62003F08AFD00BF09B05DF804FBFA
:1096C8006839030000B589B00590049103920293AC
:1096D800039B079307AA01230093029B049905980B
:1096E800FFF740FF079B039A9A4204D004494FF4BE
:1096F800807003F06BFD00BF09B05DF804FB00BF8C
:109708006839030082B003468DF807309DF80730AA
:1097180003F01F0206499DF907305B09012000FA92
:1097280002F2603341F8232000BF02B0704700BF47
:1097380000E100E000B583B00190019B002B03D14C
:109748000649722003F042FD019B00221A60BFF314
:109758005F8F00BF03B05DF804FB00BF143A03003D
:1097680041DF704700BF184600B585B000238DF86B
:1097780003300DF103031846FFF72AF8F1EE103A0B
:109788000193019B0393039B23F09F030293029B86
:10979800E1EE103ABFF35F8F2620FFF7B3FF9DF885
:1097A80003301846FFF72AF8039B03F00703002B42
:1097B80003D004497D2003F009FD00BF05B05DF822
:1097C80004FB00BF583A030008B5064B00221A7084
:1097D8000548FFF7AFFF0549054800F02DF80023BD
:1097E800184608BD1832002014320020B43A03008D
:1097F8001C32002000B583B0FFF7B6FF08F004F96B
:109808000346002B0ED0FFF7ABFF0190019B002B06
:109818000BD0019B022B08D006494FF4B07003F01F
:10982800D5FC02E020BF40BF20BF00BF03B05DF8F9
:1098380004FB00BF583A030000B583B001900091C3
:10984800019B002B03D11049502003F0BFFC009B63
:10985800002B03D10C49512003F0B8FC019B009A5E
:109868001A60019B1B681A68019B5A60019B5A6821
:10987800019B1B685B689A4202D1019B00225A60D7
:1098880000BF03B05DF804FBC03A030000B583B025
:109898000190019B002B03D11449632003F096FC2F
:1098A800019B1B68002B03D11049642003F08EFC38
:1098B800019B5B68002B14D0019B5B681A46019BD7
:1098C8001B689B6813441A46019B5A60019B5A689F
:1098D800019B1B685B689A4204D1019B00225A6075
:1098E80000E000BF03B05DF804FB00BFC03A03000E
:1098F80000B585B00190019800F00EF80390039B25
:10990800002B01D0039B00E0024B184605B05DF820
:1099180004FB00BF303B030086B00190164B059353
:10992800164B04931FE0049A059BD31ADB10DA0F39
:1099380013445B10DB00059A13440393039B1B68D5
:109948000293029A019B9A4202D9039B04930AE06C
:10995800029A019B9A4203D2039B0833059302E0C3
:10996800039B5B6804E0059A049B9A42DBD30023BF
:10997800184606B0704700BF303F03005840030048
:1099880000B583B001900091019BDBB21846FEF749
:109998007DFE019B184603B05DF804FBBFF34F8FB3
:1099A800054BDB6803F4E0620349044B1343CB60C7
:1099B800BFF34F8F00BFFDE700ED00E00400FA059C
:1099C800024B034A1A6000BF704700BFEC2A002010
:1099D8000090D00308B500F067F90346002B06D0C5
:1099E8009F4B1B681B0A9F4A03F01F03136000F07C
:1099F80087F90346002B02D09B4B9C4A1A6000F063
:109A08009BF90346002B06D0994B1B685B0B994AC0
:109A180003F00703136000F0BBF90346002B05D0E1
:109A2800954BDB68944A23F08073D36000F0CCF93F
:109A38000346002B0ED04FF080430022C3F80C21C0
:109A48004FF080430022C3F810214FF080430022DA
:109A5800C3F8382500F0E4F90346002B02D0874B01
:109A680003221A6000F0F8F90346002B0BD0844B50
:109A780005221A60834B01221A60834B00221A6068
:109A8800824B3F221A6000F003FA0346002B76D07F
:109A98004FF080537E4AD3F80434C2F820354FF093
:109AA80080537B4AD3F80834C2F824354FF08053EA
:109AB800774AD3F80C34C2F828354FF08053744AEB
:109AC800D3F81034C2F82C354FF08053704AD3F8CD
:109AD8001434C2F830354FF080536D4AD3F8183437
:109AE800C2F834354FF08053694AD3F81C34C2F8B1
:109AF80040354FF08053664AD3F82034C2F84435D5
:109B08004FF08053624AD3F82434C2F848354FF0F6
:109B180080535F4AD3F82834C2F84C354FF080534D
:109B28005B4AD3F82C34C2F850354FF08053584A6A
:109B3800D3F83034C2F854354FF08053544AD3F830
:109B48003434C2F860354FF08053514AD3F8383472
:109B5800C2F864354FF080534D4AD3F83C34C2F80C
:109B680068354FF080534A4AD3F84034C2F86C3510
:109B78004FF08053464AD3F84434C2F8703500F0A9
:109B8800A3F90346002B05D0424B1B68424A03F059
:109B98004F03136000F0C4F90346002B0DD04FF0BB
:109BA8008043D3F8003403F00103002B05D04FF0B5
:109BB80080436FF00102C3F8002400F0DDF903468A
:109BC800002B05D0354B1B68344A43F4806313607F
:109BD800334BD3F88830324A43F47003C2F88830E4
:109BE800BFF34F8FBFF36F8F4FF01023D3F80032BE
:109BF800002B05DB4FF01023D3F80432002B2BDAAF
:109C0800284B0122C3F8042500BF264BD3F80034A3
:109C1800002BFAD04FF010231522C3F8002200BF02
:109C2800204BD3F80034002BFAD04FF01023152224
:109C3800C3F8042200BF1B4BD3F80034002BFAD022
:109C4800184B0022C3F8042500BF164BD3F8003484
:109C5800002BFAD0FFF7A2FEFFF7B2FE00BF08BD47
:109C6800240300104035014074C007400DF0ADBA20
:109C7800440200103C050040F0ED00E0A005004063
:109C880010560040885600401856004014560040B0
:109C980000C0004058020010E40E00403C1700408D
:109CA80000ED00E000E00140124B1B68DBB2062B20
:109CB8001DD1114B1B6803F00F03002B17D10F4B5D
:109CC8001B6803F0F003302B01D1012310E00B4B8C
:109CD8001B6803F0F003402B01D1012308E0074B78
:109CE8001B6803F0F003502B01D1012300E000238F
:109CF80018467047E00F00F0E40F00F0E80F00F09E
:109D08000A4B1B68DBB2062B0DD1094B1B6803F00D
:109D18000F03002B07D1074B1B6803F0F003302B10
:109D280001D1012300E0002318467047E00F00F03E
:109D3800E40F00F0E80F00F0124B1B68DBB2062BB3
:109D48001DD1114B1B6803F00F03002B17D10F4BCC
:109D58001B6803F0F003302B01D1012310E00B4BFB
:109D68001B6803F0F003402B01D1012308E0074BE7
:109D78001B6803F0F003502B01D1012300E00023FE
:109D880018467047E00F00F0E40F00F0E80F00F00D
:109D98000A4B1B68DBB2062B0DD1094B1B6803F07D
:109DA8000F03002B07D1074B1B6803F0F003302B80
:109DB80001D1012300E0002318467047E00F00F0AE
:109DC800E40F00F0E80F00F0124B1B68DBB2062B23
:109DD8001DD1114B1B6803F00F03002B17D10F4B3C
:109DE8001B6803F0F003302B01D1012310E00B4B6B
:109DF8001B6803F0F003402B01D1012308E0074B57
:109E08001B6803F0F003502B01D1012300E000236D
:109E180018467047E00F00F0E40F00F0E80F00F07C
:109E28000A4B1B68DBB2062B0DD1094B1B6803F0EC
:109E38000F03002B07D1074B1B6803F0F003302BEF
:109E480001D1012300E0002318467047E00F00F01D
:109E5800E40F00F0E80F00F00A4B1B68DBB2062B9A
:109E68000DD1094B1B6803F00F03002B07D1074BDB
:109E78001B6803F0F003302B01D1012300E000231D
:109E880018467047E00F00F0E40F00F0E80F00F00C
:109E98000A4B1B68DBB2062B0DD1094B1B6803F07C
:109EA8000F03002B07D1074B1B6803F0F003502B5F
:109EB80001D1012300E0002318467047E00F00F0AD
:109EC800E40F00F0E80F00F0124B1B68DBB2062B22
:109ED8001DD1114B1B6803F00F03002B17D10F4B3B
:109EE8001B6803F0F003302B01D1012310E00B4B6A
:109EF8001B6803F0F003402B01D1012308E0074B56
:109F08001B6803F0F003502B01D1012300E000236C
:109F180018467047E00F00F0E40F00F0E80F00F07B
:109F2800124B1B68DBB2062B1DD1114B1B6803F0CB
:109F38000F03002B17D10F4B1B6803F0F003302BD6
:109F480001D1012310E00B4B1B6803F0F003402BF9
:109F580001D1012308E0074B1B6803F0F003502BE5
:109F680001D1012300E0002318467047E00F00F0FC
:109F7800E40F00F0E80F00F0064B1B68062B05D134
:109F8800054B1B68062B01D1012300E0002318466E
:109F9800704700BF300100103401001082B0034642
:109FA8008DF807309DF8073003F01F0206499DF928
:109FB80007305B09012000FA02F2203341F8232020
:109FC80000BF02B0704700BF00E100E008B507F02D
:109FD8001BFD034683F00103DBB2002B03D10549C7
:109FE800792003F0F3F800F037FB034B00229A7056
:109FF80000BF08BD604003002432002000B583B0D4
:10A0080000230193144B1B78002B02D08523019366
:10A018001CE0114B00229A600F4B00225A600E4B35
:10A0280000221A610C4B0022DA600C4800F0DAFAC0
:10A03800019007F0E9FC034683F00103DBB2002B33
:10A0480001D000F0F5FA044B01221A70019B184662
:10A0580003B05DF804FB00BF243200203DA10200DC
:10A0680084B00190019B1B680393039B002B03D0D2
:10A07800039B1A68019B1A60039B184604B070473B
:10A0880000B583B0164B1B78002B04D115494FF44B
:10A09800857003F09BF8124BDB68002B04D1114943
:10A0A80040F20B1003F092F800238DF807300DF101
:10A0B80007031846FEF78CFB094BDB68013B084A8F
:10A0C800D360074BDB68002B01D1FFF77FFF9DF8BA
:10A0D80007301846FEF792FB00BF03B05DF804FB9B
:10A0E800243200206040030000B585B003468DF897
:10A0F80007309DF80730002B02D10C4B039301E089
:10A108000B4B03930398FFF7ABFF0290029B002BC6
:10A1180006D0029B5B689DF8072010469847F1E738
:10A1280000BF00BF05B05DF804FB00BF2C32002063
:10A138003432002000B583B003468DF807309DF80F
:10A148000730002B05D10A4B01225A700020FFF777
:10A15800CBFF9DF80730012B05D1054B01229A70E2
:10A168000120FFF7C1FF00BF03B05DF804FB00BF8B
:10A178002432002000B583B001900091019B002B90
:10A1880005D1054B01225A700020FFF7ADFF00BF33
:10A1980003B05DF804FB00BF2432002000B585B091
:10A1A800034600918DF807309DF80730012B08D041
:10A1B800032B25D0002B00D030E00020FFF7EEFE67
:10A1C8002CE000238DF80F300DF10F031846FEF731
:10A1D800FFFA144B1B7883F00103DBB2002B01D08C
:10A1E800FFF70CFF0F4BDB6801330E4AD3600D4BB2
:10A1F80001229A709DF80F301846FEF7FFFA0DE01D
:10A20800084B1B78002B04D1074940F2452002F087
:10A21800DDFF00F00DFAFFF733FF00BF00BF05B008
:10A228005DF804FB243200206040030000B589B0CB
:10A2380001900091009B0793019B1B788DF80C30CF
:10A24800019B5B680493019B1B7A8DF81430019B7A
:10A25800DB680693074A079B52F823300649079A9A
:10A2680051F8221003AA1046984700BF09B05DF8BC
:10A2780004FB00BF383200203C32002000B589B012
:10A2880001900091009B0793019B1B788DF80C307F
:10A29800019B5B680493019B9B68DBB28DF81430CB
:10A2A800019BDB680693074A079B52F8233006494F
:10A2B800079A51F8221003AA1046984700BF09B020
:10A2C8005DF804FB383200203C32002030B58FB0F6
:10A2D800039002910192039B1B780C9326490C9BD7
:10A2E800019A41F82320029B1A6924490C9B41F8E2
:10A2F8002320029B5B7F1946214A0C9B13440A4684
:10A308001A70029B04AC1D460FCD0FC495E80F00D0
:10A3180084E80F000C9B089300230D93039B1B7884
:10A328001A46174B9B5C002B0DD0039B181D019BF5
:10A33800002B01D0134A00E0002204AB194601F0BB
:10A3480011FE0D9014E0039B1B781A460C4B9B5C86
:10A35800002B0DD1039B03F10C00019B002B01D0B6
:10A36800094A00E0002204AB194600F06BFF0D908B
:10A378000D9B18460FB030BD383200203C3200200B
:10A388004032002035A2020085A2020082B00346B6
:10A398008DF807309DF8073003F01F0205499DF935
:10A3A80007305B09012000FA02F241F8232000BFC0
:10A3B80002B0704700E100E082B003468DF8073034
:10A3C8009DF8073003F01F0206499DF907305B0925
:10A3D800012000FA02F2603341F8232000BF02B0E6
:10A3E800704700BF00E100E082B0034600918DF89D
:10A3F80007309DF90730002B0CDA009BDAB20C49C4
:10A408009DF8073003F00F03043B5201D2B20B440E
:10A418001A7609E0009BDAB206499DF90730520125
:10A42800D2B20B4483F8002300BF02B0704700BFCC
:10A4380000ED00E000E100E000B583B003460A4605
:10A448008DF8073013468DF806309DF80630012B3D
:10A4580003D99DF80630032B0BD99DF80630042B41
:10A4680003D99DF80630072B03D908496B2002F061
:10A47800ADFE9DF806209DF9073011461846FFF7F6
:10A48800B3FF00BF03B05DF804FB00BFB840030092
:10A4980000B583B003468DF807309DF9073018469C
:10A4A800FFF78AFF9DF907301846FFF76FFF00BFD7
:10A4B80003B05DF804FB000082B003468DF8073056
:10A4C8000F4A9DF90730002B00DA1F335B115BB28E
:10A4D80052F823209DF90730594203F01F0301F079
:10A4E8001F0158BF4B425BB222FA03F303F001038A
:10A4F800002B14BF01230023DBB2184602B07047BB
:10A5080000E100E082B001904FF08042019BC2F868
:10A51800083300BF02B0704782B003468DF8073099
:10A528009DF8073003F1804301221A6000BF02B092
:10A53800704784B00346ADF80630BDF8063003F125
:10A54800804300221A60BDF8063003F180431B687F
:10A558000393039B00BF04B0704782B00346ADF875
:10A568000630BDF8063003F180431B68002B14BF8A
:10A5780001230023DBB2184602B0704782B0019075
:10A588004FF08042019BC2F8183500BF02B07047F7
:10A598004FF08043D3F818341B0C03F00103002B51
:10A5A80014BF01230023DBB21846704700B583B0FF
:10A5B80006238DF807300020FFF77EFF034683F05F
:10A5C8000103DBB2002B08D09DF8073019460020A4
:10A5D800FFF732FF0020FFF75BFF00BF03B05DF815
:10A5E80004FB000000B585B00190019B002B03D14E
:10A5F8000D49A22002F0EAFD002303930B4B1B79BF
:10A60800002B02D08523039308E0084A019B1360BE
:10A61800064B01221A71054B00225A71039B1846FA
:10A6280005B05DF804FB00BFF04003004432002091
:10A6380008B5074B1B79002B03D10649BB2002F054
:10A64800C5FDFFF7B3FF0120FFF798FF00BF08BD66
:10A6580044320020F040030008B5094B1B79002B59
:10A6680003D10849F22002F0B1FD0C20FFF754FF96
:10A6780000BFFFF78DFF0346002BFAD100BF08BDCE
:10A6880044320020F040030008B54FF48070FFF713
:10A6980064FF0346002B14D04FF48070FFF749FF86
:10A6A8000120FFF72FFF114B5B7983F00103DBB229
:10A6B800002B06D00D4B01225A710C4B1B68002051
:10A6C80098474FF48270FFF748FF0346002B0AD0E3
:10A6D8004FF48270FFF72DFF0220FFF713FF034BA3
:10A6E8001B680120984700BF08BD00BF4432002006
:10A6F80000B583B00346ADF80630BDF806301846FD
:10A7080000F026F803461B68012B0CBF0123002329
:10A71800DBB2184603B05DF804FB00B585B003460C
:10A72800ADF80630BDF80630184600F011F80346BB
:10A738001A4600231360BDF80630184600F008F8E2
:10A7480003461B680393039B00BF05B05DF804FB39
:10A7580082B00346ADF80630BDF8063003F18043F9
:10A7680003F5C043184602B07047000082B001905C
:10A77800034BD3F80423019B1340184602B07047DB
:10A788000060004082B00190054A019B03F5A27366
:10A7980052F823301B0A03F01F03184602B0704713
:10A7A8000060004082B00190064A019B03F5A27345
:10A7B80052F823301B0C03F00303DBB2184602B037
:10A7C800704700BF0060004000B583B00190019B56
:10A7D8001B681F2B04D905494FF4E87002F0F6FCFA
:10A7E8004FF0A043184603B05DF804FB7441030022
:10A7F80000B585B001900B468DF8033001AB1846C3
:10A80800FFF7E2FF0390019A039B02F5E07253F809
:10A818002230019A23F44031039B02F5E07243F899
:10A828002210019A039B02F5E07253F822309DF83A
:10A83800032012041146019A1943039B02F5E072A2
:10A8480043F8221000BF05B05DF804FB00B585B0E1
:10A85800019001AB1846FFF7B7FF0390019A039BDD
:10A8680002F5E07253F822301B0C03F00303DBB24D
:10A87800184605B05DF804FB82B00190019BD3F83F
:10A888001035184602B0704700B587B003900291A2
:10A8980001924FF0A0430493039A029B1344012BA7
:10A8A80004D9124940F2F12002F090FC039B059371
:10A8B80011E0059B9B0006AA134453F8083C184670
:10A8C800FFF7DAFF0246019B1A60019B04330193EC
:10A8D800059B01330593039A029B1344059A9A42F8
:10A8E800E7D300BF07B05DF804FB00BF7441030065
:10A8F80084B001900091009B0393019BDB080293B5
:10A90800019B03F0070301930122019B02FA03F361
:10A918000399029A0A4412781340184604B0704703
:10A9280084B001900091009B0393019BDB08029384
:10A93800019B03F007030193039A029B13441B78BE
:10A948005AB20121019B01FA03F35BB2134359B2D6
:10A95800039A029B1344CAB21A7000BF04B070472E
:10A9680082B00190044A019B1344303393F90030BC
:10A97800184602B0704700BF4C32002082B00190E8
:10A98800034A019B52F82330184602B0704700BFB3
:10A998004C32002000B595B0002310930023039398
:10A9A8004FF48073ADF83A300123129300230F93CC
:10A9B80021E0BDF83A301846FFF79AFE0346002B0F
:10A9C8000ED01298FFF7D2FE0346002B08D0BDF830
:10A9D8003A301846FFF7A1FE109A129B13431093C2
:10A9E800129B5B001293BDF83A300433ADF83A304D
:10A9F8000F9B01330F930F9B072BDAD94FF4BE70CF
:10AA0800FFF776FE0346002B0DD04FF4BE70FFF71C
:10AA180084FE109B43F00043109303AB1A460121B8
:10AA28000020FFF731FF109BDBB2002B29D0012358
:10AA3800129300230F9321E0129A109B1340002BCE
:10AA480016D00F98FFF79EFE0D900F98FFF7AAFEFD
:10AA580003468DF833300F98FFF790FF0B900B9B50
:10AA6800002B05D09DF833200B9B11460D98984775
:10AA7800129B5B0012930F9B01330F930F9B072BC5
:10AA8800DAD9109B002B80F2EE8000238DF84F302E
:10AA980000230293002311930AE0119B9B0014AA40
:10AAA80013444FF0FF3243F84C2C119B01331193A0
:10AAB800119B002BF1D000238DF84F3000230F930A
:10AAC80078E06B4A0F9B1344503393F900308DF8AC
:10AAD8002B309DF82B3023F0C0030993644A0F9B59
:10AAE8001344503393F90030B3F1FF3F5FD001AB0B
:10AAF80019460998FFF7FCFE0346002B57D09DF82E
:10AB08002B309B098DF823300998FFF729FF03465E
:10AB18001846FFF733FF0790079B002B03D19DF8DA
:10AB28002330032B43D19DF82330032B04D102ABF0
:10AB380019460998FFF7F4FE0998FFF787FE0346C0
:10AB48008DF81B3003AB19460998FFF7D1FE059025
:10AB5800059B002B03D09DF81B30022B06D0059BCC
:10AB6800002B24D19DF81B30032B20D19DF82330D6
:10AB7800032B13D19DF81B30022B01D1032300E0D6
:10AB880002238DF813309DF8133019460998FFF702
:10AB98002FFE9DF84F3001338DF84F30079B002B67
:10ABA80005D09DF82320079B1146099898470F9BCD
:10ABB80001330F930F9B032B83D99DF84F30002B44
:10ABC8004CD001238DF84E306B461A4601210020E7
:10ABD800FFF75AFE0023119314E0119B9B0014AA5F
:10ABE800134453F8502C119B9B0014A90B4453F8A1
:10ABF800443C9A4203D000238DF84E3005E0119B67
:10AC080001331193119B002BE7D09DF84E30002B98
:10AC180003D000238DF84F3020E0002311931AE071
:10AC2800119B9B0014AA134453F8502C119B9B00B2
:10AC380014A90B4443F8442C119B9B0014AA1344F9
:10AC480053F8482C119B9B0014A90B4443F84C2C37
:10AC5800119B01331193119B002BE1D09DF84F30CC
:10AC6800002B7FF428AF00BF15B05DF804FB00BFD0
:10AC78004C32002008B5064B1B68002B03D1054950
:10AC8800512002F0A3FA024B1B68984700BF08BD89
:10AC9800A83200200842030082B00190019B044AB8
:10ACA800934201D1034B00E00023184602B07047DD
:10ACB80000200040A832002000B587B00190009124
:10ACC800019B002B03D11C49772002F07FFA0198E1
:10ACD800FFF7E2FF0590059B002B25D000238DF898
:10ACE800133000238DF80B300DF10B031846FDF7D8
:10ACF8006FFD059B1B79002B03D001238DF81330C2
:10AD080005E0059B009A1A60059B01221A719DF8BF
:10AD18000B301846FDF772FD9DF81330002B03D059
:10AD280011230393039B02E000230393039B18461C
:10AD380007B05DF804FB00BF0842030082B0034679
:10AD48008DF807309DF8073003F01F0205499DF97B
:10AD580007305B09012000FA02F241F8232000BF06
:10AD680002B0704700E100E082B003468DF807307A
:10AD78009DF8073003F01F0206499DF907305B096B
:10AD8800012000FA02F2603341F8232000BF02B02C
:10AD9800704700BF00E100E082B0034600918DF8E3
:10ADA80007309DF90730002B0CDA009BDAB20C490A
:10ADB8009DF8073003F00F03043B5201D2B20B4455
:10ADC8001A7609E0009BDAB206499DF9073052016C
:10ADD800D2B20B4483F8002300BF02B0704700BF13
:10ADE80000ED00E000E100E082B00190019B1B0B48
:10ADF8005BB2184602B0704700B583B003460A46F6
:10AE08008DF8073013468DF806309DF80630012B73
:10AE180003D99DF80630032B0BD99DF80630042B77
:10AE280003D99DF80630072B03D908496B2002F097
:10AE3800CDF99DF806209DF9073011461846FFF711
:10AE4800ABFF00BF03B05DF804FB00BF6042030026
:10AE580000B583B003468DF807309DF907301846D2
:10AE6800FFF782FF9DF907301846FFF767FF00BF1D
:10AE780003B05DF804FB84B001900B46ADF80230D6
:10AE8800BDF80230019A134400221A60BDF802305E
:10AE9800019A13441B680393039B00BF04B07047D7
:10AEA80082B001900B46ADF80230BDF80230019A2D
:10AEB80013441B68002B14BF01230023DBB2184680
:10AEC80002B0704782B001900091019B009AC3F8CC
:10AED800042300BF02B0704782B001900091019B2B
:10AEE800D3F80423009B1340002B14BF0123002335
:10AEF800DBB2184602B0704782B001900091019B06
:10AF0800009AC3F8082300BF02B0704784B00190CC
:10AF1800019BD3F880340393019B039AC3F88024E0
:10AF2800039B184604B0704782B00190019B04222D
:10AF3800C3F8002500BF02B0704784B003900291A7
:10AF48000192039B019AC3F81425039B029AC3F844
:10AF58000C2500BF04B0704784B0039002910192A1
:10AF6800039B029AC3F80825039B019AC3F810258E
:10AF780000BF04B0704782B00190019BD3F8183528
:10AF8800DBB2184602B0704782B001900B468DF8CC
:10AF980003309DF80320019BC3F81C2500BF02B0B5
:10AFA800704782B001900B468DF803309DF803304E
:10AFB800019A134401221A6000BF02B0704782B0A0
:10AFC80001900B468DF8033013468DF802309DF83A
:10AFD80003209DF802301343DBB21A46019BC3F8E5
:10AFE8006C2500BF02B0704782B001900091019BB0
:10AFF800009AC3F8242500BF02B0704700B583B09B
:10B008000190019B1B681F2B04D905494FF4E87078
:10B0180002F0DCF84FF0A043184603B05DF804FBDB
:10B028009042030000B585B00190084611461A46C3
:10B0380003468DF803300B468DF8023013468DF821
:10B04800013001AB1846FFF7D9FF03909DF80320A4
:10B058009DF802305B001A439DF801309B001A43AB
:10B068009DF818301B0242EA03019DF81C301B04AE
:10B07800019A1943039B02F5E07243F8221000BFBE
:10B0880005B05DF804FB00B585B00390002301937B
:10B09800002300930023012201210398FFF7C2FF38
:10B0A80000BF05B05DF804FB00B585B003900B4602
:10B0B8008DF80B309DF80B2000230193002300939B
:10B0C8001346002200210398FFF7ACFF00BF05B02C
:10B0D8005DF804FB00B585B0019001AB1846FFF799
:10B0E8008DFF0390019B012202FA03F3194603988E
:10B0F80000F004F800BF05B05DF804FB82B00190D1
:10B108000091019B009AC3F8082500BF02B0704760
:10B1180000B583B001900091009B1B68B3F1FF3F1D
:10B1280009D0009B1B681846FFF7D4FF009B1B68DB
:10B138001846FFF7A8FF009B5B68B3F1FF3F05D0F7
:10B14800009B5B6800211846FFF7AEFF019B1A6859
:10B15800009B9B6919461046FFF746FF019B18683C
:10B16800009B597D009B1B7D1A46FFF728FF019B1A
:10B178001868009B1968009B5B681A46FFF7DDFE9C
:10B18800009B1B7D012B22D1009B9B68B3F1FF3FE5
:10B1980005D0009B9B6800211846FFF785FF009BA0
:10B1A800DB68B3F1FF3F09D0009BDB681846FFF767
:10B1B80091FF009BDB681846FFF765FF019B186845
:10B1C800009BD968009B9B681A46FFF7C5FE00BF25
:10B1D80003B05DF804FB000000B583B001900B4696
:10B1E8008DF80330019B1B684FF48E711846FFF7EA
:10B1F80042FE019B1B684FF4A2711846FFF73BFE05
:10B20800019B1B680E491846FFF75CFE019B1B68F3
:10B218001846FFF7E9FD03461A469DF8033019461C
:10B228001046FFF7E9FD019B1B681846FFF7DCFD98
:10B2380003461846FFF70CFE00BF03B05DF804FB99
:10B248008000020000B587B0039002910192029B32
:10B25800002B03D12D49AA2001F0B8FF039B1B79CD
:10B268001A462C2303FB02F3294A134404930023B0
:10B278000593049B93F82A30002B03D008230593E9
:10B28800059B3EE0039B1A68039B1B791946214BDB
:10B2980053F8213019461046FFF70EFD0346002BE0
:10B2A80003D011230593059B2BE002990398FFF720
:10B2B8002FFF049B019A5A60029B1A69049B1A602B
:10B2C800049B5B68002B05D0029B1B7F19460398E3
:10B2D800FFF782FF039B1B681846FFF725FE049BB8
:10B2E80000229A61049B0022DA61049B002283F801
:10B2F8002920049B00225A61049B012283F82A20FA
:10B30800059B184607B05DF804FB00BFC842030060
:10B31800B03200201C43030000B585B001900091B5
:10B328004FF48E710198FFF7A6FD009B9A68009B69
:10B338001B6A13441B788DF80F30009B1B6A5A1C3C
:10B34800009B1A629DF80F3019460198FFF71CFE02
:10B3580000BF05B05DF804FB00B583B00190009113
:10B3680016E0009B93F82830DBB2002B01D00023B5
:10B3780015E04FF48E710198FFF792FD034683F0B4
:10B388000103DBB2002BECD100990198FFF7C4FF51
:10B39800009B1A6A009B5B699A42EAD3012318460C
:10B3A80003B05DF804FB000000B587B0039002917C
:10B3B8000192039B1B791A462C2303FB02F33C4A98
:10B3C80013440493049B93F82A30012B04D0394981
:10B3D80040F2151001F0FAFE029B002B04D135490A
:10B3E8004FF48B7001F0F2FE019B002B04D1314920
:10B3F80040F2171001F0EAFE039800F05DF80346EA
:10B40800002B03D011230593059B4CE0049B019A64
:10B418005A61049B029A9A60049B00221A62049B58
:10B42800002283F8282000230593039B1B684FF410
:10B438008E711846FFF71FFD039B1B6808211846ED
:10B44800FFF7AFFD039B1B6804991846FFF764FFDD
:10B45800049B5B68002B25D1039B1B680499184645
:10B46800FFF77AFF034683F00103DBB2002B02D01B
:10B478000F23059313E000BF039B1B684FF48E71E5
:10B488001846FFF70DFD034683F00103DBB2002BDE
:10B49800F2D1039B1B680C211846FFF782FD049B21
:10B4A80000225A61059B184607B05DF804FB00BFEF
:10B4B800B0320020C842030082B00190019B1B7982
:10B4C8001946074A2C2303FB01F3134414331B6862
:10B4D800002B14BF01230023DBB2184602B07047CB
:10B4E800B032002000B583B00190019B1B684FF477
:10B4F80092711846FFF7BFFC019B1B684FF48471DB
:10B508001846FFF7B8FC019B1B6800211846FFF797
:10B5180048FD00BF03B05DF804FB10B582B0019090
:10B528000091009B9B69002B08D14FF4847101980E
:10B53800FFF7A1FC0198FFF71EFD13E04FF484719B
:10B548000198FFF798FC009BDA68009B5B6AD418A7
:10B558000198FFF710FD03462370009B5B6A5A1C95
:10B56800009B5A6202B010BD00B589B003900291E9
:10B578000192039B1B791A462C2303FB02F37F4A93
:10B5880013440593039B1B7919467C4A2C2303FB20
:10B5980001F313442A331B78012B04D0784940F275
:10B5A800691001F013FE029B002B04D174494FF47B
:10B5B800B57001F00BFE019B002B04D1704940F2DD
:10B5C8006B1001F003FE00238DF81D30059B5B68AE
:10B5D800002B06D0039B1B684FF401711846FFF738
:10B5E8008BFC059B9B69002B15D0059BDB69002B09
:10B5F8000ED0059B5B68002B06D0039B1B684FF49D
:10B6080001711846FFF75EFC11230693069BB0E014
:10B6180001238DF81D309DF81D3083F00103DBB246
:10B62800002B0CD0059B019A9A61059B029ADA605F
:10B63800059B00225A62059B0022DA6105E0059B02
:10B64800029A1A61059B019ADA61059B93F82930E1
:10B6580083F00103DBB2002B09D09DF81D3083F085
:10B668000103DBB2002B02D00398FFF73BFF059BD9
:10B678005B68002B73D1039B1B684FF4A2711846BB
:10B68800FFF7F9FB039B1B684FF492711846FFF70D
:10B6980007FC03468DF81F30039B1B684FF4847129
:10B6A8001846FFF7FDFB03468DF81E30039B1B6809
:10B6B8004FF4A2711846FFF7F3FB03468DF81330D9
:10B6C8009DF81E3083F00103DBB2002B0DD09DF8EE
:10B6D800133083F00103DBB2002B06D09DF81F3036
:10B6E80083F00103DBB2002BCCD19DF81F30002B77
:10B6F8000FD19DF81330002B0BD1039B1B680599C4
:10B708001846FFF70AFF059B9A69059B5B6A9A42F0
:10B71800B8D8059B00229A619DF81F30002B03D0F2
:10B7280003230693069B24E09DF81330002B03D0D7
:10B738000F230693069B1CE0059B93F82930002BEA
:10B7480006D0039B1B6800211846FFF72AFC0DE072
:10B75800039B1B6804211846FFF723FC06E0039BA4
:10B768001B684FF401711846FFF7ACFB00230693E2
:10B77800069B184609B05DF804FB00BFB0320020F4
:10B78800C842030000B589B00390029101920123D9
:10B798008DF81030029B0693019B0593039B5B6811
:10B7A800039A116804AA1046984700BF09B05DF8CB
:10B7B80004FB00B587B00190009100238DF8083094
:10B7C800009B0493019B9B680393019B00225A6191
:10B7D800019B5B68019A116802AA1046984700BF4E
:10B7E80007B05DF804FB00B589B0019000914FF4F3
:10B7F80000710198FFF770FB0346002B39D04FF416
:10B8080092710198FFF74CFB0346002B31D04FF49F
:10B8180092710198FFF72FFB4FF401710198FFF720
:10B828006BFB009B93F8293083F00103DBB2002BFC
:10B8380003D004210198FFF7B4FB02238DF80830E8
:10B848000198FFF763FB03460593009B9B690493EC
:10B85800009BDB680393009B00229A61009B0022F7
:10B86800DA61009B5B68009A116802AA1046984743
:10B8780052E004210198FFF72FFB0346002B4BD021
:10B888004FF484710198FFF70BFB0346002B43D05C
:10B8980000990198FFF741FE009B9A69009B5B6A3B
:10B8A8009A4239D1009BDB69002B19D0009BDB68D9
:10B8B8000793009B5B6A0693009BDA69009B9A6179
:10B8C800009B1A69009BDA60009B0022DA61009BEA
:10B8D80000225A62079A06990098FFF753FF1BE067
:10B8E800009B93F8293083F00103DBB2002B03D0CF
:10B8F80004210198FFF755FB4FF401710198FFF7F8
:10B90800FBFA009B00229A61009B596A009BDB6846
:10B918001A460098FFF736FF4FF48E710198FFF72B
:10B92800BFFA0346002B22D0009B1A6A009B5B6972
:10B938009A420DD2009B93F82830DBB283F00103C2
:10B94800DBB2002B04D000990198FFF7E5FC0EE06C
:10B958004FF48E710198FFF78EFA009B5B69002BFC
:10B9680005D0009B5B6919460098FFF722FF4FF44A
:10B97800A2710198FFF794FA0346002B1CD04FF4EC
:10B98800A2710198FFF777FA009B93F82930002BF2
:10B9980003D000210198FFF704FB009B9B69002B53
:10B9A8000AD0009B00229A61009B596A009BDB68C1
:10B9B8001A460098FFF7E6FE00BF09B05DF804FBE1
:10B9C80008B503490348FFF70EFF00BF08BD00BFD5
:10B9D800B03200200020004082B003468DF80730C6
:10B9E8009DF8073003F01F0205499DF907305B09F0
:10B9F800012000FA02F241F8232000BF02B070478C
:10BA080000E100E082B003468DF807309DF807306A
:10BA180003F01F0206499DF907305B09012000FA6F
:10BA280002F2603341F8232000BF02B0704700BF24
:10BA380000E100E082B0034600918DF807309DF9DF
:10BA48000730002B0CDA009BDAB20C499DF807305E
:10BA580003F00F03043B5201D2B20B441A7609E0FB
:10BA6800009BDAB206499DF907305201D2B20B4465
:10BA780083F8002300BF02B0704700BF00ED00E06C
:10BA880000E100E082B00190019B03F06043B3F154
:10BA9800005F0CBF01230023DBB2184602B07047D9
:10BAA80082B00190019B1B0B5BB2184602B0704735
:10BAB80000B583B003460A468DF8073013468DF863
:10BAC80006309DF80630012B03D99DF80630032B6C
