:020000040001F9
:10900000A82D0020F99201000193010003930100B3
:10901000059301000793010009930100000000007F
:109020000000000000000000000000000B930100A1
:109030000D930100000000000F9301001193010047
:109040002D960100139301004D9901001393010027
:109050001393010000000000A1930100139301008D
:109060001393010013930100139301001393010064
:109070001393010013930100139301001393010054
:1090800013930100819601001393010013930100D3
:10909000B596010013930100BD96010013930100E2
:1090A0001393010013930100000000000000000072
:1090B0001393010013930100000000000000000062
:1090C00000000000000000000000000000000000A0
:1090D0000000000000000000000000000000000090
:1090E0000000000000000000000000000000000080
:1090F0000000000000000000000000000000000070
:10910000000000000000000000000000000000005F
:10911000000000000000000000000000000000004F
:10912000000000000000000000000000000000003F
:10913000000000000000000000000000000000002F
:10914000000000000000000000000000000000001F
:10915000000000000000000000000000000000000F
:1091600000000000000000000000000000000000FF
:1091700000000000000000000000000000000000EF
:1091800000000000000000000000000000000000DF
:1091900000000000000000000000000000000000CF
:1091A00000000000000000000000000000000000BF
:1091B00000000000000000000000000000000000AF
:1091C000000000000000000000000000000000009F
:1091D000000000000000000000000000000000008F
:1091E000000000000000000000000000000000007F
:1091F000000000000000000000000000000000006F
:10920000DFF80CD000F0BAF80048004701B50100C3
:10921000A82D002030B4044654E8000F0D4644E861
:109220000053002BF8D1156030BC704730B40446B1
:1092300054E8000F40EA010544E80053002BF7D141
:10924000156030BC704730B4044654E8000F00EAA3
:10925000010544E80053002BF7D1156030BC70477E
:1092600030B4044654E8000F80EA010544E8005396
:10927000002BF7D1156030BC704730B4044654E879
:10928000000F00EB010544E80053002BF7D11560F7
:1092900030BC704730B4044654E8000FA0EB010521
:1092A00044E80053002BF7D1156030BC704770B410
:1092B00004464FF0000054E8006F0D68AE4207BF4F
:1092C00044E80023012044E800630E60002B1CBF2B
:1092D0000020F0E770BC704730B4044654E8000F3B
:1092E00088422CBF451A054644E80053002BF5D1AF
:1092F000156030BC704700000648804706480047AC
:10930000FEE7FEE7FEE7FEE7FEE7FEE7FEE7FEE735
:10931000FEE7FEE7D5960100019201000048704784
:109320007CEB010040EA01039B0703D009E008C978
:10933000121F08C0042AFAD203E011F8013B00F81A
:10934000013B521EF9D27047D2B201E000F8012B66
:10935000491EFBD270470022F6E710B513460A46B5
:1093600004461946FFF7F0FF204610BD421C10F8D6
:10937000011B0029FBD1801A70470000064C074DE5
:1093800006E0E06840F0010394E8070098471034D5
:10939000AC42F6D3FFF738FFD4F10100F4F101003D
:1093A0002DE9F04F89B00027002008904FF480701D
:1093B00007900126002412E0079802F077FE40B1E2
:1093C00000BF7B480068304018B1079802F060FE8B
:1093D000374376000798001D80B20790641C082C64
:1093E000EAD34FF4BE7002F061FE50B14FF4BE708C
:1093F00002F04EFE47F0004708AA0121002002F0CB
:109400002DFEF8B200B3012600241BE006EA070097
:10941000B0B100BF674850F82400C0F30420804674
:1094200000BF644850F82400C0F301408146204644
:1094300001F0FAF8054615B149464046A84700BF75
:109440007600641C082CE1D307F0004000287DD092
:10945000002006900590002505E04FF0FF3004A99C
:1094600041F825006D1C002DF7D000BF00200690AC
:1094700000245FE05048005D0390039820F0C0098D
:109480004D480057401C002853D004A9484602F01C
:1094900087FA00284DD003984FEA901A484601F009
:1094A000CBF8804601F0C0F80290029810B9BAF1EA
:1094B000030F3DD1BAF1030F03D105A9484602F0CD
:1094C0007AFA00BF00BF4FF0A041084600F5E06106
:1094D00051F82910C1F3014800BF08A9484602F01D
:1094E0005FFA8346BBF1000F02D0B8F1020F05D03E
:1094F000BBF1000F1BD1B8F1030F18D1BAF1030F64
:109500000FD1B8F1020F01D1032000E00220019039
:109510004846019902F05CFD0698401CC0B20690D6
:1095200000BF029818B151464846029A904700BFC2
:1095300000BF641C042C9DD3069888B34FF001082B
:1095400003AA0121002002F089FD00E02DE00025A2
:109550000BE003A850F8250008A951F8251088420F
:1095600002D04FF0000802E06D1C002DF1D000BFCA
:10957000B8F1000F02D00020069010E000250CE0AA
:1095800003A850F8250008A941F8250005A850F8BF
:10959000250004A941F825006D1C002DF0D000BF66
:1095A000069800287FF462AF00BF09B0BDE8F08FD5
:1095B0000463004010650040981E002000F01F0268
:1095C00001219140024A430942F8231070470000EC
:1095D00080E200E000F01F02012191404209920068
:1095E00002F1E022C2F800117047000000F01F02F3
:1095F00001219140024A430942F8231070470000BC
:1096000000E200E010B5002807DA4A07140E054A08
:1096100000F00F031B1FD45403E04A07130E024A45
:10962000135410BD18ED00E000E400E010B54FF455
:10963000807002F0CAFA80B14FF4807002F0CEFA66
:10964000012002F0D5FA0D48407930B901200B49CC
:10965000487108460168002088474FF4827002F084
:10966000B4FA50B14FF4827002F0B8FA022002F05E
:10967000BFFA024801680120884710BD3C1C002049
:1096800010B500200949086000210948C0F84411BC
:10969000C0F84811C0F84C1100200549C1F800017C
:1096A00002493C39086004F0DBFD10BD4011014067
:1096B0000010014010B504F0DDFC10BD10B503F042
:1096C00089FB10BD01480249086070470090D00333
:1096D000F41C002010B501F061FA28B18948008817
:1096E000C0F304208849086001F0B8FA10B1874837
:1096F0008749486701F0DAFA30B18248E0380068FB
:10970000C0F342308349086001F006FB28B182486B
:10971000006820F080708049086001F015FB48B1B6
:1097200000207E4908604FF08041C1F8100179495E
:10973000091F086001F03EFB18B103207549643130
:10974000086001F04FFB68B10520754908600120F1
:1097500073497831086000207149083108603F2062
:10976000091F086001F056FB002855D06548E0301D
:1097700000686C4908606348E4300068091D0860AF
:109780006048E8300068091D08605E48EC300068F9
:10979000091D08605B48F0300068091D08605948E1
:1097A000F4300068091D08605648F83000685D49CB
:1097B000203108605348FC300068091D08605A4891
:1097C0000068091D08605848001D0068091D0860F0
:1097D000554808300068091D086053480C3000687F
:1097E000091D08605048103000684E49403108603B
:1097F0004D4814300068091D08604B481830006857
:10980000091D086048481C300068091D086046486A
:1098100020300068091D086001F088F910B1FB20B4
:109820004249086001F090F930B13648CC38006800
:1098300000F04F003E49086001F0DAF940B13D48C0
:10984000006800F0010018B16FF0010039490860AC
:1098500001F01CFA28B13848006840F480603649AD
:1098600008603648006800F0004028B93348001D01
:10987000006800F00040E8B301203149086000BFF3
:10988000304800680028FBD015202C49086000BF34
:109890002C4800680028FBD015212848001D0160D5
:1098A00000BF284800680028FBD000202449086039
:1098B00000BF244800680028FBD000BF00BF00BFE5
:1098C00000BF00BFBFF34F8F00BF00BF00BF1248F3
:1098D000F038006800F4E0601B490843001D0E49A1
:1098E000F039086000BF00BF00BFBFF34F8F00BF5B
:1098F00000BF00E003E000BF00BF00BFFDE7FFF7CF
:10990000E1FE10BD24030010403501400DF0ADBA5A
:1099100000C007403C050040FCED00E00C010040A9
:109920001056004020C500402404001018F50040E7
:10993000E40E0040000400403C17004000120010FC
:1099400004E5014000E401400000FA0510B50249B9
:10995000024804F065FD10BDA41E00200020004058
:1099600002E008C8121F08C1002AFAD170477047E8
:10997000002001E001C1121F002AFBD17047000046
:109980000146202908DA012088400A4A104008B11F
:10999000012070470020FCE7402909DAA1F12000EE
:1099A000012202FA00F008B10120F2E70020F0E7FE
:1099B0000120EEE7FC06FFBD00BFEFF31081084673
:1099C00072B6704730B5A5B03C2116A8FFF7C3FCAE
:1099D00002208DF8580001208DF85A0006208DF8DD
:1099E0005B002F48006806902E48807C8DF81A0096
:1099F0003C2107A8FFF7AFFC0120ADF82C0006A919
:109A00000C912948021D016816A800F02FFA04469F
:109A100000BF254625B100BF284600F0DBF800BF97
:109A200000BF214800F10C02816807A800F01EFA6F
:109A3000044600BF254625B100BF284600F0CAF8FD
:109A400000BF00BF18216846FFF785FC01208DF894
:109A500015008DF816008DF800001449144A891A73
:109A6000C908032242EA014012A102F0B5FD00201C
:109A7000ADF80C0001908DF81400402002906A4669
:109A80000949104872DF044600BF254625B100BFD2
:109A9000284600F09FF800BF00BF25B030BD000091
:109AA00010E80100F81C00201C1C00203CF2010002
:109AB00004F201007365742061647620746F2031B4
:109AC0004D0000001A1C002070B5012106480078E6
:109AD00073DF044600BF254625B100BF284600F0CD
:109AE00079F800BF00BF70BD1A1C002010B500241B
:109AF00007E00749096811F83400012103F088FAEA
:109B0000641C044800788442F3D3002010BD000098
:109B1000481C00204C1C002072B600BF02F026FE3C
:109B200000BF00BF02F0CCFB0028FBD100BF00BF8C
:109B30001D491E4A891AC908012242EA01401CA196
:109B400002F04AFD00BF1D48006800F0010000B1AE
:109B500000BE00BF1449154A891AC908022242EA08
:109B6000014017A102F038FD00BF00BF00BF00BFD9
:109B700000BFBFF34F8F00BF00BF00BF0F48E438E6
:109B8000006800F4E06012490843001D0B49E43905
:109B9000086000BF00BF00BFBFF34F8F00BF00BF12
:109BA00000BF00BF00BFFDE73CF2010004F201006E
:109BB000466174616C206572726F7200F0ED00E0B6
:109BC00053797374656D20726573657400000000CD
:109BD0000000FA053EB50446002000900190029076
:109BE00002946A46002144F20100FFF795FF3EBD52
:109BF00010B503460C4600BF0B48807808B9082012
:109C000010BD00BF0AB90720FAE70BB90720F7E734
:109C10001868007C08B10820F2E719680020087471
:109C20004C744A6100BFEBE7C81E002010B503F07A
:109C300005FF00200F49087048700B208870002035
:109C40000D4908600D4908700D4908701420FFF790
:109C5000B5FC06211420FFF7D5FC1420FFF7BAFC51
:109C6000002003F0C1FE03F0B9FE064908600020A1
:109C700010BD0000C81E0020681C0020781C0020B9
:109C8000791C00206C1C00202DE9F04104460E4692
:109C90001746254600BF1048807810B90820BDE857
:109CA000F08100BF0CB90820F9E7052E01D207208A
:109CB000F5E7686908B90820F1E7687C012801D157
:109CC000304600E0002080463B464246314628466A
:109CD00004F076FAE3E70000C81E002070B50446E1
:109CE000254600BF0848807808B9082070BD00BF2D
:109CF0000CB1686908B90820F8E70020287402212F
:109D0000284604F08CFAF1E7C81E002010B504467E
:109D1000204603F01BFF10BD70B5044625460E48D3
:109D20008068B0B1ADB9FFF747FE06460A48006843
:109D30000A490860084840684FF0E021C1F8040172
:109D40000020054988601EB900BF62B600BF00BF91
:109D500000BF00BF70BD0000D41F002000E100E084
:109D6000F8B505460C4617462088001DB84201D9B3
:109D70000C20F8BD684679DF064600BF304600B1CA
:109D8000F7E700BF0320218868542088401C20800A
:109D90001920218868542088401C2080208841197F
:109DA000BDF8000004F0C8FB218808442080002092
:109DB000DFE770B505460C462068401C28B12068D6
:109DC00002F041F9206802F0F7F86068401C18B111
:109DD0000021606802F0CBF82868A169C0F824155A
:109DE00000BF617D227D286841EA0203C0F86C351E
:109DF00000BFD4E90012286803F0C6F8207D0128CE
:109E000014D1A068401C18B10021A06802F0AFF87E
:109E1000E068401C28B1E06802F015F9E06802F043
:109E2000CBF8D4E90221286803F09AF870BD00004D
:109E3000002114E00C48D0F81024012308E000BFF2
:109E4000D0680079884201D1002303E0D06802681D
:109E5000002AF4D100BF0BB108467047491C0A29FB
:109E6000E8DB4FF0FF30F8E7842100202DE9FC41CA
:109E7000054688461646002437880020308095F82D
:109E80002D0058B13A463146404600F0F3F80446FA
:109E900000BF204608B1BDE8FC8100BFA87850B1E2
:109EA0003A4631464046FFF75BFF044600BF204676
:109EB00000B1F0E700BFE87860B1E97848B23B460E
:109EC0003246414600F0F6FF044600BF204600B18E
:109ED000E1E700BF686868B1696891F900003B4636
:109EE0003246414604F02EFA044600BF204600B137
:109EF000D1E700BF288900280EDD43460622022153
:109F000005F10800CDE9006704F0ECFB044600BF52
:109F1000204600B1BFE700BF288A00280EDD434677
:109F20000722032105F11000CDE9006704F0DAFBF8
:109F3000044600BF204600B1ADE700BF288B0028D3
:109F40000EDD43461522142105F11800CDE9006706
:109F500004F0C8FB044600BF204600B19BE700BFE9
:109F6000286A58B13B4632464146286A00F00DFD4A
:109F7000044600BF204600B18DE700BF686A58B1B3
:109F80003B4632464146686A01F000FB044600BF8A
:109F9000204600B17FE700BF95F82C0000280BDDBC
:109FA0003B4632464146284603F0BCFE044600BF0D
:109FB000204600B16FE700BF287858B13B463246D3
:109FC0004146284601F09EFB044600BF204600B1F2
:109FD00061E700BF20465EE72DE9F041044600BF7F
:109FE00014B90E20BDE8F08100BF1C2221461C4898
:109FF000FFF798F91B481A490860206860B120688B
:10A000007ADF05460DB12846ECE7164821680A6854
:10A0100002604968416005E012487BDF05460DB1EA
:10A020002846DFE7002617E006EB86000E4901EB25
:10A03000800700BF4FF6FF70388000BF0B4800EB71
:10A04000461078600A4A0021381DFFF7D1FD054609
:10A050000DB10320C6E7761C002EE5D00020C1E735
:10A06000A01D00202C1C00208C1D00206C1D002039
:10A07000FDE501002DE9FC4105460C461746208808
:10A080000930B84202D90C20BDE8FC8168466DDF7A
:10A09000064600BF304600B1F6E700BF0820218821
:10A0A00068542088401C20801B2021886854208808
:10A0B000401C208020882844DDF801100160BDF894
:10A0C000051081802088801D20809DF800004008B8
:10A0D00018B900202188685402E0012021886854C2
:10A0E0002088401C20800020CEE70000F8B50546FF
:10A0F0000F46288821285FD006DC10280BD01128B5
:10A1000035D0132872D146E03B2870D0522870D049
:10A110005628F7D18CE04F494F4A891AC9080322C3
:10A1200042EA01404DA102F057FA122001F069FF06
:10A13000A8884D490880084601884C4801F0DEFC9B
:10A14000044600BF264626B100BF3046FFF742FD59
:10A1500000BF00BFFFF7CAFC044600BF264626B179
:10A1600000BF3046FFF736FD00BF00BF6FE0394942
:10A17000394A891AC908032242EA01403CA102F087
:10A180002BFA122001F054FF4FF6FF703649088079
:10A19000FFF79AFC5BE000231A46852132480088CD
:10A1A0007FDF044600BF264626B100BF3046FFF7DA
:10A1B00011FD00BF00BF4AE02649274A891AC90895
:10A1C000032242EA01402EA102F006FA002000908C
:10A1D000A88869468FDF044600BF264626B100BF27
:10A1E0003046FFF7F7FC00BF00BF30E02EE011E083
:10A1F000FFE700231A4619461B480088B1DF0446D2
:10A2000000BF264626B100BF3046FFF7E3FC00BF83
:10A2100000BF1CE0A888132176DF044600BF264655
:10A2200026B100BF3046FFF7D5FC00BF00BF0EE0EF
:10A23000A888132176DF044600BF264626B100BF5A
:10A240003046FFF7C7FC00BF00BF00E000BF00BF03
:10A25000F8BD00003CF2010004F20100436F6E6E95
:10A260006563746564000000181C0020201D002038
:10A27000446973636F6E6E6563746564000000000B
:10A2800050485920757064617465207265717565F8
:10A2900073742E0070B504460D462088102806D031
:10A2A000112808D012280ED0502810D107E02046DF
:10A2B00003F07EF80CE0204603F006F908E02046A3
:10A2C00003F008FA04E0204603F05AF800E000BF6B
:10A2D00000BF70BD2DE9F04104468846A58820885E
:10A2E000102804D0112815D01A2847D116E003F001
:10A2F00041FB284603F01AFB20B900BF0420FFF7FA
:10A3000069FC06E0E07B012803D029461D4801F0E6
:10A310007BFA33E0284603F051FB2FE0207A01213D
:10A32000B1EB101F01DA012000E000200646207A80
:10A330000221B1EB101F01DA012000E000200746E6
:10A340008EB129460F48001D01F05EFA2FB1294653
:10A350000C48083001F058FA0FE029460948083047
:10A3600001F034FA09E029460648001D01F02EFAF2
:10A3700029460448083001F029FA00BF00BFBDE8B3
:10A38000F0810000C81D002070B58EB004460E4656
:10A39000306860613A4B0FCB01AD0FC504F112017B
:10A3A00001A862DF054600BF284608B10EB070BDA7
:10A3B00000BFA07C8DF8360041F22350ADF8340088
:10A3C00022460DA90120A8DF054600BF284600B19E
:10A3D000ECE700BF202105A8FEF7BDFF41F22450A5
:10A3E000ADF81400A07C8DF816000120ADF81A001D
:10A3F000ADF818009DF8210020F00200801C8DF8B7
:10A4000021009DF8210020F0100010308DF821006F
:10A4100001208DF825008DF82700208804F10A021C
:10A4200005A900F00FF905460DB12846BEE7202129
:10A4300005A8FEF790FF41F22550ADF81400A07C6E
:10A440008DF816000120ADF81A00ADF818009DF83F
:10A45000210020F00200801C8DF821009DF82100D1
:10A4600020F0080008308DF8210001208DF825002B
:10A470008DF826002088A21C05A900F0E3F895E7D6
:10A4800024E8010070B504460D462E462088502869
:10A4900004D12146304603F049F900E000BF00BF77
:10A4A00070BD70B50446204604F040F8054605F03E
:10A4B000010070BD38B502F04BFC044600BF2546D4
:10A4C00025B100BF2846FFF785FB00BF00BF002075
:10A4D00000906946012002F0B3FA044600BF254609
:10A4E00025B100BF2846FFF775FB00BF00BF6846D7
:10A4F00002F050FB044600BF254625B100BF2846A8
:10A50000FFF768FB00BF00BF38BD00002DE9FC4726
:10A5100004460D461646A71C4FF001080020019086
:10A5200001A8FFF7F3FB3048006828602E48006858
:10A530002D494968411A2C488068401CA0EB01094C
:10A5400015E00121294801F07CF900F075FF8246F1
:10A550005146264801F075F92348006822494968A8
:10A56000411A21488068401CA0EB010900BF4F45FB
:10A57000E7D8B8F1000F30D00021009176B10099F2
:10A5800021F00301491C0091009921F00401091DEB
:10A590000091009964F3891100910DE0009921F078
:10A5A0000301891C0091009921F00401091D00910B
:10A5B000009964F39F5100910B4909680A4A926817
:10A5C0001140094A0C3202EB8100009901600649F2
:10A5D000096839440C3A116000BF9DF80400FFF788
:10A5E0009BFB4046BDE8FC8784210020A02500207D
:10A5F00070B504460D46A168481CA060206845540B
:10A60000D4E90110884202D3204601F08AFB70BDD4
:10A610000448406803490968884201D10120704715
:10A620000020FCE7842100200146024850F8210068
:10A6300070470000481E0020014601484056704700
:10A64000781E002070B590B006460C461546A078DE
:10A6500018B901208DF80E0002E0A0788DF80E00E8
:10A660002088ADF80C0000200290607C02A903F065
:10A67000D3FBA07C0DF1090103F0CEFBE07B08B118
:10A68000012000E000209DF80A1060F3C3018DF85E
:10A690000A10207C08B1012000E000209DF80A107B
:10A6A00060F304118DF80A10207B08B1012000E04E
:10A6B00000209DF80A1060F300018DF80A10207D3B
:10A6C00008B1022000E001209DF80A1060F3420169
:10A6D0008DF80A101C2109A8FEF73DFE607BC0F32F
:10A6E000001018B9607BC0F34010F8B10020009052
:10A6F000E07C0DF1010103F08FFB00BF9DF800002D
:10A7000020F00F00401C8DF800009DF8000020F0A4
:10A71000F00010308DF8000000BF9DF8020020F01E
:10A720000600801C8DF80200CDF838D0607B8DF8D3
:10A730002400A07B8DF82500142104A8FEF70BFE51
:10A7400003A8049002A80590A088ADF81C00A0689A
:10A7500020B1E088ADF81800A0680890A069002832
:10A7600049D000200190A0690088ADF82C00A069B4
:10A770004088ADF82E00A06940680A9001A80D90AD
:10A78000A169087B01A903F047FBA169487B0DF192
:10A79000050103F041FBA069807A08B1012000E0C7
:10A7A00000209DF8061060F3C3018DF80610A06923
:10A7B000C07A08B1012000E000209DF8061060F387
:10A7C00004118DF80610A069007A08B1012000E09C
:10A7D00000209DF8061060F300018DF80610A069B6
:10A7E000807B08B1022000E001209DF8061060F394
:10A7F00042018DF80610E06908B1E0690C902B4623
:10A8000004AA09A93046AADF10B070BD70B505468C
:10A810000DB9094C01E0084C083409E0204600F06D
:10A8200007FD064606B904E028467168884700BF60
:10A83000F4E700BF70BD00003C1E002010B50446C8
:10A840002CB90120064948700020FFF7DFFF012CDA
:10A8500004D1012002498870FFF7D8FF10BD000025
:10A86000341E00202DE9F04782461F48006800286A
:10A8700036D01D480068056803F0B0F807461B484D
:10A8800004682146384603F0E9FBC61C18480078E6
:10A8900008B903F0B5F8AE4201D2284600E03046D0
:10A8A000044424F07F44204603F092F803F096F825
:10A8B00080463946404603F0D1FB00F10309394692
:10A8C000204603F0CBFB814509D903F087F8814688
:10A8D00003F07EF82F2002F08BFB03F00DFD01E06A
:10A8E00003F0ACF8BDE8F087681C00206C1C002069
:10A8F0007A1C002033B58BB00546002000900C98E0
:10A9000078B100240BE021460CA800F06EFF28B1BE
:10A91000009A501C009001A820F81240641C142CCE
:10A92000F1D32C2269462846FEF7FCFC0DB030BD61
:10A9300001460888062808DB0888B0F5486F06DD60
:10A9400008884FF6FF72904201D007207047488870
:10A95000062808DB4888B0F5486F06DD48884FF6C2
:10A96000FF72904201D00720F0E708884FF6FF728F
:10A97000904208D04888904205D008884A88904282
:10A9800001DD0720E2E70020E0E72DE9F04107467E
:10A990000D46144698462088801D404502D90C205B
:10A9A000BDE8F0813846FFF7C3FF064600BF3046DA
:10A9B00000B1F5E700BF0520218868542088401CBD
:10A9C00020801220218868542088401C2080228802
:10A9D0005119388803F0B0FD21880844208022886E
:10A9E0005119788803F0A8FD2188084420800020B0
:10A9F000D6E710B5044600BF2046FFF7EBF800BFCE
:10AA000010BD000030B587B01C216846FEF7A3FCDE
:10AA1000002000904FF4202001908010029003202D
:10AA20008DF80C000020ADF80E008DF810000948DC
:10AA30000590094806906846FFF7CEFA044600BF25
:10AA4000254625B100BF2846FFF7C4F800BF00BF68
:10AA500007B030BD55D30100F3A90100F8B5054694
:10AA60000C46607A88B9207A10B91048476801E02E
:10AA70000E4887682A4639466068FFF705F906469A
:10AA800016B1304603F002F90EE0002020720748AC
:10AA9000406948B101208DF80000ADF8025003482C
:10AAA00041696846884700BFF8BD0000A01D00202E
:10AAB00010B50021034800F0E5FE044684F31000C1
:10AAC00010BD0000A0250020014614480078144A5B
:10AAD000127890421DD011480078401C0F4A107027
:10AAE00010460078022801D1002010700D480B4A52
:10AAF000127850F8220008600B4A08681268104467
:10AB0000094A10601046006820F07F401060012064
:10AB100070470020086000BFFAE70000781C0020A2
:10AB2000791C0020701C00206C1C00200548006867
:10AB30000A2805D10348001D006808B901207047A4
:10AB40000120FCE73001001013480078062820D1CE
:10AB50001148001D007800F00F00D0B90E480830F1
:10AB6000007800F0F000302801D1012070470A4839
:10AB70000830007800F0F000402801D10120F5E70E
:10AB800005480830007800F0F000502801D101207D
:10AB9000ECE70020EAE70000E00F00F0134800783F
:10ABA000062820D11148001D007800F00F00D0B910
:10ABB0000E480830007800F0F000302801D1012064
:10ABC00070470A480830007800F0F000402801D1B2
:10ABD0000120F5E705480830007800F0F000502823
:10ABE00001D10120ECE70020EAE70000E00F00F0CF
:10ABF000184800680A2805D11648001D006808B9E1
:10AC00000120704714480078062820D11248001D02
:10AC1000007800F00F00D0B90F480830007800F03D
:10AC2000F000302801D10120EBE70B480830007814
:10AC300000F0F000402801D10120E2E7064808308A
:10AC4000007800F0F000502801D10120D9E7012060
:10AC5000D7E7000030010010E00F00F00A4800784C
:10AC600006280ED10848001D007800F00F0040B9FA
:10AC700005480830007800F0F000302801D10120AC
:10AC800070470020FCE70000E00F00F00648006875
:10AC9000062806D10448001D0068062801D10120BD
:10ACA00070470020FCE700003001001018480068E1
:10ACB0000A2805D11648001D006808B90120704710
:10ACC00014480078062820D11248001D007800F0B2
:10ACD0000F00D0B90F480830007800F0F00030289D
:10ACE00001D10120EBE70B480830007800F0F000BC
:10ACF000402801D10120E2E706480830007800F042
:10AD0000F000502801D10120D9E70120D7E7000049
:10AD100030010010E00F00F00A48007806280ED13C
:10AD20000848001D007800F00F0040B905480830C1
:10AD3000007800F0F000302801D101207047002099
:10AD4000FCE70000E00F00F0184800680A2805D171
:10AD50001648001D006808B90120704714480078A3
:10AD6000062820D11248001D007800F00F00D0B94D
:10AD70000F480830007800F0F000302801D10120A1
:10AD8000EBE70B480830007800F0F000402801D1D4
:10AD90000120E2E706480830007800F0F000502873
:10ADA00001D10120D9E70120D7E7000030010010D0
:10ADB000E00F00F00A48007806280ED10848001D70
:10ADC000007800F00F0040B905480830007800F026
:10ADD000F000302801D1012070470020FCE700007E
:10ADE000E00F00F00A48007806280ED10848001D40
:10ADF000007800F00F0040B905480830007800F0F6
:10AE0000F000302801D1012070470020FCE700004D
:10AE1000E00F00F00F4800680A2805D10D48001D1A
:10AE2000006808B9012070470B48007806280ED149
:10AE30000948001D007800F00F0040B906480830AE
:10AE4000007800F0F000502801D10120EBE701204C
:10AE5000E9E7000030010010E00F00F0F0B5034614
:10AE600000241FE0124E306806689E4203D906682F
:10AE7000F61A06601AE006689B1B06683444002632
:10AE800006600B4E35680A4FC6693E60C66846B11B
:10AE90000E1926F07F464660C66886601668C66151
:10AEA000156000BF024800680028DBD100BFF0BD7C
:10AEB000681C002030B504461088C01C984201D997
:10AEC0000C2030BD0220158848551088401C108089
:10AED0000120158848551088401C108015884C5555
:10AEE0001088401C10800020EBE700003EB500BF3A
:10AEF0009DF8000020F00F00401C00909DF800001D
:10AF000020F0F0001030009000BF0C2214A1684621
:10AF10007CDF044600BF254625B100BF2846FEF76A
:10AF200059FE00BF00BF0020019002905020ADF8F4
:10AF30000400A020ADF806000020ADF808004FF492
:10AF4000C870ADF80A0001A87ADF044600BF2546A4
:10AF500025B100BF2846FEF73DFE00BF00BF3EBD45
:10AF60003831302044697374616E636500000000FD
:10AF700070B50021064800F029FD044600BF2546B3
:10AF800025B100BF2846FEF725FE00BF00BF70BDFB
:10AF9000101D002010B501F093F908B901F022FD51
:10AFA00010BD0000024600210CE001EB8100074BC0
:10AFB00033F82000904204D101EB810003EB8000C4
:10AFC0007047491C0029F0D00020F9E78C1D0020B3
:10AFD0002DE9FC5F83460E4691461F46DDE90C4590
:10AFE000002E01DA704200E0304682464FF0010840
:10AFF00003E09AFBF9FA08F10108CA45F9DA474576
:10B0000000D9B84634B1002E03DB05F00400042853
:10B0100000D1641E05F0020000B167B105F0010027
:10B0200048B944B104E0641E20215846FFF7E0FA15
:10B030000CB1A045F7D3002E05DA76422D215846F3
:10B04000FFF7D6FA07E005F00400042803D12B210E
:10B050005846FFF7CDFA05F0020002280DD105F0A1
:10B06000010050B94FB944B104E0641E3021584684
:10B07000FFF7BEFA0CB1A045F7D33B464A4631462E
:10B080005846CDE9004503F05DFABDE8FC9F00009D
:10B0900070B505460949286801F068FF286801F085
:10B0A000B3FF0446204600F01F0201219140044AEC
:10B0B000430942F8231000BF00BF70BD1003020017
:10B0C00080E100E02DE9F04105460E464FF488711D
:10B0D000286801F03EFF4FF49071286801F039FFB5
:10B0E0004FF49271286801F034FF4FF4A271286880
:10B0F00001F02FFF1C49286801F03BFF286801F090
:10B1000083FF0446374620463946002809DA4A07B5
:10B110004FEA126C154A00F00F031B1F02F803C020
:10B1200003E04A07130E124A135400BF00BF2868F9
:10B1300001F06AFF0446204600F01F020121914001
:10B140000C4A430942F8231000BF00BF00F01F0261
:10B15000012191404209920002F1E022C2F800115F
:10B1600000BF00BFBDE8F0811003020018ED00E051
:10B1700000E400E080E200E030B5024600201378F1
:10B18000C3F38003D3B1137803F00303012B02D080
:10B19000022B10D107E01388C3F383139B1C0C68A8
:10B1A00023440B6008E00B680225146805EB9454F7
:10B1B00023440B6000E000BF00BF012030BD2DE93B
:10B1C000F0410446A08800EB020CB4F804809045DE
:10B1D00001DD104600E0A088A8EB0005E088C61855
:10B1E000B4F80680984501DD184600E0E088A8EB39
:10B1F00000074888B4F80080404504DB4888B4F86C
:10B200000280404502DD0020BDE8F0818888A84228
:10B2100002D38888604501D90020F5E7C888B84284
:10B2200002D3C888B04201D90020EDE70120EBE746
:10B230000146086808B102680A60704770B50546A3
:10B240000E4614461CB1142000F0DBFE02E0142070
:10B2500000F0EEFE70BD10B5122000F095FE142037
:10B2600000F092FE122000F0CCFE142000F0C9FE87
:10B270004FF4967000F0C6FC122000F0D9FE1420A6
:10B2800000F0D6FE4FF4967000F0BCFC122000F0E7
:10B29000B8FE142000F0B5FE4FF4967000F0B2FC3A
:10B2A000122000F0C5FE142000F0C2FE10BD000008
:10B2B00010B501F08DFE00200149887010BD00001E
:10B2C000341E00201721018041800021017141714D
:10B2D000704700002DE9F041064600274748D0F8A6
:10B2E000008078E016B13446E66947E044480078CB
:10B2F00000EB40014248001D00EBC105001F007833
:10B30000401C3F490870084600788978884202D17D
:10B3100000203B4908706C68287801281AD0022860
:10B3200002D0032817D107E0686802F005FF00B1DA
:10B330000127002020744EE007E030490868002112
:10B3400001742E4AC169116000BF2C4800680028B2
:10B35000F3D140E000E03EE000BF207C00B13AE0E5
:10B36000A8686060E868A0602869E0606869A0611A
:10B370002448007808B10020606000BF224960685E
:10B380000968401A20F07F402049884208D21E49AF
:10B390006068096802F062FEA168084420600FE05E
:10B3A00019486168006802F059FE0546A068A84285
:10B3B00003D9A068401B206001E00020206000BF8E
:10B3C00000206060A060012020740020E061204621
:10B3D00002F07EFE00BF002E84D1094800780849A3
:10B3E00049788842F8D11FB904480068404502D026
:10B3F0000120BDE8F0810020FBE70000681C002070
:10B40000C81E00207B1C00206C1C0020FFFF7F005A
:10B4100070B54FF40041002001F060F9044600BF10
:10B42000254625B100BF2846FEF7D4FB00BF00BF6C
:10B4300000F032FF70BD00002DE9FF4100272E48CB
:10B4400000F0F8F92C48001F00F0F4F92B48406890
:10B4500003902A4885680398284028490C3101EB5D
:10B46000800800BF03A94046FFF786FE30B103986D
:10B47000284022490C3101EB800800E000E0F1E7B0
:10B4800000BF00240AE00398411C284003911B4997
:10B490000C3151F820004DF82400641C022CF2D32A
:10B4A000009800F0030001280DD0022814D1BDF847
:10B4B00006700421009801EB9050401E039901EBA7
:10B4C0009000039009E0BDF806700098C0F3831067
:10B4D00003990844039000E000BF00BF0648001F26
:10B4E00000F0A1F9064616B10449039848603846B1
:10B4F00004B0BDE8F08100009C25002084210020DC
:10B50000FFF786FFFFF7A7FE02F0FBFE02F0A2F9AD
:10B51000FEF7D0FFFFF7EAFCFFF72AFD02F04EFC32
:10B52000FEF750FAFFF76EFA04220F480178012067
:10B5300077DF044600BF254625B100BF2846FEF749
:10B5400049FB00BF00BF0949094A891AC9080322FB
:10B5500042EA014007A101F03FF8FEF7B5FA00BF4B
:10B56000FFF718FDFCE700001A1C00203CF2010068
:10B5700004F20100426C696E6B79206578616D7030
:10B580006C6520737461727465642E002DE9F0415E
:10B5900005460E4614469846A888871C2088801CBD
:10B5A0003844404502D90C20BDE8F081FE2F01D976
:10B5B0000C20F9E7781C218870542088401C2080DA
:10B5C000FF20218870542088401C208022889119F7
:10B5D000288802F0B1FF218808442080A88800282C
:10B5E0000DDDA86808B90720DEE7AA882388981926
:10B5F000A968FDF797FE2088A988084420800020CC
:10B60000D2E72DE9FF4F87B0044691461E46A24679
:10B610002546BAF806009AF805104843001F069020
:10B62000BAF806B0301DB0FBFBF00590301DB0FB42
:10B63000FBF10BFB11000490D9F80000811906986A
:10B64000814202D90698801B01E0D9F80000074624
:10B65000C9F8007003E02D680598401E0590059814
:10B660000028F8D103900498ABEB0008B84501D945
:10B67000384600E04046804623E003990898084495
:10B680000290281D049908440190149828B142465C
:10B69000DDE90110FDF746FE04E04246DDE9010167
:10B6A000FDF740FE002004902D68A7EB08070398E3
:10B6B00040440390BB4501D9384600E058468046D7
:10B6C00000BF002FD9D10BB0BDE8F08F70B5034695
:10B6D0000C469CB101F02EF8054600220AE008480D
:10B6E00000EB820108881E68B04202D11A60002077
:10B6F00070BD521CAA42F2D30520F9E70020F7E7FB
:10B70000000000002DE9F84F05460F461446984604
:10B710002878012804D1687810B90720BDE8F88F8F
:10B720002088801C404508D82878012807D1208827
:10B73000801C69780844404501D90C20EEE7208838
:10B74000A8EB0000801E86B200962188891CC819CB
:10B7500069467DDF814600BF484600B1DEE700BF95
:10B760002878022804D06878BDF80010884206DBEB
:10B77000BDF80000B04202DC4FF0090A0BE04FF0C8
:10B78000080A2878012805D16878B04202DC687878
:10B79000009000E00096BDF80000FE2801D90C20C2
:10B7A000BCE7BDF80000401C218878542088401C6C
:10B7B0002080208807F800A02088401C2080208856
:10B7C000BDF80010084420800020A7E770B50546AA
:10B7D0000C4604F01F0301229A40D143620905EB95
:10B7E000820000F039F8064670BD10B502464809DF
:10B7F00052F8200001F01F040123A340184008B1B3
:10B80000012010BD0020FCE770B505460C4604F091
:10B810001F03012202FA03F1620905EB820000F026
:10B820003CF8064670BD10B504460021204600F0E5
:10B830001EF810BD10B504460121204600F02DF879
:10B8400010BDF8B504460D466A4629462046FDF768
:10B8500014FD06460098F8BDF8B504460D466A4644
:10B8600029462046FDF7EFFC06460098F8BDF8B5DE
:10B8700004460D466A4629462046FDF7E4FC064686
:10B880003046F8BDF8B504460D466A4629462046BE
:10B89000FDF7C0FC06463046F8BDF8B504460D4637
:10B8A0006A4629462046FDF7C1FC06460098F8BDC9
:10B8B000F8B504460D466A4629462046FDF7EAFCDF
:10B8C00006460098F8BDF8B5044600260020009012
:10B8D0006846FEF71BFA206800686168884215D93F
:10B8E00020680068401E226810600178204600F041
:10B8F00033F80646207A21680978401AC5B22068D4
:10B900000079A84201DA2068057100BF9DF80000A7
:10B91000FEF702FA3046F8BD0246D068081A138ACC
:10B92000B0FBF3F0C0B27047F8B504460D462E46A2
:10B93000002000906846FEF7E9F931462046FFF7FF
:10B94000EBFF21680A68511C2368196010709DF88C
:10B950000000FEF7E1F9F8BD0246138AD06801FB4A
:10B960000300704710B5014600BF09B90E2010BD95
:10B9700000BF087A0B79C01AC2B2D1E90030186052
:10B9800005E008680368581C0C6820601A70101ED7
:10B99000A2F10103DAB2F4D10B68187100BFE6E737
:10B9A00030B502460B46D40802F007020120904051
:10B9B0001D5D284030BD30B50B46C20800F00700C1
:10B9C0009C5C012585402C439C5430BD70B50446D9
:10B9D0000E4600BF0CB90E2070BD00BFE6601720F8
:10B9E000208060801B202071002507E005EB4502C8
:10B9F000A11D01EB4200FFF765FC6D1C002DF5D089
:10BA00000020E9E72DE9F047064688464546B48818
:10BA1000012C01DBBDE8F0873088102806D0112802
:10BA200009D03A280CD0552814D10EE031462846CA
:10BA300001F0F6FC0FE03146284601F05EFD0AE019
:10BA40003146284601F0CCFD05E03146284601F09C
:10BA500061FD00E000BF00BF04EB4401A81D00EB46
:10BA60004100007948B304EB4402A81D30F81210DD
:10BA70002046A5DF074677B9002104EB4402A81D44
:10BA800000EB42000171012104EB4402A81D00EB10
:10BA90004200417110E0112F0ED0384601F03EFAFD
:10BAA00081460749074A891AC908012242EA01402A
:10BAB0004A4605A100F09AFD00BF00BFAAE70000BA
:10BAC00004F2010004F2010073645F626C655F6759
:10BAD000617474635F65786368616E67655F6D74D8
:10BAE000755F726571756573742829207265747548
:10BAF000726E65642025732E00000000024600BFB0
:10BB00000AB90E20704700BF00BF1078DE2801D0B0
:10BB10000820F7E700BF51800020F3E7024600BF8E
:10BB20000AB90E20704700BF00BF09B90E20F9E71F
:10BB300000BF1078DE2801D10820F3E708685060C4
:10BB4000DE2010704FF6FF7050800020EAE770B5DD
:10BB500004460E4600BF06B970BD00BF00BF04B961
:10BB6000FAE700BF354600BF2878DE2800D0F3E7AB
:10BB700000BFA0886988884202D1284602F078FD7B
:10BB80002088012806D0022809D0112811D0512878
:10BB900017D109E0211D284601F08CFD12E0211D7E
:10BBA000284601F086FD0DE0211D284601F04CFDE0
:10BBB00008E0A0886988884202D14FF6FF7068804B
:10BBC00000E000BF00BF00BFC6E701464FF0804065
:10BBD000405808B1012070470020FCE708B500225A
:10BBE0004FF080410A500958009100BF08BD000085
:10BBF00001490860704700000803004001229107D6
:10BC00000A5070472DE9F04104460CB9BDE8F081B7
:10BC100000BF4FF47A7505B904E0054FAE01304618
:10BC2000B84700BF601E041EF3D100BFEEE700005E
:10BC300009E8010010B500240C48007808B18524FB
:10BC400011E000200949886048600861C860084820
:10BC500001F0ACF9044601F0D5F808B901F09CF9FF
:10BC6000012002490870204610BD0000341E00204B
:10BC70003DA8010008B5002000906846FEF746F890
:10BC80000748C068401E0649C8600846C06808B931
:10BC9000FFF70EFB9DF80000FEF73EF808BD000020
:10BCA000341E00202DE9F04188B004460F461546A9
:10BCB00026780E4840F826500D49386941F826008C
:10BCC000202239466846FDF72DFB04964FF0000808
:10BCD0000DB1084800E0002002466946201D01F031
:10BCE00075FA8046404608B0BDE8F081341C00205B
:10BCF000381C0020E9E301000FB438B5044605986C
:10BD000010B938BC5DF814FB0020009006A8009024
:10BD10006A462046059900F012F80020009000BF06
:10BD2000EFE770B50446A06800B970BDD4E904031C
:10BD3000A268216898470020A06000BFF5E72DE9C0
:10BD4000FC5F82460D4614460DB9BDE8FC9F00BF5E
:10BD50002E786D1C06B9E1E0252E70D100274FF03A
:10BD6000010900BF2E782B2E0CD02D2E02D0302EA4
:10BD70000CD103E047F001076D1C0AE047F0020711
:10BD80006D1C06E047F004076D1C02E04FF000094F
:10BD900000BF00BFB9F1000FE4D14FF0000800BFB1
:10BDA0002A2E06D12168081D2060086880446D1C79
:10BDB0000DE02E78302E01DB392E00DD07E06D1C02
:10BDC000A6F1300008EB880100EB4108E8E700BF6E
:10BDD0004FF0000B2E782E2E10D16D1C00BF2E7848
:10BDE000302E01DB392E00DD07E06D1CA6F130009E
:10BDF0000BEB8B0100EB410BF1E700BF2E7800BF8E
:10BE00006C2E01D0682E02D16D1C2E7800E000E06F
:10BE1000F6E700BF692E21D008DC252E6DD0582E04
:10BE200039D0632E0CD0642E6CD116E0702E4CD01D
:10BE3000732E3ED0752E1FD0782E63D12AE065E098
:10BE40002168081D2060D1F8009009F0FF000190E2
:10BE500050460199FEF7CCFB55E000BF2168081D54
:10BE60002060D1F800905B460A2249465046CDE951
:10BE70000087FFF7ADF846E02168081D2060D1F883
:10BE800000905B460A2249465046CDE9008702F001
:10BE900059FB38E000BF2168081D2060D1F80090F0
:10BEA0005B46102249465046CDE9008702F04AFB26
:10BEB00029E02168081D2060086801903B46424641
:10BEC0005046019902F090F81DE02168081D20609D
:10BED000D1F8009030215046FEF78AFB7821504679
:10BEE000FEF786FB002008210B461022CDE900104A
:10BEF0004946504602F026FB05E025215046FEF754
:10BF000077FB00E000BF00BF6D1C03E031465046E8
:10BF1000FEF76EFB287800287FF41AAF00BF9AF86E
:10BF20000C0010B15046FFF7FCFE00BF0DE7F0B566
:10BF3000DDE9054500BF4FF0A0473E4641EA420714
:10BF400047EA830747EA042747EA054C06F5E06716
:10BF500047F820C0F0BD1CB5044600200090034601
:10BF60000122014601902046FFF7E1FF1CBD7CB590
:10BF700005460C46002000902346024601460190EB
:10BF80002846FFF7D4FF7CBDF0B501210A46002307
:10BF90001C461D4600BF4FF0A0473E4641EA4207FF
:10BFA00047EA830747EA042747EA054C06F5E067B6
:10BFB00047F820C000BFF0BD1CB50446002000902B
:10BFC00003460122114601902046FFF7B0FF1CBD39
:10BFD00010B50A4600BF4FF0A043194601F5E063D3
:10BFE00053F8203023F4403401F5E06343F8204057
:10BFF00053F8203043EA024401F5E06343F820405F
:10C0000010BD00BF4FF0A0410A46012303FA00F122
:10C01000C2F80C1500BF7047014600BF4FF0A040AA
:10C02000024600BFD2F81005C84000F0010070477A
:10C0300000BF4FF0A0410A46012303FA00F1C2F805
:10C04000081500BF704700BF4FF0A0410A4601230A
:10C0500003FA00F1C2F8081500BF704738B50B4667
:10C06000074C24680094014606E05DF82140D4F8AE
:10C0700010551560121D491CC4188C42F5D838BDE6
:10C0800034E8010001460148084470470060004060
:10C0900038B504462046FFF7F5FF00210160204631
:10C0A000FFF7F0FF0068009000BF38BD10B50446F0
:10C0B0002046FFF7E7FF0068012800D110BD0020EF
:10C0C000FCE700000149086070470000046300407D
:10C0D00070B504460E46FDF7ABFE0546681C08B970
:10C0E000284670BDE8B2E168087100BF0C48D0F87E
:10C0F000100430B90A48C0F810440020E168086014
:10C100000BE00748D0F81004C0680068E1680860D8
:10C110000348D0F81004C06804602846E1E7000036
:10C12000842100202DE9F04F93B082460E46174639
:10C130009846DDF87090304600F0F5FB18210DA808
:10C14000FDF709F90D97CDF83880CDF84890002516
:10C150002B46082207A9304600F002FC0825099862
:10C160000A90BDF82000ADF82C00BDF82200ADF813
:10C170002E0000208DF83100079800F00300012800
:10C180001BD107984FEA902B0798C0F3C2008DF897
:10C1900030000798C0F38314A2002B4601A9304653
:10C1A00000F0DEFB05EB84050DA80AAB224601A9D1
:10C1B0000090584600F0F6FA27E0079800F00300D8
:10C1C000022822D107984FEA905B0798C0F3C2007B
:10C1D0008DF8300000BFBBF1080F01D2584600E0D7
:10C1E000082004462B46224605A9304600F0B8FB3D
:10C1F0002544ABEB040B0DAB0AAA214605A800F0C1
:10C2000011FABBF1000FE6D100BF304600F099FBF8
:10C2100013B0BDE8F08F704710B50124204602F03E
:10C22000B3F810BD70B50546044C201D01F072F83E
:10C2300000BF002002F0A8F870BD0000881C00209C
:10C2400038B504460D4604484023044A2946009068
:10C250002046FFF767FF38BDC9DC0100EC1F002056
:10C2600010B502460B4C04EBC203012906D002298B
:10C2700006D0032906D0042908D105E0022007E0F2
:10C28000042005E0187903E0587901E0002000BFA0
:10C2900000BF10BD04F2010010B54FF0FF34FFF7EE
:10C2A000BBFF04210548FFF713FF044600BF012030
:10C2B0000249C968487100BF10BD0000F4F10100D7
:10C2C0002DE9F04F8BB0FEF7A3F918B100200BB0A9
:10C2D000BDE8F08F0020B749C1F8180400BF00BFC7
:10C2E00000BFBFF34F8F00BF00BF00BF08464068CC
:10C2F0000A90084684680A9820400C3101EB800AB5
:10C30000002500260020069000BF0AA95046FEF72F
:10C3100033FFA8B1A748D0F8180488B9A548006829
:10C320000A99884205D8A3480068A24948600020BD
:10C33000CDE70A9820409F490C3101EB800A00E0CC
:10C3400000E0E2E700BF00270BE00A98411C204014
:10C350000A9198490C3151F8200007A941F82700AB
:10C360007F1C022FF1D3079800F0030002287CD134
:10C370000798800D059050210798B1EB905F02DD82
:10C380000798800D00E050208146079869F39F5080
:10C39000079009F1080004900798C0F3C2000690C6
:10C3A0008548049900F062FA0546002D5BD02846C6
:10C3B00000F0B9FA3346082207A9284600F0E1FA4E
:10C3C00008360A982040611C081A4FEA8008C145C7
:10C3D00035D9B8F1000F06D00A98204075490C31C4
:10C3E00001EB800001E073480C300390B8F1000FBE
:10C3F00001D0404600E0484600F0FF0BB8F1000FC6
:10C4000002D06C480C3000E000200290B8F1000F20
:10C4100002D0A9EB080000E00020C0B20190334632
:10C420005A462846039900F0ACFA5E44029828B1B7
:10C4300033462846DDE9012100F0A3FA0CE00A9812
:10C4400020405C490C3101EB800B33464A4659468B
:10C45000284600F096FA00BF0598C01C0A9901EB27
:10C4600090000A9000BF44E0FFE7079800F0030047
:10C4700001283ED10798C0F38310062803DA0798F5
:10C48000C0F3831000E00620079960F3891107913B
:10C490000798C0F3831000F102080798C0F3C200A8
:10C4A00006904FEA8801444800F0E0F90546FDB1E6
:10C4B000284600F038FA3346082207A9284600F03B
:10C4C00060FA083600270EE00A98421C20400A92C3
:10C4D000384A0C3202EB800133460422284600F031
:10C4E00050FA361D7F1C0798C0F38310B842EBD872
:10C4F00000BFE5B32F48D0F81084D0F8180418B165
:10C50000284600F01EFA31E019E04FF0000900BFA4
:10C51000D8F80C004079012800D18146B9F1000F0C
:10C5200008D000BFD8F8000029460268404690476E
:10C5300000BF00BFD8F80C00D0F8008000BFB8F1F1
:10C54000000FE2D1284600F0FCF90020059005A874
:10C55000FDF7DCFB1748D0F8180410B915490A9804
:10C5600048609DF81400FDF7D7FB00BF1DE0FFE712
:10C570001048D0F810840AE0C146D9F8000081685C
:10C580004846884700BFD8F80C00D0F80080B8F1C2
:10C59000000FF1D109490A4A891AC908022242EA60
:10C5A000014008A100F018F800BFFEF731F880F054
:10C5B00001008CE6842100205CF201003CF20100C5
:10C5C00004F201004261636B656E647320666C75F2
:10C5D000736865640000000070B504460D460023D2
:10C5E0001A462946204601F0C7FC70BDF8B505463D
:10C5F0000E461446009401236A463146284601F04F
:10C60000BBFCF8BD2DE9FC4106460F4614461D460D
:10C610000094019502236A463946304601F0ACFC8D
:10C62000BDE8FC812DE9F05F07460E4690461D46A9
:10C63000082E01D9BDE8F09F95F80C9000202873D2
:10C640002946404601F014F900240CE0B44205D21A
:10C650003A5D1CA12846FFF74FFB03E01BA12846CB
:10C66000FFF74AFB641C082CF0D319A12846FFF7FA
:10C6700043FB00241AE0B44213D217F804A0FCF7DD
:10C680004DFE006810F80A0000F03E0008B1504668
:10C6900000E02E2083465A460EA12846FFF72CFBC9
:10C6A00003E00DA12846FFF727FB641C082CE2D30A
:10C6B00001222946404601F0A9F885F80C9000BFF8
:10C6C000B8E700002025303278000000202020004C
:10C6D0007C00000025630000200000002DE9F041EF
:10C6E00006460F4600BFFF200D4988600020086005
:10C6F0004860C1F81804C1F8140481F820040948FE
:10C7000000F019F9044614B12046BDE8F08106484E
:10C7100000F07BF905480649401AC5080020F4E7F7
:10C72000842100205CF2010048EA01005CF2010073
:10C7300004F2010002480349401AC0087047000093
:10C740005CF2010004F2010013B50C462146684674
:10C75000FEF7BCFF28B90448009A00EBC201086844
:10C760001CBD0020FCE7000004F2010070B50C487D
:10C77000D0F8104401200A4981F820040CE000BFE1
:10C780000120E168487100BF2546286841682846B5
:10C79000884700BFE0680468002CF0D170BD00003D
:10C7A000842100202DE9FF4707460C46164698468F
:10C7B0000C9D95F80C90002028732946404601F006
:10C7C00057F8072E47D2DFE806F004090F161F2A94
:10C7D000370039462846FFF78FFA3DE039462846AC
:10C7E0002268FFF789FA37E039462846D4E9002362
:10C7F000FFF782FA30E0A068009039462846D4E975
:10C800000023FFF779FA27E0D4E90201CDE900011E
:10C8100039462846D4E90023FFF76EFA1CE0D4E934
:10C8200002122069CDE90012029039462846D4E967
:10C830000023FFF761FA0FE0D4E90223D4E90410E2
:10C84000CDE90023CDE9021039462846D4E900237A
:10C85000FFF752FA00E000BF00BF00222946404621
:10C8600000F0D4FF85F80C90BDE8FF872DE9F84F64
:10C8700007468A46388AA0F104080AF104004044B9
:10C88000401EB0FBF8F0C0B200903846FFF71BF82E
:10C89000044614B90020BDE8F88F00202071012162
:10C8A0006171A4F8068025460098A0F1010B2C4682
:10C8B0002F604FF0000912E03846FFF704F80646F3
:10C8C00036B16079401C60712E603760354604E0F7
:10C8D000204600F008F80020DDE709F10109D945FC
:10C8E000EAD32046D7E72DE9F05F0446274697F8BC
:10C8F00005802646A8F1010B002501E036686D1C75
:10C900005D45FBD3D6F800A02646002507E0D6F803
:10C91000009031465046FFF707F84E466D1C4545DE
:10C92000F5D3BDE8F09F70B5044625460121281DCA
:10C93000FEF787FF70BD10B504462046FFF712F8DA
:10C9400010BDF8B5044626460121301DFEF7B0FFA4
:10C9500000906D46287810B92046FFF7C4FFF8BD57
:10C960002DE9FC4105460E4614461F460194012060
:10C970003B4601AA314600902846FEF742FEBDE83C
:10C98000FC812DE9FC4105460E4614461F460194E4
:10C9900000203B4601AA314600902846FEF731FEB2
:10C9A000BDE8FC8110B500200A49087000BF0A49A3
:10C9B000086000BF00BF00BF00BFBFF35F8F00BFB4
:10C9C00000BF00BF00BF0549054800F04EFA002037
:10C9D00010BD0000841C0020801C0020D4E8010051
:10C9E000E01F002010B500F00DFA10B141DF044641
:10C9F00002E020BF40BF20BF10BD10B5044600BFFD
:10CA00002046FDF7E7F800BF10BD00218268916065
:10CA100082681161826851618268D1608268516068
:10CA20008268116070470000014609B90E20704706
:10CA30000248006808600020F9E70000D8EA010019
:10CA4000FEB506460C462046FFF7EEFF05460DB143
:10CA50002846FEBD00200090019002908DF80060F5
:10CA600001208DF802000621ADF80410694620204F
:10CA7000226869DF054675B1284600F04FFA07467F
:10CA80003D493E4A891AC908012242EA01403A4614
:10CA90003B49FFF7ABFD0020009001900290012080
:10CAA0008DF8010069464020226869DF054675B1AE
:10CAB000284600F033FA07462F49304A891AC90838
:10CAC000012242EA01403A462E49FFF78FFD00203D
:10CAD0000090019002900A208DF800006946012024
:10CAE000226869DF054675B1284600F017FA074647
:10CAF0002149224A891AC908012242EA01403A46DC
:10CB00002149FFF773FD00200090019002904FF43F
:10CB1000B06000906946A120226869DF054675B1C2
:10CB2000284600F0FBF907461349144A891AC90838
:10CB3000012242EA01403A461449FFF757FD00201E
:10CB40000090019002908DF800006946A0202268B4
:10CB500069DF054675B1284600F0E0F90746064949
:10CB6000064A891AC908012242EA01403A460849A0
:10CB7000FFF73CFD00206CE74CF2010004F20100DD
:10CB8000C8F0010010F1010028F0010074F001006C
:10CB9000D4EF01002DE9F04104462568204660DF0E
:10CBA00006462068A84225D91E491F4A891AC90885
:10CBB000022242EA01401DA1FFF70EFD19491A4A5F
:10CBC000891AC908022242EA01402A4623A12368A1
:10CBD000FFF718FD00F0A2FE2168471A1149124A1A
:10CBE000891AC908022242EA01403A4628A1FFF701
:10CBF000FDFC00E000BF1EB90120304908700EE0C6
:10CC0000304600F08BF907460649074A891AC908D9
:10CC1000012242EA01403A4629A1FFF7E7FC3046EB
:10CC2000BDE8F0814CF2010004F20100496E737519
:10CC30006666696369656E742052414D20616C6C53
:10CC40006F636174656420666F7220746865205339
:10CC50006F66744465766963652E00004368616E93
:10CC60006765207468652052414D20737461727449
:10CC7000206C6F636174696F6E2066726F6D203017
:10CC800078257820746F20307825782E00000000F9
:10CC90004D6178696D756D2052414D2073697A65DB
:10CCA00020666F72206170706C69636174696F6E69
:10CCB00020697320307825782E000000F31C0020B6
:10CCC00073645F626C655F656E61626C65282920C4
:10CCD00072657475726E65642025732E0000000005
:10CCE0002DE9F04192B080461748007810B912B093
:10CCF000BDE8F0811CE03420049004A905A861DFA0
:10CD0000044604B115E005AD104901A800F0ADF8E6
:10CD100009E000BF03980646376828467168B8479F
:10CD200001A800F0C3F800BF03980028F1D100BFAC
:10CD3000E1E700BF052C04D000BF2046FCF74AFF06
:10CD400000BF00BFD3E70000F31C0020CCEA0100C5
:10CD50001CB51B48007808B108201CBD01201949EA
:10CD60000870002000F05AFF112801D10020F4E7DC
:10CD7000002000F071FF144800680190002000902E
:10CD80006846FCF7C3FF114901A810DF04460CB93F
:10CD9000012000E000200A4908709DF80000FCF71F
:10CDA000BBFF0CB12046D8E70020064908700849AF
:10CDB000087001F09FF8012000F04EFF0020CCE742
:10CDC000F01C0020F21C0020A8EA0100199B0100C1
:10CDD000F11C00203EB50A49684600F046F809E01B
:10CDE000684600F03FF8044625686068A847684632
:10CDF00000F05CF8684600F035F80028F0D13EBD40
:10CE00009CEA01000148007870470000F01C0020F7
:10CE10002DE9FF41074618E003A84BDF044604B1A3
:10CE200014E00F49684600F020F809E000BF0298BE
:10CE300005462E6869680398B047684600F036F8E2
:10CE400000BF02980028F1D100BFE5E700BF052C24
:10CE500004D000BF2046FCF7BDFE00BFBDE8FF8147
:10CE6000ECEA010001468868704770B504460D463B
:10CE7000256028686060204600F001F870BD14E06D
:10CE8000D0E900215268914202D1002181607047AF
:10CE90004168096842685268914203D04168096854
:10CEA0008160F4E7416808314160E9E710B5044664
:10CEB000A06800B910BD2168A06889680844A06016
:10CEC000D4E901104968884205D160680830606083
:10CED0002046FFF7D4FF00BFECE7000070B5024624
:10CEE0000D4B03F5947413E0E61AF01000EBD076C6
:10CEF000761003EBC6010D68954201D90C4606E099
:10CF0000954202D201F1080301E0486870BD00BFFC
:10CF1000A342E9D30020F9E7F4E8010030B5044664
:10CF20002046FFF7DBFF05460DB9024830BD284615
:10CF3000FCE70000E0E801000146D1F88004C1F8F8
:10CF4000800470470246505808B101207047002005
:10CF5000FCE708B5002242504258009200BF08BDCD
:10CF6000C0F808154FF4A2631A507047C0F80813B0
:10CF70007047C0F804137047014640F23C504058D7
:10CF8000704701224250704740F20C53195040F252
:10CF900014531A507047000010B500F099F80120A2
:10CFA0000149086000BF10BD18050040014600207F
:10CFB000064A12790AB1852006E0044A116001226E
:10CFC000024B1A7100225A71704700003C1C00206D
:10CFD00010B50C20FEF712FE00BF00BF034800682A
:10CFE000C0F300400028F8D110BD00001804004034
:10CFF00070B5044604B970BD024EA5012846B0477D
:10D0000000BFF8E7A5E801000146080B40B27047F1
:10D010002DE9F04706460D46304600F09BFBE0B197
:10D020003046FDF709FB083822490F5CBC11032C80
:10D0300008D13046FEF7F0FF08B1032000E00220DF
:10D04000804605E0012C01D1022000E0032080464B
:10D0500041463046FEF7BCFF2AE0304600F086FB32
:10D0600030B33046FDF7E8FA0446A00000F58070C2
:10D0700087B22046104951F8201041F001020E49B4
:10D0800041F8202000BF3846FFF702F87DB1304656
:10D09000FDF7D2FA8146FDF7C7FA8046B8F1000FD6
:10D0A00004D0012101FA04F0FFF70CF800BF00BF23
:10D0B000BDE8F087981E002010650040014601F091
:10D0C0006040B0F1005F01D1012070470020FCE713
:10D0D000F0B5062300200146C41700EBD4646411A8
:10D0E000A40004F1E024D4F800410246C51700EB87
:10D0F000D5656D11A0EB45160125B5402C400CB14E
:10D10000012400E0002444BB00221C4610462146B6
:10D11000002807DA4D072F0E104D00F00F06361FBE
:10D12000AF5503E04D072E0E0D4D2E5400BF00BF2E
:10D13000002000BF012181400A4A440942F824101E
:10D1400000BF00BF012181404209920002F1E022AC
:10D15000C2F8001100BF00BF00BFF0BD18ED00E035
:10D1600000E400E080E200E02DE9F84307460E46C7
:10D17000384600F0CFFB0446D4B14FF00008002041
:10D1800000906846FCF7C2FD207910B14FF001080D
:10D1900002E02660012020719DF80000FCF7BCFD34
:10D1A000B8F1000F03D011252846BDE8F88300BF71
:10D1B00000252846F9E770B50546284600F0AAFB89
:10D1C000044614B100202060207170BD2DE9F041AB
:10D1D00005460E461746287900EBC000194901EBB9
:10D1E00080044FF0000894F8200020B14FF00808A8
:10D1F0004046BDE8F0812A79134B53F82210286885
:10D20000FFF7B2FF18B14FF011084046F1E7314681
:10D210002846FCF7CEFD676030692060606818B171
:10D22000317F2846FDF74EFF28680821C0F8001519
:10D2300000BF0020A061E0616061012084F820004F
:10D240004046D6E7A41E002084E801002DE9F047FF
:10D25000044688469146207900EBC000244901EB42
:10D2600080054046FFF72AFF18B910263046BDE872
:10D27000F087204600F03EF810B111263046F6E760
:10D28000C5F81490C5F8088000264FF49071206806
:10D29000FFF75FFE4FF4AC712068FFF75AFE20687D
:10D2A0006A69A968C0F844154FF4A9631A5000BF11
:10D2B00008212068FFF765FE6868B0B900BF4FF429
:10D2C00090712068FFF73EFE82464FF4AC712068F3
:10D2D000FFF738FE0746BAF1000F01D1002FEED05C
:10D2E00007B10F260020686100BF3046BFE700008D
:10D2F000A41E00200146087900EBC000044A02EB9E
:10D300008000406908B1012070470020FCE7000060
:10D31000A41E002070B50446207900EBC0000C4923
:10D3200001EB800520680021C0F8001500BF686887
:10D3300010B12046FDF7ACFE204600F027FA206829
:10D34000FFF739FF002085F82000686070BD0000FD
:10D35000A41E002070B50546287868B93B2107480F
:10D36000008876DF044600BF264626B100BF30465F
:10D37000FCF730FC00BF00BF70BD0000181C00208F
:10D3800070B50546AE883046FDF70CFE044674B114
:10D390004FF6FF7340F2F31205F1080104F10A00A1
:10D3A000FDF70DFF607221463046FDF757FB70BD5B
:10D3B0002DE9F0410546EF7BAE88012F01D0BDE895
:10D3C000F0814FF6FF70FDF7EDFD04461CB9042017
:10D3D00000F05CFCF3E700BF2680002020720E48BE
:10D3E0000168C4F80A104068C4F80E0000BF4FF688
:10D3F000FF7340F2F31205F1100104F10A00FDF78A
:10D40000DEFE60720548C08918B921463046FDF736
:10D4100025FB00BFD3E700002C1C0020A01D00202E
:10D420002DE9F04706460F46B7F8048008EB48019F
:10D43000B01D00EB4104F87B012802D13088208028
:10D4400000E000BF00BF2088618888421BDD218882
:10D450004046A5DF054615B90120607113E0112D86
:10D4600002D1012020710EE02846FFF757FD8146CA
:10D470000649074A891AC908012242EA01404A4678
:10D4800004A1FFF7B3F8BDE8F087000004F2010043
:10D4900004F2010073645F626C655F6761747463BA
:10D4A0005F65786368616E67655F6D74755F7265EF
:10D4B000717565737428292072657475726E656460
:10D4C0002025732E000000002DE9F0410646B788A4
:10D4D0003846FDF767FD05466DB16868FCF7FEFB51
:10D4E000044614B1204600F0D1FB00BF4FF6FF7098
:10D4F000288000BF00BFBDE8F08170B504460D462E
:10D50000A98801EB4102A11D01EB4200FDF7DAFE03
:10D5100070BD00002DE9FC4705460E46B6F80480B4
:10D52000B6F8069008EB4801A81D00EB4104B9F1DC
:10D53000170F01DA172000E0484681462088484549
:10D5400001DD484600E020886080002020712188AD
:10D550004046B5DF074677B13846FFF7DFFC824625
:10D560001049114A891AC908012242EA014052466B
:10D570000EA1FFF73BF8607908B1BDE8FC87E868C9
:10D5800068B1164903C9CDE90001ADF80280608891
:10D59000ADF8040069462846EA68904700BF00BF1E
:10D5A000EBE7000004F2010004F2010073645F6223
:10D5B0006C655F67617474735F65786368616E67DB
:10D5C000655F6D74755F7265706C7928292072656E
:10D5D0007475726E65642025732E00001CE80100CE
:10D5E0002DE9FC4105460E46B788B6F80A8007EBE0
:10D5F0004701A81D00EB41042088404501DD40465D
:10D6000000E0208860806088172801DA172000E099
:10D6100060886080E86878B1607968B1094903C9B9
:10D62000CDE90001ADF802706088ADF804006946EC
:10D630002846EA68904700BF002060712071BDE86D
:10D64000FC81000014E801002DE9FF4106460D466B
:10D6500028887188884201D0BDE8FF81AC1C207801
:10D66000022800D0F8E7207A042806D0207A06287D
:10D6700003D0207A052800D0EEE70020009001902A
:10D680000290039002208DF800004FF4C070ADF8B6
:10D690000400207A052802D10020ADF80400288873
:10D6A0006946B0DF074617B138467168884700BF42
:10D6B000D2E7704770B504460D462879012808D195
:10D6C00028886188884204D101202072204600F019
:10D6D000CFFF70BD2DE9F0410446A51D28881249F1
:10D6E000C98988421DD1688902281AD1B4F80480FA
:10D6F0004046FDF757FC064696B105F10C00FCF7D5
:10D70000D0FE20B131464046FDF7A8F908E0706828
:10D71000FCF7E4FA074617B1384600F0B7FA00BF45
:10D7200000BFBDE8F0810000A01D002070B50446D8
:10D730000D46AE1D30886188884209D17089012864
:10D7400006D1606920B1327BA88821466369984779
:10D7500070BD0000014604484056082801DB012046
:10D7600070470020FCE70000781E002001460648B4
:10D770004056002805DB04484056082801DA0120FD
:10D7800070470020FCE70000781E00202DE9F047DC
:10D790000446206840F20C5109580D46206840F2BA
:10D7A000145109580E462068D0F808150F46206815
:10D7B0004FF4A26109588846D4F800904FF0FF3228
:10D7C00011464846FFF7E0FB00BFD4F800904FF049
:10D7D000FF3211464846FFF7C3FB00BF681C10B17B
:10D7E0002846FEF7B8FB701C10B13046FEF7B3FBBD
:10D7F00008F1010010B14046FEF7ADFB781C10B1F6
:10D800003846FEF7A8FBBDE8F087000070B5044677
:10D810000D461646207A05280CD0607A28B10A48B1
:10D820000AA102682846FEF767FA09A12846FEF712
:10D8300063FA04E01EB106A12846FEF75DFA284609
:10D84000FEF76FFA70BD0000C41C002025730000B5
:10D850000D0A000070B5FFF7A5F8044600BF254685
:10D8600025B100BF2846FCF7B5F900BF00BF70BD69
:10D87000F8B504460D46E08838B116A00090E3885C
:10D8800016A218A12846FEF737FA207A05281FD0DD
:10D89000607A58B1217AA088FEF7E2FC174951F866
:10D8A0002060324616A12846FEF726FA284621684F
:10D8B00000F035FDA0880021FEF746FF0646207ADD
:10D8C000104951F8202033460FA12846FEF714FADC
:10D8D000F8BD00001B5B306D000000001B5B313B9E
:10D8E00033316D0025734C6F67732064726F7070F5
:10D8F0006564202825642925730D0A00C41C0020B6
:10D9000025730000B01C00203C25733E2025733A8F
:10D910002000000001460020704700000248006817
:10D92000810201F1005070470C01001010B504464F
:10D93000142C01DB002010BD21460548FDF764FFD3
:10D9400021460348001FFDF75FFF0120F3E70000B9
:10D95000C41D002070B50546002406E0044901EB13
:10D9600084002946FDF732FF641C1D2CF6D370BDE0
:10D97000C01D002010B598B00F488068C0431790B4
:10D980000D48416817A8FDF767FF179901A8FCF734
:10D99000B1FF2C2201A90CA8FBF7C4FC002405E070
:10D9A0000DA931F81400FFF7D5FF641C0C98A042B4
:10D9B000F6D818B010BD0000BC1D002010B50446FC
:10D9C00021460248FDF702FF10BD0000C41D0020E3
:10D9D0000149086070470000401501400148006897
:10D9E000704700000415014010B504460348046068
:10D9F00006211120FBF706FE10BD000008150140AE
:10DA000010B54FF480300A4908600A49C1F8040390
:10DA10001120FBF7D3FD1120FBF7DCFD01200549A8
:10DA200008602F20FFF7E4FA01200349087010BDB9
:10DA300044130140001001407A1C002010B5112051
:10DA4000012181400E4A430942F8231000BF4FF4E0
:10DA500080300C4908600C49C1F808030120486077
:10DA60002F20FFF7C5FA01200749886000200749E9
:10DA700008602F20FFF7BCFA00200549087010BD90
:10DA800080E100E048130140001001406C1C0020C0
:10DA90007A1C00207FB504460D46164601208DF8FD
:10DAA0000000E9B28DF8081001966846D4E900122A
:10DAB00090477FBD10B504462046FBF761FF10B9C3
:10DAC00042F2010010BD2046002806DA1C4A00F090
:10DAD0000F031B1FD25C520902E01A4A125C520962
:10DAE0001146082904D20120884000F0EC0008B952
:10DAF000002000E0012010B942F20200E2E71248E3
:10DB0000806868B16009104951F8200004F01F02D4
:10DB100001219140084361090B4A42F821000CE0C1
:10DB200000BF04F01F01012088406109890001F154
:10DB3000E021C1F8000100BF00BF0020C2E70000E3
:10DB400018ED00E000E400E0D41F002070B50446AA
:10DB5000FBF732FF054614488068D8B90120124906
:10DB6000886012480068124908400F490860104850
:10DB70004FF0E021C1F880010C488038D0F88400D3
:10DB8000094948604FF0FF310848001D016000203E
:10DB9000207001E0012020701DB900BF62B600BFF7
:10DBA00000BF002070BD0000D41F002080E100E015
:10DBB000FC06FFBD38B504460D4624B1012C0BD040
:10DBC000032C24D11EE0002001218140114A430989
:10DBD00042F8231000BF1BE0002000906846FCF7CD
:10DBE00095F80D48007808B9FEF724F80A48C0688F
:10DBF000401C0949C860012088709DF80000FCF7AE
:10DC00008BF805E0FFF7C8F9FEF734F800E000BF35
:10DC100000BF38BD80E100E0341E0020FEB505469F
:10DC20000C496846FFF721F90DE06846FFF71AF93D
:10DC30000446266828466168B04708B91120FEBD31
:10DC40006846FFF733F96846FFF70CF90028ECD176
:10DC500000BFF4E764EA0100FEB505460A496846DC
:10DC6000FFF703F90AE06846FFF7FCF80446266868
:10DC700028466168B0476846FFF718F96846FFF71D
:10DC8000F1F80028EFD1FEBD80EA010010B504468E
:10DC90000348806918B1024881692046884710BD51
:10DCA000A01D002070B505460E463146284675DF9A
:10DCB000044624B1112C02D02046FFF7E7FF0CB92F
:10DCC000012070BD0020FCE72DE9F05F83460C4683
:10DCD000154605F0FF0900200F4908700F4FC84690
:10DCE000824642462146381DFFF7B0FA824600BF01
:10DCF000564600BF374627B100BF3846FBF76AFFDC
:10DD000000BF00BF00BF0648007818B10248007885
:10DD10000028F8D0BDE8F09F941C0020881C00204B
:10DD2000951C00202DE9F04707460E4614469A46FA
:10DD3000B86A10B90720BDE8F0874FF0000836E058
:10DD400008EB4801B86A00EB8105A88800F10209D8
:10DD5000B9F1FE0F01D90C20EDE709F1010021888E
:10DD600070542088401C2080162021887054208800
:10DD7000401C208022889119288800F0DDFB218832
:10DD800008442080A88800280DDDA86808B907206D
:10DD9000D1E7AA8823889819A968FBF7C3FA2088D5
:10DDA000A9880844208008F1010000F0FF0897F8D6
:10DDB0002C004045C4DC0020BDE700007CB50020FD
:10DDC000019000901048009069461048FDF7A6FEAB
:10DDD000044600BF254625B100BF2846FBF7FAFEE2
:10DDE00000BF00BF0A48019001A90A48FCF7CCFA1D
:10DDF000044600BF254625B100BF2846FBF7EAFED2
:10DE000000BF00BF7CBD0000FBC90100201D002039
:10DE10003DB20100F81C002000BF0A7822F00F027A
:10DE20000A700A7822F0F0020A7000BF062850D269
:10DE3000DFE800F0030E1B28354200BF0A7822F00D
:10DE40000F020A700A7822F0F0020A7000BF40E068
:10DE500000BF0A7822F00F02521C0A700A7822F0E2
:10DE6000F00210320A7000BF33E000BF0A7822F0DF
:10DE70000F02521C0A700A7822F0F00220320A7057
:10DE800000BF26E000BF0A7822F00F02521C0A7081
:10DE90000A7822F0F00230320A7000BF19E000BFA9
:10DEA0000A7822F00F02921C0A700A7822F0F0021F
:10DEB00010320A7000BF0CE000BF0A7822F00F0297
:10DEC000921C0A700A7822F0F00220320A7000BF19
:10DED00000BF00BF7047000070B504460D462CB966
:10DEE0000120034948700020FCF790FC70BD000041
:10DEF000341E002070B51620FFF7DCFD044600BF7D
:10DF0000254625B100BF2846FBF764FE00BF00BFD1
:10DF100070BD00002DE9F05F05460E4690461F4695
:10DF2000DDF828904FEA154AFCF7C2FD83464AEA1D
:10DF30000B42781C00EA09000E4941F8202007EA4C
:10DF4000090001EB8004206865F3C50020602068AB
:10DF500068F389102060206866F39F2020602068A5
:10DF600020F00300401C2060206820F004002060A6
:10DF7000BDE8F09F902100202DE9FC4780468946AE
:10DF800016461C4617488768012201A92046FCF75F
:10DF9000BDFAC8B1019800F1020A00250AE056F85E
:10DFA000252050460AF1010A38400E490C3141F84B
:10DFB00020206D1CA542F2D30097224649464046D8
:10DFC000019BFFF7A7FF00BF064890F8200430B17F
:10DFD00000BF00BFFEF774F90028FBD100BFBDE809
:10DFE000FC870000842100202DE9F04781460C4683
:10DFF00015469846002608F00100A0B105E0641C13
:10E00000761C39464846FCF7F3FA2778002FF6D1FC
:10E0100004E06D1E20214846FCF7EAFAB5421BD900
:10E02000002DF6D118E01CB12046FBF79FF90646FB
:10E0300004E06D1E20214846FCF7DAFAB54201D90A
:10E04000002DF6D105E0641C761C39464846FCF7E5
:10E05000CFFA2778002FF6D1BDE8F0870246501A94
:10E0600020F07F40704710B50446D4E9051088477A
:10E0700010BD00002DE9FC410020019000260E4853
:10E0800004680E4807686846FCF71EFD05462DB17A
:10E0900001AA21460098FCF7E1FE01260198FDF750
:10E0A00019F900B1012616B13846FCF7DBFB002058
:10E0B00003490870BDE8FC816C1C0020681C00202E
:10E0C0007B1C002010B51420FBF790FA10BD000057
:10E0D00010B51849096811B91649086028E0154AB1
:10E0E00001681268126891420DD8124909680968DE
:10E0F0000268891A0F4A126811600E490968C161E5
:10E100000C49086014E002680A4C2368216803E0A7
:10E110000C68121B0B46C96911B10C689442F7D305
:10E1200011B10C68A41A0C600260C161D86100BF13
:10E1300010BD0000681C00202DE9F04106461C4877
:10E14000D0F8008005682C4604E0B44200D103E01A
:10E150002546E469002CF8D100BF14B90020BDE8C1
:10E16000F081A54213D112480068C06910490860C7
:10E170000846006858B901200E49886000200E4901
:10E18000086001200D4908702F20FEF731FF276835
:10E19000E069E861EC6914B1206838442060044803
:10E1A0000068804501D00120D9E70020D7E70000B2
:10E1B000681C0020001001406C1C00207B1C00200B
:10E1C0002DE9FC4705460E46174698464FF00009D4
:10E1D000002000906846FBF799FD01A800F05EFA68
:10E1E000044614B94FF004090DE001202070656069
:10E1F000FFF7F4FBA060E6602761C4F814809DF887
:10E20000040000F069FA9DF80000FBF785FDB9F104
:10E21000000F01D1FFF756FF4846BDE8FC872DE906
:10E22000FC4105460E460027002000906846FBF79B
:10E230006DFD01A800F032FA04460CB9042705E090
:10E24000267065609DF8040000F046FA9DF8000015
:10E25000FBF762FD0FB9FFF735FF3846BDE8FC81DB
:10E260002DE9F0411F480068002838D00027FFF74B
:10E27000B5FB80461C4801684046FFF7EFFE0646A6
:10E280001848056810E02868B04200D90EE02868F8
:10E29000361A286807442C46ED69207C20B10020FE
:10E2A00020742046FFF7DFFE002DECD100BF0F48A1
:10E2B00000780F490978884209D10D480078401C40
:10E2C000C0B20B490870022801D10020087009482B
:10E2D0000749097840F82170FFF7F4FE00BFBDE858
:10E2E000F0810000681C00206C1C0020781C0020BD
:10E2F000791C0020701C002010B51120FBF776F966
:10E3000010BD70B5FBF792FC044600BF254625B151
:10E3100000BF2846FBF75EFC00BF00BF70BD704722
:10E320007FB504460D4600208DF80000E9B28DF857
:10E330000810A0680190002060616846D4E90012CE
:10E3400090477FBD30B504461088C01C984201D963
:10E350000C2030BD0220158848551088401C1080C4
:10E360000A20158848551088401C108015884C5587
:10E370001088401C10800020EBE700000122014BB8
:10E380001A707047941C002070B588B00546202292
:10E3900011496846FAF7C6FF06200090C01F019099
:10E3A000029003904FF0EB7006900DB10B4800E027
:10E3B0000020024669460A48FDF774FC044600BF87
:10E3C000264626B100BF3046FBF704FC00BF00BF65
:10E3D0000448057008B070BD28EA01007DE3010023
:10E3E000881C0020951C00207FB504460D462E4653
:10E3F00020788DF8000060680190217A8DF808106F
:10E40000E1680391044850F82610044850F826208B
:10E41000684690477FBD0000381C0020341C002057
:10E420002DE9FF4105460C464FF492712846FEF750
:10E4300089FDD8B14FF492712846FEF78AFD02207B
:10E440008DF800002846FEF777FD03902846FEF77A
:10E4500093FDC1B28DF80810E06801900020A06122
:10E46000E0616846D4E9001290472FE04FF48871CC
:10E470002846FEF767FD48B34FF488712846FEF73B
:10E4800068FD2846FEF778FD0646A069B0421CD11B
:10E49000E06998B1E7682020D5F800128143C5F8FB
:10E4A000001200BFE069A0612069E0600020E06127
:10E4B0003A4631462046FFF7EDFA06E00020A0611B
:10E4C00031462046E268FFF7E5FA00BF4FF4A2713B
:10E4D0002846FEF737FD88B14FF4A2712846FEF7B3
:10E4E00038FDA06950B10020A0612846FEF744FD28
:10E4F000064631462046E268FFF7CCFA4FF49071A9
:10E500002846FEF71FFD78B14FF490712846FEF7BC
:10E5100020FD606940B100BF40F24C5040590646B2
:10E5200031462046FFF7FCFEBDE8FF810146087832
:10E530004A7840EA0220704702460A70100A487082
:10E54000022070472DE9FF4F81B0884616461F46CE
:10E55000DDE90E4B45464FF0010A03E0B5FBF6F549
:10E560000AF1010AB542F9D2574500D9BA460BF073
:10E57000010098B994B10BF00200022803D117B939
:10E580003020009001E02020009004E0641EDDE9CE
:10E590000010FCF72DF80CB1A245F7D3012509E0D6
:10E5A000012F01D97F1E04E0B8FBF5F9B14500D277
:10E5B00001E07543F4E700BF00BFB8FBF5F909FBC4
:10E5C00015880D4810F809100198FCF711F8B5FBF3
:10E5D000F6F5002DF1D10BF0010048B144B104E093
:10E5E000641E20210198FCF703F80CB1A245F7D373
:10E5F00005B0BDE8F08F0000AAE80100F8B50646B6
:10E600003546A8B2FCF7CEFC04466CB3207A174915
:10E61000097B88420ADAA8B204F10A01FFF742FB3B
:10E62000074617B1207A401C20721DE0002020729E
:10E630000E48007C50B1A8B23B2176DF074627B1D7
:10E64000082F02D03846FFF721FB00BF074840697A
:10E6500050B100208DF80000A8B2ADF802000348C8
:10E6600041696846884700BFF8BD0000A01D002032
:10E6700070B50446207A80B16088002166DF0546C7
:10E6800015B90020207207E0112D02D1012020725F
:10E6900002E028466168884700BF70BD10B5024699
:10E6A0000C484078401CC1B20A488078884200D1AA
:10E6B000002108480078884201D1002010BD117067
:10E6C0000448407800EB40040248001D00EBC403FE
:10E6D0001846F3E7C81E0020014948707047000043
:10E6E000C81E00202DE9FC478046894615469A46FB
:10E6F000DDE90A675346022249464046CDE90067F4
:10E7000000F017F8044600BF204608B1BDE8FC87BA
:10E7100000BF5346102229464046CDE9006700F06D
:10E7200008F8044600BF204600B1EFE700BF002014
:10E73000ECE72DE9FF5F07468B4696461D460E9C8B
:10E740004FF0000920880390C84647E0786800EB46
:10E75000880000680190002202A901A864DF064633
:10E7600000BF304610B104B0BDE8F09F00BF9DF877
:10E770000800704530D1B9F1000F01D0002000E051
:10E780000220009020889DF8081001440098014460
:10E790000F98814201DD0C20E5E7B9F1000F0AD1A5
:10E7A0002088401C2080208805F800B02088401C6C
:10E7B00020804FF001092088421902A901A864DFD6
:10E7C000064600BF304600B1CDE700BF21889DF866
:10E7D00008000844208000BF08F10108388840453F
:10E7E000B4DCB9F1000F0DD021880398401C081A41
:10E7F0001FFA80FABAF1FF0F01DD0C20B3E703988E
:10E8000005F800A00020AEE70738FDD870470000EB
:10E8100023150000770A000000000000770A0000BE
:10E820000000000023D1BCEA5F782315DEEF12124E
:10E8300000000000000000506E7266785F6770692B
:10E840006F74655F696E6974006E7266785F677079
:10E85000696F74655F6F75745F696E6974006E725D
:10E8600066785F6770696F74655F696E5F696E690E
:10E87000740000006E7266785F75617274655F691E
:10E880006E6974004D9901006E7266785F756172F1
:10E8900074655F7478006E7266785F756172746516
:10E8A0005F7278000738FDD8704730313233343525
:10E8B00036373839414243444546000000000000E5
:10E8C0000000000000000000000000000000000048
:10E8D00000000000BCE80100D4E8010004000000D2
:10E8E000556E6B6E6F776E206572726F7220636FFC
:10E8F0006465000000000000F8EE01000100000067
:10E90000A4ED01000200000098EB010003000000EC
:10E9100018EE0100040000006CEE0100050000008C
:10E920004CED010006000000E8EC010007000000CB
:10E9300054EE01000800000060ED01000900000035
:10E94000C4ED01000A000000E0EE01000B00000031
:10E9500080EB01000C00000078ED01000D000000CC
:10E9600048EF01000E00000044EE01000F0000001F
:10E9700080EE010010000000B4EE01001100000064
:10E980005CEF01001200000030EF010013000000F6
:10E99000CCEE01008000000000ED010081000000CD
:10E9A0003CEC010082000000FCEB01008300000051
:10E9B000DCEB01008400000018EC01008500000081
:10E9C00024ED0100860000002CEE01009000000004
:10E9D000C8EC010091000000BCEB010092000000B7
:10E9E0008CED01000082000094EE01000182000025
:10E9F000E0ED010002820000FCED01000084000057
:10EA000058EC01000184000004EF010002840000C2
:10EA1000A0EC0100038400007CEC010041C2010075
:10EA200025C2010017C20100FFFFFFFFFFFFFFFF2C
:10EA3000FFFFFFFFFFFFFFFF0000000000000000DE
:10EA40000000D60106000000EC2000207F0000003E
:10EA50006C21002000000000000000000000000009
:10EA60000000000054EA010064EA01000800000010
:10EA7000B8F20100C0F20100000000000000000038
:10EA800070EA010080EA010008000000A8F201001D
:10EA9000B8F2010000000000000000008CEA010054
:10EAA0009CEA0100080000000010020770F201005B
:10EAB00078F2010078F2010088F2010088F201008A
:10EAC00098F2010098F20100A0F20100ACEA010006
:10EAD000CCEA010008000000181C0020A0F2010090
