:020000040002F8
:10600000D84E0020F962020001630200036302001F
:10601000056302000763020009630200000000003C
:106020000000000000000000000000000B63020000
:106030000D630200000000000F6302001163020004
:10604000C96502001363020089680200136302003D
:106050001363020013630200B163020013630200C2
:106060001363020013630200136302001363020050
:106070001363020013630200136302001363020040
:10608000136302002166020013630200136302001F
:10609000A566020013630200A966020013630200F2
:1060A0001363020013630200136302001363020010
:1060B00013630200136302000000000000000000F0
:1060C00013630200136302001363020013630200F0
:1060D00013630200136302001363020013630200E0
:1060E0001363020013630200136302000000000048
:1060F00000000000136302000000000013630200B0
:10610000000000000000000000000000000000008F
:10611000000000000000000000000000000000007F
:10612000000000000000000000000000000000006F
:10613000000000000000000000000000000000005F
:10614000000000000000000000000000000000004F
:10615000000000000000000000000000000000003F
:10616000000000000000000000000000000000002F
:10617000000000000000000000000000000000001F
:10618000000000000000000000000000000000000F
:1061900000000000000000000000000000000000FF
:1061A00000000000000000000000000000000000EF
:1061B00000000000000000000000000000000000DF
:1061C00000000000000000000000000000000000CF
:1061D00000000000000000000000000000000000BF
:1061E00000000000000000000000000000000000AF
:1061F000000000000000000000000000000000009F
:10620000DFF80CD000F0C2F800480047E17B020044
:10621000D84E002030B4044654E8000F0D4644E840
:106220000053002BF8D1156030BC704730B40446E1
:1062300054E8000F40EA010544E80053002BF7D171
:10624000156030BC704730B4044654E8000F00EAD3
:10625000010544E80053002BF7D1156030BC7047AE
:1062600030B4044654E8000F80EA010544E80053C6
:10627000002BF7D1156030BC704730B4044654E8A9
:10628000000F00EB010544E80053002BF7D1156027
:1062900030BC704730B4044654E8000FA0EB010551
:1062A00044E80053002BF7D1156030BC704770B440
:1062B00004464FF0000054E8006F0D68AE4207BF7F
:1062C00044E80023012044E800630E60002B1CBF5B
:1062D0000020F0E770BC704730B4044654E8000F6B
:1062E00088422CBF451A054644E80053002BF5D1DF
:1062F000156030BC704700000648804706480047DC
:10630000FEE7FEE7FEE7FEE7FEE7FEE7FEE7FEE765
:10631000FEE7FEE7AD66020001620200004870473A
:106320002CA0020040EA01039B0703D009E008C942
:10633000121F08C0042AFAD203E011F8013B00F84A
:10634000013B521EF9D27047D2B201E000F8012B96
:10635000491EFBD270470022F6E710B513460A46E5
:1063600004461946FFF7F0FF204610BD421C10F806
:10637000011B0029FBD1801A7047034611F8012B3D
:1063800000F8012B002AF9D118467047064C074D3A
:1063900006E0E06840F0010394E8070098471034F5
:1063A000AC42F6D3FFF730FF2CA702004CA7020047
:1063B0002DE9F04F00268DB0DFF8A081B14604969C
:1063C0004FF48075012437460596284602F08AF975
:1063D00038B1D8F80403204203D0284602F078F9F7
:1063E00026432D1D64007F1CADB2082FEDD34FF462
:1063F000BE74204602F076F948B1204602F068F9F2
:1064000046F0004604AA0221002002F04BF9544C49
:1064100016F0FF0F15D00127002537420DD008EBED
:106420008501D1F81005D1F81015C0F3052054F8F6
:106430002520C1F3014102B190477F006D1C082D5A
:10644000EBD3002E7EDA0020CDF82890411E0DF10E
:10645000100B07AACDF82C9042F82010401C914652
:106460000228F9D300252E46A11911F8607F91F971
:10647000000027F0C008401C40D007A9404601F0AA
:1064800014FE40B34FEA971A404600F0D9FF54F883
:1064900020701FB1BAF1030F03D006E0BAF1030F69
:1064A0002CD10AA9404601F008FE02A8CDF80880C8
:1064B00002F0D4F8029900EB8100D0F8000704A99B
:1064C000C0F301400290404601F0EFFD0028029821
:1064D00002D0022802D011E003280FD1BAF1030F35
:1064E00008D10298022833D00221404602F086F8F3
:1064F0006D1CEDB217B151464046B847761C042ECC
:10650000B2D3002D21D001AA0221002002F0CAF846
:1065100000205A460DF1040152F8206051F8203055
:10652000B34217D000200AAE4FEA090351F8207099
:1065300042F8207056F8207043F82070401C022862
:10654000F4D300E001E0002D8CD10DB0BDE8F08F58
:106550000321CAE7401C0228DED3F6E700600040B2
:106560000425002000F01F02012191404009800015
:1065700000F1E020C0F88012704700F01F020121F6
:1065800091404009800000F1E020C0F80011704700
:1065900000F01F02012191404009800000F1E0203D
:1065A000C0F8001270474907090E002806DA00F00B
:1065B0000F0000F1E02080F8141D704700F1E0208A
:1065C00080F800147047000070B54FF480763046B4
:1065D00001F0AEFE114CB50560B1304601F0AFFEE2
:1065E0000120C5F80803607920B901206071216895
:1065F000002088474FF48276304601F099FE00284B
:106600000AD0304601F09BFE0220C5F8080321683D
:10661000BDE870400120084770BD0000FC2200204A
:1066200007480021C0F84011C0F84411C0F84811D3
:10663000C0F84C11C0F80011C0F8041103F004BAFE
:106640000010014000F026B970B50E46144900EB69
:10665000400001EBC0051446E86A183520B1012856
:106660000FD0022805D113E0284600F047F9A042D8
:1066700001D2002411E022463146284600F076F986
:106680000BE0284600F03AF9A042F4D20446F2E7C3
:106690003146284600F03DF90446204670BD000012
:1066A000502C002003F01EB902F056BD30B54FF05B
:1066B000805000228300D0F83011C3F80C21C3F8B9
:1066C0001021624B1A60624B1B68624C2360604B66
:1066D0001B1D1B68241D23605D4B08331B68241D94
:1066E00023605B4B0C331B68241D2360584B103315
:1066F0001B68241D2360564B14331B68241D236024
:10670000534B18331B68534C20342360504B1C33BD
:106710001B68241D23604E4B20331B68241D2360FF
:106720004B4B24331B68241D2360494B28331B68C3
:10673000241D2360464B2C331B68241D2360444BCF
:1067400030331B68434C40342360414B34331B6867
:10675000241D23603E4B38331B68241D23603C4BB3
:106760003C331B68241D2360394B40331B68241DB8
:1067700023600124082902D1D0F8343113B108294B
:1067800004D006E0354B3449196005E0D0F83431C7
:1067900013B1082904D006E0314BFB21196005E054
:1067A000D0F8343113B1082908D00EE090F85832EF
:1067B0002C48016863F30301016002E0D0F8343132
:1067C0001BB929494FF40070086028480168C907BF
:1067D00002D06FF0010101602548016841F47001A9
:1067E0000160BFF34F8FBFF36F8F4FF01021D1F8CF
:1067F0000002002803DBD1F80402002822DA1D4B36
:106800001C601D480468002CFCD01224C1F8004212
:106810000568002DFCD0C1F8044201680029FCD0B5
:106820001A6001680029FCD0BFF34F8F10487C38F4
:106830000168124A01F4E06111430160BFF34F8F18
:1068400000BFFDE70F490E48086030BD3805004025
:106850000404001020C50040488103008C5600400D
:1068600018F50040E40E004040960240000400404D
:1068700088ED00E004E5014000E401400400FA0571
:106880000090D003AC2300200148006800470000BE
:106890000423002010B5124C02202061606111A079
:1068A000A06104F17800E0614FF4007020620020E4
:1068B000A06260620BA1A164E06204F51E71E16454
:1068C0001021A065C4E91410E06509A1E01DFFF7DF
:1068D00054FD08A12046FFF750FD2020A07110BDF7
:1068E000502C00205465726D696E616C00000000D0
:1068F0005254540053454747455200000269C1684D
:106900008A4203D88068401A104400E0501A401EA2
:1069100070472DE9F047C4681746894606464FF090
:1069200000083069A04201D9051B02E0B168201AB5
:106930000D1AB0686D1E001BA84200D80546BD4266
:1069400000D33D4670682A4620444946FFF7EAFCDA
:10695000B0687F1B2C44A844A944A04200D1002465
:10696000F460002FDDD14046BDE8F0872DE9F0410D
:1069700004468846D4E90207C51BE16860681646EC
:106980000844B54206D94146FFF7CCFCB819E0608F
:10699000BDE8F0812A464146FFF7C4FC761B08EBB0
:1069A000050132466068FFF7BDFCE660F0E702E0F3
:1069B00008C8121F08C1002AFAD17047704700208A
:1069C00001E001C1121F002AFBD1704701212028DC
:1069D00003DA81400548014003E0402802DA20380C
:1069E000814009B10120704700207047FC06FFBDBF
:1069F00030B5A5B03C216846FFF7ADFC02208DF80C
:106A0000000001248DF8024006208DF80300234881
:106A10003C21006824902248807C8DF892000FA8C9
:106A2000FFF799FC24A81F4D1490ADF84C402A1D87
:106A30006846296800F07EF908B100F0A1F8194A0B
:106A40000FA80C32A96800F075F908B100F098F8A9
:106A500018211EA8FFF77FFC134814498DF88D40BC
:106A6000401AC00803218DF88E4001EB00408DF8DC
:106A700078400FA102F020F80020ADF884001F90AC
:106A80008DF88C004020074920901EAA081F72DF55
:106A9000002801D000F074F825B030BD109D020030
:106AA000B0230020E42200209CA702005CA7020083
:106AB0007365742061647620746F20314D0000008E
:106AC00004480121007873DF002801D000F058B895
:106AD00070470000E022002070B50024064D06E05B
:106AE0006868012110F8340002F0F8FB641C287873
:106AF0008442F5D3002070BD1023002072B602F04E
:106B00007BF800BF01F0BEFE0028FBD111481249FE
:106B1000401AC408012000EB044010A101F0CCFF92
:106B200011480068C00700D000BE022000EB0440FE
:106B30000EA101F0C1FFBFF34F8F0B48E43801688D
:106B40000E4A01F4E06111430160BFF34F8F00BFB3
:106B5000FDE700009CA702005CA70200466174618B
:106B60006C206572726F7200F0ED00E053797374FF
:106B7000656D207265736574000000000400FA05FD
:106B80000EB500210091CDE901106A4644F20100E2
:106B9000FFF7B4FF0EBD0000074B9B7823B12AB16D
:106BA00020B10068037C1BB10820704707207047A4
:106BB00041744261002070477025002070B502F0DA
:106BC00013FD104800240B21047044700E4D817099
:106BD00014206C602C706C70FFF7C4FC062114202C
:106BE000FFF7E1FC1420FFF7C8FC08480460062109
:106BF0001120FFF7D8FC0548001F0068A86000209E
:106C000070BD0000702500203023002008150140D1
:106C10002DE9FC47DFF8789099F8023073B368B338
:106C2000052902D20720BDE8FC87436933B3437CC2
:106C3000012B25D0002704460025884616468DF8EE
:106C40000050684600F038F801A802F0DDFFC8B136
:106C5000012101700F4944600968C0E90218C0E9C8
:106C600004769DF8040089F801009DF8000000F00A
:106C700047F81420FFF78CFC2846D4E70820D2E719
:106C80000F46D8E704259DF8000000F039F8F3E737
:106C900070250020041501400649897839B130B1CA
:106CA000416921B100210174022102F0A9BE08202E
:106CB000704700007025002030B5EFF3108172B6E8
:106CC0000D4A9468012324B10370002900D162B6F3
:106CD00030BD93604FF0E023D3F88051074C25403E
:106CE0001560C3F88041D3F8844154605A17C3F843
:106CF000842100220270E8E77C260020FC06FFBD0C
:106D00000B498A68002A11D000280FD1EFF31080B8
:106D100072B60B684FF0E022C2F800314B68C2F83F
:106D2000043100228A60002800D162B6704700005A
:106D30007C2600202DE9FC47002517880646158093
:106D400090F82D001446894630B13A46214648460F
:106D500000F0E6F8051E09D1B0784FF00C0A18B320
:106D60002088C846001DB84202D95046BDE8FC87BD
:106D7000684679DF0028F9D12088032108F800103F
:106D800020881921401C80B2208008F8001020883B
:106D9000401C80B2208000EB0801BDF8000002F02A
:106DA0008DFE218808442080F0780222C8B1218815
:106DB00096F9033001F1030C4846BC45D5D842543E
:106DC00021884FF0010C491C89B2218000F801C0D4
:106DD0002188491C89B2218009F801302088401C93
:106DE00020807068B8B1218890F9003001F1030C5F
:106DF0004846BC45B9D8425421880A22491C89B268
:106E0000218042542188491C89B2218009F801302F
:106E10002088401C2080308950B1CDE900474B4686
:106E20000622022106F1080002F006FF051E9DD190
:106E3000308A50B1CDE900474B460722032106F1C5
:106E4000100002F0F9FE051E90D1308B50B1CDE953
:106E500000474B461522142106F1180002F0ECFE03
:106E6000051E83D1306A30B13B462246494600F0C8
:106E70004EFC051EDBD1706A30B13B4622464946C6
:106E800000F09CFF051ED2D196F82C0038B13B468D
:106E900022464946304602F04BFC051EC7D13078E9
:106EA00038B13B4622464946304601F011F8051EEE
:106EB000BDD128465AE7000070B5040012D0014643
:106EC0001C221448FFF72EFA1248134D0560206863
:106ED00050B17ADF002806D1206801682960406837
:106EE000686005E00E2070BD0B487BDF0028FAD1FA
:106EF00008484FF6FF711438084A20F8041B05496A
:106F0000343901600021FFF747FE0028EBD0032051
:106F100070BD00005C240020F42200207D9B020054
:106F20007CB5054608880C460930904201D90C20F2
:106F30007CBD68466DDF0028FAD12188082068549E
:106F400020881B21401C80B2208029542088401CAE
:106F500080B220802844DDF801100160BDF80510E2
:106F600081802088801D80B220809DF80010490813
:106F700000D0012129542088401C208000207CBDA5
:106F8000F8B5044601882E482E4A2F4D801AC008B5
:106F900003226E8802EB0040212939D00BDC102936
:106FA00013D0112927D013293ED100231A46852159
:106FB00030467FDF19E03B293DD0522935D0562994
:106FC00032D1A088132176DF0FE020A101F074FDFB
:106FD000122001F02BFBA18869801F4801F030F9D5
:106FE00008B1FFF7CDFDFFF777FD00281CD0BDE805
:106FF000F840FFF7C5BD19A101F05EFD122001F0B8
:1070000046FB4FF6FF706880BDE8F840FFF758BDBB
:1070100016A101F051FD00200090A08869468FDF85
:10702000002801D0FFF7ACFDF8BD00231A46194631
:107030003046B1DFD9E7A088132176DFD5E700001D
:107040009CA702005CA70200E0220020436F6E6E46
:107050006563746564000000DC2300204469736389
:107060006F6E6E65637465640000000050485920BF
:1070700075706461746520726571756573742E0036
:107080002DE9F04701883B4E40F2F3194FF6FF75AA
:1070900010291BD011293ED0122954D0502946D195
:1070A000C188F289841D914241D1618902293ED172
:1070B0008688304600F020FC050038D004F10C0032
:1070C00000F057F9A8B3294630464EE0C17B8788C7
:1070D000044601292BD1A846284600F00DFC0500E6
:1070E00017D02F8000202872234843464A46016863
:1070F000C5F80A104068C5F80E0004F1100105F14A
:107100000A0000F070FC6872F08900280FD129464F
:107110002AE0042013E0808800F0EEFB040006D093
:107120006068FFF7B9FD08B102F0D2FA2580BDE82A
:10713000F087FFE76868FFF7AFFD0028F7D0BDE8EC
:10714000F04702F0C5BA87880646384600F0D4FBFF
:107150000400ECD02B464A4606F1080104F10A006F
:1071600000F041FC607221463846BDE8F04700F06F
:1071700015BB00005C240020F42200202DE9F04F14
:107180000746858802883D48012197B08346102A2A
:1071900009D0112A49D01A2A6CD1387AB1EB101FC4
:1071A00045D2012244E0354C083CA068C0430B9016
:1071B00061680BA800F00BFF0B990CA800F088FA8F
:1071C0002C220CA96846FFF7ADF80026E946A04638
:1071D00010E000BF09EB46005FF00004B0F804A027
:1071E00008EB84005146001D00F0C5FE641C1D2CF8
:1071F000F6D3761C0098B042ECD8142D05D317B006
:107200000420BDE8F04FFFF7BBBC2946584600F00C
:10721000C8FE294608F1040000F0C3FEF87B0128EF
:1072200028D016482946001D15E029461AE00022FC
:107230000221B1EB101F01D2012600E000260F4908
:10724000083901F11000041D294682B100F0A9FEA1
:1072500036B12946204617B0BDE8F04F00F0A1BE78
:107260002946204617B0BDE8F04F00F084BE00F07C
:1072700082FEF5E717B0BDE8F08F00008024002003
:1072800030B58DB004462E4B086860610FCB08AD59
:1072900085E80F0004F1120108A862DF00284CD134
:1072A000A07C8DF8320041F22350ADF83000224628
:1072B0000CA90120A8DF00283FD120216846FFF754
:1072C0004AF841F22450ADF80000A07C8DF802008D
:1072D00001259DF80D00ADF8065040F012008DF824
:1072E0001150ADF804508DF80D008DF81350208822
:1072F00004F10A02694600F0ABF800281DD12021F4
:107300006846FFF728F841F22550ADF80000A07C50
:107310008DF802009DF80D00ADF8065040F00A000F
:107320008DF81150ADF804508DF80D008DF8125005
:107330002088A21C694600F08BF80DB030BD00001B
:10734000409D020030B40288502A10D1034630F824
:10735000062F4C88A2420AD14289012A07D14C69E2
:10736000002C04D0027B9888A44630BC604730BC17
:107370007047007800F00100704700002DE9F843E5
:107380000546861C00208DF8000090460F464FF001
:1073900001096846FFF790FC1B4C20683860D4E96F
:1073A0000001401AA16804F21C47081A0EE00121EE
:1073B000384600F006FE00F0C5FB0146384600F0F6
:1073C00000FED4E90001401AA168081A401C864258
:1073D000EDD8B8F1000F03D0052065F3891002E065
:1073E000062065F39F50A2682168114004EB8101DB
:1073F000C8602068304420609DF80000FFF780FCE2
:107400004846BDE8F88300002C28002030B482688C
:107410000468531C8360A154D0E901128A4202D34C
:1074200030BC00F0E6BF30BC70470000034803C822
:10743000814201D101207047002070472C28002094
:107440000249084490F930007047000004250020EC
:107450002DE9F0438146887891B090460C4600B9FA
:1074600001208DF83E002088ADF83C0000250095F5
:10747000607C694602F0A0F96E46A07C711C02F0A7
:107480009BF9E07B00289DF8020002D040F0080044
:1074900001E020F008008DF80200217C11B140F0DD
:1074A000100001E020F010008DF80200217B11B1E6
:1074B00040F0010001E020F001008DF80200217D84
:1074C00009B1022100E0012161F342008DF80200C0
:1074D0001C2102A8FEF73FFF607BC10601D4800695
:1074E00017D50E950EAFE07C791C02F065F99DF87A
:1074F0003800079720F00F00401C20F0F0001030FB
:107500008DF838009DF83A0020F00600801C8DF8B8
:107510003A00607B8DF80800A07B8DF809001421EB
:1075200009A8FEF718FF0FA8CDE90906A088ADF855
:107530003000A06820B1E088ADF82C00A0680D9064
:10754000A06998B301950088ADF81000A06901AD5D
:1075500001A94088ADF81200A06940680695039023
:10756000A069007B02F028F9A069691C407B02F049
:1075700023F9A069807A00289DF8060002D040F027
:10758000080001E020F008008DF80600A169C97A22
:1075900011B140F0100001E020F010008DF806005D
:1075A000A169097A19B140F0010002E00DE020F074
:1075B00001008DF80600A169897B09B1022100E074
:1075C000012161F342008DF80600E06900B10590E9
:1075D000434609AA02A94846AADF11B0BDE8F083D4
:1075E00070B5084C050009D010342168002907D077
:1075F00008682060496828468847F6E70834F4E7B9
:1076000070BD0000F0240020054A012120B10128AE
:1076100005D19170FFF7E4BF51700020FAE7704781
:10762000F02400202DE9F05F26484168F1B3DFF82F
:1076300098B00E688146DBF8004087688078E11BCF
:1076400021F07F45ED1CB0B9DFF880804FF4803029
:10765000C8F84403C8F804031120FEF783FF112083
:10766000FEF78BFF4FF0010AC8F800A02F2001F0B1
:107670002DFE89F802A0B54200D23546124BE8191A
:107680003C3320F07F401860DBF800105A46091B9D
:1076900021F07F41001B20F07F40C91C81420FD99F
:1076A000106818602F2001F011FE00E004E0BDE832
:1076B000F05F1120FEF76CBFBDE8F05F01F094BFF2
:1076C000BDE8F09F30230020041501400010014068
:1076D00073B58CB00646002000900D9880B1002450
:1076E0006D4621460DA800F051FC30B1009805EB25
:1076F000400084800098401C0090641C142CF0D33F
:107700002C2269463046FEF70DFE0EB070BD2DE905
:10771000F04117880646B81D14460D46984202D916
:107720000C20BDE8F0813188072206290AD34FF4E6
:10773000486C4FF6FF73614501D9994202D17088B8
:10774000062801D21046ECE7604501D99842F9D1EC
:10775000994203D0984201D08142F3D80520E855E0
:1077600020881221401C80B2208029542088401C8F
:1077700080B220804119308802F0A0F921880844A5
:1077800080B220804119708802F098F9218808445D
:1077900020800020C5E7FFF7F3B9000038B54A7A2A
:1077A0000F4B62B100220A725969002906D00122EA
:1077B0008DF80020ADF802006846884738BD0A7A87
:1077C00062B19B684C68024619462046FFF720FAD2
:1077D0000028F3D0BDE8384001F07ABF5B68F1E7DC
:1077E0005C24002070B588B0064600200590069005
:1077F000ADF81410ADF816100190029001AA05A979
:10780000304690DF050021D001F020FD03461148ED
:1078100011493246401AC108012000EB01400446DC
:107820000E4901F054F9BDF8042012B9BDF8060064
:1078300028B1BDF80630204609A101F048F9BDF88D
:1078400008201AB12046164901F03AF908B0284636
:1078500070BD00005CA702005CA7020030A002001F
:107860005468652072657175657374656420545839
:107870002F5258207061636B6574206C656E67745D
:107880006820697320746F6F206C6F6E6720627957
:107890002025752F2575206F63746574732E000085
:1078A0007CA0020010B50021024800F09BFB80F391
:1078B000100010BD482C00200E4910B50A784C78F5
:1078C0000023A24212D0521CD2B20A70022A00D166
:1078D0000B70084A0B780C3252F82320026088683B
:1078E000104420F07F408860012010BD036000201C
:1078F00010BD0000302300200146034802888A4260
:1079000000D0002070470000482400202DE9FC5FD3
:107910000E008346DDE90C47C6F10000984692460A
:10792000814600D40846012503E000BF90FBFAF031
:107930006D1C5045FADAA84500D9454624B1002E01
:1079400001DB780700D5641EB80702D5B8F1000F37
:107950000AD0F80708D13CB1A54205D220215846EB
:10796000641EFFF753FDF6E7002E02DA4E462D2186
:1079700002E0780703D52B215846FFF747FD07F0B3
:10798000030002280BD1B8F1000F08D13CB1A54289
:1079900005D230215846641EFFF738FDF6E7CDE9E1
:1079A0000047434652463146584602F08DF8BDE83E
:1079B000FC9F024600201268530713D502F0030013
:1079C000012802D002280CD105E0C2F383100B6815
:1079D000801C184404E00223086803EB9252104410
:1079E000086001207047F0B58488A518944200D83B
:1079F0002246A41AC288D6189A4200D81346D21A30
:107A00004B880788BB420CD34088834209D88888BA
:107A1000A04206D3A84204D8C888904201D3B042FD
:107A200001D90020F0BD0120F0BD4FF014000AB1D3
:107A300000F0FCBD00F02BBE172101804180002129
:107A4000017141711B218171C17170472DE9F047AE
:107A5000394E002780463D46DFF8E090D6F804A076
:107A600057E003D00446D0F81C8035E099F8002098
:107A700002EB4201521CD2B289F8002009EBC1018D
:107A800099F80230091D9A4201D189F800504868DE
:107A90000A780446012A12D0022A02D0032A3BD1D6
:107AA00008E001F07DFF00B10127257434E0057482
:107AB000C06900E070680028F9D170602CE0207C7B
:107AC00050BB88686060C868A0600869E060486969
:107AD000A061F07800B165606268B168184B501A17
:107AE00020F07F40984202D2A168084406E0881A3C
:107AF000A16820F07F40814202D9081A206000E08E
:107B0000256065600120A56020742046E56101F0D4
:107B100029FFB8F10000A4D199F8001099F80100EC
:107B20008142A3D117B97168514502D00120BDE847
:107B3000F0870020FBE700003023002070250020A4
:107B4000FFFF7F002DE9FF410026234800F036FAB1
:107B50002148001F074600F031FA204C6068009071
:107B6000A56800E000986946284004EB80000C30CE
:107B7000FFF71FFF0028F5D101AA009901EA0503CC
:107B800004EB8303491CDB6842F82030401C009161
:107B90000228F2D3019800F0030001280BD002283C
:107BA00010D10198032101EB90500099BDF80A60B3
:107BB00001EB900005E00198BDF80A60C0F3831066
:107BC00008440090384600F0F6F908B1009860606B
:107BD00004B03046BDE8F081442C00202C28002061
:107BE00088B04FF40041002000F0D0FF08B1FEF74C
:107BF000C7FF00F039FE122000F0F4FC142000F062
:107C0000F1FC122000F012FD142000F00FFD4FF4E3
:107C10009674204600F09CFB122000F038FD1420E2
:107C200000F035FD204600F093FB122000F0FEFC32
:107C3000142000F0FBFC204600F08AFB122000F02C
:107C400026FD142000F023FDFEF7B8FF08B1FEF773
:107C500097FF01F0B1F808B1FEF792FF01F042FA88
:107C600008B1FEF78DFF002469460120009401F061
:107C7000F3F808B1FEF784FF684601F06DF908B12A
:107C8000FEF77EFF9DF808003AA120F00F00401C8F
:107C900020F0F00010308DF808000C2202A87CDFE4
:107CA00008B1FEF76DFF00945020ADF80000A02051
:107CB0000194ADF80200ADF804404FF4C870ADF87F
:107CC000060068467ADF08B1FEF75AFF00212D480A
:107CD00000F0FDF908B1FEF753FF2B4801A9CDE9EB
:107CE00000402848143000F0B6FA08B1FEF748FF0B
:107CF00026480090234869461838FFF7C1FA08B1B2
:107D0000FEF73EFFFEF774FE1C216846FEF723FBDC
:107D10004FF42020CDE90040801002901C480590CF
:107D200003251C488DF80C500690ADF80E408DF8D8
:107D300010406846FFF7C0F808B1FEF721FF16486B
:107D400004220178012077DF08B1FEF719FF1348FC
:107D50001349401AC00805EB004012A100F0ACFE28
:107D6000FEF7AEFE00F08EFD0028FBD101F038F8E2
:107D7000F8E700003831302044697374616E636540
:107D800000000000C8230020258E02002B7A02008C
:107D90007593020097770200E02200209CA7020062
:107DA0005CA70200426C696E6B79206578616D702A
:107DB0006C6520737461727465642E0070B514462E
:107DC00082880E4605462088111D0144921C994266
:107DD00001D8FE2A01D90C2070BD521C32542088D3
:107DE000FF21401C80B2208031542088401C80B28A
:107DF00020808119288801F061FE2188084480B222
:107E00002080AA8842B1A96841B13044FEF78AFABD
:107E10002088A98808442080002070BD072070BDFC
:107E20002DE9F047C5881E1DB6FBF5F78946B6FB60
:107E3000F5F1044605FB176C407916686843DDF8D8
:107E400020A0F718001F874200D9C61A166001E06B
:107E50002468491E0029FBD1A5EB0C078846B742D0
:107E600016D818E004EB0C00001D09EB0803BAF16A
:107E7000000F3A4602D00146184600E01946FEF7C8
:107E800051FA2468F61B4FF0000CB844B54201D9F2
:107E9000374600E02F46002EE4D1BDE8F087000011
:107EA00030B5024651B100F08FFE0021074C08E0CA
:107EB00034F821301568AB4202D11160002030BD8A
:107EC000491C8142F4D3052030BD000000000000B1
:107ED000F8B50F46017814460546012901D16878A6
:107EE00030B12088821C9A4232D8012902D006E0A3
:107EF0000720F8BD69780144891C994228D8181ACE
:107F0000801E86B2ADF800602188B81C084469461E
:107F10007DDF0028EDD12978022904D06878BDF8EA
:107F20000020904205D3BDF80000B04201D80920DE
:107F30000AE00820012905D16978B14202D8ADF8DC
:107F4000001001E0ADF80060BDF80010FE2901D975
:107F50000C20F8BD2288491CB9542188491C89B2DB
:107F6000218078542088401C2080BDF800100844EF
:107F700020800020F8BD01F01F0301229A40D24367
:107F8000490900EB8100114600F021B84A0950F878
:107F9000220001F01F0201219140084000D0012081
:107FA000704701F01F0301229A40490900EB81004C
:107FB000114600F01CB8002100F00FB8012100F0BC
:107FC00016B808B56A46FEF758F9009808BD08B516
:107FD0006A46FEF738F9009808BD08B56A46FEF70C
:107FE00032F908BD08B56A46FEF714F908BD08B5B0
:107FF0006A46FEF71BF9009808BD08B56A46FEF709
:1080000049F9009808BD38B5044600258DF80050A0
:108010006846FEF751FE21686268086890420ED9F2
:10802000401E08600178238AE26801FB0325227A5A
:108030002168101AC0B20A79824200D208719DF8F4
:108040000000FEF75DFE284638BD38B50546002025
:108050008DF800000C466846FEF72EFEE868298A77
:10806000201AB0FBF1F12A681068431C13600170FC
:108070009DF80000FEF744FE38BD10B530B1017A1E
:1080800042680368891AC9B21A6006E00E2010BD62
:1080900003681A68541C1C601170491EC9B2F7D2DB
:1080A000006800210171084610BDC20800F00703F6
:1080B0000120895C98400840704710B5C20800F064
:1080C0000703885C01249C402043885410BD10B5F0
:1080D00060B10161172120F8021B20F8021B1B214F
:1080E00000F8021BFFF7A8FC002010BD0E2010BDF9
:1080F000F0B5858893B00C46002D39D10188002653
:108100003F4F24293BD006DC102909D011290CD07F
:10811000232958D14FE03A290BD0552953D129E0D2
:108120000146204601F034F94DE0A01DFFF784FC24
:1081300049E02246408934F8061F814200D80846AB
:108140006080172800D217206080106970B16079B4
:1081500060B1D7E90001CDE90301ADF80E506088A8
:10816000ADF81000136903A910469847667126718F
:1081700013B0F0BD0146204601F05EF923E0011D79
:108180002C2206A8FEF7CEF8BDF81800BDF81C207A
:1081900004EBC0014A732269AAB1D7E90423CDE9EF
:1081A0000423ADF81200487B8DF8140022692046A4
:1081B00004A9904707E0017A207B884200D201465B
:1081C0002846FFF70FFBA07A0028D1D0E188284687
:1081D000A5DF012580B11128CAD001F037F8024689
:1081E0000848094913B0401AC00805EB0040BDE833
:1081F000F04006A100F064BCA672E572B8E700008A
:10820000289D02005CA702005CA7020073645F6205
:108210006C655F67617474635F65786368616E67DE
:10822000655F6D74755F726571756573742829205B
:1082300072657475726E65642025732E00000000EF
:1082400020B10278DE2A03D0082070470E20704744
:1082500041800020704760B159B10278DE2A0AD00F
:1082600009684160DE2101704FF6FF7141800020F6
:1082700070470E207047082070477FB505460029DB
:108280004DD0002D4BD008780C46DE2847D1A88869
:108290006188884202D1204601F0A4FC2888012888
:1082A00025D002283BD011283AD0512837D135F8B3
:1082B000040F6188884232D1A978A81C02292ED1E6
:1082C000017A042903D0062901D0052927D10021EC
:1082D000009102228DF8002001914FF4C0720291AA
:1082E0000391ADF80420007A05280FD010E0297A18
:1082F0002046012913D1A988428891420FD101213A
:10830000017204B0BDE8704001F06CBCADF804101F
:1083100028886946B0DF002801D0616888477FBDA2
:10832000A88861888842FAD14FF6FF7060807FBDCF
:1083300000F180400068002800D00120704708B597
:1083400000F18040002101600068009008BD00003D
:108350002DE9F041040007D0044E4FF47A47751C14
:108360003846A847641EFAD1BDE8F081209D02007E
:1083700070B50B4C207808B185250FE00020A06077
:1083800060602061E060074800F082FF054600F071
:10839000F5FE08B900F064FF01202070284670BD8A
:1083A000F02400200976020038B500258DF8005031
:1083B0006846FEF781FC074CE068401EE060E0681C
:1083C00010B900F075FFA5709DF80000FEF798FC4D
:1083D00038BD0000F02400200FB408B5039900292F
:1083E00004D004AA00926A4600F00FF801B05DF8CC
:1083F00014FB10B582680446002A05D0D4E90403B2
:10840000216898470020A06010BD2DE9FC479146E7
:108410000C00804676D014F8011B39B125290ED006
:108420004046FEF7F3FF20780028F4D198F80C00BE
:10843000002867D04046BDE8FC47FFF7DABF0020C0
:10844000012221782B291BD02D2902D0302908D1D7
:1084500002E040F0010001E040F00200641C002A4C
:10846000EFD100252A290ED02178A1F130020A2A65
:1084700011D205EB850201EB4205641C303DF1E7AA
:1084800040F00400EAE7D9F800100B1DC9F80030ED
:108490000968641C0D44217800232E290BD114F89F
:1084A000011FA1F130020A2A05D203EB830201EB7E
:1084B0004203303BF3E76C290DD068290BD06929C2
:1084C00021D00BDC252918D0582931D063290ED0B2
:1084D000642915D117E014F8011FECE7702969D061
:1084E000732932D075291BD0782909D120E0D9F819
:1084F0000000011DC9F8001001784046FEF786FF14
:10850000641C90E76CE0D9F800100A1DC9F800203F
:108510000968CDE900500A224046FFF7F7F9EFE776
:10852000D9F800100A1DC9F8002009680A2206E0DF
:10853000D9F800100A1DC9F8002009681022CDE9F9
:108540000050404601F0C0FADAE7D9F800100027E1
:108550000A1DC9F800200E68C00705D112E0404688
:10856000761C7F1CFEF752FF31780029F7D104E01A
:10857000202140466D1EFEF749FFBD42C0D9002DA7
:10858000F6D1BDE74EB13046FDF7F0FE074604E0F8
:10859000202140466D1EFEF739FFBD4206D9002D51
:1085A000F6D103E04046761CFEF730FF3178002913
:1085B000F8D1A5E7D9F80000011DC9F80010056839
:1085C00030214046FEF722FF78214046FEF71EFF8D
:1085D00008200021CDE90001034610222946B0E71A
:1085E000BDE8FC8708B50090684600F029F8009ABD
:1085F000032100EB8200C0F8001708BD13B50C463C
:10860000684600F02BF8009900EB8101D1F80027B3
:1086100022F44032C1F80027009900EB8100D0F825
:10862000001741EA0441C0F800171CBD01B56846B7
:1086300000F006F8009A01219140C0F80C1508BD21
:108640000168202902D24FF0A040704701F01F01BD
:1086500001600148704700000003005001682029B4
:1086600002D24FF0A040704701F01F0101600148A5
:10867000704700000003005001B56846FFF7EEFFA9
:10868000D0F810050099C84000F0010008BD01B500
:108690006846FFF7D5FF009A01219140C0F8081500
:1086A00008BD00001CB5094C0144D4E90034CDE9F3
:1086B00000346C4606E000BF54F82030D3F8103583
:1086C000401C08C28142F7D81CBD0000509D02002A
:1086D000034908B50844002101600068009008BD06
:1086E0000060004002494058012800D00020704737
:1086F0000060004030B5154A01460020D2F8104411
:1087000023460AE0DB681D79854205D1401C0A2812
:10871000F6DB4FF0FF3030BD1B68002BF2D1431C5D
:10872000F9D0CB681871D2F8103443B1DB68CC684B
:108730001B682360D2F81024D268116030BDC2F8E3
:108740001014C96800220A6030BD00002C280020E7
:108750007047FDF777BF704708B5034A0092402382
:10876000024A00F005F808BDE196020094260020B8
:10877000F0B595B01C4615460F4608461A9E00F007
:10878000F5FA182109A8FDF7E6FD0E96CDE9095482
:108790000023082203A9384600F0FDFA0598069048
:1087A000BDF81000ADF81C00BDF81200ADF81E00B9
:1087B00000208DF821000398082600F0030001280E
:1087C00002D0022818D032E003983346850AC0F35D
:1087D000C2008DF8200003980FA9C0F38314A200F3
:1087E000384600F0D8FA09A8009006AB22460FA937
:1087F000284600F017FA1AE00398840DC0F3C2006F
:108800008DF82000082C01D2254600E008253346CB
:108810002A460FA9384600F0BEFA2E44641B09AB65
:1088200006AA29460FA800F05BF9002CEAD13846C9
:1088300000F0A2FA15B0F0BD0A4A012902EBC0000F
:1088400007D0022907D0032907D0042907D0002028
:1088500070470220704704207047007970474079C4
:10886000704700005CA7020010B5FFF772FF0421FB
:108870000348FFF73FFF02490120C968487110BD56
:108880004CA702002DE9F04F8DB0FEF7CFFD18B1D7
:1088900000200DB0BDE8F08F7E4C4FF0000BC4F807
:1088A00018B4BFF34F8F60680290A568D84628407F
:1088B00004EB80000CE000BFD4F8180470B9216804
:1088C0000298814201D86160E2E7284004EB800011
:1088D0000C3002A9FFF76DF80028EDD1002005AAA1
:1088E000029901EA050304EB8303491CDB6842F8A3
:1088F0002030401C02910228F2D3059800F00300BA
:10890000022802D001284DD0AAE005985022810DFE
:108910008946B2EB905F00D850210E4666F39F5017
:10892000059008315C4800F0D8F9070078D000F0D5
:108930001DFA4346082205A9384600F034FA029988
:1089400008F1080A2940681A8000001D864222D9D1
:10895000504D0C3530B1C2B204EB8101301A904653
:108960000C3104E02946F2B2002590462846C6B2F2
:108970005346384600F017FA0AEB080325B1324691
:108980002946384600F00FFA029909F1030001EB7D
:10899000900002903BE004EB81015346324638469A
:1089A0000C31EFE70598C0F38310062800D30620AA
:1089B000059960F38911C1F38310801C0591810032
:1089C000354800F08AF907004AD000F0CFF9434655
:1089D000082205A9384600F0E6F908F10808002643
:1089E0000FE00298434600EA0501401C04EB8101B8
:1089F0000290042238460C3100F0D5F908F1040841
:108A0000761C0598C0F38310B042EAD847B1D4F879
:108A10001054D4F8180478B1384600F0ADF934E0B9
:108A20001EE0E8684079012804D12A6828463946C2
:108A300012689047E8680568002DF2D1384600F0CA
:108A40009BF98DF800B06846FEF736F9D4F81804A3
:108A500008B9029860609DF80000FEF751F914E033
:108A6000D4F8104405E02168204689688847E0680A
:108A70000468002CF7D109480949401AC0080221AE
:108A800001EB004007A100F017F8FEF7CFFC80F0E3
:108A90000100FEE62C280020BCA702009CA70200D3
:108AA0005CA702004261636B656E647320666C753F
:108AB000736865640000000000231A4600F0CCBE15
:108AC00008B5012300926A4600F0C6FE08BD1CB539
:108AD000CDE9002302236A4600F0BEFE1CBD000063
:108AE0002DE9F0470E4680461C46924608293ED89E
:108AF00094F80C90002020731946104600F028FDD1
:108B00000025B54206D218F805201AA12046FFF725
:108B100063FC03E019A12046FFF75EFC6D1C082DE5
:108B2000EFD317A12046FFF757FC0025B54210D21E
:108B300018F80570FDF7F2FB0068C05D10F03E0FFD
:108B400001D03A4600E02E220EA12046FFF744FC59
:108B500003E00DA12046FFF73FFC6D1C082DE5D377
:108B600001222146504600F0D5FC84F80C90BDE867
:108B7000F0870000202530327800000020202000FF
:108B80007C00000025630000200000000B4810B5A9
:108B9000FF218160002101604160C0F81814C0F815
:108BA000141480F82014064800F0E4F8002803D1DB
:108BB000044800F039F9002010BD00002C280020E6
:108BC000BCA70200F89E020002480349401AC008F0
:108BD00070470000BCA702005CA7020013B56846FE
:108BE000FFF75EF908B100201CBD0248009950F85B
:108BF00031001CBD5CA7020070B509480125D0F802
:108C0000104480F8205407E0E06845712168204650
:108C100049688847E0680468002CF5D170BD000001
:108C20002C2800202DE9FF4781460C9D00200C4692
:108C30002F7B2873984616462946184600F088FC74
:108C4000072E42D2DFE806F004090F161F2A36006D
:108C500049462846FFF7C0FB37E0494628462268C8
:108C6000FFF7BAFB31E0D4E9002349462846FFF775
:108C7000B3FB2AE0A0680090D4E9002349462846C7
:108C8000FFF7AAFB21E0D4E90201CDE90001D4E914
:108C9000002349462846FFF79FFB16E004F1080031
:108CA00007C88DE80700D4E9002349462846FFF7A6
:108CB00093FB0AE004F108000FC88DE80F00D4E927
:108CC000002349462846FFF787FB002229464046F5
:108CD00000F020FC2F73BDE8FF872DE9F041058AE5
:108CE00080462D1F4819C01CB0FBF5F0C6B24046A7
:108CF000FFF789F9041E19D000202071012060714E
:108D0000E58000272546761EC4F800800BE040462B
:108D1000FFF779F960B16179491C617128600546F6
:108D20007F1CC0F80080B742F1D32046BDE8F08137
:108D3000204600F002F80020F8E72DE9F0414579DF
:108D400001466B1E002201E00968521C9A42FBD3C7
:108D50000F680146002605E038460C68FFF775F9F4
:108D60002146761CAE42F7D3BDE8F0810121001DFB
:108D7000FFF727B9FFF781B910B504460121001D9F
:108D8000FFF73BF910F0FF0F04D12046BDE810407B
:108D9000FFF7D3BF10BD1CB501920122009201AABA
:108DA000FFF73EF81CBD1CB501920022009201AAFB
:108DB000FFF736F81CBD0000064910B500204870CA
:108DC000091D0860BFF35F8F0349044800F0FAF9FA
:108DD000002010BD44230020909D02008826002022
:108DE00008B500208DF800006846FDF765FFF1EE3C
:108DF000100A20F09F00E1EE100ABFF35F8F0849D0
:108E00004020C1F880029DF80000FDF779FF00F0D6
:108E1000B5F908B141DF08BD20BF40BF20BF08BD84
:108E200004E000E0FDF7ACBE82680021916082683A
:108E30001161826851618268D16082685160806886
:108E40000160704720B10349096801600020704744
:108E50000E2070477C9F0200FEB502460E46084673
:108E6000FFF7F0FF002868D1002400940194012747
:108E700006208DF80020ADF8040002948DF80270F1
:108E800069462020326869DF2C492D4A891AC908B1
:108E9000012202EB014530B100F0D8F90246284624
:108EA0002849FFF70DFE00948DF801708DF80240FF
:108EB000019402948DF8034069464020326869DFCE
:108EC00030B100F0C3F9024628461F49FFF7F8FD0C
:108ED00000940A208DF80000019402946946012054
:108EE000326869DF30B100F0B1F90246284617490F
:108EF000FFF7E6FD4FF4B0600090019402946946DC
:108F0000A120326869DF30B100F0A0F9024628469E
:108F10000F49FFF7D5FD0094019402948DF80040AD
:108F20006946A020326869DF30B100F08FF902464F
:108F300028460849FFF7C4FD0020FEBDACA702008B
:108F40005CA702001CA6020064A602007CA5020029
:108F5000C8A5020028A502002DE9F04105460768D2
:108F600060DF804619491A482A68081AC608BA42BA
:108F700019D9022000EB064416A12046FFF79CFDFC
:108F800020463A461FA12B68FFF7A1FD4FF0805005
:108F9000D0F80C012968800200F10050421A2046E6
:108FA00025A1FFF78DFDB8F100004FF001040AD0B4
:108FB00000F04CF9024604EB06402AA1FFF780FDC1
:108FC0004046BDE8F0812F480470F9E7ACA70200E5
:108FD0005CA70200496E73756666696369656E74A5
:108FE0002052414D20616C6C6F6361746564206632
:108FF0006F722074686520536F6674446576696388
:10900000652E00004368616E6765207468652052B4
:10901000414D207374617274206C6F636174696F69
:109020006E2066726F6D203078257820746F203046
:109030007825782E000000004D6178696D756D20EF
:1090400052414D2073697A6520666F72206170709D
:109050006C69636174696F6E20697320307825785C
:109060002E00000073645F626C655F656E61626C08
:109070006528292072657475726E65642025732ECB
:1090800000000000AB23002030B5144891B00078F8
:10909000002820D05FF03405ADF8405010A903A897
:1090A00061DF30B1052816D011B0BDE83040FDF7C2
:1090B00067BD03AC0A49684600F084F807E000BFCA
:1090C000D0E9002120469047684600F092F80298C7
:1090D0000028E1D0F4E711B030BD0000AB23002040
:1090E000809F02007CB5194C207808B108207CBD17
:1090F0000120A070002000F0BDFA112819D0002036
:1091000000F0D0FA12480026006801908DF8006047
:109110006846FDF7D1FD0F4901A810DF05000AD010
:10912000002020709DF80000FDF7EAFD2DB12846D3
:109130007CBD00207CBD0120F3E7A670667000F0C6
:109140005FFB012000F0AEFAF3E70000A823002047
:10915000149F0200FD6A02000EB50749684600F040
:1091600031F805E0D0E900108847684600F041F882
:1091700002980028F6D10EBD309F02000148007809
:1091800070470000A82300201FB568464BDF30B1B0
:10919000052814D004B0BDE81040FDF7F1BC084923
:1091A00001A800F00FF806E0D0E9002100989047F0
:1091B00001A800F01EF803980028E6D0F4E71FBDD0
:1091C0009C9F0200016009684160AFF3008010B508
:1091D000D0E900215368994201D1002104E0D1E98E
:1091E0000034A34202D01946816010BD08314160AD
:1091F000F0E7816800290BD0026892680A44826017
:1092000041684B689A4203D108314160FFF7DFBFE4
:10921000704700000C4A10B502F594730EE0991ADD
:10922000C91001EBD171491002EBC1010C688442F5
:1092300001D90B4602E005D201F108029A42EED3B1
:10924000002010BD486810BDB09D020000B5FFF7BA
:10925000E1FF002800D1014800BD00009C9D0200F4
:1092600009480068012110F0010F08D14FF0E020FB
:10927000C02280F80024C0F88012C0F80011034911
:10928000012008607047000000E100E01805004080
:109290000649024600200B790BB1852070470A6011
:1092A00001220A7100224A7170470000FC2200204E
:1092B00004490120086004480168C1F30041002905
:1092C000FAD170470C00004018040040002802D07A
:1092D0000149800108477047619D02002DE9F04176
:1092E0000E46804600F0FEF8204D0028404616D07D
:1092F000FEF7A6F8284490F858008009032802D009
:1093000001280AD003E04046FFF7B6F928B103214F
:109310004046BDE8F041FFF771B90221F8E700F0DF
:10932000EDF8002820D04046FEF78AF80446104F9A
:109330004FF4807007EB840100EB8400D1F8102516
:1093400080B242F00102C1F81025FFF7C1F9002EEA
:109350000AD04046FEF774F855F82000002803D0E4
:109360000120A040C7F80403BDE8F08104250020D7
:10937000006000400078002807D104483B21408865
:1093800076DF002801D0FDF7FBBB7047E02200200C
:1093900070B58D88027900EBC5042273C97BA41DCA
:1093A000012902D0022904D101E0008800E04088B0
:1093B000208021886088814211D92846A5DF0126B6
:1093C000B0B1112816D0FFF741FF02460B480C49F7
:1093D000401AC00806EB00400AA1FFF771FBA17913
:1093E000E079814208D92846BDE87040FEF7FAB915
:1093F0006671F4E72671F2E770BD00005CA7020019
:109400005CA7020073645F626C655F67617474637C
:109410005F65786368616E67655F6D74755F7265BF
:10942000717565737428292072657475726E656430
:109430002025732E000000007CB506468D88C88864
:1094400006EBC504A41D172800D2172021888142ED
:1094500000D8084660800020207121882846B5DFAA
:1094600060B1FFF7F3FE02460F481049401AC008EA
:10947000012101EB00400EA1FFF722FB60790028DB
:1094800010D1306900280DD01549D1E90201CDE98C
:109490000001ADF802506088ADF8040032696946F9
:1094A000304690477CBD00005CA702005CA702002C
:1094B00073645F626C655F67617474735F65786322
:1094C00068616E67655F6D74755F7265706C792831
:1094D000292072657475726E65642025732E0000F4
:1094E000289D02000449084490F93000082801DB57
:1094F00001207047002070470425002004490844DB
:1095000090F93000082801D20120704700207047F0
:109510000425002010B50C46017A052908D0407AB0
:1095200038B1084808A102682046FEF755FF00E060
:109530001AB106A12046FEF74FFF2046BDE81040B5
:10954000FEF757BF84230020257300000D0A00009A
:1095500038B5C3880D46044633B114A0009015A257
:1095600016A12846FEF738FF217A05291CD0607A1B
:1095700048B1A088FFF760F9164951F8202016A1DC
:109580002846FEF729FFA0880021FFF727FB0346A6
:109590001049207A143951F8202001B02846BDE83E
:1095A00030400EA1FEF718BF38BD00001B5B306DC8
:1095B000000000001B5B313B33316D0025734C6FA5
:1095C00067732064726F7070656420282564292594
:1095D000730D0A0084230020257300003C25733E90
:1095E0002025733A2000000070B5012670044FF06A
:1095F000E0210025C1F88001084C4010C4F8480360
:10960000C4F8080366602F20FFF760FEA660044CD4
:109610002F20A560FFF75AFEA57070BD0010014015
:109620003023002038B50021012548B101280CD095
:10963000032809D1FFF714FEBDE83840FEF7B4BE99
:109640004FF0E020C0F8805138BD8DF8001068461A
:10965000FDF732FB064C207808B9FEF789FEE0687A
:10966000401CE060A5709DF80000FDF749FB38BD87
:10967000F02400203EB5044609496846FFF7A2FDE4
:1096800008E000BFD0E900212046904730B168468D
:10969000FFF7AFFD02980028F4D13EBD11203EBD7A
:1096A000189F02003EB5044608496846FFF78AFD48
:1096B00007E000BFD0E90021204690476846FFF749
:1096C00098FD02980028F5D13EBD0000249F0200BD
:1096D00002498969002900D0084770475C240020AE
:1096E0002DE9F0411400884618D000250E4F0326BE
:1096F00008EB050122460020FCF7A6FF0544241ACA
:1097000040B93878002809D008494FF47A40884792
:10971000761E05D001203870002CE9D1BDE8F0811B
:1097200000203870FAE700004C230020F19E020070
:109730002DE9F0410746806A14468846C8B30025E3
:1097400031E000BFB96A05EB450001EB8006B08847
:10975000801CFE2802D90C20BDE8F0812288401C24
:1097600008F8020020881622401C80B2208008F8E9
:1097700000202088401C80B2208000EB0801308847
:1097800000F09CF92188084480B22080B28842B160
:10979000B16871B14044FCF7C5FD2088B188084428
:1097A00020806D1CEDB297F82C00A842CAD800208A
:1097B000D2E7FFE70720CFE70A78062822F0FF026A
:1097C0000A7010D2DFE800F0030507090B0D002036
:1097D00008E0112006E0212004E0312002E0122000
:1097E00000E0222008707047002805D103490120BD
:1097F00048700020FDF7F4BE70470000F024002000
:1098000010B51620FDF7E2F8A0B1114890F8000459
:109810004009082811D20121814011F0EC0F0CD031
:109820000C4882684FF480016AB1016841F48001FC
:10983000016010BD42F2010001E042F20200BDE809
:109840001040FDF79DB94FF0E020C0F8001110BDA9
:1098500016E000E07C2600202DE9F84F204D9246CE
:10986000894606469846012269461846AF68FDF7C4
:1098700085FD58B3009800210446801C09E000BF14
:1098800000EA07035AF8212005EB8303401C491C1A
:10989000DA604145F4D34FEA164AFEF703F84AEA84
:1098A0000041601C384005EB80003C4005EB840221
:1098B000C160D06866F3C50068F3891069F39F2022
:1098C00020F00300401C20F00400D06095F8200434
:1098D00002E000BFFEF7D6FF0028FBD1BDE8F88FFD
:1098E0002C2800202DE9F84F1D4C00256846D4E9AE
:1098F00001A6FDF7E1FF002738B30023009A616855
:109900001CE0D1F800C00846944503D9ACEB020234
:109910000A6015E0A2EB0C0263440760D0F80CC0AB
:10992000C1698146BCF1000F08D006EB030828F09E
:109930007F48C0E9018CC9F81C5005460029E0D1D8
:1099400028466160FEF782F803E02846FEF77EF8BD
:1099500010B15046FDF766FEE770BDE8F88F0000D5
:10996000302300200D4B10B5596831B102680C68E6
:10997000A24204D8A21A0A60C161586010BD0B4609
:1099800003E00B46C969121B21B10C689442F8D35D
:10999000A41A0C600260C161D86110BD30230020A0
:1099A0002DE9F041144E77683D462C4603E0844291
:1099B00004D02546E469002CF9D11BE0D4B1A542BE
:1099C0000BD1F869706040B90C4901208860002112
:1099D000B160F0702F20FFF779FC2168E069E86141
:1099E00010B10268114401607068874202D0012002
:1099F000BDE8F0810020FBE730230020001001408B
:109A00007CB5064600240D468DF800406846FDF7FB
:109A100053F901A800F0F8F870B1057009494660E3
:109A20009DF8040048709DF80000FDF769F91420C6
:109A3000FCF7AEFD20467CBD04249DF80000FDF738
:109A40005FF9F7E7702500202DE9F041194D6C68AA
:109A5000002C2CD0184800270068A968B846401A86
:109A600020F07F462068B0420CD82146361A0744C1
:109A7000E469087C20B181F81080886949698847C9
:109A8000002CEFD129786878814206D1401CC0B201
:109A90006870022801D185F80180064869780C3089
:109AA00040F82170BDE8F0411420FCF771BDBDE81D
:109AB000F081000030230020041501400870000AE6
:109AC00048700220704700002DE9F05F8346DDE911
:109AD0000A4A994690460D460846012703E000BF12
:109AE000B0FBF8F07F1C4045FAD2B94500D94F468B
:109AF0005FEACA7012D18CB15FEA8A7002D5B9F1FF
:109B0000000F01D0202607E0302605E031465846F8
:109B1000641EFDF77BFC0CB1A742F7D35FF0010692
:109B2000B9F1010F02D9A9F1010903E0B5FBF6F083
:109B3000404502D306FB08F6F2E7DFF83C9000BF91
:109B4000B5FBF6F000FB165519F800105846FDF766
:109B50005DFCB6FBF8F6002EF2D15FEACA7009D0C0
:109B6000002C07D0A74205D220215846641EFDF7DD
:109B70004DFCF5E7BDE8F09F669D0200F8B505468F
:109B800080B2FDF7B9FE040013D0154E207A0027ED
:109B9000317B88420ED2A8B204F10A0175DF28B1E8
:109BA000112806D0BDE8F840FFF792BD207A401C8E
:109BB0002072F8BD2772307C38B1A8B23B2176DF25
:109BC00018B1082801D0FFF783FD71690029F0D092
:109BD0008DF80070ADF8025068468847F8BD000067
:109BE0005C24002030B40446007A00280AD0608843
:109BF000002166DF28B1112802D0616830BC084717
:109C00000120207230BC70470A494A788B78521C78
:109C1000D2B2934200D100220B78934201D10020AE
:109C200070470270487800EB400001EBC000001D57
:109C300070470000702500202DE9FC411646DDE943
:109C40000854CDE900541F468046022200F00CF86B
:109C5000002807D1CDE900543B461022314640464A
:109C600000F002F8BDE8FC812DE9FC5F0026DDE98B
:109C70000C4B994692468E4680462788354630E002
:109C8000D8F80400002200EB8500694600680190C6
:109C900001A864DF002830D19DF8000050451FD195
:109CA0000EB1002100E00221228808441118594514
:109CB00022D846B9521C90B2208009F800E02088D2
:109CC000401C20800126218801A801EB0902694679
:109CD00064DF002811D120889DF8001008442080FE
:109CE0006D1CB8F80000A842CADC56B12088C01B21
:109CF000401E80B2FF2802D90C20BDE8FC9F09F865
:109D000007000020F9E7000000000000000000004C
:109D1000231500000000000000000000000000000B
:109D20000338FDD870470000770A000000000000EB
:109D3000770A0000000000007ADA0000000000004E
:109D400023D1BCEA5F782315DEEF12120000000079
:109D50000000005000030050000000000000000060
:109D60000338FDD87047303132333435363738391F
:109D7000414243444546000000000000000000004E
:109D800000000000000000000000000000000000D3
:109D9000789D0200909D020004000000556E6B6EDD
:109DA0006F776E206572726F7220636F646500005A
:109DB000000000004CA4020001000000F8A2020014
:109DC00002000000ECA00200030000006CA30200EF
:109DD00004000000C0A3020005000000A0A20200D1
:109DE000060000003CA2020007000000A8A3020039
:109DF00008000000B4A202000900000018A302003D
:109E00000A00000034A402000B000000D4A00200ED
:109E10000C000000CCA202000D0000009CA4020077
:109E20000E00000098A302000F000000D4A302005F
:109E30001000000008A4020011000000B0A40200FD
:109E40001200000084A402001300000020A40200FD
:109E50008000000054A202008100000090A10200D6
:109E60008200000050A102008300000030A1020027
:109E7000840000006CA102008500000078A20200AE
:109E80008600000080A30200900000001CA20200D7
:109E90009100000010A1020092000000E0A2020068
:109EA00000820000E8A302000182000034A3020047
:109EB0000282000050A3020000840000ACA1020056
:109EC0000184000058A4020002840000F4A10200F2
:109ED00003840000D0A102005987020057870200C6
:109EE0005187020000000000000000000000000098
:109EF0000338FDD870470000942700207F00000041
:109F000014280020000000000000000000000000F5
:109F10000000000001000007049F0200149F0200DF
:109F2000080000003C9F02004C9F02000800000057
:109F30004C9F02005C9F02000800000018A802006D
:109F400020A80200000000000000000008A8020095
:109F500018A802000000000000000000D0A70200C6
:109F6000D8A70200D8A70200E8A70200E8A70200CD
:109F7000F8A70200F8A7020000A80200E0220020D3
:109F80005C9F02007C9F02000800000000A8020005
:109F900008A8020000000000000000008C9F0200E2
:109FA0009C9F0200080000000040404040404040AC
:109FB000404041414141414040404040404040409C
:109FC0004040404040404040400502020202020240
:109FD000020202020202020202202020202020208F
:109FE00020202002020202020202909090909090A3
:109FF0001010101010101010101010101010101061
:10A0000010101010020202020202888888888888D4
:10A0100008080808080808080808080808080808C0
:10A02000080808080202020240000000A99F02007E
:10A0300073645F626C655F6761705F646174615FC8
:10A040006C656E6774685F7570646174652829203B
:10A05000287265717565737429206F6E20636F6E49
:10A060006E656374696F6E20307825782072657430
:10A0700075726E65642025732E000000546865209B
:10A0800072657175657374656420636F6D62696E66
:10A090006174696F6E206F6620545820616E642071
:10A0A0005258207061636B6574206C656E677468CC
:10A0B0007320697320746F6F206C6F6E67206279F4
:10A0C000202575206D6963726F7365636F6E6473AD
:10A0D0002E0000004E52465F4552524F525F494E8D
:10A0E00056414C49445F4441544100004E52465F42
:10A0F0004552524F525F534F46544445564943458B
:10A100005F4E4F545F454E41424C454400000000B5
:10A110004E52465F4552524F525F4645415455524A
:10A12000455F4E4F545F454E41424C454400000050
:10A130004E52465F4552524F525F4D555445585FFF
:10A14000554E4C4F434B5F4641494C45440000003F
:10A150004E52465F4552524F525F4D555445585FDF
:10A160004C4F434B5F4641494C4544004E52465F7D
:10A170004552524F525F4D555445585F434F4E44E0
:10A180005F494E49545F4641494C45440000000038
:10A190004E52465F4552524F525F4D555445585F9F
:10A1A000494E49545F4641494C4544004E52465F32
:10A1B0004552524F525F424C455F495053505F5297
:10A1C000585F504B545F5452554E434154454400E0
:10A1D0004E52465F4552524F525F424C455F495086
:10A1E00053505F504545525F52454A45435445449C
:10A1F000000000004E52465F4552524F525F424CA3
:10A20000455F495053505F4C494E4B5F444953435F
:10A210004F4E4E4543544544000000004E52465FA9
:10A220004552524F525F4150495F4E4F545F494D26
:10A23000504C454D454E5445440000004E52465F3B
:10A240004552524F525F4E4F545F535550504F52EC
:10A25000544544004E52465F4552524F525F4D4F57
:10A2600044554C455F4E4F545F494E495449414C0B
:10A27000495A4544000000004E52465F4552524F35
:10A28000525F4D4F44554C455F414C5245414459F6
:10A290005F494E495449414C495A45440000000029
:10A2A0004E52465F4552524F525F4E4F545F464F9B
:10A2B000554E44004E52465F4552524F525F494EF2
:10A2C00056414C49445F5354415445004E52465FF9
:10A2D0004552524F525F444154415F53495A4500E1
:10A2E0004E52465F4552524F525F494F5F50454E66
:10A2F00044494E47000000004E52465F4552524FBF
:10A30000525F5356435F48414E444C45525F4D495E
:10A310005353494E470000004E52465F4552524F3C
:10A32000525F494E56414C49445F4C454E47544854
:10A33000000000004E52465F4552524F525F445259
:10A34000565F5457495F4552525F414E41434B005F
:10A350004E52465F4552524F525F4452565F5457D9
:10A36000495F4552525F444E41434B004E52465F57
:10A370004552524F525F494E5445524E414C000097
:10A380004E52465F4552524F525F53544F524147CF
:10A39000455F46554C4C00004E52465F4552524F69
:10A3A000525F4E554C4C00004E52465F4552524F44
:10A3B000525F494E56414C49445F504152414D0015
:10A3C0004E52465F4552524F525F4E4F5F4D454D84
:10A3D000000000004E52465F4552524F525F464FBA
:10A3E0005242494444454E004E52465F4552524FF8
:10A3F000525F4452565F5457495F4552525F4F5621
:10A40000455252554E0000004E52465F4552524F43
:10A41000525F494E56414C49445F4144445200000A
:10A420004E52465F4552524F525F5245534F55521E
:10A43000434553004E52465F4552524F525F494E7C
:10A4400056414C49445F464C414753004E52465F8B
:10A4500053554343455353004E52465F4552524F66
:10A46000525F424C455F495053505F4348414E4E06
:10A47000454C5F414C52454144595F4558495354FE
:10A48000530000004E52465F4552524F525F434FB9
:10A490004E4E5F434F554E54000000004E52465FF3
:10A4A0004552524F525F54494D454F55540000009C
:10A4B0004E52465F4552524F525F4255535900002B
:10A4C0007761726E696E670064656275670000008F
:10A4D0001B5B313B33306D001B5B306D00000000B7
:10A4E0001B5B313B33316D001B5B313B33326D0005
:10A4F0001B5B313B33336D001B5B313B33346D00F1
:10A500001B5B313B33356D001B5B313B33366D00DC
:10A510001B5B313B33376D00696E666F00000000D6
:10A520006572726F7200000073645F626C655F63D6
:10A5300066675F73657428292072657475726E652D
:10A5400064202573207768656E20617474656D7072
:10A5500074696E6720746F2073657420424C455F88
:10A5600047415454535F4346475F5345525649430E
:10A57000455F4348414E4745442E000073645F6287
:10A580006C655F6366675F73657428292072657404
:10A5900075726E6564202573207768656E2061741E
:10A5A00074656D7074696E6720746F2073657420B4
:10A5B000424C455F434F4D4D4F4E5F4346475F56BC
:10A5C000535F555549442E0073645F626C655F6349
:10A5D00066675F73657428292072657475726E658D
:10A5E00064202573207768656E20617474656D70D2
:10A5F00074696E6720746F2073657420424C455FE8
:10A6000047415454535F4346475F415454525F544B
:10A6100041425F53495A452E0000000073645F6257
:10A620006C655F6366675F73657428292072657463
:10A6300075726E6564202573207768656E2061747D
:10A6400074656D7074696E6720746F207365742013
:10A65000424C455F434F4E4E5F4346475F47415034
:10A660002E00000073645F626C655F6366675F73F2
:10A67000657428292072657475726E65642025736F
:10A68000207768656E20617474656D7074696E679B
:10A6900020746F2073657420424C455F4741505FC2
:10A6A0004346475F524F4C455F434F554E542E0033
:10A6B0006E72665F626C655F6761747400000000B3
:10A6C000636C6F636B000000434C4F434B00000012
:10A6D0004750494F54450000505253005541525481
:10A6E0000000000055415254450000007077725F31
:10A6F0006D676D74000000007274745F6C6F675F4B
:10A700006261636B656E6400617070006E72665F9B
:10A71000736468006E72665F7364685F626C650084
:10A720006E72665F7364685F736F630020A80200D7
:10A73000E0220020D0000000AE690200F0A8020074
:10A74000B0230020282B0000BE690200D89E020022
:10A7500000000000F8A6020050230020B0A602006E
:10A7600000000303C0A6020000000000C8A602000B
:10A7700000000000D0A6020000000000D8A60200E1
:10A7800000000000DCA6020000000000E4A60200B9
:10A7900000000000ECA602000000000008A7020074
:10A7A000000003030CA702000000030314A702002B
:10A7B0000000030320A70200000003036023002021
:10A7C0005823002060230020D42600201800000019
:10A7D0007D71020000000000F1800200C82300200B
:10A7E000817002000000000045730200B0230020C9
:10A7F0007B820200DC230020816F02000000000049
:10A80000E9970200000000008990020000000000AB
:10A81000899102000000000025960200000000005F
:10A82000FF00FFFFE82300201F0000000724002096
:10A830001F000000000000000000000000000000F9
:10A840000000000000000000000000000000000008
:10A8500000000000000000000000000000000000F8
:10A8600000000000000000000000000000000000E8
:10A8700000000000000000000000000000000000D8
:10A8800000000000000000000000000000000000C8
:10A8900000000000FF0000000000000000000000B9
:10A8A00000000000000000000000000000000000A8
:10A8B0000000000020A50200C0A4020018A50200AC
:10A8C000C8A40200D8A40200D0A40200E0A40200A0
:10A8D000E8A40200F0A40200F8A4020000A502000F
:10A8E00008A5020010A50200000000000090D0039F
:040000050002620192
:00000001FF
