:020000022000DC
:106000000000012079630200616302006363020003
:10601000656302006763020069630200000000001C
:106020000000000000000000000000006B630200A0
:106030006D630200000000006F63020071630200E4
:106040003D6F0200736302004D7102007363020032
:106050007363020073630200CD6F0200736302007A
:1060600073630200736302007363020073630200D0
:1060700073630200736302007363020073630200C0
:106080007363020091640200736302007363020091
:106090002D65020073630200A18D0200736302008C
:1060A0007363020073630200736302007363020090
:1060B0007363020073630200000000000000000030
:1060C0007363020073630200736302007363020070
:1060D0007363020073630200736302000000000038
:1060E00000000000000000000000000000000000B0
:1060F00000000000000000000000000000000000A0
:10610000000000000000000000000000000000008F
:10611000000000000000000000000000000000007F
:10612000000000000000000000000000000000006F
:10613000000000000000000000000000000000005F
:10614000000000000000000000000000000000004F
:10615000000000000000000000000000000000003F
:10616000000000000000000000000000000000002F
:10617000000000000000000000000000000000001F
:10618000000000000000000000000000000000000F
:1061900000000000000000000000000000000000FF
:1061A00000000000000000000000000000000000EF
:1061B00000000000000000000000000000000000DF
:1061C00000000000000000000000000000000000CF
:1061D00000000000000000000000000000000000BF
:1061E00000000000000000000000000000000000AF
:1061F000000000000000000000000000000000009F
:10620000364937480A1A02D0072291438D4635494C
:1062100035480A1A06D00722914381F309880222E1
:1062200082F3148831483249324A00F045F8324846
:106230003249334A00F040F832483349334A00F0DB
:106240003BF833483349344A00F036F83348344990
:10625000344A00F031F834483449354A00F02CF81B
:1062600034483549354A00F027F835483549002289
:1062700000F02DF834483549002200F028F8344861
:106280003449091A082903DB002202600430016046
:10629000314A90471F482049884205D0026804309F
:1062A00003B4904703BCF7E700208646EC46002085
:1062B00000212A4A9047FEE7884207D0521A05D0AB
:1062C000037801300B700131013AF9D170478842EF
:1062D00002D002700130FAE7704700000000012090
:1062E00000E00020000001200000012000A80200C2
:1062F000A81800200C190020D8630200D8630200FF
:1063000098A3020000A80200A8180020A8180020E6
:10631000B8A30200B8A30200B8A30200B8A3020009
:10632000B8A30200B8A30200B8A30200B8A30200F9
:1063300000A8020064A802000C1900200C1900201B
:106340000C19002048210020482100205021002065
:106350005021002050410020A16302007D7F0200F7
:10636000FEE7FEE7FEE7FEE7FEE7FEE7FEE7FEE705
:10637000FEE7FEE7704700BF1048804710484FF027
:106380000701884385460F4880470F48016841F45C
:1063900070010160BFF34F8FBFF36F8FFFF730BF06
:1063A0000A480B490B4A884207D0521A05D0037895
:1063B00001300B700131013AF9D170477563020069
:1063C00000000120756A020088ED00E0B8A3020019
:0863D000A8180020A818002005
:1063D80000487047402100201FB50021039001AA02
:1063E80044F20100CDE9011100F004F805B05DF8B0
:1063F80004FB000072B6034B1B68DB0700D500BE28
:10640800704700BFF0ED00E0094A537891780133F6
:10641800DBB2994208BF0023117899421FBF03706D
:106428005078182303FB002014BF04300020704765
:106438000C190020024B4FF43C6043F0010318474D
:10644800C0A3020038B50C4B0C4C4FF40032C3F813
:10645800802001254FF48033C4F84833C4F808334A
:106468006560FFF7E7FF064BA56000241C60FFF797
:10647800E1FF044B1C7038BD00E100E00010014052
:10648800281A0020191A0020F8B51F4B1F491B684D
:106498000025C1F84051C1F84451C1F84851C1F82C
:1064A8004C51C1F80051C1F804514BB3D1F804451F
:1064B80017490968641A24F07F442F461A68A242D3
:1064C80009D8A41A15441A7CDE691AB11F74D3E9D5
:1064D80005209047AEB90F4B0F4A197813788B42B5
:1064E80005D10133DBB2022B08BF002313701278E9
:1064F8000A4B43F822500A4B4FF48012C3F800218C
:10650800F8BD3346DAE700BF2C1A0020001001401E
:10651800281A0020241A0020251A00201C1A0020FE
:1065280000E100E02DE9F74F9E4A9F49137809786A
:106538009E4D99423CD00133DBB2022B08BF0023A9
:1065480013709B4912789B4B0F6853F822003B1835
:1065580023F07F4300220B602B68164614469446AE
:1065680013B942B12B6006E0196881420ED902B115
:106578002B60091A19604FF001082B68DFF83CA25C
:1065880000930027BEB9DFF83CB260E0401A0C4423
:10659800D968C3F800C0D3F81CE031B13A1922F029
:1065A8007F42C3E90121DE611E4601227346D7E717
:1065B8000026B046E1E73446F6697D4A636812680A
:1065C800DFF804C2A068991A21F07F41614500F202
:1065D800A58001442160012222742A680023C4E9AD
:1065E8000133E361002A40F0A2802C60CAE75A1CFC
:1065F8009BF80210D2B291428BF8002004BF00220F
:106608008BF80020182202FB03B32A6819799C68CA
:10661800022974D003297ED0012918D1217CB1B96F
:10662800DA6862601A69A2605A699B69A361624B61
:10663800E2601B78002BC0D06160BEE79C4200F08E
:1066480093809946DB69002BF8D1002323749BF8CB
:1066580000309BF801209A42C9D12B682FB9009AC3
:10666800934202D1B8F1000F43D0002B79D0D3F870
:1066780000A0524D4E4BD5F804751C68DFF84C81CC
:106688003E1B98F8003026F07F4603369BB94FF43E
:106698008033C5F84433C5F80433494B4FF400320E
:1066A8004FF00109C3F880211A60C5F80090FFF780
:1066B800C1FE88F80090B2452CBF5444A41924F0B8
:1066C8007F44C5F84045D5F80435DB1B23F07F43EC
:1066D800E41B033324F07F44A3420AD9D5F80435D8
:1066E800C5F84035FFF7A6FE354B4FF40032C3F826
:1066F8000021314B00221A7003B0BDE8F08F134619
:106708009146A0E71174D2690123002AFAD1002B1F
:106718009DD02A609BE700231946F6E7D31A23F099
:106728007F43834234BFC31A0023236053E72168A1
:106738001368994213D8591A1160E26155E7091A8A
:10674800D8691A4638B1034618688842F7D3401A00
:106758001860184613462160E061DC6112E71346B1
:10676800F2E7FFF76FFEC4E74C450DD1D3692B6004
:1067780053B90F4801920121CAF8081003600E4B63
:106788001970FFF757FE019AE1692368C9F81C10D0
:1067980011B1086803440B602B689A4218BF01279F
:1067A80053E700BF241A0020251A00202C1A0020C5
:1067B800281A00201C1A0020181A00200010014076
:1067C80000E100E00C190020FEFF7F00191A0020EC
:1067D80008B5FFF737FE104B00200B2218809A707F
:1067E8000E4B18600E4B18700E4B18700E4B4FF472
:1067F8008012A021C3F8802183F814131A6002F1D3
:106808008042A2F56F22C2F8080583F81113074BDE
:10681800D2F804251A6008BD0C1900202C1A002093
:10682800241A0020251A002000E100E0281A002080
:10683800074B9B784BB132B128B10368187C20B95B
:1068480059745A617047072070470820704700BF85
:106858000C1900202DE9F7431D4FBB7805460E465D
:1068680090469BB390B304292ED9436973B3437CF4
:1068780002A80024012B00F8014D0CBF8946A1464F
:1068880000F02CF80DF10600FFF7BEFDD0B1012392
:106898000370104B4560D3F80435C0E90498C0E98B
:1068A80002369DF806307B709DF8070000F03AF834
:1068B80024B9094B4FF48012C3F80021204603B0D5
:1068C800BDE8F0830424EFE70724F7E70824F5E799
:1068D8000C1900200010014000E100E070B5EFF352
:1068E800108672B60C4A946801239CB993600B4BCE
:1068F8000B4DD3F8801029401160C3F88050D3F8AD
:10690800841051604FF0FF32C3F88420047006B938
:1069180062B670BD0370FAE7301A002000E100E0AB
:10692800FC06FFBD084B9A6810B55AB150B9EFF391
:10693800108172B6054A1C6814605C6854609860DF
:1069480001B962B610BD00BF301A002000E100E0B6
:1069580041DF7047064B10B500241C70054B1C60C6
:10696800BFF35F8F0449054800F030F8204610BD9A
:10697800441A0020481A0020C8A302003C1A00202C
:1069880007B502A8002300F8013DFFF7A7FFF1EEC5
:10699800103A23F09F03E1EE103ABFF35F8F0A4BE2
:1069A8004022C3F884219DF80700FFF7BBFF02F0DF
:1069B800D9F920B1FFF7CCFF03B05DF804FB20BF85
:1069C80040BF20BFF8E700BF00E100E00B684A685D
:1069D8004360934208BF0023016008BF43607047CB
:1069E800436843B10268916852680B44934243601C
:1069F80004BF0023436070470C4B1B78062B10D153
:106A08000B4B1B681A070CD10A4B186800F0F003EF
:106A1800302B08D000F0E000A0F140035842584164
:106A28007047002070470120704700BFE00F00F05A
:106A3800E40F00F0E80F00F0094B1B78062B0CD18F
:106A4800084B1B681A0708D1074B186800F0F000BC
:106A5800A0F130035842584170470020704700BFEA
:106A6800E00F00F0E40F00F0E80F00F008B5FFF7C2
:106A7800C3FF28B17D4B7E4A1B68C3F30423136010
:106A8800FFF7DAFF10B17B4B7B4A1A60FFF7B4FFC0
:106A980028B17A4B7A4A1B68C3F342331360FFF775
:106AA800CBFF20B1774AD36823F08073D360FFF718
:106AB800A3FF40B14FF080430022C3F80C21C3F874
:106AC8001021C3F83825FFF7B7FF10B16E4B03222A
:106AD8001A60FFF7B1FF40B16C4B05221A60012222
:106AE8009A6700229A603F225A60694B1B78062BEE
:106AF80050D1684B1B6819074CD1674B1B6803F0D2
:106B0800F003502B46D14FF08052644BD2F8041456
:106B1800C3F82015D2F80814C3F82415D2F80C14B9
:106B2800C3F82815D2F81014C3F82C15D2F8141489
:106B3800C3F83015D2F81814C3F83415D2F81C1459
:106B4800C3F84015D2F82014C3F84415D2F8241419
:106B5800C3F84815D2F82814C3F84C15D2F82C14E9
:106B6800C3F85015D2F83014C3F85415D2F83414B9
:106B7800C3F86015D2F83814C3F86415D2F83C1479
:106B8800C3F86815D2F84014C3F86C15D2F8442439
:106B9800C3F87025FFF730FF28B1414B414A1B6805
:106BA80003F04F031360FFF727FF48B14FF080430E
:106BB800D3F80024D20744BF6FF00102C3F80024C1
:106BC800394B1B68062B08D1384B1B68062B01BFB5
:106BD800374A136843F480631360364AD2F8883022
:106BE80043F47003C2F88830BFF34F8FBFF36F8F41
:106BF8004FF01023D3F80022002A03DBD3F8043225
:106C0800002B2FDA2C4B0122C3F80425D3F80024DB
:106C1800002AFBD04FF010221521C2F80012D3F839
:106C28000024002AFBD04FF010231522C3F80422B9
:106C3800214B1A46D3F800140029FBD00021C3F8D1
:106C48000415D2F80034002BFBD0BFF34F8F19493D
:106C58001A4BCA6802F4E0621343CB60BFF34F8F4C
:106C680000BFFDE7164B174A1A6008BD2403001041
:106C78004035014074C007400DF0ADBA4402001021
:106C88003C050040F0ED00E0A00500401056004033
:106C9800E00F00F0E40F00F0E80F00F000C0004043
:106CA80058020010E40E00403001001034010010BA
:106CB8003C17004000ED00E000E001400400FA0548
:106CC800A81800200090D00338B5084C04F1080338
:106CD8000546002818BF1C4623682BB11A68226095
:106CE8005B6828469847F7E738BD00BF541A00206C
:106CF80020B9054B01225A70FFF7E6BF012802D1DF
:106D0800014A9070F8E770474C1A002020B9034BED
:106D180001225A70FFF7D8BF704700BF4C1A0020F5
:106D280038B50B4C237883B90A486360A3602361A4
:106D3800E36000F0D1F8054602F014F808B900F055
:106D4800D9F801232370284638BD8525FBE700BF05
:106D58004C1A0020F96C020037B502A80023094C30
:106D680000F8013DFFF7BAFDE368013BE360E56821
:106D780015B900F0D3F8A5709DF80700FFF7D2FD0C
:106D880003B030BD4C1A0020012813B509D003D335
:106D980003281BD002B010BD0F4B0122C3F880207E
:106DA800F8E702A800230D4C00F8013DFFF796FD17
:106DB80023780BB9FFF7B4FFE3689DF807000133A8
:106DC800E3600123A370FFF7ADFDE3E700F092F85D
:106DD800FFF7C2FFDEE700BF00E100E04C1A002029
:106DE8001FB503788DF8003043680193037A8DF856
:106DF8000830C3680393054A054B684653F82130A9
:106E080052F82110984705B05DF804FB601A00207D
:106E1800641A00201FB503788DF800304368019389
:106E280083688DF80830C3680393054A054B6846A4
:106E380053F8213052F82110984705B05DF804FB4B
:106E4800601A0020641A0020F0B5194B067891F8F2
:106E58001DE043F82620174B94460A6943F826207C
:106E6800154B03F806E00C4607460FCC89B06D4673
:106E78000FC594E80F0085E80F000496BEF1000FD7
:106E88000AD0BCF1000F0D4A694608BF0022381D20
:106E980000F07AFC09B0F0BDBCF1000F084A694661
:106EA80008BF002207F10C0000F05EFAF2E700BF0D
:106EB800641A0020601A0020681A0020E96D020098
:106EC8001D6E020000F18040002382B00360036859
:106ED8000193019B02B07047054A13792BB9012130
:106EE800106011715371184670478520704700BFB4
:106EF8006C1A0020084B1A68D20706D4C02283F8FF
:106F080000230122C3F880211A604FF08043012238
:106F1800C3F81825704700BF00E100E0044B0122C8
:106F28001A604FF08042D2F81834DB03FBD4704764
:106F38000C000040124B1B6810B573B14FF4807001
:106F4800FFF7C0FF4FF080430122C3F808230D4B21
:106F5800587910B95A711B6898470B4B1B6873B165
:106F68004FF48270FFF7AEFF4FF080430222C3F860
:106F78000823044B01201B68BDE81040184710BDCA
:106F8800000100406C1A00200401004000F180401C
:106F980000F5C040002382B0036003680193019BA1
:106FA80002B07047800000F1A040D0F8003723F409
:106FB8004033C0F80037D0F8003743EA0141C0F841
:106FC800001770472DE9FF470024594A594E5A4D7A
:106FD800019401211368A2F5C040012B80B206D1AB
:106FE800D6F804330B4202D0FFF7D0FF0C4304322B
:106FF800AA424FEA4101EDD1504B1B68012B0AD13F
:107008004FF4BE70FFF7C2FF4FF0A04344F00044B6
:10701800D3F81035019314F0FF0F1AD0484F01260A
:107028000025344210D0AB0003F1804303F5C04380
:10703800D3F81005D3F8101557F82530C0F30420FD
:10704800C1F3014103B198470135082D4FEA4606BF
:10705800E7D1002C68DA00224FF0FF33CDE9022394
:10706800DFF8DC9001260024A0464FF0A04709EB8A
:10707800080393F95020531C45D0D2B222F0C00522
:10708800E90804A8084402F0070310F804CC06FA3B
:1070980003F31CEA030F36D009EB050C92099CF99F
:1070A80030C059F82CA0BAF1000F0AD1032A2AD10E
:1070B8000DF1080E1EF801C04CEA030C0EF801C0D1
:1070C80001E0032AF4D005F5E07110F80C0C57F82C
:1070D80021101842C1F3014105D0022913D1032A16
:1070E8000BD1114604E003290DD1032A05D1022151
:1070F8002846FFF757FF0134E4B2BAF1000F02D077
:1071080011462846D04708F10108B8F1040FAED15E
:1071180054B14FF0A043019AD3F81035934203D0ED
:107128000193029B03939EE704B0BDE8F08700BF7C
:107138000061004000600040206100407C61004028
:10714800741A0020014B1B68184700BFD01A002092
:107158000D4B984237B50D4610D102A8002300F810
:10716800013DFFF7BBFB094B1C7914B901221D60D7
:107178001A719DF80700FFF7D5FB14B9002003B07A
:1071880030BD1120FBE700BF00200040D01A0020CE
:107198000023435082B043580193019B02B07047CB
:1071A8000A4610B54FF48E71FFF7F2FF136A916823
:1071B800C95C136A01331362C0F81C1510BD02467E
:1071C80008B54FF492710068FFF7E2FF4FF484713D
:1071D8001068FFF7DDFF136801221A6008BD8B698C
:1071E8000A4610B54FF4847123B9FFF7D1FFD0F8E0
:1071F800183510BDFFF7CCFF536AD168D0F81805D1
:10720800C854536A01335362F3E700001FB50123E2
:107218008DF80030044BCDE90110D3E9001268461F
:10722800904705B05DF804FBD81A002030B54C4AE9
:10723800D2F8043313F4007F85B015464FD0D2F846
:107248002431002B4BD04FF492711046FFF7A0FF6A
:107258004FF40173C2F80833424B93F8291009B967
:10726800012151603E4902228DF80020D1F8802486
:10727800C1F8802403929A690292DA680192002286
:10728800C3E906226846D3E9001290473448D0F88B
:107298001C315BB133490A6A4B699A420A464BD2A0
:1072A80091F82830002B47D1FFF77AFF2C4AD2F803
:1072B800443193B14FF4A2711046FFF769FF294B8F
:1072C80093F8291009B1012111609A692AB10022A5
:1072D8009A61586AD968FFF799FF05B030BDD5F8AB
:1072E80004335B07D2D5D5F80831002BCED01D4C1E
:1072F8001B482146FFF773FF636AA2699A42234637
:10730800C4D1E269E1684AB12369E3600023606A95
:10731800A261E3616362FFF779FFB7E794F8292078
:107328000AB901226A600E4A4FF40170C2F80803D4
:1073380000229A61586AEEE74FF48E710848FFF709
:1073480027FF51690029B1D00023029191688DF877
:107358000030019153616846D2E900139847A5E7C8
:1073680000200040D81A00202DE9F8435A4B047930
:1073780091462C2202FB0432064692F82A200D463A
:107388009846002A40F0A38054490068FFF7E0FEC1
:107398000746002840F09D8029683368481C0BD0B8
:1073A8004FF0A04001228A40C0F8082501F5E0729C
:1073B8004FF0030C40F822C06868421C1FBF00F55C
:1073C800E0724FF0A04C4FF0000E4CF822E0AA6992
:1073D80095F814C0C3F824256A7DBCF1010F4CEA66
:1073E8000202C3F86C25C3F81405C3F80C151DD1A7
:1073F800AA68511C1FBF02F5E0714FF0A0404FF082
:10740800000C40F821C0E968481C0BD04FF0A04C94
:1074180001208840CCF8080501F5E0704FF0030E14
:107428004CF820E0C3F80815C3F810252C23634353
:1074380008EB0302C2F804902A6948F80320B9F15E
:10744800000F31D04FF48E7130682D7FFFF7A0FE0A
:1074580030684FF4A271FFF79BFE3268204BC2F8E8
:107468000433120B53B2002BA8BF03F160404FEA5C
:1074780053134FEA4511BABF1A4802F00F0500F539
:1074880061404FEA8303C9B203F16043B4BF415579
:1074980080F8001303F5614302F01F02012101FA8D
:1074A80002F2C3F880211A6033680422C3F8002569
:1074B8002C2303FB04830022C3E9062283F8292036
:1074C8005A61012283F82A203846BDE8F883082744
:1074D800FAE71127F8E700BFD81A00203572020032
:1074E8008000020014ED00E02DE9F843224F0679F0
:1074F8004FF02C0909FB067480466569002D37D1C9
:107508006261A16025624FF48E71006884F828508A
:10751800FFF73EFED8F80000012383602146FFF7FD
:107528003FFE6368A1462BBBD8F80050226A636906
:107538009A4212D3D8F80030D3F81C21002AFBD085
:107548000122DA6000202C2303FB067600237361F6
:10755800BDE8F88394F8283043B9D5F81C31002BDE
:10756800F8D049462846FFF71BFEDFE70F20EAE779
:107578001120EDE72846EBE7D81A00202DE9F8435B
:10758800384E05792C2303FB056307465C6824B154
:1075980003684FF40170C3F808032C2303FB056349
:1075A800986950B1D86900283ED024B13B684FF49F
:1075B8000172C3F80423112034E09A61D96058623B
:1075C800D8612C2303FB056393F829301BB910B944
:1075D8003846FFF7F4FD4FF02C0909FB05683868B9
:1075E800D8F80430002B34D14FF4A271FFF7D0FD46
:1075F800C1463868D0F82431D0F80821D0F8444181
:10760800B2B90CB9002BF4D02C2202FB056500227C
:10761800AA611BBB24BB95F829103B680122B1B1B4
:107628001A600020BDE8F8831961DA610120C8E713
:10763800002BE9D1002CE7D14946FFF7D0FDD8F857
:107648002430D8F818209A42D3D82346DCE75A6069
:10765800E7E74FF40173C0F80433E2E70320E1E7FA
:107668000F20DFE7D81A00200023435082B0435888
:107678000193019B02B070471FB501238DF80030BC
:10768800054B8DF8080001916846D3E90012904730
:1076980005B05DF804FB00BF041B00207FB5384A25
:1076A800D2F82461002E49D010464FF49271FFF7AA
:1076B800DBFF02238DF80030D2F88034C2F8803422
:1076C8000393D2F83C358DF808302E4BDA680192D6
:1076D8000022C3E906226846D3E900129047284AE7
:1076E800D2F8443173B14FF4A2711046FFF7BCFFD2
:1076F800244B996931B100219961D2F83C05D968C8
:10770800FFF7BAFF1E4AD2F82031ABB14FF490719F
:107718001046FFF7A9FF1B4B596969B1D2F84C1500
:107728008DF80810002299688DF8002001915A619F
:107738006846D3E90012904704B070BDD2F8103102
:10774800002BCCD04FF488711046FFF78DFF0D4BFE
:10775800D2F83C0599698842C1D1DC69D96864B11D
:10776800D2F8005225F02005C2F800521A699C612F
:10777800DA60DE61FFF780FFB1E79C61FAE700BFDE
:1077880000200040041B00202DE9F8435E4B0679D9
:107798009146242202FB0632044692F820200D4628
:1077A8009846002A40F0AB8058490068FFF7D0FCA3
:1077B8000746002840F0A58029682368481C0BD09C
:1077C8004FF0A04001228A40C0F8082501F5E07278
:1077D8004FF0030C40F822C06868421C1FBF00F538
:1077E800E0724FF0A04C4FF0000E4CF822E0AA696E
:1077F80095F814C0C3F824256A7DBCF1010F4CEA42
:107808000202C3F86C25C3F80C15C3F814051DD182
:10781800AA68511C1FBF02F5E0714FF0A0404FF05D
:10782800000C40F821C0E968481C0BD04FF0A04C70
:1078380001208840CCF8080501F5E0704FF0030EF0
:107848004CF820E0C3F80815C3F810252423734327
:1078580008EB0302C2F804902A6948F80320B9F13A
:10786800000F3BD04FF4887120682D7FFFF7FCFE96
:107878004FF490712068FFF7F7FE4FF4927120687B
:10788800FFF7F2FE20684FF4A271FFF7EDFE2268C1
:107898001F4BC2F80433120B53B2002BA8BF03F1DD
:1078A80060404FEA53134FEA4511BABF194802F036
:1078B8000F0500F561404FEA8303C9B203F1604345
:1078C800B4BF415580F8001303F5614302F01F026D
:1078D800012101FA02F2C3F880211A602368082204
:1078E800C3F80025242303FB06830022C3E90622EC
:1078F8005A61012283F820203846BDE8F88308271A
:10790800FAE71127F8E700BF041B0020A57602005C
:107918001003020014ED00E001F06043B3F1005FD2
:107928002DE9F041074632D11C4B0679242505FB89
:10793800063598466C6964BB6A61A96000684FF4B3
:107948009071FFF791FE4FF4AC713868FFF78CFE29
:107958003B686A69A968C3F84415C3F84825012239
:107968009A606A68BAB9D3F82011D3F8582149B98E
:10797800002AF8D00F20242303FB06860023736116
:10798800BDE8F081002A14BF0F200020F3E7102083
:10799800F6E71120F4E72046F2E700BF041B0020B9
:1079A800F8B501F06043B3F1005F04460F465ED1BD
:1079B8000379304D242101FB0351486820B1216827
:1079C8004FF40476C1F80863242101FB03539E6930
:1079D80056B1D969002939D020B123684FF404720F
:1079E800C3F80423112030E09A61DF60DE614FF4B0
:1079F80088712068FFF738FE4FF4A2712068FFF7FE
:107A080033FE2368C3F83475C3F8382516BB012242
:107A18001A602279242101FB0251496809BBD3F875
:107A28001041D3F84411D3F8240114B909B9002836
:107A3800F5D0242303FB02550023984214BF0320EA
:107A480018469942AB6118BF0F20F8BD1F61DA6173
:107A58000126CCE7D3F8002242F02002C3F8002226
:107A6800D7E74FF40472C3F804230020EDE7102091
:107A7800EBE700BF041B00200648074A03780749C4
:107A8800D35C012213B10430FFF78ABF0C30FFF733
:107A980075BD00BFAC180020681A0020501B0020DC
:107AA8000648074A03780749D35C012213B104301A
:107AB800FFF732BF0C30FFF717BD00BFAC1800202E
:107AC800681A0020511B002037B50578012D04D015
:107AD80035D3022D28D003B030BD43681F4C197828
:107AE800204600F0C2F878B11D4B01908DF8005087
:107AF8001B6868469847A168E368A2885B1A9A429F
:107B08000ED3FFF7B9FFE6E7A268E3689A42F2D01E
:107B180002AB134A03F8080D126818469047EAE7C3
:107B2800104B01221A70D6E7C36801938DF80050F4
:107B3800FFF7A2FF0A4B1B6868469847CBE70A493C
:107B48000A4800F0A4F810B9FFF7AAFFC3E702A893
:107B5800032300F8083D024B1B68EEE72C1B0020AE
:107B6800281B00203C1B0020511B0020401B00202C
:107B7800F0B51F46234B89B006461A600C4600290B
:107B88003DD08A882048096800F060F8002834D180
:107B9800A289A1681D4800F059F800282DD11C4D74
:107BA8000FCD6C460FC495E80F0084E80F00736989
:107BB8000693337C174A18488DF81C70003318BF99
:107BC80001238DF81430737C002B14BF0E2300237F
:107BD8008DF81530F3680293B36803933368019303
:107BE800694673680093FFF72FF930B90B4B18708B
:107BF8003368013301D0FFF73FFF09B0F0BD07201C
:107C0800FBE700BF281B00202C1B0020401B002086
:107C1800D4A30200D17A0200AC1800203C1B00203B
:107C280070B5084C01460848267800F030F805463B
:107C380036B100232370FFF71FFF08B1FEF7CCFB16
:107C4800284670BD3C1B00202C1B002049B152B1B6
:107C5800531E1A4007D1826001608380C2601046BB
:107C680070470E2070470920704710B58468C268B5
:107C78008388121B934208D3C26813400268D15408
:107C8800C3680133C360002010BD0420FCE782688C
:107C9800C3689A420AD08268838813400268D35C1A
:107CA8000B7083680133836000207047052070479C
:107CB80072DF704773DF704774DF704777DF704794
:107CC80067DF70473FDF704700F1804000F5E04014
:107CD800002382B0036003680193019B02B07047E0
:107CE80038B5054D044645F001054FF47A40A847DC
:107CF800013CFAD138BD00BF00A40200104A08B503
:107D08000323C2F8F0350223C2F8F4356FF00043BC
:107D1800C2F808334FF48270FFF7D6FF4FF4807033
:107D2800FFF7D2FF0123C2F80035064BC2F8283509
:107D38000023C2F824350923C2F8203508BD00BF46
:107D480000700040000005011FB5FFF7D7FF20496C
:107D58000122C1F800254FF48270C1F82CD6C1F871
:107D68003026FFF7B1FF1B4B0A601A6042F210720F
:107D780003F58073196801B922BB174B01211960FB
:107D88004FF48070FFF7A0FF4FF48270FFF79CFF5D
:107D98000F4B0021C3F80015B2B1BDF8003040F612
:107DA800E3024FF47A7113FB012341F2C71293FBEC
:107DB800F2F39BB2094A190A1170094A137005B007
:107DC8005DF804FB013AD5E742F20F73F2E700BF12
:107DD800007000400470004008700040521B0020F2
:107DE800531B002030B5564893B000F02DFB00F02F
:107DF800B7F94FF0A04430B9524800F025FBD4F849
:107E080010351A060DD44FF400650A20C4F80C5535
:107E1800FFF766FFC4F808553220FFF761FFC4F882
:107E28000C554FF0A043484CD3F810351B0654BFEF
:107E38004648474800F008FBFFF786FF4FF6FF73F8
:107E48002046ADF8003000F011F90294414C0025AD
:107E58001B233C22002103A8ADF8043001F053FE97
:107E68001822294620468DF80C50CDF830D001F064
:107E78004AFE05232370F02365602575A360A5815C
:107E880000F06EF900B34FF0A04303224021C3F87D
:107E98001827C3F80C154FF40031C3F84427C3F86A
:107EA8000C15C3F84C274FF40022C3F80C25D3F85F
:107EB8001825294942F42022C3F818250120FFF784
:107EC800FFFE08B1FEF788FA244B03A81A1D1968AB
:107ED80000F0F9FC08B1FEF77FFA1E4A1F49204856
:107EE800FFF7E6FE08B1FEF777FA1D4D1D4B29781E
:107EF80093F900200120FFF7E1FE08B1FEF76CFAC4
:107F080001212878FFF7D6FE08B1FEF765FA164C6E
:107F180016480123237000F097FA4FF49B70FFF77F
:107F2800DFFE237853B12878FFF7C6FE08B1FEF7C5
:107F380053FA00230E48237000F086FA13B030BDC0
:107F48004AA402005AA40200D118002077A4020013
:107F580092A40200581B0020EC180020C018002032
:107F6800D0180020F4180020541B00209DA4020003
:107F7800B4A4020037B54FF0A0440323C4F82C374B
:107F88000C23C4F81C37D4F810351A0610D44FF453
:107F980000652F4800F058FA0A20C4F80C55FFF77E
:107FA8009FFEC4F808553220FFF79AFEC4F80C5516
:107FB8004FF0A0431C46D3F8102512F0800F02D0D2
:107FC800244800F041FAD4F810351B0602D42248A0
:107FD80000F03AFAFEF7FCFB08B1FEF7FDF90420C1
:107FE80000F030F9FEF7B6FC08B1FEF7F5F900F03D
:107FF8007DFE08B1FEF7F0F902AC002344F8043D19
:108008000120214600F0F8FE08B1FEF7E5F9204608
:1080180000F04CFF08B1FEF7DFF90120FFF752FE30
:108028000E4A0F480121FEF703FC08B1FEF7D4F908
:1080380000224FF480310B48FEF70CFC08B1FEF724
:10804800CBF90949002000F0BBFBFEF799FCFCE7DF
:108058000CA4020020A4020030A40200ED7D02005E
:1080680008A40200901B00203CA40200014901F072
:108078007DBD00BF1B1C00202DE9F341044600F024
:10808800E3F920462849294E294FDFF8B88001F046
:10809800C7FB00250446002C28D1264E264D306803
:1080A80001F05CFC00F02CFF244BC3E90001204BDD
:1080B80023491B680193234B23481B6800932B68B3
:1080C800326801F078FB214B2A689A42204B02D093
:1080D80020498A4226D101221A701F4B1A491A6870
:1080E8001E4802B0BDE8F04100F0AEB901356B1E84
:1080F800052B06D8DFE803F0030B0D0F1214164BFF
:108108001C600949002001F08BFB0446C3E7094BBA
:10811800F6E7094BF4E7C8F80040F2E73C60F0E7FF
:108128003460EEE71C70D8E7CBA40200B41E002030
:10813800B01C00209C1C0020A81C0020A01C0020B3
:10814800CDA40200AC1C00201B1C0020D9A40200F6
:10815800191C0020DBA40200B01B0020DDA40200D3
:10816800014B1878704700BF191C002038B51F4C08
:108178002378012B08D002D3022B1ED038BD242827
:10818800FCD101232370F9E72C28194D10D1194986
:10819800194801F00DFD48B9022364220021164850
:1081A800237001F0B0FC00232B70E7E70023F4E70D
:1081B8002B78114AD0540133F6E70A280C4A0FD11C
:1081C80000250D4815702570FFF756FF0B4B0A4820
:1081D80001221A7029466422BDE8384001F093BC98
:1081E80013780549C85401331370C7E71A1C0020D7
:1081F800181C0020F6A40200B41B00209B1C0020C1
:1082080013B504460C4800F01FF923784BB90DF15B
:108218000700FFF705FD9DF80700FFF7A7FF02B06D
:1082280010BD022B03D1054800F0CAFAF7E7012B6D
:10823800F5D10348F8E700BFFCA40200FEA4020041
:108248001CA5020000B50C228BB00523CDE905233F
:108258000723079300238DF820308DF821300B4B2E
:108268000B4A09930B4B00934FF48073CDE902231B
:1082780004900193084A0623694604A8FFF778FC8E
:1082880008B1FEF7A9F80BB05DF804FB00B01300C5
:10829800B41D0020B41C0020098202000369C168D3
:1082A8008B429DBF8268D21802F1FF3203F1FF337F
:1082B80094BF501A581A70472DE9F041D0E9026767
:1082C8000446F61B4068964288461546384405D948
:1082D80001F0F0FB3D44E560BDE8F0813246AD1B9E
:1082E80001F0E8FB2A4608EB0601606801F0E2FBB2
:1082F800F1E72DE9F843C5680646894617464FF069
:1083080000083469B3687068A54228BFE418013CC6
:10831800621B5C1BBC4228BF3C46944228BF1446E3
:1083280049462844224601F0C5FBB3682544AB42C0
:1083380008BF00253F1BA044A144F560E1D1404699
:10834800BDE8F88310B5114C114AA2610223C4E9B3
:108358000433104BE361A2644FF400730E4A2362A6
:10836800E264002310220D49A362E01D6362E36208
:10837800A3656365E365226501F0F8FB08492046BB
:1083880001F0F4FB2023A37110BD00BFB81E00202C
:1083980032A50200401F0020301F00203BA502002C
:1083A8003FA50200F8B5184C182300FB033503FB62
:1083B80000402544C46A012C0F46164611D003D349
:1083C800022C1BD000240AE02846FFF767FF8642EC
:1083D80005D8324639462846FFF76EFF3446204610
:1083E800F8BD2846FFF75AFF8642344628BF0446A0
:1083F800224639462846FFF75FFFF0E72846BDE8E2
:10840800F840FFF776BF00BFB81E002073B50D4BCC
:108418001B7804460D4616460BB9FFF793FF02A8D2
:10842800002300F8013DFEF759FA32462946204656
:10843800FFF7B8FF04469DF80700FEF773FA2046D9
:1084480002B070BDB81E00200FB410B5A2B024ABA6
:10845800802153F8042B019302A801F01DFB80280A
:1084680004460ADD802202A90020FFF7CFFF20463C
:1084780022B0BDE8104004B070470028F7DD02467E
:10848800F1E7826810B504464068531C834205D85A
:1084980020688154A360E3680133E360D4E90132C2
:1084A8009A420BD121682069FFF7B0FFA368984270
:1084B80015BF4FF0FF330023E360A36010BD000039
:1084C8002DE9F84F9A46DDE90A4390460646894663
:1084D8000A46012742451DD2574538BF574613F073
:1084E800010B12D18CB19B0718D5BAF1000F0CBF44
:1084F80030252025A74208D229463046FFF7C1FF7C
:10850800F368002B04F1FF340ADAF368002B09DA68
:10851800BDE8F88FB2FBF8F20137DBE72025E9E781
:10852800002CE7D10125BAF1010F04D90AF1FF3A6D
:1085380008FB05F5F7E7B9FBF5F39845F8D9DFF837
:1085480044A0B9FBF5F330461AF8031005FB13995C
:10855800FFF797FFF368002B03DBB5FBF8F5002D59
:10856800EFD1BBF1000FD3D0002CD1D0A742CFD28E
:1085780020213046FFF785FFF368002B04F1FF3414
:10858800F2DAC5E746A502002DE9F04F9BB00AAB29
:108598000D46059340210023CDE90613CDE90830A7
:1085A800039016464FF00A0915F8011B00295CD004
:1085B80025294CD14FF0000B09E02D2B04D0302B8E
:1085C8000DD14BF0020B01E04BF0010B0D462B785F
:1085D8002B2B05F101010FD0EFD8232B0FD000244E
:1085E800294611F8013BA3F1300009280AD809FBF4
:1085F8000434303C0D46F3E74BF0040BE6E74BF050
:10860800080BE3E72E2B0FD10D464FF0000A284642
:1086180010F8011BA1F13007092F07D809FB0A132D
:10862800A3F1300A0546F2E74FF0000A284610F891
:10863800011B01F0FB07682F0546F8D0642936D0E6
:1086480009D8582926D063292CD025290AD105A86C
:10865800FFF717FF06E0732900F0988016D87029F5
:1086680000F0A480089B002B9EDA089B002B09DDF4
:10867800079A1AB10AA90398FFF7C8FEDDE907238C
:108688001344089308981BB0BDE8F08F752974D07F
:108698007829E7D13168CDE9004B081D3060534691
:1086A800102271E033681A1D32601978CFE73168FB
:1086B8000F68081D87EAE7713060A1EBE7714FF09A
:1086C8000108092941DCD04538BFD0462CB1002F1C
:1086D80002DB1BF0040F00D0013C1BF0020F02D09C
:1086E800BAF1000F04D01BF0010F01D1002C3CD1CE
:1086F80008990029B6DB002F3ADA7F422D2105A818
:10870800FFF7BFFE08990029ACDB0BF00301022933
:108718000FD1BAF1000F0CD1002C4FD0A04508D2D0
:10872800302105A8FFF7ADFE0899002904F1FF34B0
:10873800F2DA0899002995DBCDE9004B53460A2265
:10874800394605A8FFF7BCFE8CE791FBF9F108F163
:108758000108B6E7202105A8FFF793FE089900292C
:1087680004F1FF34C4DB002CC5D0A045F2D3BFE729
:108778001BF0040FC6D02B21C1E73168CDE9004BAF
:10878800081D306053460A220968DAE733681A1D63
:1087980032601C6814F8011B00293FF463AF05A878
:1087A800FFF76FFE089B002BF4DA5BE731680B1DBF
:1087B800336000220823CDE9003271E70024BBE7CB
:1087C8000EB403B503AB02AA53F8041B42F8043DE8
:1087D800FFF7DAFE02B05DF804EB03B070476DDF17
:1087E800704779DF70477DDF704764DF70472DE998
:1087F800F74F0C9CBDF834B02788002580468A4680
:1088080091462E46B8F80020B2420BDC35B12288DA
:10881800013AD21B92B2FF2A39D8DA55002003B0A8
:10882800BDE8F08FD8F8042052F826000190002205
:108838000DF1030101A8FFF7D8FF0028EFD19DF83B
:1088480003204A4521D12288002D14BF0020022090
:1088580002EB09010144594519DC3DB9013292B2D4
:10886800228003F802A022880132228022880DF19A
:1088780003011A4401A8FFF7B8FF0028CFD12188C7
:108888009DF803200A44228001250136BAE70C200E
:10889800C5E72DE9F341089CBDF824501746CDE9FA
:1088A800004502220646FFF7A2FF48B910223946C2
:1088B8003046CDE9084502B0BDE8F041FFF797BF63
:1088C80002B0BDE8F0812DE9F04F0023168813802F
:1088D80090F82D3085B007460D46144653B3082E40
:1088E80001D80C2026E102A8FFF779FF002840F004
:1088F800218113880822CA54238801339BB21B2282
:108908002380CA542088013080B2208006220DF1CD
:108918000901284401F0CEF823889DF80820063381
:108928009BB212F0FE0218BF01222380EA5423886A
:1089380001332380BB78FBB123880433B342D0D8FA
:1089480002A8FFF74EFF002840F0F4802388032296
:10895800EA54238801339BB219222380EA542388DE
:10896800BDF8082001339BB2E9182380EA54120AA3
:108978004A70238802332380FA789AB12388D91C55
:10898800B142AED80221E954238801339BB20121B8
:108998002380E95423880B449BB22380EA5423881C
:1089A8000B4423807A68AAB12388D91CB14298D88D
:1089B800022192F90020E954238801339BB20A214D
:1089C8002380E954238801339BB22380EA54238807
:1089D800013323803B89002B40F0A0803B8A5BB1A8
:1089E800CDE900462B460722032107F11000FFF7C7
:1089F80050FF002840F09E803B8B5BB1CDE90046DC
:108A08002B461522142107F11800FFF742FF002812
:108A180040F090803A6A002A40F08F80D7F824808E
:108A2800B8F1000F30D0B8F804302188981C8A1C9F
:108A38000244B2423FF655AFFE283FF652AF033329
:108A48006B54238801339BB2FF222380EA54238886
:108A580001339BB22380B8F80020EA54E918120ABF
:108A68004A702088023080B22080B8F804205AB1B9
:108A7800D8F8081000296AD0284401F01BF8238888
:108A8800B8F804201344238097F82C30002B40F0CA
:108A98009980387800284DD03B88012B57D0218801
:108AA8008A1CB2423FF61DAF012805D17B780233FC
:108AB8000B449E42FFF415AF023E761A04A9B6B2E3
:108AC80021F8086DA818FFF78EFE98BB3978BDF815
:108AD8000820022900F0BB807B78934202D3B2427F
:108AE80040F2B380012940F0B4809BB29E42C0F0AE
:108AF800B080ADF808300821BDF80830FE2B3FF6ED
:108B0800F0AE22880133AB542288013292B222801F
:108B1800A95422881344238000200BE0CDE90046A5
:108B28002B460622022107F10800FFF7B2FE0028B3
:108B38003FF454AF05B0BDE8F08FB4F800C00CF1B5
:108B48000603B3423FF6CDAE1188052901D80720A8
:108B5800F0E76FF4486E01EB0E039BB24FF27D3ED7
:108B68007345F4D95388052BF1D96FF44860181868
:108B780080B27045EBD94FF6FF70814203D0834233
:108B880001D09942E3D8052305F80C302388013336
:108B98009BB212212380E954238801339BB223809E
:108BA8001188E954E818090A4170238802339BB2F6
:108BB80023805288EA54E918120A4A70238802333B
:108BC80023802BE7BB6A002BC1D04FF000094FF080
:108BD8000C0A4FF0160B97F82C305FFA89F2934283
:108BE8007FF657AFB96A0AFB02F201EB0208B8F840
:108BF8000430981CFE283FF674AE208803332B54AB
:108C0800238801339BB2238005F803B023880133FE
:108C18009BB223808A5AEA54E918120A4A702088BB
:108C2800023080B22080B8F804205AB1D8F8081071
:108C380000298CD0284400F03DFF2388B8F8042090
:108C48001344238009F10109C5E7092154E7B24219
:108C5800FBD9ADF808604EE710DF704713B504463E
:108C680009496846FDF7B2FE019808B902B010BD7F
:108C7800D0E900312046984718B16846FDF7B0FEA4
:108C8800F2E71120F2E700BF5CA5020013B5044625
:108C980007496846FDF79AFE019B0BB902B010BD63
:108CA8002046D3E9002190476846FDF799FEF3E78F
:108CB80074A502000B4991F816335A09EC231341A5
:108CC800DB0706D5084B9A683AB94FF480030B6066
:108CD800704742F20200FDF77FBB1A6842F4800237
:108CE8001A60704700E100E0301A0020F7B5184F0D
:108CF8003C785CBB174E012520463570FFF7AEFF68
:108D0800112820D02046FFF7C1FF134B18680190A7
:108D180002A800F8054DFDF7E1FD104901A8FFF78D
:108D28009BFF0446B0FA80F0400938709DF80300B4
:108D3800FDF7F8FD3CB90A4B34701C70FFF7BAFF19
:108D48002846FFF7A3FF204603B0F0BD0824FAE742
:108D5800412100204021002056A50200FD630200A9
:108D680042210020014B1878704700BF41210020A4
:108D780007B508496846FDF729FE019B13B903B0FA
:108D88005DF804FBD3E9002090476846FDF728FE0C
:108D9800F3E700BF68A50200FFF7EABF60DF70478E
:108DA80069DF704761DF704730B5114B1B7891B0B0
:108DB800E3B1104D34240DF1020103A8ADF80240CF
:108DC800FFF7F0FF70B9294601A8FDF7FFFD029BE8
:108DD800002BF0D003A8D3E90021904701A8FDF7A4
:108DE800FFFDF4E7052801D0FDF7F6FA11B030BD14
:108DF8004321002080A502007FB504460D460029C6
:108E08004FD0294B0B600C22002101A800F07BFEFB
:108E1800012606232A68ADF8083001A920208DF81C
:108E280004408DF80660FFF7BBFF0C22002101A863
:108E3800002400F068FE2A688DF8054001A940204A
:108E48008DF806408DF80740FFF7AAFF0C2221464F
:108E580001A800F058FE2A688DF8044001A93046A0
:108E6800FFF79EFF0C22214601A800F04CFEF823D4
:108E78002A68019301A9A120FFF792FF0C2221463D
:108E880001A800F040FE9DF804302A6864F300034E
:108E980001A9A0208DF80430FFF782FF204604B016
:108EA80070BD0E20FBE700BFA818002008B5FFF72B
:108EB80075FF10B9014B01221A7008BD432100202B
:108EC8004BDF70471FB50D4C01A8FFF7F9FF70B9CC
:108ED800214602A8FDF77AFD039B002BF4D00198E8
:108EE800D3E90021904702A8FDF77AFDF4E70528A9
:108EF80001D0FDF771FA04B010BD00BF8CA50200C7
:108F0800004204BF0146704710F000424FEA125277
:108F180042F4806242F01D0200D54042B0FA80F16E
:108F28008840521AC30A400503EB0251704781F08A
:108F3800004183F0004383F00043F0B491EA030F4B
:108F480000F18E80841A71EB030603D21219734163
:108F5800001BB1414FF07F4646F4600616EA410F08
:108F680008BF62E0B6EB410F98BF69E04FEA1154C1
:108F7800A4EB1357B14341F4801116EA430F07BF1E
:108F880000230022B34343F48013D7F1200634D3DF
:108F980003FA06F5401941F1000122FA07F54019D4
:108FA80023FA07F541EB050102FA06F211F4001F56
:108FB80019D121F4801101EB0451F0BCB2F1004F3A
:108FC80008BF10EA500F50F1000041F100014FF0C6
:108FD8007F4343F46003B3EB410F88BF7047090D2B
:108FE80009050020704749085FEA30005FEA32024D
:108FF80028BF42F001020134DBE7203F402F19D29D
:1090080023FA07F5401941F10001C7F12006124281
:1090180018BF012203FA06F52A43C7E711EA560FDB
:1090280004BF00200021F0BC704701F0004100207F
:10903800F0BC704721F4801101EB0451F0BC70477B
:10904800004218BF41F00101B6EB410F04BFF0BC6C
:1090580070474FF0FE4141F478010020F0BC7047A2
:1090680083F00043841A71EB030705D287F00047A9
:10907800001BB94112197B415FF07F4656F4600628
:1090880016EA430FCAD0B6EB410F40F28C800C0DA4
:10909800A4EB1357C90241EA5051C00241F0004104
:1090A800DB0243EA5253D20243F00043D7F12006D1
:1090B8005AD302FA06FCFA4003FA06F52A43FB40A3
:1090C8001CEA0C0F18BF42F00102801A9941E30A0A
:1090D8006405640D11F0404F2ED427D1002902BF3A
:1090E80001460020203C00295BD0B1F5803F3FBFFE
:1090F800103C090441EA10410004B1F1807F3FBFF0
:10910800083C090241EA10610002B1F1805F3FBFEB
:10911800043C090141EA1071000111F0404F01BF00
:10912800023C890041EA9071800009425FBF013C1E
:10913800490041EAD0714000002C11DD420521F0C0
:109148000041C00A40EA4150C90A41EAC3714608D1
:1091580072F1004250F1000051EB0451F0BC70472D
:109168000020D907F0BC7047A7F12007202F0CD2A8
:10917800C7F1200603FA06F5FB402A4318BF43F05F
:109188000103C01A61F10001A1E721F00041C00A02
:1091980040EA4150C90A01EB0451F0BC7047002075
:1091A8000021F0BC7047004218BF41F00101B6EB46
:1091B800410F7FF44EAFB6EB430F3FF44AAFF0BC1C
:1091C80070470000F0B5574F81EA030517EA010E12
:1091D8001EBF9EEA070F17EA030494EA070F64D03C
:1091E8004EEAD57EA64421EA470141F4801123EADC
:1091F800470343F48013A1FB0247A0FB036536191C
:109208007D41A1FB034747F10003A0FB0217F619B4
:10921800654153F10003094218BF46F001061427BF
:10922800B3F5007F47F1000734BF3F4A3F4ABEEB22
:10923800020E31D4C7F1200403FA04F105FA04F050
:1092480025FA07F2114326FA07F2104316FA04F436
:1092580021F480114FEA5E0741EA47010AD0B4F1D0
:10926800004F50F1000041F10001B4F1004F08BF78
:1092780020F001002B4F1EEA070F10D041EACE71F3
:10928800BE453CBFBDE8F04070472649002041EA92
:10929800CE71BDE8F04070471EEB020EF5D44FEAE0
:1092A800CE710020BDE8F0407047394204BF01F09C
:1092B80000410020004218BF41F001013B4204BFB9
:1092C80003F000430022124218BF43F0010307EAEB
:1092D8000304BC4218BF9EEA070F05D005F0004101
:1092E8000020BDE8F040704721F0004123F0004322
:1092F800B9420FD8BB420DD8002918BF002B09D09E
:1093080005F0004141F0FE4141F470010020BDE844
:10931800F04070474FF0FE4141F478010020BDE86D
:10932800F04070470000F07F0000F03F0000E03F91
:10933800F0B581EA030E0EF0004E814F17EA4105A1
:109348001EBF95EA070F17EA430494EA070F00F0D7
:10935800C5806D0DA5EB545707F580674FF00046A3
:1093680046EAC12444EA5054C00246EAC32343EA09
:109378005253D202801A9C4104D2001864418018CA
:109388005C41013F5B084FEA32020025002140F0B2
:1093980001004FF0070604E0801A9C4136D3404193
:1093A8006441801A9C4136D340416441801A9C41F3
:1093B80036D340416441801A9C4136D340416441D0
:1093C800801A9C4136D340416441013E17D0801A2F
:1093D8009C4136D340416441801A9C4136D3404178
:1093E8006441801A9C4136D340416441090201EB33
:1093F80015612D02454020F0FF004540CCE7801A5A
:109408009C4156D335E080185C41C8D200186441AD
:1094180080185C41C8D20018644180185C41C8D2E9
:109428000018644180185C41C8D200186441801853
:109438005C41C8D200186441013E17D080185C41D5
:10944800C8D20018644180185C41C8D20018644131
:1094580080185C41C8D200186441090201EB15610B
:109468002D02454020F0FF004540CCE780185C41C4
:109478001FD3420918BF44F00104490101EBD5612B
:1094880000F01F0000EB451021F4801141EA0E01A5
:10949800013041F10001244208BF20F00100B7F576
:1094A800006F3EDA013F49DD01EB0751BDE8F040AE
:1094B8007047490101EBD56100F01F0000EB451032
:1094C80021F4801141EA0E01B7F5006F29DA013F56
:1094D80034DD01EB0751BDE8F0407047004218BF8A
:1094E80041F00101124218BF43F00103B7EB410FED
:1094F8002CBFB7EB430F1CE0B7EB410F04BFB7EB32
:10950800430F16E017EA410F04BF17EA430F10E0B4
:1095180017EA410F12D017EA430F02D0B7EB430FF7
:109528000CD04EF0FE4141F470010020BDE8F0403F
:1095380070474FF0FE4141F47801F6E77146F4E7D1
:109548000000E0FF7F2805D8034B185C034B5B5CE9
:10955800184070470020704798A5020018A602001E
:10956800A0F16103192B98BF20387047A0F141037F
:10957800192B98BF203070477F2805D8034B185CFB
:10958800034B5B5C184070470020704798A50200A9
:1095980018A60200A0F16103192B98BF2038704764
:1095A800A0F14103192B98BF203070477F299ABF3B
:1095B800017001206FF02E0070475AB10A787F2A97
:1095C8000AD800B10260002119605960501A18BF0A
:1095D80001207047002070476FF02E00704738B5A3
:1095E80004460846A26842B1236861685D1C8D4242
:1095F80008BF00208B4208D2D054E3682BB1216801
:109608006268914201D2214698472368013323605A
:1096180038BD70B54C1E09D41646C5B22946304629
:10962800FFF7DDFF013CB4F1FF3FF7D170BD10F04B
:10963800100F09D108B500F40070002814BF3020BD
:109648002020FFF7E6FF08BD7047000008B5034B70
:109658005B689B681B68984708BD00BFF818002026
:1096680008B50721FFF7F2FF08BD08B50621FFF787
:10967800EDFF08BD08B50421FFF7E8FF08BD38B5C0
:1096880004460D46FFF7F6FF30B1A4F13000A842BA
:10969800A8BF4FF0FF3038BD2046FFF7E6FF10B1F6
:1096A800A4F15700F3E72046FFF7DAFF10B1A4F161
:1096B8003700ECE74FF0FF30E9E708B50821FFF77E
:1096C800C5FF08BD00B5FCF783FE024B18445DF8E2
:1096D80004FB00BF0C0000002DE9F04F83B001909F
:1096E8008B469246064600E02646344614F8015B4F
:1096F800DDB12846FFF7E1FF0028F5D1302D14D160
:10970800B41C757805F0DF03582B06D0BAF1000FAA
:109718004DD14FF0010A08260BE03AF0100342D170
:10972800F41CB5789A46102603E0BAF1000F05D16B
:109738000A264FF000084746C14614E056464FF047
:10974800000AF6E708FB06084FEA184307FB063746
:109758001FFA88F8B7F5803F28BF4FF0010914F8C1
:10976800015B4FF0010A31462846FFF788FF0028C1
:10977800E8DABBF1000F07D0BAF1000F01D0631E81
:109788000193019BCBF80030B9F1000F04D148EAEE
:10979800074003B0BDE8F08FFFF794FF2223036072
:1097A8004FF0FF30F5E756464FF0010AC1E756463D
:1097B8004FF0010ABDE70EB400B586B007AA52F80B
:1097C800041B05920390002304936FF00043029357
:1097D80001A800F045FA06B05DF804EB03B0704745
:1097E800037843B1CAB2934209D010F8013F13B1CC
:1097F8009342FAD17047C9B2002918BF00207047B8
:1098080003784BB151B10144034613F8012F0AB153
:109818008B42FAD1181A70470346FBE70346F9E76B
:1098280070B50E46044668B1217841B13046FFF75D
:10983800D7FF034658B114F8011F0029F6D10023B9
:10984800184670BDFCF7C4FD104B1C58ECE7217896
:109858000029F5D025463046FFF7C2FF48B915F86C
:10986800011F0029F7D1FCF7B3FD084B1D50234613
:10987800E6E72B78002BF6D0002305F8013BFCF730
:10988800A7FD024B1D502346DAE700BF0800000081
:109898002DE9F04782B0804689469246064600E0A8
:1098A8002646344614F8015B002D3BD02846FFF7C6
:1098B80004FF07460028F3D12B2D10D02D2D31D1D0
:1098C800524601A92046FFF707FFB9F1000F20D142
:1098D8004342002B1FDC184602B0BDE8F087524611
:1098E80001A92046FFF7F8FEB9F1000F07D0019B48
:1098F800A34208BF4346C9F80030002FE8D1034609
:109908000028E8DAFFF7DEFE222303606FF0004349
:10991800E1E70127EBE7FFF7D5FE222303604FF0CD
:109928000043D8E7524601A93046FFF7D5FEB9F102
:10993800000FE4D034460027D9E738B50446FFF7CE
:10994800C1FE05680A2200212046FFF7A1FF044650
:10995800FFF7B8FE0560204638BD00002DE9F84F36
:1099680005462C4601352078FFF7A7FE0028F8D1D8
:1099780023782D2B09D02B2B0AD000250026002771
:109988004FF00008DFF80C9118E02C460125F5E7A8
:1099980001340025F2E742464B4630463946FFF788
:1099A80011FC06460F4614F8010C3038FFF7A8FAE8
:1099B80032463B46FFF7C1FA06460F46A346013436
:1099C8009BF80000FFF756FE82460028E3D19BF87B
:1099D80000302E2B24D09BF8003003F0DF03452BFA
:1099E80045D10BF10100FFF7A8FF8244BAF1000F3F
:1099F8003DDA4FF00008DFF89C9042464B4630466F
:109A08003946FFF795FC06460F461AF1010AF4D1CC
:109A180015B107F100431F4647EC106BBDE8F88FFE
:109A28004FF00008DFF86C9014E042464B46304691
:109A38003946FFF7C7FB06460F469BF8000030384B
:109A4800FFF75EFA32463B46FFF777FA06460F46BF
:109A58000AF1FF3A1BF8010FFFF70CFE0028E4D1CA
:109A68009BF8003003F0DF03452BBFD1B9E7BAF10B
:109A7800000FCDDD4FF00008DFF8189042464B4646
:109A880030463946FFF79EFB06460F46BAF1010AF3
:109A9800F4D1BDE70000244010B584B0144602900C
:109AA8000022039201911A462146684600F0D8F830
:109AB80004B010BD844640EA010313F0030F18D127
:109AC8008446202A0BD32DE9F007B1E8F807A0E86F
:109AD800F807A2F12002202AF7D2BDE8F007042AED
:109AE80007D351F8043B40F8043BA2F10402042ACE
:109AF800F7D2002A05D011F8013B00F8013B013AE2
:109B0800F9D1604670478446002A2DD010F0030F23
:109B180004D000F8011B013A26D0F7E7C9B241EAA0
:109B2800012141EA0141202A12D3A2F120022DE9A4
:109B3800F0030B460C460D460E460F4688468946EE
:109B4800A0E8FA03203AFBD2BDE8F00320320BD09C
:109B5800042A05D340F8041B043A05D0042AF9D294
:109B680000F8011B013AFBD160467047024610F02D
:109B7800030F16D111F0030F13D12DE9F0004FF0A8
:109B880001374FF0803351F8044BA4EB070525EA61
:109B980004051D4002D142F8044BF4E7A1F1040189
:109BA800F0BC11F8013B02F8013B002BF9D17047DA
:109BB80010F0030F19D111F0030F16D12DE9700021
:109BC8004FF001364FF0803350F8044B51F8045BE6
:109BD800AC4205D1A4EB060525EA04051D40F3D0E7
:109BE800A0F10400A1F1040170BC10F8012B11F8D8
:109BF800013BD21A01D1002BF7D11046704700F172
:109C0800010110F0030F11D010F8012B002A23D006
:109C180010F0030F0AD010F8012B002A1CD010F006
:109C2800030F03D010F8012B002A15D02DE970007E
:109C38004FF001324FF0803350F8044BA4EB02058B
:109C480025EA04051D4000D1F6E7A0F1040070BC28
:109C580010F8012B002AFBD1A0EB0100704700008F
:109C68002DE9F04F89B080460F4603920023036028
:109C7800DFF81CA680E3002502E045F040052646F3
:109C8800344614F8010BA0F120033E2B00F2948017
:109C980001A252F823F000BF839C0200C19D02007C
:109CA800C19D02009D9D0200C19D0200C19D020050
:109CB800C19D0200A39D0200C19D0200C19D02003A
:109CC800C19D0200AF9D0200C19D0200B59D02002A
:109CD800C19D0200C19D0200BB9D0200C19D020002
:109CE800C19D0200C19D0200C19D0200C19D0200EC
:109CF800C19D0200C19D0200C19D0200C19D0200DC
:109D0800C19D0200C19D0200C19D0200C19D0200CB
:109D1800C19D0200C19D0200C19D0200C19D0200BB
:109D2800C19D0200C19D0200C19D0200C19D0200AB
:109D3800C19D0200C19D0200C19D0200C19D02009B
:109D4800C19D0200C19D0200C19D0200C19D02008B
:109D5800C19D0200C19D0200C19D0200C19D02007B
:109D6800C19D0200C19D0200C19D0200C19D02006B
:109D7800C19D0200C19D0200C19D0200C19D02005B
:109D8800C19D0200C19D0200C19D0200C19D02004B
:109D9800A99D020045F0800571E745F400456EE78E
:109DA80045F480556BE745F0200568E745F0100558
:109DB80065E745F4007562E72A2814D0A0F130035E
:109DC800DBB2092B0DD8002101EB8101303800EB03
:109DD800410114F8010BA0F13003DBB2092BF3D9D0
:109DE8000CE000210AE0039B1A1D03921968002960
:109DF800BCBF494245F01005B41C707821EAE176F1
:109E08002E280FD00021742830D07A282ED06C2824
:109E180000F0AC804C2800F0AE80682800F0BB80D1
:109E2800274625E020782A2815D00134A0F13003F0
:109E3800DBB2092B0DD8002101EB8101303800EB92
:109E4800410114F8010BA0F13003DBB2092BF3D95F
:109E580007E0002107E0039B1A1D03921968607848
:109E680002340029CFDB45F48075CCE7671C2078E5
:109E7800782800F29C80DFE810F05C029A009A00D3
:109E88009A009A009A009A009A009A009A009A00FA
:109E98009A009A009A009A009A009A009A009A00EA
:109EA8009A009A009A009A009A009A009A009A00DA
:109EB8009A009A009A009A009A009A009A009A00CA
:109EC8009A009A009C009A009A009A009A009A00B8
:109ED8009A009A009A009A009A009A009A009A00AA
:109EE8009A009A009A009A009A009A009A009A009A
:109EF8009A009A009A009A009A009A009A009A008A
:109F08009A009A009A009A009A009A009A009A0079
:109F18009A009A009A009A009A009A009A009A0069
:109F28009A009A009A009A009A000A019A009A00E8
:109F38009A009A009A009A009A009A009A009A0049
:109F4800A10047019A009A009A009A0047019A00D6
:109F58009A009A009A00BA003401F3009A009A0015
:109F6800CD009A0040019A009A000C01671C2078E5
:109F780045F001057CE745F00105C14B1F68002F3E
:109F880000F0C58103AB0193009133462A46414650
:109F9800B8472746F0E12078682803D0671C45F0C9
:109FA800040565E745F00805A71C607860E73C46AE
:109FB800E3E725214046FFF712FBDDE1039B1A1D6D
:109FC80003921C78013E424631462846FFF72FFB94
:109FD80021464046FFF703FBA94619F0100F00F091
:109FE800CB81424631462020FFF713FBC4E115F030
:109FF800080F07D0D8F80020039B191D03911B6890
:10A008001A70B9E1039B1A1D03921B68D8F8002047
:10A018001A60B1E1039B1A1D03921868994B002836
:10A0280008BF1846044625F4007915F4807F13D03C
:10A03800FFF7E6FB0546761B424631464846FFF7E2
:10A04800F6FA002DC9D0254414F8011B4046FFF745
:10A05800C6FAA542F8D1C0E7FFF7D1FD0546EAE701
:10A06800039B1A1D03921B6805F08002002A0CBF8F
:10A078000024232445F480750821002B00F02D814D
:10A088004FF0000905F4005005AA8E46D4E045F4C7
:10A09800005515F0800F22D043F2780443F258039C
:10A0A800782818BF1C4615F4807F01D025F4007568
:10A0B80015F4804F36D0039B1A1D03921B6815F0C8
:10A0C800040F27D01BB2002B29DB15F0200F40F01E
:10A0D800868005F04002002A18BF20242AE00024C8
:10A0E800E1E705F08003002B0CBF0024302415F4B1
:10A0F800807FDDD025F40075DAE715F4807F07D07E
:10A1080025F400750024D3E745F480450024CFE703
:10A118000024CDE715F0080F18BFDBB2D3E75B4288
:10A128002D2407E0039B1A1D03921B6815F0040FEA
:10A1380050D09BB215F4807F14BF25F4007501211F
:10A148005838202800F2C68001A252F820F000BF3B
:10A1580083A00200DDA20200DDA20200DDA202004F
:10A16800DDA20200DDA20200DDA20200DDA20200E3
:10A17800DDA20200DDA20200DDA20200DDA20200D3
:10A188000DA20200DDA20200DDA20200DDA2020093
:10A19800DDA202000DA20200DDA20200DDA2020083
:10A1A800DDA20200DDA20200DDA20200EBA1020096
:10A1B80083A00200DDA20200DDA20200DDA20200EF
:10A1C800DDA202000DA20200DDA20200DDA2020053
:10A1D80083A0020015F0080FACD0DBB2AAE72B244D
:10A1E800A8E763B105A84FF0000903F00702303271
:10A1F80000F8012B09F10109DB08F6D127E04FF03F
:10A20800000924E053B14FF0000905F4004C4FF069
:10A218002C0E9B4663468C4619464CE04FF00009CD
:10A2280015E003F00F0C184911F80CC009F802C02A
:10A2380009F101091B0909D00028F2D003F00F0C1D
:10A24800124911F80CC009F802C0F1E77146A1EBF8
:10A25800090B2BEAEB7BA6EB0B06A6EB0906FF2CFA
:10A2680088BF06F1FF36002C66D0013E15F4007F4A
:10A2780036D0FF2C3ED8E1B24046FFF7B0F95EE099
:10A2880044210020F8A70200D8A70200E8A702008E
:10A29800CDCCCCCC08AB03EB0900AAFB0B32D2081F
:10A2A80002EB8203ABEB4303303300F80C3C09F1BB
:10A2B8000109934662B10029ECD009F00303032B8E
:10A2C800E8D108AB4B4403F80CEC09F10109E1E7CC
:10A2D8006146BCE74FF00009B9E74FF00009B6E75F
:10A2E800424631462846FFF7A2F9FF2C01D800263E
:10A2F80005E00026C4F307214046FFF770F9F4B1E2
:10A30800B9E7424631462020FFF783F934E0274673
:10A3180032E0D8F808303BB1D8F80020D8F804105B
:10A328008A423CBF00219954D8F8000009B0BDE822
:10A33800F08F4FF0FF30F9E715F4007FD0D0424698
:10A3480031462846FFF773F9424659463020FFF751
:10A3580060F9B9F1010F0CD408AB9944A9F10D09C2
:10A368000DF1130419F801194046FFF738F94C4567
:10A37800F8D115F0100FC4D17E1C39780029C8D047
:10A3880025293FF478AC4046FFF729F93746F3E72B
:08A39800156D02000000000039
:10A3A000B18D020000000000CD8E02000000000010
:08A3B000916D020000000000A5
:10A3B80000000000000000000338FDD870470000CE
:10A3C800A0A30200A0A3020004000000FFFFFFFFFB
:10A3D800FFFFFFFFFFFFFFFFFFFFFFFF0000000081
:10A3E800000000000000D601060100000000000087
:10A3F80000000000000000000338FDD8704700008E
:10A40800901B002074727920746F207475726E200E
:10A418006F6E206770730A00616C726561647920E1
:10A4280077616B6575700A00475053206973204F38
:10A4380046460A0041505020737461727465642E58
:10A448000A000954696D65722048616E646C657212
:10A458000A0057616974696E672047505320666F18
:10A468007220696E697469616C206669780A006790
:10A4780070732069732048696265726E6174652F14
:10A488005374616E646279200A006770732069737F
:10A49800204F4E0A00092041647665727469736919
:10A4A8006E6720737461727465640A0009206164C0
:10A4B800766572746973696E672073746F707065FE
:10A4C800640A002C0025732C25732C25732C257306
:10A4D800004E0053004750532044415441203D2032
:10A4E80025732074696D65203D2025730A00475047
:10A4F800474741002E004150505F554152545F4339
:10A508004F4D4D554E49434154494F4E5F45525268
:10A518004F520A004150505F554152545F464946D8
:10A528004F5F4552524F52200A005465726D696E52
:10A53800616C00525454005345474745520030312E
:10A5480032333435363738394142434445460200C0
:10A5580000010000B0A30200B0A302000800000040
:10A56800A0A30200B0A3020008000000B0A30200EC
:10A57800B8A3020008000000A0A30200A0A30200E4
:10A588000800000098A30200A0A302000800000031
:10A59800202020202020202020682828282820204B
:10A5A80020202020202020202020202020202020A3
:10A5B800481010101010101010101010101010105B
:10A5C80084848484848484848484101010101010FB
:10A5D8001081818181818101010101010101010154
:10A5E8000101010101010101010101101010101008
:10A5F8001082828282828202020202020202020225
:10A6080002020202020202020202021010101020CC
:10A6180000070320041702010857104080000000BB
:10A62800CCA7020090A60200A4A7020053756E00F2
:10A638004D6F6E0054756500576564005468750069
:10A648004672690053617400000000004A616E00A0
:10A65800466562004D617200417072004D6179007B
:10A668004A756E004A756C00417567005365700045
:10A678004F6374004E6F760044656300000000006D
:10A68800414D00504D000000C8A70200C4A70200B9
:10A69800C4A70200C4A70200C4A70200C4A70200FE
:10A6A800C4A70200C4A70200C4A70200C4A70200EE
:10A6B800FFFFFFFFFFFFFFFFFFFFFFFFFFFF0000A0
:10A6C80004A7020034A6020040A7020054A6020014
:10A6D80088A60200E8A6020098A70200F4A60200D5
:10A6E800256D2F25642F2579000000002561202580
:10A6F80062202565202554202559000053756E6475
:10A708006179004D6F6E6461790054756573646199
:10A7180079005765646E6573646179005468757271
:10A728007364617900467269646179005361747574
:10A7380072646179000000004A616E756172790087
:10A748004665627275617279004D61726368004195
:10A758007072696C004D6179004A756E65004A75C2
:10A768006C79004175677573740053657074656D15
:10A77800626572004F63746F626572004E6F766532
:10A788006D62657200446563656D62657200000004
:10A7980025483A254D3A2553000000004D95020002
:10A7A8006995020075950200819502009D95020049
:10A7B800A9950200B5950200C395020000000000AB
:10A7C8002E00000043000000504F5349580000007D
:10A7D800303132333435363738396162636465660F
:10A7E80030313233343536373839414243444546BF
:08A7F800286E756C6C2900004D
:10A800000090D00300000000002000400000000085
:10A810000020004000000000701B00201F0000000E
:10A820000000000000000000FF59414848490000B6
:10A830000000000000000000000000000000000018
:10A8400000000000474F000100000000040000006D
:10A8500028A6020028A6020028A6020028A60200B8
:04A8600028A6020024
:0400000320006379FD
:00000001FF
