:100000000000012079030000610300006303000089
:1000100065030000670300006903000000000000A2
:100020000000000000000000000000006B03000062
:100030006D030000000000006F030000710300006A
:1000400073030000730300007303000073030000D8
:1000500073030000730300007303000073030000C8
:1000600073030000730300007303000073030000B8
:1000700073030000730300007303000073030000A8
:100080007303000073030000730300007303000098
:100090007303000073030000730300007303000088
:1000A0007303000073030000730300007303000078
:1000B0007303000073030000000000000000000054
:1000C0007303000073030000730300007303000058
:1000D00073030000730300007303000000000000BE
:1000E0000000000000000000000000000000000010
:1000F0000000000000000000000000000000000000
:1001000000000000000000000000000000000000EF
:1001100000000000000000000000000000000000DF
:1001200000000000000000000000000000000000CF
:1001300000000000000000000000000000000000BF
:1001400000000000000000000000000000000000AF
:10015000000000000000000000000000000000009F
:10016000000000000000000000000000000000008F
:10017000000000000000000000000000000000007F
:10018000000000000000000000000000000000006F
:10019000000000000000000000000000000000005F
:1001A000000000000000000000000000000000004F
:1001B000000000000000000000000000000000003F
:1001C000000000000000000000000000000000002F
:1001D000000000000000000000000000000000001F
:1001E000000000000000000000000000000000000F
:1001F00000000000000000000000000000000000FF
:10020000364937480A1A02D0072291438D463549AC
:1002100035480A1A06D00722914381F30988022241
:1002200082F3148831483249324A00F045F83248A6
:100230003249334A00F040F832483349334A00F03B
:100240003BF833483349344A00F036F833483449F0
:10025000344A00F031F834483449354A00F02CF87B
:1002600034483549354A00F027F8354835490022E9
:1002700000F02DF834483549002200F028F83448C1
:100280003449091A082903DB0022026004300160A6
:10029000314A90471F482049884205D002680430FF
:1002A00003B4904703BCF7E700208646EC460020E5
:1002B00000212A4A9047FEE7884207D0521A05D00B
:1002C000037801300B700131013AF9D1704788424F
:1002D00002D002700130FAE77047000000000120F0
:1002E00000E000200000012000000120280700009D
:1002F0000000002004000020D8030000D803000004
:100300002007000028070000000000200000002057
:100310002007000020070000200700002007000041
:100320002007000020070000200700002007000031
:10033000260700002C070000040000200400002015
:10034000040000200400002004000020040000201D
:100350000400002004200020A1030000F903000095
:10036000FEE7FEE7FEE7FEE7FEE7FEE7FEE7FEE765
:10037000FEE7FEE7704700BF1048804710484FF087
:100380000701884385460F4880470F48016841F4BC
:1003900070010160BFF34F8FBFF36F8FFFF730BF66
:1003A0000A480B490B4A884207D0521A05D00378F5
:1003B00001300B700131013AF9D17047750300002B
:1003C00000000120C504000088ED00E020070000C7
:0803D0000000002000000020E5
:1003D8004FF0A0420123D2F8041503FA00F020EAF6
:1003E80001030840C2F80835C2F80C057047000040
:1003F80008B54FF0A0430322C3F85027C3F8682775
:10040800C3F874274FF48012C3F80C250D4C4FF035
:100418008062C3F80C254FF00052C3F80C2544F055
:1004280001041420FFF7D4FF1A20FFF7D1FF1D2085
:10043800FFF7CEFF4FF47A754FF47A40A047013D9D
:10044800FAD1EEE7200700000C4B1B78062B10D1E1
:100458000B4B1B681A070CD10A4B186800F0F00305
:10046800302B08D000F0E000A0F14003584258417A
:100478007047002070470120704700BFE00F00F070
:10048800E40F00F0E80F00F0094B1B78062B0CD1A5
:10049800084B1B681A0708D1074B186800F0F000D2
:1004A800A0F130035842584170470020704700BF00
:1004B800E00F00F0E40F00F0E80F00F008B5FFF7D8
:1004C800C3FF28B17D4B7E4A1B68C3F30423136026
:1004D800FFF7DAFF10B17B4B7B4A1A60FFF7B4FFD6
:1004E80028B17A4B7A4A1B68C3F342331360FFF78B
:1004F800CBFF20B1774AD36823F08073D360FFF72E
:10050800A3FF40B14FF080430022C3F80C21C3F889
:100518001021C3F83825FFF7B7FF10B16E4B03223F
:100528001A60FFF7B1FF40B16C4B05221A60012237
:100538009A6700229A603F225A60694B1B78062B03
:1005480050D1684B1B6819074CD1674B1B6803F0E7
:10055800F003502B46D14FF08052644BD2F804146C
:10056800C3F82015D2F80814C3F82415D2F80C14CF
:10057800C3F82815D2F81014C3F82C15D2F814149F
:10058800C3F83015D2F81814C3F83415D2F81C146F
:10059800C3F84015D2F82014C3F84415D2F824142F
:1005A800C3F84815D2F82814C3F84C15D2F82C14FF
:1005B800C3F85015D2F83014C3F85415D2F83414CF
:1005C800C3F86015D2F83814C3F86415D2F83C148F
:1005D800C3F86815D2F84014C3F86C15D2F844244F
:1005E800C3F87025FFF730FF28B1414B414A1B681B
:1005F80003F04F031360FFF727FF48B14FF0804324
:10060800D3F80024D20744BF6FF00102C3F80024D6
:10061800394B1B68062B08D1384B1B68062B01BFCA
:10062800374A136843F480631360364AD2F8883037
:1006380043F47003C2F88830BFF34F8FBFF36F8F56
:100648004FF01023D3F80022002A03DBD3F804323A
:10065800002B2FDA2C4B0122C3F80425D3F80024F1
:10066800002AFBD04FF010221521C2F80012D3F84F
:100678000024002AFBD04FF010231522C3F80422CF
:10068800214B1A46D3F800140029FBD00021C3F8E7
:100698000415D2F80034002BFBD0BFF34F8F194953
:1006A8001A4BCA6802F4E0621343CB60BFF34F8F62
:1006B80000BFFDE7164B174A1A6008BD2403001057
:1006C8004035014074C007400DF0ADBA4402001037
:1006D8003C050040F0ED00E0A00500401056004049
:1006E800E00F00F0E40F00F0E80F00F000C0004059
:1006F80058020010E40E00403001001034010010D0
:100708003C17004000ED00E000E001400400FA055D
:08071800000000200090D00356
:060720000338FDD870470C
:040728000090D0036A
:04000003000003797D
:00000001FF
